{
	"contracts/Events-Solution.sol": {
		"EventExample": {
			"abi": [
				{
					"anonymous": false,
					"inputs": [
						{
							"indexed": true,
							"internalType": "address",
							"name": "user",
							"type": "address"
						},
						{
							"indexed": false,
							"internalType": "string",
							"name": "username",
							"type": "string"
						}
					],
					"name": "NewUserRegistered",
					"type": "event"
				},
				{
					"inputs": [
						{
							"internalType": "string",
							"name": "_username",
							"type": "string"
						},
						{
							"internalType": "uint256",
							"name": "_age",
							"type": "uint256"
						}
					],
					"name": "registerUsers",
					"outputs": [],
					"stateMutability": "nonpayable",
					"type": "function"
				},
				{
					"inputs": [
						{
							"internalType": "address",
							"name": "",
							"type": "address"
						}
					],
					"name": "users",
					"outputs": [
						{
							"internalType": "string",
							"name": "username",
							"type": "string"
						},
						{
							"internalType": "uint256",
							"name": "age",
							"type": "uint256"
						}
					],
					"stateMutability": "view",
					"type": "function"
				}
			],
			"devdoc": {
				"kind": "dev",
				"methods": {},
				"version": 1
			},
			"evm": {
				"assembly": "    /* \"contracts/Events-Solution.sol\":58:806  contract EventExample {... */\n  mstore(0x40, 0x80)\n  callvalue\n  dup1\n  iszero\n  tag_1\n  jumpi\n  0x00\n  dup1\n  revert\ntag_1:\n  pop\n  dataSize(sub_0)\n  dup1\n  dataOffset(sub_0)\n  0x00\n  codecopy\n  0x00\n  return\nstop\n\nsub_0: assembly {\n        /* \"contracts/Events-Solution.sol\":58:806  contract EventExample {... */\n      mstore(0x40, 0x80)\n      callvalue\n      dup1\n      iszero\n      tag_1\n      jumpi\n      0x00\n      dup1\n      revert\n    tag_1:\n      pop\n      jumpi(tag_2, lt(calldatasize, 0x04))\n      shr(0xe0, calldataload(0x00))\n      dup1\n      0x361bf5f6\n      eq\n      tag_3\n      jumpi\n      dup1\n      0xa87430ba\n      eq\n      tag_4\n      jumpi\n    tag_2:\n      0x00\n      dup1\n      revert\n        /* \"contracts/Events-Solution.sol\":445:804  function registerUsers(string memory _username, uint256 _age) public {... */\n    tag_3:\n      tag_5\n      0x04\n      dup1\n      calldatasize\n      sub\n      dup2\n      add\n      swap1\n      tag_6\n      swap2\n      swap1\n      tag_7\n      jump\t// in\n    tag_6:\n      tag_8\n      jump\t// in\n    tag_5:\n      stop\n        /* \"contracts/Events-Solution.sol\":397:434  mapping(address => User) public users */\n    tag_4:\n      tag_9\n      0x04\n      dup1\n      calldatasize\n      sub\n      dup2\n      add\n      swap1\n      tag_10\n      swap2\n      swap1\n      tag_11\n      jump\t// in\n    tag_10:\n      tag_12\n      jump\t// in\n    tag_9:\n      mload(0x40)\n      tag_13\n      swap3\n      swap2\n      swap1\n      tag_14\n      jump\t// in\n    tag_13:\n      mload(0x40)\n      dup1\n      swap2\n      sub\n      swap1\n      return\n        /* \"contracts/Events-Solution.sol\":445:804  function registerUsers(string memory _username, uint256 _age) public {... */\n    tag_8:\n        /* \"contracts/Events-Solution.sol\":524:544  User storage newUser */\n      0x00\n        /* \"contracts/Events-Solution.sol\":547:552  users */\n      dup1\n        /* \"contracts/Events-Solution.sol\":547:564  users[msg.sender] */\n      0x00\n        /* \"contracts/Events-Solution.sol\":553:563  msg.sender */\n      caller\n        /* \"contracts/Events-Solution.sol\":547:564  users[msg.sender] */\n      0xffffffffffffffffffffffffffffffffffffffff\n      and\n      0xffffffffffffffffffffffffffffffffffffffff\n      and\n      dup2\n      mstore\n      0x20\n      add\n      swap1\n      dup2\n      mstore\n      0x20\n      add\n      0x00\n      keccak256\n        /* \"contracts/Events-Solution.sol\":524:564  User storage newUser = users[msg.sender] */\n      swap1\n      pop\n        /* \"contracts/Events-Solution.sol\":593:602  _username */\n      dup3\n        /* \"contracts/Events-Solution.sol\":574:581  newUser */\n      dup2\n        /* \"contracts/Events-Solution.sol\":574:590  newUser.username */\n      0x00\n      add\n        /* \"contracts/Events-Solution.sol\":574:602  newUser.username = _username */\n      swap1\n      dup2\n      tag_16\n      swap2\n      swap1\n      tag_17\n      jump\t// in\n    tag_16:\n      pop\n        /* \"contracts/Events-Solution.sol\":626:630  _age */\n      dup2\n        /* \"contracts/Events-Solution.sol\":612:619  newUser */\n      dup2\n        /* \"contracts/Events-Solution.sol\":612:623  newUser.age */\n      0x01\n      add\n        /* \"contracts/Events-Solution.sol\":612:630  newUser.age = _age */\n      dup2\n      swap1\n      sstore\n      pop\n        /* \"contracts/Events-Solution.sol\":775:785  msg.sender */\n      caller\n        /* \"contracts/Events-Solution.sol\":757:797  NewUserRegistered(msg.sender, _username) */\n      0xffffffffffffffffffffffffffffffffffffffff\n      and\n      0x1d2b3529f3edbf84c2fbf46a16fa81880bd170f19142f18267f113903389a6dc\n        /* \"contracts/Events-Solution.sol\":787:796  _username */\n      dup5\n        /* \"contracts/Events-Solution.sol\":757:797  NewUserRegistered(msg.sender, _username) */\n      mload(0x40)\n      tag_18\n      swap2\n      swap1\n      tag_19\n      jump\t// in\n    tag_18:\n      mload(0x40)\n      dup1\n      swap2\n      sub\n      swap1\n      log2\n        /* \"contracts/Events-Solution.sol\":514:804  {... */\n      pop\n        /* \"contracts/Events-Solution.sol\":445:804  function registerUsers(string memory _username, uint256 _age) public {... */\n      pop\n      pop\n      jump\t// out\n        /* \"contracts/Events-Solution.sol\":397:434  mapping(address => User) public users */\n    tag_12:\n      mstore(0x20, 0x00)\n      dup1\n      0x00\n      mstore\n      keccak256(0x00, 0x40)\n      0x00\n      swap2\n      pop\n      swap1\n      pop\n      dup1\n      0x00\n      add\n      dup1\n      sload\n      tag_20\n      swap1\n      tag_21\n      jump\t// in\n    tag_20:\n      dup1\n      0x1f\n      add\n      0x20\n      dup1\n      swap2\n      div\n      mul\n      0x20\n      add\n      mload(0x40)\n      swap1\n      dup2\n      add\n      0x40\n      mstore\n      dup1\n      swap3\n      swap2\n      swap1\n      dup2\n      dup2\n      mstore\n      0x20\n      add\n      dup3\n      dup1\n      sload\n      tag_22\n      swap1\n      tag_21\n      jump\t// in\n    tag_22:\n      dup1\n      iszero\n      tag_23\n      jumpi\n      dup1\n      0x1f\n      lt\n      tag_24\n      jumpi\n      0x0100\n      dup1\n      dup4\n      sload\n      div\n      mul\n      dup4\n      mstore\n      swap2\n      0x20\n      add\n      swap2\n      jump(tag_23)\n    tag_24:\n      dup3\n      add\n      swap2\n      swap1\n      0x00\n      mstore\n      keccak256(0x00, 0x20)\n      swap1\n    tag_25:\n      dup2\n      sload\n      dup2\n      mstore\n      swap1\n      0x01\n      add\n      swap1\n      0x20\n      add\n      dup1\n      dup4\n      gt\n      tag_25\n      jumpi\n      dup3\n      swap1\n      sub\n      0x1f\n      and\n      dup3\n      add\n      swap2\n    tag_23:\n      pop\n      pop\n      pop\n      pop\n      pop\n      swap1\n      dup1\n      0x01\n      add\n      sload\n      swap1\n      pop\n      dup3\n      jump\t// out\n        /* \"#utility.yul\":7:82   */\n    tag_26:\n        /* \"#utility.yul\":40:46   */\n      0x00\n        /* \"#utility.yul\":73:75   */\n      0x40\n        /* \"#utility.yul\":67:76   */\n      mload\n        /* \"#utility.yul\":57:76   */\n      swap1\n      pop\n        /* \"#utility.yul\":7:82   */\n      swap1\n      jump\t// out\n        /* \"#utility.yul\":88:205   */\n    tag_27:\n        /* \"#utility.yul\":197:198   */\n      0x00\n        /* \"#utility.yul\":194:195   */\n      dup1\n        /* \"#utility.yul\":187:199   */\n      revert\n        /* \"#utility.yul\":211:328   */\n    tag_28:\n        /* \"#utility.yul\":320:321   */\n      0x00\n        /* \"#utility.yul\":317:318   */\n      dup1\n        /* \"#utility.yul\":310:322   */\n      revert\n        /* \"#utility.yul\":334:451   */\n    tag_29:\n        /* \"#utility.yul\":443:444   */\n      0x00\n        /* \"#utility.yul\":440:441   */\n      dup1\n        /* \"#utility.yul\":433:445   */\n      revert\n        /* \"#utility.yul\":457:574   */\n    tag_30:\n        /* \"#utility.yul\":566:567   */\n      0x00\n        /* \"#utility.yul\":563:564   */\n      dup1\n        /* \"#utility.yul\":556:568   */\n      revert\n        /* \"#utility.yul\":580:682   */\n    tag_31:\n        /* \"#utility.yul\":621:627   */\n      0x00\n        /* \"#utility.yul\":672:674   */\n      0x1f\n        /* \"#utility.yul\":668:675   */\n      not\n        /* \"#utility.yul\":663:665   */\n      0x1f\n        /* \"#utility.yul\":656:661   */\n      dup4\n        /* \"#utility.yul\":652:666   */\n      add\n        /* \"#utility.yul\":648:676   */\n      and\n        /* \"#utility.yul\":638:676   */\n      swap1\n      pop\n        /* \"#utility.yul\":580:682   */\n      swap2\n      swap1\n      pop\n      jump\t// out\n        /* \"#utility.yul\":688:868   */\n    tag_32:\n        /* \"#utility.yul\":736:813   */\n      0x4e487b7100000000000000000000000000000000000000000000000000000000\n        /* \"#utility.yul\":733:734   */\n      0x00\n        /* \"#utility.yul\":726:814   */\n      mstore\n        /* \"#utility.yul\":833:837   */\n      0x41\n        /* \"#utility.yul\":830:831   */\n      0x04\n        /* \"#utility.yul\":823:838   */\n      mstore\n        /* \"#utility.yul\":857:861   */\n      0x24\n        /* \"#utility.yul\":854:855   */\n      0x00\n        /* \"#utility.yul\":847:862   */\n      revert\n        /* \"#utility.yul\":874:1155   */\n    tag_33:\n        /* \"#utility.yul\":957:984   */\n      tag_76\n        /* \"#utility.yul\":979:983   */\n      dup3\n        /* \"#utility.yul\":957:984   */\n      tag_31\n      jump\t// in\n    tag_76:\n        /* \"#utility.yul\":949:955   */\n      dup2\n        /* \"#utility.yul\":945:985   */\n      add\n        /* \"#utility.yul\":1087:1093   */\n      dup2\n        /* \"#utility.yul\":1075:1085   */\n      dup2\n        /* \"#utility.yul\":1072:1094   */\n      lt\n        /* \"#utility.yul\":1051:1069   */\n      0xffffffffffffffff\n        /* \"#utility.yul\":1039:1049   */\n      dup3\n        /* \"#utility.yul\":1036:1070   */\n      gt\n        /* \"#utility.yul\":1033:1095   */\n      or\n        /* \"#utility.yul\":1030:1118   */\n      iszero\n      tag_77\n      jumpi\n        /* \"#utility.yul\":1098:1116   */\n      tag_78\n      tag_32\n      jump\t// in\n    tag_78:\n        /* \"#utility.yul\":1030:1118   */\n    tag_77:\n        /* \"#utility.yul\":1138:1148   */\n      dup1\n        /* \"#utility.yul\":1134:1136   */\n      0x40\n        /* \"#utility.yul\":1127:1149   */\n      mstore\n        /* \"#utility.yul\":917:1155   */\n      pop\n        /* \"#utility.yul\":874:1155   */\n      pop\n      pop\n      jump\t// out\n        /* \"#utility.yul\":1161:1290   */\n    tag_34:\n        /* \"#utility.yul\":1195:1201   */\n      0x00\n        /* \"#utility.yul\":1222:1242   */\n      tag_80\n      tag_26\n      jump\t// in\n    tag_80:\n        /* \"#utility.yul\":1212:1242   */\n      swap1\n      pop\n        /* \"#utility.yul\":1251:1284   */\n      tag_81\n        /* \"#utility.yul\":1279:1283   */\n      dup3\n        /* \"#utility.yul\":1271:1277   */\n      dup3\n        /* \"#utility.yul\":1251:1284   */\n      tag_33\n      jump\t// in\n    tag_81:\n        /* \"#utility.yul\":1161:1290   */\n      swap2\n      swap1\n      pop\n      jump\t// out\n        /* \"#utility.yul\":1296:1604   */\n    tag_35:\n        /* \"#utility.yul\":1358:1362   */\n      0x00\n        /* \"#utility.yul\":1448:1466   */\n      0xffffffffffffffff\n        /* \"#utility.yul\":1440:1446   */\n      dup3\n        /* \"#utility.yul\":1437:1467   */\n      gt\n        /* \"#utility.yul\":1434:1490   */\n      iszero\n      tag_83\n      jumpi\n        /* \"#utility.yul\":1470:1488   */\n      tag_84\n      tag_32\n      jump\t// in\n    tag_84:\n        /* \"#utility.yul\":1434:1490   */\n    tag_83:\n        /* \"#utility.yul\":1508:1537   */\n      tag_85\n        /* \"#utility.yul\":1530:1536   */\n      dup3\n        /* \"#utility.yul\":1508:1537   */\n      tag_31\n      jump\t// in\n    tag_85:\n        /* \"#utility.yul\":1500:1537   */\n      swap1\n      pop\n        /* \"#utility.yul\":1592:1596   */\n      0x20\n        /* \"#utility.yul\":1586:1590   */\n      dup2\n        /* \"#utility.yul\":1582:1597   */\n      add\n        /* \"#utility.yul\":1574:1597   */\n      swap1\n      pop\n        /* \"#utility.yul\":1296:1604   */\n      swap2\n      swap1\n      pop\n      jump\t// out\n        /* \"#utility.yul\":1610:1758   */\n    tag_36:\n        /* \"#utility.yul\":1708:1714   */\n      dup3\n        /* \"#utility.yul\":1703:1706   */\n      dup2\n        /* \"#utility.yul\":1698:1701   */\n      dup4\n        /* \"#utility.yul\":1685:1715   */\n      calldatacopy\n        /* \"#utility.yul\":1749:1750   */\n      0x00\n        /* \"#utility.yul\":1740:1746   */\n      dup4\n        /* \"#utility.yul\":1735:1738   */\n      dup4\n        /* \"#utility.yul\":1731:1747   */\n      add\n        /* \"#utility.yul\":1724:1751   */\n      mstore\n        /* \"#utility.yul\":1610:1758   */\n      pop\n      pop\n      pop\n      jump\t// out\n        /* \"#utility.yul\":1764:2189   */\n    tag_37:\n        /* \"#utility.yul\":1842:1847   */\n      0x00\n        /* \"#utility.yul\":1867:1933   */\n      tag_88\n        /* \"#utility.yul\":1883:1932   */\n      tag_89\n        /* \"#utility.yul\":1925:1931   */\n      dup5\n        /* \"#utility.yul\":1883:1932   */\n      tag_35\n      jump\t// in\n    tag_89:\n        /* \"#utility.yul\":1867:1933   */\n      tag_34\n      jump\t// in\n    tag_88:\n        /* \"#utility.yul\":1858:1933   */\n      swap1\n      pop\n        /* \"#utility.yul\":1956:1962   */\n      dup3\n        /* \"#utility.yul\":1949:1954   */\n      dup2\n        /* \"#utility.yul\":1942:1963   */\n      mstore\n        /* \"#utility.yul\":1994:1998   */\n      0x20\n        /* \"#utility.yul\":1987:1992   */\n      dup2\n        /* \"#utility.yul\":1983:1999   */\n      add\n        /* \"#utility.yul\":2032:2035   */\n      dup5\n        /* \"#utility.yul\":2023:2029   */\n      dup5\n        /* \"#utility.yul\":2018:2021   */\n      dup5\n        /* \"#utility.yul\":2014:2030   */\n      add\n        /* \"#utility.yul\":2011:2036   */\n      gt\n        /* \"#utility.yul\":2008:2120   */\n      iszero\n      tag_90\n      jumpi\n        /* \"#utility.yul\":2039:2118   */\n      tag_91\n      tag_30\n      jump\t// in\n    tag_91:\n        /* \"#utility.yul\":2008:2120   */\n    tag_90:\n        /* \"#utility.yul\":2129:2183   */\n      tag_92\n        /* \"#utility.yul\":2176:2182   */\n      dup5\n        /* \"#utility.yul\":2171:2174   */\n      dup3\n        /* \"#utility.yul\":2166:2169   */\n      dup6\n        /* \"#utility.yul\":2129:2183   */\n      tag_36\n      jump\t// in\n    tag_92:\n        /* \"#utility.yul\":1848:2189   */\n      pop\n        /* \"#utility.yul\":1764:2189   */\n      swap4\n      swap3\n      pop\n      pop\n      pop\n      jump\t// out\n        /* \"#utility.yul\":2209:2549   */\n    tag_38:\n        /* \"#utility.yul\":2265:2270   */\n      0x00\n        /* \"#utility.yul\":2314:2317   */\n      dup3\n        /* \"#utility.yul\":2307:2311   */\n      0x1f\n        /* \"#utility.yul\":2299:2305   */\n      dup4\n        /* \"#utility.yul\":2295:2312   */\n      add\n        /* \"#utility.yul\":2291:2318   */\n      slt\n        /* \"#utility.yul\":2281:2403   */\n      tag_94\n      jumpi\n        /* \"#utility.yul\":2322:2401   */\n      tag_95\n      tag_29\n      jump\t// in\n    tag_95:\n        /* \"#utility.yul\":2281:2403   */\n    tag_94:\n        /* \"#utility.yul\":2439:2445   */\n      dup2\n        /* \"#utility.yul\":2426:2446   */\n      calldataload\n        /* \"#utility.yul\":2464:2543   */\n      tag_96\n        /* \"#utility.yul\":2539:2542   */\n      dup5\n        /* \"#utility.yul\":2531:2537   */\n      dup3\n        /* \"#utility.yul\":2524:2528   */\n      0x20\n        /* \"#utility.yul\":2516:2522   */\n      dup7\n        /* \"#utility.yul\":2512:2529   */\n      add\n        /* \"#utility.yul\":2464:2543   */\n      tag_37\n      jump\t// in\n    tag_96:\n        /* \"#utility.yul\":2455:2543   */\n      swap2\n      pop\n        /* \"#utility.yul\":2271:2549   */\n      pop\n        /* \"#utility.yul\":2209:2549   */\n      swap3\n      swap2\n      pop\n      pop\n      jump\t// out\n        /* \"#utility.yul\":2555:2632   */\n    tag_39:\n        /* \"#utility.yul\":2592:2599   */\n      0x00\n        /* \"#utility.yul\":2621:2626   */\n      dup2\n        /* \"#utility.yul\":2610:2626   */\n      swap1\n      pop\n        /* \"#utility.yul\":2555:2632   */\n      swap2\n      swap1\n      pop\n      jump\t// out\n        /* \"#utility.yul\":2638:2760   */\n    tag_40:\n        /* \"#utility.yul\":2711:2735   */\n      tag_99\n        /* \"#utility.yul\":2729:2734   */\n      dup2\n        /* \"#utility.yul\":2711:2735   */\n      tag_39\n      jump\t// in\n    tag_99:\n        /* \"#utility.yul\":2704:2709   */\n      dup2\n        /* \"#utility.yul\":2701:2736   */\n      eq\n        /* \"#utility.yul\":2691:2754   */\n      tag_100\n      jumpi\n        /* \"#utility.yul\":2750:2751   */\n      0x00\n        /* \"#utility.yul\":2747:2748   */\n      dup1\n        /* \"#utility.yul\":2740:2752   */\n      revert\n        /* \"#utility.yul\":2691:2754   */\n    tag_100:\n        /* \"#utility.yul\":2638:2760   */\n      pop\n      jump\t// out\n        /* \"#utility.yul\":2766:2905   */\n    tag_41:\n        /* \"#utility.yul\":2812:2817   */\n      0x00\n        /* \"#utility.yul\":2850:2856   */\n      dup2\n        /* \"#utility.yul\":2837:2857   */\n      calldataload\n        /* \"#utility.yul\":2828:2857   */\n      swap1\n      pop\n        /* \"#utility.yul\":2866:2899   */\n      tag_102\n        /* \"#utility.yul\":2893:2898   */\n      dup2\n        /* \"#utility.yul\":2866:2899   */\n      tag_40\n      jump\t// in\n    tag_102:\n        /* \"#utility.yul\":2766:2905   */\n      swap3\n      swap2\n      pop\n      pop\n      jump\t// out\n        /* \"#utility.yul\":2911:3565   */\n    tag_7:\n        /* \"#utility.yul\":2989:2995   */\n      0x00\n        /* \"#utility.yul\":2997:3003   */\n      dup1\n        /* \"#utility.yul\":3046:3048   */\n      0x40\n        /* \"#utility.yul\":3034:3043   */\n      dup4\n        /* \"#utility.yul\":3025:3032   */\n      dup6\n        /* \"#utility.yul\":3021:3044   */\n      sub\n        /* \"#utility.yul\":3017:3049   */\n      slt\n        /* \"#utility.yul\":3014:3133   */\n      iszero\n      tag_104\n      jumpi\n        /* \"#utility.yul\":3052:3131   */\n      tag_105\n      tag_27\n      jump\t// in\n    tag_105:\n        /* \"#utility.yul\":3014:3133   */\n    tag_104:\n        /* \"#utility.yul\":3200:3201   */\n      0x00\n        /* \"#utility.yul\":3189:3198   */\n      dup4\n        /* \"#utility.yul\":3185:3202   */\n      add\n        /* \"#utility.yul\":3172:3203   */\n      calldataload\n        /* \"#utility.yul\":3230:3248   */\n      0xffffffffffffffff\n        /* \"#utility.yul\":3222:3228   */\n      dup2\n        /* \"#utility.yul\":3219:3249   */\n      gt\n        /* \"#utility.yul\":3216:3333   */\n      iszero\n      tag_106\n      jumpi\n        /* \"#utility.yul\":3252:3331   */\n      tag_107\n      tag_28\n      jump\t// in\n    tag_107:\n        /* \"#utility.yul\":3216:3333   */\n    tag_106:\n        /* \"#utility.yul\":3357:3420   */\n      tag_108\n        /* \"#utility.yul\":3412:3419   */\n      dup6\n        /* \"#utility.yul\":3403:3409   */\n      dup3\n        /* \"#utility.yul\":3392:3401   */\n      dup7\n        /* \"#utility.yul\":3388:3410   */\n      add\n        /* \"#utility.yul\":3357:3420   */\n      tag_38\n      jump\t// in\n    tag_108:\n        /* \"#utility.yul\":3347:3420   */\n      swap3\n      pop\n        /* \"#utility.yul\":3143:3430   */\n      pop\n        /* \"#utility.yul\":3469:3471   */\n      0x20\n        /* \"#utility.yul\":3495:3548   */\n      tag_109\n        /* \"#utility.yul\":3540:3547   */\n      dup6\n        /* \"#utility.yul\":3531:3537   */\n      dup3\n        /* \"#utility.yul\":3520:3529   */\n      dup7\n        /* \"#utility.yul\":3516:3538   */\n      add\n        /* \"#utility.yul\":3495:3548   */\n      tag_41\n      jump\t// in\n    tag_109:\n        /* \"#utility.yul\":3485:3548   */\n      swap2\n      pop\n        /* \"#utility.yul\":3440:3558   */\n      pop\n        /* \"#utility.yul\":2911:3565   */\n      swap3\n      pop\n      swap3\n      swap1\n      pop\n      jump\t// out\n        /* \"#utility.yul\":3571:3697   */\n    tag_42:\n        /* \"#utility.yul\":3608:3615   */\n      0x00\n        /* \"#utility.yul\":3648:3690   */\n      0xffffffffffffffffffffffffffffffffffffffff\n        /* \"#utility.yul\":3641:3646   */\n      dup3\n        /* \"#utility.yul\":3637:3691   */\n      and\n        /* \"#utility.yul\":3626:3691   */\n      swap1\n      pop\n        /* \"#utility.yul\":3571:3697   */\n      swap2\n      swap1\n      pop\n      jump\t// out\n        /* \"#utility.yul\":3703:3799   */\n    tag_43:\n        /* \"#utility.yul\":3740:3747   */\n      0x00\n        /* \"#utility.yul\":3769:3793   */\n      tag_112\n        /* \"#utility.yul\":3787:3792   */\n      dup3\n        /* \"#utility.yul\":3769:3793   */\n      tag_42\n      jump\t// in\n    tag_112:\n        /* \"#utility.yul\":3758:3793   */\n      swap1\n      pop\n        /* \"#utility.yul\":3703:3799   */\n      swap2\n      swap1\n      pop\n      jump\t// out\n        /* \"#utility.yul\":3805:3927   */\n    tag_44:\n        /* \"#utility.yul\":3878:3902   */\n      tag_114\n        /* \"#utility.yul\":3896:3901   */\n      dup2\n        /* \"#utility.yul\":3878:3902   */\n      tag_43\n      jump\t// in\n    tag_114:\n        /* \"#utility.yul\":3871:3876   */\n      dup2\n        /* \"#utility.yul\":3868:3903   */\n      eq\n        /* \"#utility.yul\":3858:3921   */\n      tag_115\n      jumpi\n        /* \"#utility.yul\":3917:3918   */\n      0x00\n        /* \"#utility.yul\":3914:3915   */\n      dup1\n        /* \"#utility.yul\":3907:3919   */\n      revert\n        /* \"#utility.yul\":3858:3921   */\n    tag_115:\n        /* \"#utility.yul\":3805:3927   */\n      pop\n      jump\t// out\n        /* \"#utility.yul\":3933:4072   */\n    tag_45:\n        /* \"#utility.yul\":3979:3984   */\n      0x00\n        /* \"#utility.yul\":4017:4023   */\n      dup2\n        /* \"#utility.yul\":4004:4024   */\n      calldataload\n        /* \"#utility.yul\":3995:4024   */\n      swap1\n      pop\n        /* \"#utility.yul\":4033:4066   */\n      tag_117\n        /* \"#utility.yul\":4060:4065   */\n      dup2\n        /* \"#utility.yul\":4033:4066   */\n      tag_44\n      jump\t// in\n    tag_117:\n        /* \"#utility.yul\":3933:4072   */\n      swap3\n      swap2\n      pop\n      pop\n      jump\t// out\n        /* \"#utility.yul\":4078:4407   */\n    tag_11:\n        /* \"#utility.yul\":4137:4143   */\n      0x00\n        /* \"#utility.yul\":4186:4188   */\n      0x20\n        /* \"#utility.yul\":4174:4183   */\n      dup3\n        /* \"#utility.yul\":4165:4172   */\n      dup5\n        /* \"#utility.yul\":4161:4184   */\n      sub\n        /* \"#utility.yul\":4157:4189   */\n      slt\n        /* \"#utility.yul\":4154:4273   */\n      iszero\n      tag_119\n      jumpi\n        /* \"#utility.yul\":4192:4271   */\n      tag_120\n      tag_27\n      jump\t// in\n    tag_120:\n        /* \"#utility.yul\":4154:4273   */\n    tag_119:\n        /* \"#utility.yul\":4312:4313   */\n      0x00\n        /* \"#utility.yul\":4337:4390   */\n      tag_121\n        /* \"#utility.yul\":4382:4389   */\n      dup5\n        /* \"#utility.yul\":4373:4379   */\n      dup3\n        /* \"#utility.yul\":4362:4371   */\n      dup6\n        /* \"#utility.yul\":4358:4380   */\n      add\n        /* \"#utility.yul\":4337:4390   */\n      tag_45\n      jump\t// in\n    tag_121:\n        /* \"#utility.yul\":4327:4390   */\n      swap2\n      pop\n        /* \"#utility.yul\":4283:4400   */\n      pop\n        /* \"#utility.yul\":4078:4407   */\n      swap3\n      swap2\n      pop\n      pop\n      jump\t// out\n        /* \"#utility.yul\":4413:4512   */\n    tag_46:\n        /* \"#utility.yul\":4465:4471   */\n      0x00\n        /* \"#utility.yul\":4499:4504   */\n      dup2\n        /* \"#utility.yul\":4493:4505   */\n      mload\n        /* \"#utility.yul\":4483:4505   */\n      swap1\n      pop\n        /* \"#utility.yul\":4413:4512   */\n      swap2\n      swap1\n      pop\n      jump\t// out\n        /* \"#utility.yul\":4518:4687   */\n    tag_47:\n        /* \"#utility.yul\":4602:4613   */\n      0x00\n        /* \"#utility.yul\":4636:4642   */\n      dup3\n        /* \"#utility.yul\":4631:4634   */\n      dup3\n        /* \"#utility.yul\":4624:4643   */\n      mstore\n        /* \"#utility.yul\":4676:4680   */\n      0x20\n        /* \"#utility.yul\":4671:4674   */\n      dup3\n        /* \"#utility.yul\":4667:4681   */\n      add\n        /* \"#utility.yul\":4652:4681   */\n      swap1\n      pop\n        /* \"#utility.yul\":4518:4687   */\n      swap3\n      swap2\n      pop\n      pop\n      jump\t// out\n        /* \"#utility.yul\":4693:4832   */\n    tag_48:\n        /* \"#utility.yul\":4782:4788   */\n      dup3\n        /* \"#utility.yul\":4777:4780   */\n      dup2\n        /* \"#utility.yul\":4772:4775   */\n      dup4\n        /* \"#utility.yul\":4766:4789   */\n      mcopy\n        /* \"#utility.yul\":4823:4824   */\n      0x00\n        /* \"#utility.yul\":4814:4820   */\n      dup4\n        /* \"#utility.yul\":4809:4812   */\n      dup4\n        /* \"#utility.yul\":4805:4821   */\n      add\n        /* \"#utility.yul\":4798:4825   */\n      mstore\n        /* \"#utility.yul\":4693:4832   */\n      pop\n      pop\n      pop\n      jump\t// out\n        /* \"#utility.yul\":4838:5215   */\n    tag_49:\n        /* \"#utility.yul\":4926:4929   */\n      0x00\n        /* \"#utility.yul\":4954:4993   */\n      tag_126\n        /* \"#utility.yul\":4987:4992   */\n      dup3\n        /* \"#utility.yul\":4954:4993   */\n      tag_46\n      jump\t// in\n    tag_126:\n        /* \"#utility.yul\":5009:5080   */\n      tag_127\n        /* \"#utility.yul\":5073:5079   */\n      dup2\n        /* \"#utility.yul\":5068:5071   */\n      dup6\n        /* \"#utility.yul\":5009:5080   */\n      tag_47\n      jump\t// in\n    tag_127:\n        /* \"#utility.yul\":5002:5080   */\n      swap4\n      pop\n        /* \"#utility.yul\":5089:5154   */\n      tag_128\n        /* \"#utility.yul\":5147:5153   */\n      dup2\n        /* \"#utility.yul\":5142:5145   */\n      dup6\n        /* \"#utility.yul\":5135:5139   */\n      0x20\n        /* \"#utility.yul\":5128:5133   */\n      dup7\n        /* \"#utility.yul\":5124:5140   */\n      add\n        /* \"#utility.yul\":5089:5154   */\n      tag_48\n      jump\t// in\n    tag_128:\n        /* \"#utility.yul\":5179:5208   */\n      tag_129\n        /* \"#utility.yul\":5201:5207   */\n      dup2\n        /* \"#utility.yul\":5179:5208   */\n      tag_31\n      jump\t// in\n    tag_129:\n        /* \"#utility.yul\":5174:5177   */\n      dup5\n        /* \"#utility.yul\":5170:5209   */\n      add\n        /* \"#utility.yul\":5163:5209   */\n      swap2\n      pop\n        /* \"#utility.yul\":4930:5215   */\n      pop\n        /* \"#utility.yul\":4838:5215   */\n      swap3\n      swap2\n      pop\n      pop\n      jump\t// out\n        /* \"#utility.yul\":5221:5339   */\n    tag_50:\n        /* \"#utility.yul\":5308:5332   */\n      tag_131\n        /* \"#utility.yul\":5326:5331   */\n      dup2\n        /* \"#utility.yul\":5308:5332   */\n      tag_39\n      jump\t// in\n    tag_131:\n        /* \"#utility.yul\":5303:5306   */\n      dup3\n        /* \"#utility.yul\":5296:5333   */\n      mstore\n        /* \"#utility.yul\":5221:5339   */\n      pop\n      pop\n      jump\t// out\n        /* \"#utility.yul\":5345:5768   */\n    tag_14:\n        /* \"#utility.yul\":5486:5490   */\n      0x00\n        /* \"#utility.yul\":5524:5526   */\n      0x40\n        /* \"#utility.yul\":5513:5522   */\n      dup3\n        /* \"#utility.yul\":5509:5527   */\n      add\n        /* \"#utility.yul\":5501:5527   */\n      swap1\n      pop\n        /* \"#utility.yul\":5573:5582   */\n      dup2\n        /* \"#utility.yul\":5567:5571   */\n      dup2\n        /* \"#utility.yul\":5563:5583   */\n      sub\n        /* \"#utility.yul\":5559:5560   */\n      0x00\n        /* \"#utility.yul\":5548:5557   */\n      dup4\n        /* \"#utility.yul\":5544:5561   */\n      add\n        /* \"#utility.yul\":5537:5584   */\n      mstore\n        /* \"#utility.yul\":5601:5679   */\n      tag_133\n        /* \"#utility.yul\":5674:5678   */\n      dup2\n        /* \"#utility.yul\":5665:5671   */\n      dup6\n        /* \"#utility.yul\":5601:5679   */\n      tag_49\n      jump\t// in\n    tag_133:\n        /* \"#utility.yul\":5593:5679   */\n      swap1\n      pop\n        /* \"#utility.yul\":5689:5761   */\n      tag_134\n        /* \"#utility.yul\":5757:5759   */\n      0x20\n        /* \"#utility.yul\":5746:5755   */\n      dup4\n        /* \"#utility.yul\":5742:5760   */\n      add\n        /* \"#utility.yul\":5733:5739   */\n      dup5\n        /* \"#utility.yul\":5689:5761   */\n      tag_50\n      jump\t// in\n    tag_134:\n        /* \"#utility.yul\":5345:5768   */\n      swap4\n      swap3\n      pop\n      pop\n      pop\n      jump\t// out\n        /* \"#utility.yul\":5774:5954   */\n    tag_51:\n        /* \"#utility.yul\":5822:5899   */\n      0x4e487b7100000000000000000000000000000000000000000000000000000000\n        /* \"#utility.yul\":5819:5820   */\n      0x00\n        /* \"#utility.yul\":5812:5900   */\n      mstore\n        /* \"#utility.yul\":5919:5923   */\n      0x22\n        /* \"#utility.yul\":5916:5917   */\n      0x04\n        /* \"#utility.yul\":5909:5924   */\n      mstore\n        /* \"#utility.yul\":5943:5947   */\n      0x24\n        /* \"#utility.yul\":5940:5941   */\n      0x00\n        /* \"#utility.yul\":5933:5948   */\n      revert\n        /* \"#utility.yul\":5960:6280   */\n    tag_21:\n        /* \"#utility.yul\":6004:6010   */\n      0x00\n        /* \"#utility.yul\":6041:6042   */\n      0x02\n        /* \"#utility.yul\":6035:6039   */\n      dup3\n        /* \"#utility.yul\":6031:6043   */\n      div\n        /* \"#utility.yul\":6021:6043   */\n      swap1\n      pop\n        /* \"#utility.yul\":6088:6089   */\n      0x01\n        /* \"#utility.yul\":6082:6086   */\n      dup3\n        /* \"#utility.yul\":6078:6090   */\n      and\n        /* \"#utility.yul\":6109:6127   */\n      dup1\n        /* \"#utility.yul\":6099:6180   */\n      tag_137\n      jumpi\n        /* \"#utility.yul\":6165:6169   */\n      0x7f\n        /* \"#utility.yul\":6157:6163   */\n      dup3\n        /* \"#utility.yul\":6153:6170   */\n      and\n        /* \"#utility.yul\":6143:6170   */\n      swap2\n      pop\n        /* \"#utility.yul\":6099:6180   */\n    tag_137:\n        /* \"#utility.yul\":6227:6229   */\n      0x20\n        /* \"#utility.yul\":6219:6225   */\n      dup3\n        /* \"#utility.yul\":6216:6230   */\n      lt\n        /* \"#utility.yul\":6196:6214   */\n      dup2\n        /* \"#utility.yul\":6193:6231   */\n      sub\n        /* \"#utility.yul\":6190:6274   */\n      tag_138\n      jumpi\n        /* \"#utility.yul\":6246:6264   */\n      tag_139\n      tag_51\n      jump\t// in\n    tag_139:\n        /* \"#utility.yul\":6190:6274   */\n    tag_138:\n        /* \"#utility.yul\":6011:6280   */\n      pop\n        /* \"#utility.yul\":5960:6280   */\n      swap2\n      swap1\n      pop\n      jump\t// out\n        /* \"#utility.yul\":6286:6427   */\n    tag_52:\n        /* \"#utility.yul\":6335:6339   */\n      0x00\n        /* \"#utility.yul\":6358:6361   */\n      dup2\n        /* \"#utility.yul\":6350:6361   */\n      swap1\n      pop\n        /* \"#utility.yul\":6381:6384   */\n      dup2\n        /* \"#utility.yul\":6378:6379   */\n      0x00\n        /* \"#utility.yul\":6371:6385   */\n      mstore\n        /* \"#utility.yul\":6415:6419   */\n      0x20\n        /* \"#utility.yul\":6412:6413   */\n      0x00\n        /* \"#utility.yul\":6402:6420   */\n      keccak256\n        /* \"#utility.yul\":6394:6420   */\n      swap1\n      pop\n        /* \"#utility.yul\":6286:6427   */\n      swap2\n      swap1\n      pop\n      jump\t// out\n        /* \"#utility.yul\":6433:6526   */\n    tag_53:\n        /* \"#utility.yul\":6470:6476   */\n      0x00\n        /* \"#utility.yul\":6517:6519   */\n      0x20\n        /* \"#utility.yul\":6512:6514   */\n      0x1f\n        /* \"#utility.yul\":6505:6510   */\n      dup4\n        /* \"#utility.yul\":6501:6515   */\n      add\n        /* \"#utility.yul\":6497:6520   */\n      div\n        /* \"#utility.yul\":6487:6520   */\n      swap1\n      pop\n        /* \"#utility.yul\":6433:6526   */\n      swap2\n      swap1\n      pop\n      jump\t// out\n        /* \"#utility.yul\":6532:6639   */\n    tag_54:\n        /* \"#utility.yul\":6576:6584   */\n      0x00\n        /* \"#utility.yul\":6626:6631   */\n      dup3\n        /* \"#utility.yul\":6620:6624   */\n      dup3\n        /* \"#utility.yul\":6616:6632   */\n      shl\n        /* \"#utility.yul\":6595:6632   */\n      swap1\n      pop\n        /* \"#utility.yul\":6532:6639   */\n      swap3\n      swap2\n      pop\n      pop\n      jump\t// out\n        /* \"#utility.yul\":6645:7038   */\n    tag_55:\n        /* \"#utility.yul\":6714:6720   */\n      0x00\n        /* \"#utility.yul\":6764:6765   */\n      0x08\n        /* \"#utility.yul\":6752:6762   */\n      dup4\n        /* \"#utility.yul\":6748:6766   */\n      mul\n        /* \"#utility.yul\":6787:6884   */\n      tag_144\n        /* \"#utility.yul\":6817:6883   */\n      0xffffffffffffffffffffffffffffffffffffffffffffffffffffffffffffffff\n        /* \"#utility.yul\":6806:6815   */\n      dup3\n        /* \"#utility.yul\":6787:6884   */\n      tag_54\n      jump\t// in\n    tag_144:\n        /* \"#utility.yul\":6905:6944   */\n      tag_145\n        /* \"#utility.yul\":6935:6943   */\n      dup7\n        /* \"#utility.yul\":6924:6933   */\n      dup4\n        /* \"#utility.yul\":6905:6944   */\n      tag_54\n      jump\t// in\n    tag_145:\n        /* \"#utility.yul\":6893:6944   */\n      swap6\n      pop\n        /* \"#utility.yul\":6977:6981   */\n      dup1\n        /* \"#utility.yul\":6973:6982   */\n      not\n        /* \"#utility.yul\":6966:6971   */\n      dup5\n        /* \"#utility.yul\":6962:6983   */\n      and\n        /* \"#utility.yul\":6953:6983   */\n      swap4\n      pop\n        /* \"#utility.yul\":7026:7030   */\n      dup1\n        /* \"#utility.yul\":7016:7024   */\n      dup7\n        /* \"#utility.yul\":7012:7031   */\n      and\n        /* \"#utility.yul\":7005:7010   */\n      dup5\n        /* \"#utility.yul\":7002:7032   */\n      or\n        /* \"#utility.yul\":6992:7032   */\n      swap3\n      pop\n        /* \"#utility.yul\":6721:7038   */\n      pop\n      pop\n        /* \"#utility.yul\":6645:7038   */\n      swap4\n      swap3\n      pop\n      pop\n      pop\n      jump\t// out\n        /* \"#utility.yul\":7044:7104   */\n    tag_56:\n        /* \"#utility.yul\":7072:7075   */\n      0x00\n        /* \"#utility.yul\":7093:7098   */\n      dup2\n        /* \"#utility.yul\":7086:7098   */\n      swap1\n      pop\n        /* \"#utility.yul\":7044:7104   */\n      swap2\n      swap1\n      pop\n      jump\t// out\n        /* \"#utility.yul\":7110:7252   */\n    tag_57:\n        /* \"#utility.yul\":7160:7169   */\n      0x00\n        /* \"#utility.yul\":7193:7246   */\n      tag_148\n        /* \"#utility.yul\":7211:7245   */\n      tag_149\n        /* \"#utility.yul\":7220:7244   */\n      tag_150\n        /* \"#utility.yul\":7238:7243   */\n      dup5\n        /* \"#utility.yul\":7220:7244   */\n      tag_39\n      jump\t// in\n    tag_150:\n        /* \"#utility.yul\":7211:7245   */\n      tag_56\n      jump\t// in\n    tag_149:\n        /* \"#utility.yul\":7193:7246   */\n      tag_39\n      jump\t// in\n    tag_148:\n        /* \"#utility.yul\":7180:7246   */\n      swap1\n      pop\n        /* \"#utility.yul\":7110:7252   */\n      swap2\n      swap1\n      pop\n      jump\t// out\n        /* \"#utility.yul\":7258:7333   */\n    tag_58:\n        /* \"#utility.yul\":7301:7304   */\n      0x00\n        /* \"#utility.yul\":7322:7327   */\n      dup2\n        /* \"#utility.yul\":7315:7327   */\n      swap1\n      pop\n        /* \"#utility.yul\":7258:7333   */\n      swap2\n      swap1\n      pop\n      jump\t// out\n        /* \"#utility.yul\":7339:7608   */\n    tag_59:\n        /* \"#utility.yul\":7449:7488   */\n      tag_153\n        /* \"#utility.yul\":7480:7487   */\n      dup4\n        /* \"#utility.yul\":7449:7488   */\n      tag_57\n      jump\t// in\n    tag_153:\n        /* \"#utility.yul\":7510:7601   */\n      tag_154\n        /* \"#utility.yul\":7559:7600   */\n      tag_155\n        /* \"#utility.yul\":7583:7599   */\n      dup3\n        /* \"#utility.yul\":7559:7600   */\n      tag_58\n      jump\t// in\n    tag_155:\n        /* \"#utility.yul\":7551:7557   */\n      dup5\n        /* \"#utility.yul\":7544:7548   */\n      dup5\n        /* \"#utility.yul\":7538:7549   */\n      sload\n        /* \"#utility.yul\":7510:7601   */\n      tag_55\n      jump\t// in\n    tag_154:\n        /* \"#utility.yul\":7504:7508   */\n      dup3\n        /* \"#utility.yul\":7497:7602   */\n      sstore\n        /* \"#utility.yul\":7415:7608   */\n      pop\n        /* \"#utility.yul\":7339:7608   */\n      pop\n      pop\n      pop\n      jump\t// out\n        /* \"#utility.yul\":7614:7687   */\n    tag_60:\n        /* \"#utility.yul\":7659:7662   */\n      0x00\n        /* \"#utility.yul\":7614:7687   */\n      swap1\n      jump\t// out\n        /* \"#utility.yul\":7693:7882   */\n    tag_61:\n        /* \"#utility.yul\":7770:7802   */\n      tag_158\n      tag_60\n      jump\t// in\n    tag_158:\n        /* \"#utility.yul\":7811:7876   */\n      tag_159\n        /* \"#utility.yul\":7869:7875   */\n      dup2\n        /* \"#utility.yul\":7861:7867   */\n      dup5\n        /* \"#utility.yul\":7855:7859   */\n      dup5\n        /* \"#utility.yul\":7811:7876   */\n      tag_59\n      jump\t// in\n    tag_159:\n        /* \"#utility.yul\":7746:7882   */\n      pop\n        /* \"#utility.yul\":7693:7882   */\n      pop\n      pop\n      jump\t// out\n        /* \"#utility.yul\":7888:8074   */\n    tag_62:\n        /* \"#utility.yul\":7948:8068   */\n    tag_161:\n        /* \"#utility.yul\":7965:7968   */\n      dup2\n        /* \"#utility.yul\":7958:7963   */\n      dup2\n        /* \"#utility.yul\":7955:7969   */\n      lt\n        /* \"#utility.yul\":7948:8068   */\n      iszero\n      tag_163\n      jumpi\n        /* \"#utility.yul\":8019:8058   */\n      tag_164\n        /* \"#utility.yul\":8056:8057   */\n      0x00\n        /* \"#utility.yul\":8049:8054   */\n      dup3\n        /* \"#utility.yul\":8019:8058   */\n      tag_61\n      jump\t// in\n    tag_164:\n        /* \"#utility.yul\":7992:7993   */\n      0x01\n        /* \"#utility.yul\":7985:7990   */\n      dup2\n        /* \"#utility.yul\":7981:7994   */\n      add\n        /* \"#utility.yul\":7972:7994   */\n      swap1\n      pop\n        /* \"#utility.yul\":7948:8068   */\n      jump(tag_161)\n    tag_163:\n        /* \"#utility.yul\":7888:8074   */\n      pop\n      pop\n      jump\t// out\n        /* \"#utility.yul\":8080:8623   */\n    tag_63:\n        /* \"#utility.yul\":8181:8183   */\n      0x1f\n        /* \"#utility.yul\":8176:8179   */\n      dup3\n        /* \"#utility.yul\":8173:8184   */\n      gt\n        /* \"#utility.yul\":8170:8616   */\n      iszero\n      tag_166\n      jumpi\n        /* \"#utility.yul\":8215:8253   */\n      tag_167\n        /* \"#utility.yul\":8247:8252   */\n      dup2\n        /* \"#utility.yul\":8215:8253   */\n      tag_52\n      jump\t// in\n    tag_167:\n        /* \"#utility.yul\":8299:8328   */\n      tag_168\n        /* \"#utility.yul\":8317:8327   */\n      dup5\n        /* \"#utility.yul\":8299:8328   */\n      tag_53\n      jump\t// in\n    tag_168:\n        /* \"#utility.yul\":8289:8297   */\n      dup2\n        /* \"#utility.yul\":8285:8329   */\n      add\n        /* \"#utility.yul\":8482:8484   */\n      0x20\n        /* \"#utility.yul\":8470:8480   */\n      dup6\n        /* \"#utility.yul\":8467:8485   */\n      lt\n        /* \"#utility.yul\":8464:8513   */\n      iszero\n      tag_169\n      jumpi\n        /* \"#utility.yul\":8503:8511   */\n      dup2\n        /* \"#utility.yul\":8488:8511   */\n      swap1\n      pop\n        /* \"#utility.yul\":8464:8513   */\n    tag_169:\n        /* \"#utility.yul\":8526:8606   */\n      tag_170\n        /* \"#utility.yul\":8582:8604   */\n      tag_171\n        /* \"#utility.yul\":8600:8603   */\n      dup6\n        /* \"#utility.yul\":8582:8604   */\n      tag_53\n      jump\t// in\n    tag_171:\n        /* \"#utility.yul\":8572:8580   */\n      dup4\n        /* \"#utility.yul\":8568:8605   */\n      add\n        /* \"#utility.yul\":8555:8566   */\n      dup3\n        /* \"#utility.yul\":8526:8606   */\n      tag_62\n      jump\t// in\n    tag_170:\n        /* \"#utility.yul\":8185:8616   */\n      pop\n      pop\n        /* \"#utility.yul\":8170:8616   */\n    tag_166:\n        /* \"#utility.yul\":8080:8623   */\n      pop\n      pop\n      pop\n      jump\t// out\n        /* \"#utility.yul\":8629:8746   */\n    tag_64:\n        /* \"#utility.yul\":8683:8691   */\n      0x00\n        /* \"#utility.yul\":8733:8738   */\n      dup3\n        /* \"#utility.yul\":8727:8731   */\n      dup3\n        /* \"#utility.yul\":8723:8739   */\n      shr\n        /* \"#utility.yul\":8702:8739   */\n      swap1\n      pop\n        /* \"#utility.yul\":8629:8746   */\n      swap3\n      swap2\n      pop\n      pop\n      jump\t// out\n        /* \"#utility.yul\":8752:8921   */\n    tag_65:\n        /* \"#utility.yul\":8796:8802   */\n      0x00\n        /* \"#utility.yul\":8829:8880   */\n      tag_174\n        /* \"#utility.yul\":8877:8878   */\n      0x00\n        /* \"#utility.yul\":8873:8879   */\n      not\n        /* \"#utility.yul\":8865:8870   */\n      dup5\n        /* \"#utility.yul\":8862:8863   */\n      0x08\n        /* \"#utility.yul\":8858:8871   */\n      mul\n        /* \"#utility.yul\":8829:8880   */\n      tag_64\n      jump\t// in\n    tag_174:\n        /* \"#utility.yul\":8825:8881   */\n      not\n        /* \"#utility.yul\":8910:8914   */\n      dup1\n        /* \"#utility.yul\":8904:8908   */\n      dup4\n        /* \"#utility.yul\":8900:8915   */\n      and\n        /* \"#utility.yul\":8890:8915   */\n      swap2\n      pop\n        /* \"#utility.yul\":8803:8921   */\n      pop\n        /* \"#utility.yul\":8752:8921   */\n      swap3\n      swap2\n      pop\n      pop\n      jump\t// out\n        /* \"#utility.yul\":8926:9221   */\n    tag_66:\n        /* \"#utility.yul\":9002:9006   */\n      0x00\n        /* \"#utility.yul\":9148:9177   */\n      tag_176\n        /* \"#utility.yul\":9173:9176   */\n      dup4\n        /* \"#utility.yul\":9167:9171   */\n      dup4\n        /* \"#utility.yul\":9148:9177   */\n      tag_65\n      jump\t// in\n    tag_176:\n        /* \"#utility.yul\":9140:9177   */\n      swap2\n      pop\n        /* \"#utility.yul\":9210:9213   */\n      dup3\n        /* \"#utility.yul\":9207:9208   */\n      0x02\n        /* \"#utility.yul\":9203:9214   */\n      mul\n        /* \"#utility.yul\":9197:9201   */\n      dup3\n        /* \"#utility.yul\":9194:9215   */\n      or\n        /* \"#utility.yul\":9186:9215   */\n      swap1\n      pop\n        /* \"#utility.yul\":8926:9221   */\n      swap3\n      swap2\n      pop\n      pop\n      jump\t// out\n        /* \"#utility.yul\":9226:10621   */\n    tag_17:\n        /* \"#utility.yul\":9343:9380   */\n      tag_178\n        /* \"#utility.yul\":9376:9379   */\n      dup3\n        /* \"#utility.yul\":9343:9380   */\n      tag_46\n      jump\t// in\n    tag_178:\n        /* \"#utility.yul\":9445:9463   */\n      0xffffffffffffffff\n        /* \"#utility.yul\":9437:9443   */\n      dup2\n        /* \"#utility.yul\":9434:9464   */\n      gt\n        /* \"#utility.yul\":9431:9487   */\n      iszero\n      tag_179\n      jumpi\n        /* \"#utility.yul\":9467:9485   */\n      tag_180\n      tag_32\n      jump\t// in\n    tag_180:\n        /* \"#utility.yul\":9431:9487   */\n    tag_179:\n        /* \"#utility.yul\":9511:9549   */\n      tag_181\n        /* \"#utility.yul\":9543:9547   */\n      dup3\n        /* \"#utility.yul\":9537:9548   */\n      sload\n        /* \"#utility.yul\":9511:9549   */\n      tag_21\n      jump\t// in\n    tag_181:\n        /* \"#utility.yul\":9596:9663   */\n      tag_182\n        /* \"#utility.yul\":9656:9662   */\n      dup3\n        /* \"#utility.yul\":9648:9654   */\n      dup3\n        /* \"#utility.yul\":9642:9646   */\n      dup6\n        /* \"#utility.yul\":9596:9663   */\n      tag_63\n      jump\t// in\n    tag_182:\n        /* \"#utility.yul\":9690:9691   */\n      0x00\n        /* \"#utility.yul\":9714:9718   */\n      0x20\n        /* \"#utility.yul\":9701:9718   */\n      swap1\n      pop\n        /* \"#utility.yul\":9746:9748   */\n      0x1f\n        /* \"#utility.yul\":9738:9744   */\n      dup4\n        /* \"#utility.yul\":9735:9749   */\n      gt\n        /* \"#utility.yul\":9763:9764   */\n      0x01\n        /* \"#utility.yul\":9758:10376   */\n      dup2\n      eq\n      tag_184\n      jumpi\n        /* \"#utility.yul\":10420:10421   */\n      0x00\n        /* \"#utility.yul\":10437:10443   */\n      dup5\n        /* \"#utility.yul\":10434:10511   */\n      iszero\n      tag_185\n      jumpi\n        /* \"#utility.yul\":10486:10495   */\n      dup3\n        /* \"#utility.yul\":10481:10484   */\n      dup8\n        /* \"#utility.yul\":10477:10496   */\n      add\n        /* \"#utility.yul\":10471:10497   */\n      mload\n        /* \"#utility.yul\":10462:10497   */\n      swap1\n      pop\n        /* \"#utility.yul\":10434:10511   */\n    tag_185:\n        /* \"#utility.yul\":10537:10604   */\n      tag_186\n        /* \"#utility.yul\":10597:10603   */\n      dup6\n        /* \"#utility.yul\":10590:10595   */\n      dup3\n        /* \"#utility.yul\":10537:10604   */\n      tag_66\n      jump\t// in\n    tag_186:\n        /* \"#utility.yul\":10531:10535   */\n      dup7\n        /* \"#utility.yul\":10524:10605   */\n      sstore\n        /* \"#utility.yul\":10393:10615   */\n      pop\n        /* \"#utility.yul\":9728:10615   */\n      jump(tag_183)\n        /* \"#utility.yul\":9758:10376   */\n    tag_184:\n        /* \"#utility.yul\":9810:9814   */\n      0x1f\n        /* \"#utility.yul\":9806:9815   */\n      not\n        /* \"#utility.yul\":9798:9804   */\n      dup5\n        /* \"#utility.yul\":9794:9816   */\n      and\n        /* \"#utility.yul\":9844:9881   */\n      tag_187\n        /* \"#utility.yul\":9876:9880   */\n      dup7\n        /* \"#utility.yul\":9844:9881   */\n      tag_52\n      jump\t// in\n    tag_187:\n        /* \"#utility.yul\":9903:9904   */\n      0x00\n        /* \"#utility.yul\":9917:10125   */\n    tag_188:\n        /* \"#utility.yul\":9931:9938   */\n      dup3\n        /* \"#utility.yul\":9928:9929   */\n      dup2\n        /* \"#utility.yul\":9925:9939   */\n      lt\n        /* \"#utility.yul\":9917:10125   */\n      iszero\n      tag_190\n      jumpi\n        /* \"#utility.yul\":10010:10019   */\n      dup5\n        /* \"#utility.yul\":10005:10008   */\n      dup10\n        /* \"#utility.yul\":10001:10020   */\n      add\n        /* \"#utility.yul\":9995:10021   */\n      mload\n        /* \"#utility.yul\":9987:9993   */\n      dup3\n        /* \"#utility.yul\":9980:10022   */\n      sstore\n        /* \"#utility.yul\":10061:10062   */\n      0x01\n        /* \"#utility.yul\":10053:10059   */\n      dup3\n        /* \"#utility.yul\":10049:10063   */\n      add\n        /* \"#utility.yul\":10039:10063   */\n      swap2\n      pop\n        /* \"#utility.yul\":10108:10110   */\n      0x20\n        /* \"#utility.yul\":10097:10106   */\n      dup6\n        /* \"#utility.yul\":10093:10111   */\n      add\n        /* \"#utility.yul\":10080:10111   */\n      swap5\n      pop\n        /* \"#utility.yul\":9954:9958   */\n      0x20\n        /* \"#utility.yul\":9951:9952   */\n      dup2\n        /* \"#utility.yul\":9947:9959   */\n      add\n        /* \"#utility.yul\":9942:9959   */\n      swap1\n      pop\n        /* \"#utility.yul\":9917:10125   */\n      jump(tag_188)\n    tag_190:\n        /* \"#utility.yul\":10153:10159   */\n      dup7\n        /* \"#utility.yul\":10144:10151   */\n      dup4\n        /* \"#utility.yul\":10141:10160   */\n      lt\n        /* \"#utility.yul\":10138:10317   */\n      iszero\n      tag_191\n      jumpi\n        /* \"#utility.yul\":10211:10220   */\n      dup5\n        /* \"#utility.yul\":10206:10209   */\n      dup10\n        /* \"#utility.yul\":10202:10221   */\n      add\n        /* \"#utility.yul\":10196:10222   */\n      mload\n        /* \"#utility.yul\":10254:10302   */\n      tag_192\n        /* \"#utility.yul\":10296:10300   */\n      0x1f\n        /* \"#utility.yul\":10288:10294   */\n      dup10\n        /* \"#utility.yul\":10284:10301   */\n      and\n        /* \"#utility.yul\":10273:10282   */\n      dup3\n        /* \"#utility.yul\":10254:10302   */\n      tag_65\n      jump\t// in\n    tag_192:\n        /* \"#utility.yul\":10246:10252   */\n      dup4\n        /* \"#utility.yul\":10239:10303   */\n      sstore\n        /* \"#utility.yul\":10161:10317   */\n      pop\n        /* \"#utility.yul\":10138:10317   */\n    tag_191:\n        /* \"#utility.yul\":10363:10364   */\n      0x01\n        /* \"#utility.yul\":10359:10360   */\n      0x02\n        /* \"#utility.yul\":10351:10357   */\n      dup9\n        /* \"#utility.yul\":10347:10361   */\n      mul\n        /* \"#utility.yul\":10343:10365   */\n      add\n        /* \"#utility.yul\":10337:10341   */\n      dup9\n        /* \"#utility.yul\":10330:10366   */\n      sstore\n        /* \"#utility.yul\":9765:10376   */\n      pop\n      pop\n      pop\n        /* \"#utility.yul\":9728:10615   */\n    tag_183:\n      pop\n        /* \"#utility.yul\":9318:10621   */\n      pop\n      pop\n      pop\n        /* \"#utility.yul\":9226:10621   */\n      pop\n      pop\n      jump\t// out\n        /* \"#utility.yul\":10627:10940   */\n    tag_19:\n        /* \"#utility.yul\":10740:10744   */\n      0x00\n        /* \"#utility.yul\":10778:10780   */\n      0x20\n        /* \"#utility.yul\":10767:10776   */\n      dup3\n        /* \"#utility.yul\":10763:10781   */\n      add\n        /* \"#utility.yul\":10755:10781   */\n      swap1\n      pop\n        /* \"#utility.yul\":10827:10836   */\n      dup2\n        /* \"#utility.yul\":10821:10825   */\n      dup2\n        /* \"#utility.yul\":10817:10837   */\n      sub\n        /* \"#utility.yul\":10813:10814   */\n      0x00\n        /* \"#utility.yul\":10802:10811   */\n      dup4\n        /* \"#utility.yul\":10798:10815   */\n      add\n        /* \"#utility.yul\":10791:10838   */\n      mstore\n        /* \"#utility.yul\":10855:10933   */\n      tag_194\n        /* \"#utility.yul\":10928:10932   */\n      dup2\n        /* \"#utility.yul\":10919:10925   */\n      dup5\n        /* \"#utility.yul\":10855:10933   */\n      tag_49\n      jump\t// in\n    tag_194:\n        /* \"#utility.yul\":10847:10933   */\n      swap1\n      pop\n        /* \"#utility.yul\":10627:10940   */\n      swap3\n      swap2\n      pop\n      pop\n      jump\t// out\n\n    auxdata: 0xa26469706673582212204defb9e28ee491008d13e123839aa72378f44c1fa25ac7d7d7299d16c25bae6264736f6c634300081a0033\n}\n",
				"bytecode": {
					"linkReferences": {},
					"object": "6080604052348015600e575f80fd5b506107f18061001c5f395ff3fe608060405234801561000f575f80fd5b5060043610610034575f3560e01c8063361bf5f614610038578063a87430ba14610054575b5f80fd5b610052600480360381019061004d9190610356565b610085565b005b61006e6004803603810190610069919061040a565b610131565b60405161007c9291906104a4565b60405180910390f35b5f805f3373ffffffffffffffffffffffffffffffffffffffff1673ffffffffffffffffffffffffffffffffffffffff1681526020019081526020015f20905082815f0190816100d491906106cc565b508181600101819055503373ffffffffffffffffffffffffffffffffffffffff167f1d2b3529f3edbf84c2fbf46a16fa81880bd170f19142f18267f113903389a6dc84604051610124919061079b565b60405180910390a2505050565b5f602052805f5260405f205f91509050805f01805461014f906104ff565b80601f016020809104026020016040519081016040528092919081815260200182805461017b906104ff565b80156101c65780601f1061019d576101008083540402835291602001916101c6565b820191905f5260205f20905b8154815290600101906020018083116101a957829003601f168201915b5050505050908060010154905082565b5f604051905090565b5f80fd5b5f80fd5b5f80fd5b5f80fd5b5f601f19601f8301169050919050565b7f4e487b71000000000000000000000000000000000000000000000000000000005f52604160045260245ffd5b610235826101ef565b810181811067ffffffffffffffff82111715610254576102536101ff565b5b80604052505050565b5f6102666101d6565b9050610272828261022c565b919050565b5f67ffffffffffffffff821115610291576102906101ff565b5b61029a826101ef565b9050602081019050919050565b828183375f83830152505050565b5f6102c76102c284610277565b61025d565b9050828152602081018484840111156102e3576102e26101eb565b5b6102ee8482856102a7565b509392505050565b5f82601f83011261030a576103096101e7565b5b813561031a8482602086016102b5565b91505092915050565b5f819050919050565b61033581610323565b811461033f575f80fd5b50565b5f813590506103508161032c565b92915050565b5f806040838503121561036c5761036b6101df565b5b5f83013567ffffffffffffffff811115610389576103886101e3565b5b610395858286016102f6565b92505060206103a685828601610342565b9150509250929050565b5f73ffffffffffffffffffffffffffffffffffffffff82169050919050565b5f6103d9826103b0565b9050919050565b6103e9816103cf565b81146103f3575f80fd5b50565b5f81359050610404816103e0565b92915050565b5f6020828403121561041f5761041e6101df565b5b5f61042c848285016103f6565b91505092915050565b5f81519050919050565b5f82825260208201905092915050565b8281835e5f83830152505050565b5f61046782610435565b610471818561043f565b935061048181856020860161044f565b61048a816101ef565b840191505092915050565b61049e81610323565b82525050565b5f6040820190508181035f8301526104bc818561045d565b90506104cb6020830184610495565b9392505050565b7f4e487b71000000000000000000000000000000000000000000000000000000005f52602260045260245ffd5b5f600282049050600182168061051657607f821691505b602082108103610529576105286104d2565b5b50919050565b5f819050815f5260205f209050919050565b5f6020601f8301049050919050565b5f82821b905092915050565b5f6008830261058b7fffffffffffffffffffffffffffffffffffffffffffffffffffffffffffffffff82610550565b6105958683610550565b95508019841693508086168417925050509392505050565b5f819050919050565b5f6105d06105cb6105c684610323565b6105ad565b610323565b9050919050565b5f819050919050565b6105e9836105b6565b6105fd6105f5826105d7565b84845461055c565b825550505050565b5f90565b610611610605565b61061c8184846105e0565b505050565b5b8181101561063f576106345f82610609565b600181019050610622565b5050565b601f821115610684576106558161052f565b61065e84610541565b8101602085101561066d578190505b61068161067985610541565b830182610621565b50505b505050565b5f82821c905092915050565b5f6106a45f1984600802610689565b1980831691505092915050565b5f6106bc8383610695565b9150826002028217905092915050565b6106d582610435565b67ffffffffffffffff8111156106ee576106ed6101ff565b5b6106f882546104ff565b610703828285610643565b5f60209050601f831160018114610734575f8415610722578287015190505b61072c85826106b1565b865550610793565b601f1984166107428661052f565b5f5b8281101561076957848901518255600182019150602085019450602081019050610744565b868310156107865784890151610782601f891682610695565b8355505b6001600288020188555050505b505050505050565b5f6020820190508181035f8301526107b3818461045d565b90509291505056fea26469706673582212204defb9e28ee491008d13e123839aa72378f44c1fa25ac7d7d7299d16c25bae6264736f6c634300081a0033",
					"opcodes": "PUSH1 0x80 PUSH1 0x40 MSTORE CALLVALUE DUP1 ISZERO PUSH1 0xE JUMPI PUSH0 DUP1 REVERT JUMPDEST POP PUSH2 0x7F1 DUP1 PUSH2 0x1C PUSH0 CODECOPY PUSH0 RETURN INVALID PUSH1 0x80 PUSH1 0x40 MSTORE CALLVALUE DUP1 ISZERO PUSH2 0xF JUMPI PUSH0 DUP1 REVERT JUMPDEST POP PUSH1 0x4 CALLDATASIZE LT PUSH2 0x34 JUMPI PUSH0 CALLDATALOAD PUSH1 0xE0 SHR DUP1 PUSH4 0x361BF5F6 EQ PUSH2 0x38 JUMPI DUP1 PUSH4 0xA87430BA EQ PUSH2 0x54 JUMPI JUMPDEST PUSH0 DUP1 REVERT JUMPDEST PUSH2 0x52 PUSH1 0x4 DUP1 CALLDATASIZE SUB DUP2 ADD SWAP1 PUSH2 0x4D SWAP2 SWAP1 PUSH2 0x356 JUMP JUMPDEST PUSH2 0x85 JUMP JUMPDEST STOP JUMPDEST PUSH2 0x6E PUSH1 0x4 DUP1 CALLDATASIZE SUB DUP2 ADD SWAP1 PUSH2 0x69 SWAP2 SWAP1 PUSH2 0x40A JUMP JUMPDEST PUSH2 0x131 JUMP JUMPDEST PUSH1 0x40 MLOAD PUSH2 0x7C SWAP3 SWAP2 SWAP1 PUSH2 0x4A4 JUMP JUMPDEST PUSH1 0x40 MLOAD DUP1 SWAP2 SUB SWAP1 RETURN JUMPDEST PUSH0 DUP1 PUSH0 CALLER PUSH20 0xFFFFFFFFFFFFFFFFFFFFFFFFFFFFFFFFFFFFFFFF AND PUSH20 0xFFFFFFFFFFFFFFFFFFFFFFFFFFFFFFFFFFFFFFFF AND DUP2 MSTORE PUSH1 0x20 ADD SWAP1 DUP2 MSTORE PUSH1 0x20 ADD PUSH0 KECCAK256 SWAP1 POP DUP3 DUP2 PUSH0 ADD SWAP1 DUP2 PUSH2 0xD4 SWAP2 SWAP1 PUSH2 0x6CC JUMP JUMPDEST POP DUP2 DUP2 PUSH1 0x1 ADD DUP2 SWAP1 SSTORE POP CALLER PUSH20 0xFFFFFFFFFFFFFFFFFFFFFFFFFFFFFFFFFFFFFFFF AND PUSH32 0x1D2B3529F3EDBF84C2FBF46A16FA81880BD170F19142F18267F113903389A6DC DUP5 PUSH1 0x40 MLOAD PUSH2 0x124 SWAP2 SWAP1 PUSH2 0x79B JUMP JUMPDEST PUSH1 0x40 MLOAD DUP1 SWAP2 SUB SWAP1 LOG2 POP POP POP JUMP JUMPDEST PUSH0 PUSH1 0x20 MSTORE DUP1 PUSH0 MSTORE PUSH1 0x40 PUSH0 KECCAK256 PUSH0 SWAP2 POP SWAP1 POP DUP1 PUSH0 ADD DUP1 SLOAD PUSH2 0x14F SWAP1 PUSH2 0x4FF JUMP JUMPDEST DUP1 PUSH1 0x1F ADD PUSH1 0x20 DUP1 SWAP2 DIV MUL PUSH1 0x20 ADD PUSH1 0x40 MLOAD SWAP1 DUP2 ADD PUSH1 0x40 MSTORE DUP1 SWAP3 SWAP2 SWAP1 DUP2 DUP2 MSTORE PUSH1 0x20 ADD DUP3 DUP1 SLOAD PUSH2 0x17B SWAP1 PUSH2 0x4FF JUMP JUMPDEST DUP1 ISZERO PUSH2 0x1C6 JUMPI DUP1 PUSH1 0x1F LT PUSH2 0x19D JUMPI PUSH2 0x100 DUP1 DUP4 SLOAD DIV MUL DUP4 MSTORE SWAP2 PUSH1 0x20 ADD SWAP2 PUSH2 0x1C6 JUMP JUMPDEST DUP3 ADD SWAP2 SWAP1 PUSH0 MSTORE PUSH1 0x20 PUSH0 KECCAK256 SWAP1 JUMPDEST DUP2 SLOAD DUP2 MSTORE SWAP1 PUSH1 0x1 ADD SWAP1 PUSH1 0x20 ADD DUP1 DUP4 GT PUSH2 0x1A9 JUMPI DUP3 SWAP1 SUB PUSH1 0x1F AND DUP3 ADD SWAP2 JUMPDEST POP POP POP POP POP SWAP1 DUP1 PUSH1 0x1 ADD SLOAD SWAP1 POP DUP3 JUMP JUMPDEST PUSH0 PUSH1 0x40 MLOAD SWAP1 POP SWAP1 JUMP JUMPDEST PUSH0 DUP1 REVERT JUMPDEST PUSH0 DUP1 REVERT JUMPDEST PUSH0 DUP1 REVERT JUMPDEST PUSH0 DUP1 REVERT JUMPDEST PUSH0 PUSH1 0x1F NOT PUSH1 0x1F DUP4 ADD AND SWAP1 POP SWAP2 SWAP1 POP JUMP JUMPDEST PUSH32 0x4E487B7100000000000000000000000000000000000000000000000000000000 PUSH0 MSTORE PUSH1 0x41 PUSH1 0x4 MSTORE PUSH1 0x24 PUSH0 REVERT JUMPDEST PUSH2 0x235 DUP3 PUSH2 0x1EF JUMP JUMPDEST DUP2 ADD DUP2 DUP2 LT PUSH8 0xFFFFFFFFFFFFFFFF DUP3 GT OR ISZERO PUSH2 0x254 JUMPI PUSH2 0x253 PUSH2 0x1FF JUMP JUMPDEST JUMPDEST DUP1 PUSH1 0x40 MSTORE POP POP POP JUMP JUMPDEST PUSH0 PUSH2 0x266 PUSH2 0x1D6 JUMP JUMPDEST SWAP1 POP PUSH2 0x272 DUP3 DUP3 PUSH2 0x22C JUMP JUMPDEST SWAP2 SWAP1 POP JUMP JUMPDEST PUSH0 PUSH8 0xFFFFFFFFFFFFFFFF DUP3 GT ISZERO PUSH2 0x291 JUMPI PUSH2 0x290 PUSH2 0x1FF JUMP JUMPDEST JUMPDEST PUSH2 0x29A DUP3 PUSH2 0x1EF JUMP JUMPDEST SWAP1 POP PUSH1 0x20 DUP2 ADD SWAP1 POP SWAP2 SWAP1 POP JUMP JUMPDEST DUP3 DUP2 DUP4 CALLDATACOPY PUSH0 DUP4 DUP4 ADD MSTORE POP POP POP JUMP JUMPDEST PUSH0 PUSH2 0x2C7 PUSH2 0x2C2 DUP5 PUSH2 0x277 JUMP JUMPDEST PUSH2 0x25D JUMP JUMPDEST SWAP1 POP DUP3 DUP2 MSTORE PUSH1 0x20 DUP2 ADD DUP5 DUP5 DUP5 ADD GT ISZERO PUSH2 0x2E3 JUMPI PUSH2 0x2E2 PUSH2 0x1EB JUMP JUMPDEST JUMPDEST PUSH2 0x2EE DUP5 DUP3 DUP6 PUSH2 0x2A7 JUMP JUMPDEST POP SWAP4 SWAP3 POP POP POP JUMP JUMPDEST PUSH0 DUP3 PUSH1 0x1F DUP4 ADD SLT PUSH2 0x30A JUMPI PUSH2 0x309 PUSH2 0x1E7 JUMP JUMPDEST JUMPDEST DUP2 CALLDATALOAD PUSH2 0x31A DUP5 DUP3 PUSH1 0x20 DUP7 ADD PUSH2 0x2B5 JUMP JUMPDEST SWAP2 POP POP SWAP3 SWAP2 POP POP JUMP JUMPDEST PUSH0 DUP2 SWAP1 POP SWAP2 SWAP1 POP JUMP JUMPDEST PUSH2 0x335 DUP2 PUSH2 0x323 JUMP JUMPDEST DUP2 EQ PUSH2 0x33F JUMPI PUSH0 DUP1 REVERT JUMPDEST POP JUMP JUMPDEST PUSH0 DUP2 CALLDATALOAD SWAP1 POP PUSH2 0x350 DUP2 PUSH2 0x32C JUMP JUMPDEST SWAP3 SWAP2 POP POP JUMP JUMPDEST PUSH0 DUP1 PUSH1 0x40 DUP4 DUP6 SUB SLT ISZERO PUSH2 0x36C JUMPI PUSH2 0x36B PUSH2 0x1DF JUMP JUMPDEST JUMPDEST PUSH0 DUP4 ADD CALLDATALOAD PUSH8 0xFFFFFFFFFFFFFFFF DUP2 GT ISZERO PUSH2 0x389 JUMPI PUSH2 0x388 PUSH2 0x1E3 JUMP JUMPDEST JUMPDEST PUSH2 0x395 DUP6 DUP3 DUP7 ADD PUSH2 0x2F6 JUMP JUMPDEST SWAP3 POP POP PUSH1 0x20 PUSH2 0x3A6 DUP6 DUP3 DUP7 ADD PUSH2 0x342 JUMP JUMPDEST SWAP2 POP POP SWAP3 POP SWAP3 SWAP1 POP JUMP JUMPDEST PUSH0 PUSH20 0xFFFFFFFFFFFFFFFFFFFFFFFFFFFFFFFFFFFFFFFF DUP3 AND SWAP1 POP SWAP2 SWAP1 POP JUMP JUMPDEST PUSH0 PUSH2 0x3D9 DUP3 PUSH2 0x3B0 JUMP JUMPDEST SWAP1 POP SWAP2 SWAP1 POP JUMP JUMPDEST PUSH2 0x3E9 DUP2 PUSH2 0x3CF JUMP JUMPDEST DUP2 EQ PUSH2 0x3F3 JUMPI PUSH0 DUP1 REVERT JUMPDEST POP JUMP JUMPDEST PUSH0 DUP2 CALLDATALOAD SWAP1 POP PUSH2 0x404 DUP2 PUSH2 0x3E0 JUMP JUMPDEST SWAP3 SWAP2 POP POP JUMP JUMPDEST PUSH0 PUSH1 0x20 DUP3 DUP5 SUB SLT ISZERO PUSH2 0x41F JUMPI PUSH2 0x41E PUSH2 0x1DF JUMP JUMPDEST JUMPDEST PUSH0 PUSH2 0x42C DUP5 DUP3 DUP6 ADD PUSH2 0x3F6 JUMP JUMPDEST SWAP2 POP POP SWAP3 SWAP2 POP POP JUMP JUMPDEST PUSH0 DUP2 MLOAD SWAP1 POP SWAP2 SWAP1 POP JUMP JUMPDEST PUSH0 DUP3 DUP3 MSTORE PUSH1 0x20 DUP3 ADD SWAP1 POP SWAP3 SWAP2 POP POP JUMP JUMPDEST DUP3 DUP2 DUP4 MCOPY PUSH0 DUP4 DUP4 ADD MSTORE POP POP POP JUMP JUMPDEST PUSH0 PUSH2 0x467 DUP3 PUSH2 0x435 JUMP JUMPDEST PUSH2 0x471 DUP2 DUP6 PUSH2 0x43F JUMP JUMPDEST SWAP4 POP PUSH2 0x481 DUP2 DUP6 PUSH1 0x20 DUP7 ADD PUSH2 0x44F JUMP JUMPDEST PUSH2 0x48A DUP2 PUSH2 0x1EF JUMP JUMPDEST DUP5 ADD SWAP2 POP POP SWAP3 SWAP2 POP POP JUMP JUMPDEST PUSH2 0x49E DUP2 PUSH2 0x323 JUMP JUMPDEST DUP3 MSTORE POP POP JUMP JUMPDEST PUSH0 PUSH1 0x40 DUP3 ADD SWAP1 POP DUP2 DUP2 SUB PUSH0 DUP4 ADD MSTORE PUSH2 0x4BC DUP2 DUP6 PUSH2 0x45D JUMP JUMPDEST SWAP1 POP PUSH2 0x4CB PUSH1 0x20 DUP4 ADD DUP5 PUSH2 0x495 JUMP JUMPDEST SWAP4 SWAP3 POP POP POP JUMP JUMPDEST PUSH32 0x4E487B7100000000000000000000000000000000000000000000000000000000 PUSH0 MSTORE PUSH1 0x22 PUSH1 0x4 MSTORE PUSH1 0x24 PUSH0 REVERT JUMPDEST PUSH0 PUSH1 0x2 DUP3 DIV SWAP1 POP PUSH1 0x1 DUP3 AND DUP1 PUSH2 0x516 JUMPI PUSH1 0x7F DUP3 AND SWAP2 POP JUMPDEST PUSH1 0x20 DUP3 LT DUP2 SUB PUSH2 0x529 JUMPI PUSH2 0x528 PUSH2 0x4D2 JUMP JUMPDEST JUMPDEST POP SWAP2 SWAP1 POP JUMP JUMPDEST PUSH0 DUP2 SWAP1 POP DUP2 PUSH0 MSTORE PUSH1 0x20 PUSH0 KECCAK256 SWAP1 POP SWAP2 SWAP1 POP JUMP JUMPDEST PUSH0 PUSH1 0x20 PUSH1 0x1F DUP4 ADD DIV SWAP1 POP SWAP2 SWAP1 POP JUMP JUMPDEST PUSH0 DUP3 DUP3 SHL SWAP1 POP SWAP3 SWAP2 POP POP JUMP JUMPDEST PUSH0 PUSH1 0x8 DUP4 MUL PUSH2 0x58B PUSH32 0xFFFFFFFFFFFFFFFFFFFFFFFFFFFFFFFFFFFFFFFFFFFFFFFFFFFFFFFFFFFFFFFF DUP3 PUSH2 0x550 JUMP JUMPDEST PUSH2 0x595 DUP7 DUP4 PUSH2 0x550 JUMP JUMPDEST SWAP6 POP DUP1 NOT DUP5 AND SWAP4 POP DUP1 DUP7 AND DUP5 OR SWAP3 POP POP POP SWAP4 SWAP3 POP POP POP JUMP JUMPDEST PUSH0 DUP2 SWAP1 POP SWAP2 SWAP1 POP JUMP JUMPDEST PUSH0 PUSH2 0x5D0 PUSH2 0x5CB PUSH2 0x5C6 DUP5 PUSH2 0x323 JUMP JUMPDEST PUSH2 0x5AD JUMP JUMPDEST PUSH2 0x323 JUMP JUMPDEST SWAP1 POP SWAP2 SWAP1 POP JUMP JUMPDEST PUSH0 DUP2 SWAP1 POP SWAP2 SWAP1 POP JUMP JUMPDEST PUSH2 0x5E9 DUP4 PUSH2 0x5B6 JUMP JUMPDEST PUSH2 0x5FD PUSH2 0x5F5 DUP3 PUSH2 0x5D7 JUMP JUMPDEST DUP5 DUP5 SLOAD PUSH2 0x55C JUMP JUMPDEST DUP3 SSTORE POP POP POP POP JUMP JUMPDEST PUSH0 SWAP1 JUMP JUMPDEST PUSH2 0x611 PUSH2 0x605 JUMP JUMPDEST PUSH2 0x61C DUP2 DUP5 DUP5 PUSH2 0x5E0 JUMP JUMPDEST POP POP POP JUMP JUMPDEST JUMPDEST DUP2 DUP2 LT ISZERO PUSH2 0x63F JUMPI PUSH2 0x634 PUSH0 DUP3 PUSH2 0x609 JUMP JUMPDEST PUSH1 0x1 DUP2 ADD SWAP1 POP PUSH2 0x622 JUMP JUMPDEST POP POP JUMP JUMPDEST PUSH1 0x1F DUP3 GT ISZERO PUSH2 0x684 JUMPI PUSH2 0x655 DUP2 PUSH2 0x52F JUMP JUMPDEST PUSH2 0x65E DUP5 PUSH2 0x541 JUMP JUMPDEST DUP2 ADD PUSH1 0x20 DUP6 LT ISZERO PUSH2 0x66D JUMPI DUP2 SWAP1 POP JUMPDEST PUSH2 0x681 PUSH2 0x679 DUP6 PUSH2 0x541 JUMP JUMPDEST DUP4 ADD DUP3 PUSH2 0x621 JUMP JUMPDEST POP POP JUMPDEST POP POP POP JUMP JUMPDEST PUSH0 DUP3 DUP3 SHR SWAP1 POP SWAP3 SWAP2 POP POP JUMP JUMPDEST PUSH0 PUSH2 0x6A4 PUSH0 NOT DUP5 PUSH1 0x8 MUL PUSH2 0x689 JUMP JUMPDEST NOT DUP1 DUP4 AND SWAP2 POP POP SWAP3 SWAP2 POP POP JUMP JUMPDEST PUSH0 PUSH2 0x6BC DUP4 DUP4 PUSH2 0x695 JUMP JUMPDEST SWAP2 POP DUP3 PUSH1 0x2 MUL DUP3 OR SWAP1 POP SWAP3 SWAP2 POP POP JUMP JUMPDEST PUSH2 0x6D5 DUP3 PUSH2 0x435 JUMP JUMPDEST PUSH8 0xFFFFFFFFFFFFFFFF DUP2 GT ISZERO PUSH2 0x6EE JUMPI PUSH2 0x6ED PUSH2 0x1FF JUMP JUMPDEST JUMPDEST PUSH2 0x6F8 DUP3 SLOAD PUSH2 0x4FF JUMP JUMPDEST PUSH2 0x703 DUP3 DUP3 DUP6 PUSH2 0x643 JUMP JUMPDEST PUSH0 PUSH1 0x20 SWAP1 POP PUSH1 0x1F DUP4 GT PUSH1 0x1 DUP2 EQ PUSH2 0x734 JUMPI PUSH0 DUP5 ISZERO PUSH2 0x722 JUMPI DUP3 DUP8 ADD MLOAD SWAP1 POP JUMPDEST PUSH2 0x72C DUP6 DUP3 PUSH2 0x6B1 JUMP JUMPDEST DUP7 SSTORE POP PUSH2 0x793 JUMP JUMPDEST PUSH1 0x1F NOT DUP5 AND PUSH2 0x742 DUP7 PUSH2 0x52F JUMP JUMPDEST PUSH0 JUMPDEST DUP3 DUP2 LT ISZERO PUSH2 0x769 JUMPI DUP5 DUP10 ADD MLOAD DUP3 SSTORE PUSH1 0x1 DUP3 ADD SWAP2 POP PUSH1 0x20 DUP6 ADD SWAP5 POP PUSH1 0x20 DUP2 ADD SWAP1 POP PUSH2 0x744 JUMP JUMPDEST DUP7 DUP4 LT ISZERO PUSH2 0x786 JUMPI DUP5 DUP10 ADD MLOAD PUSH2 0x782 PUSH1 0x1F DUP10 AND DUP3 PUSH2 0x695 JUMP JUMPDEST DUP4 SSTORE POP JUMPDEST PUSH1 0x1 PUSH1 0x2 DUP9 MUL ADD DUP9 SSTORE POP POP POP JUMPDEST POP POP POP POP POP POP JUMP JUMPDEST PUSH0 PUSH1 0x20 DUP3 ADD SWAP1 POP DUP2 DUP2 SUB PUSH0 DUP4 ADD MSTORE PUSH2 0x7B3 DUP2 DUP5 PUSH2 0x45D JUMP JUMPDEST SWAP1 POP SWAP3 SWAP2 POP POP JUMP INVALID LOG2 PUSH5 0x6970667358 0x22 SLT KECCAK256 0x4D 0xEF 0xB9 0xE2 DUP15 0xE4 SWAP2 STOP DUP14 SGT 0xE1 0x23 DUP4 SWAP11 0xA7 0x23 PUSH25 0xF44C1FA25AC7D7D7299D16C25BAE6264736F6C634300081A00 CALLER "
				},
				"gasEstimates": {
					"creation": {
						"codeDepositCost": "406600",
						"executionCost": "441",
						"totalCost": "407041"
					},
					"external": {
						"registerUsers(string,uint256)": "infinite",
						"users(address)": "infinite"
					}
				},
				"methodIdentifiers": {
					"registerUsers(string,uint256)": "361bf5f6",
					"users(address)": "a87430ba"
				}
			},
			"storageLayout": {
				"storage": [
					{
						"astId": 17,
						"contract": "contracts/Events-Solution.sol:EventExample",
						"label": "users",
						"offset": 0,
						"slot": "0",
						"type": "t_mapping(t_address,t_struct(User)12_storage)"
					}
				],
				"types": {
					"t_address": {
						"encoding": "inplace",
						"label": "address",
						"numberOfBytes": "20"
					},
					"t_mapping(t_address,t_struct(User)12_storage)": {
						"encoding": "mapping",
						"key": "t_address",
						"label": "mapping(address => struct EventExample.User)",
						"numberOfBytes": "32",
						"value": "t_struct(User)12_storage"
					},
					"t_string_storage": {
						"encoding": "bytes",
						"label": "string",
						"numberOfBytes": "32"
					},
					"t_struct(User)12_storage": {
						"encoding": "inplace",
						"label": "struct EventExample.User",
						"members": [
							{
								"astId": 9,
								"contract": "contracts/Events-Solution.sol:EventExample",
								"label": "username",
								"offset": 0,
								"slot": "0",
								"type": "t_string_storage"
							},
							{
								"astId": 11,
								"contract": "contracts/Events-Solution.sol:EventExample",
								"label": "age",
								"offset": 0,
								"slot": "1",
								"type": "t_uint256"
							}
						],
						"numberOfBytes": "64"
					},
					"t_uint256": {
						"encoding": "inplace",
						"label": "uint256",
						"numberOfBytes": "32"
					}
				}
			},
			"userdoc": {
				"kind": "user",
				"methods": {},
				"version": 1
			}
		}
	}
}