{
	"contracts/Twitter-Interaction-Exercise-Main.sol": {
		"Twitter": {
			"abi": [
				{
					"inputs": [
						{
							"internalType": "address",
							"name": "initialOwner",
							"type": "address"
						}
					],
					"stateMutability": "nonpayable",
					"type": "constructor"
				},
				{
					"inputs": [
						{
							"internalType": "address",
							"name": "owner",
							"type": "address"
						}
					],
					"name": "OwnableInvalidOwner",
					"type": "error"
				},
				{
					"inputs": [
						{
							"internalType": "address",
							"name": "account",
							"type": "address"
						}
					],
					"name": "OwnableUnauthorizedAccount",
					"type": "error"
				},
				{
					"anonymous": false,
					"inputs": [
						{
							"indexed": true,
							"internalType": "address",
							"name": "previousOwner",
							"type": "address"
						},
						{
							"indexed": true,
							"internalType": "address",
							"name": "newOwner",
							"type": "address"
						}
					],
					"name": "OwnershipTransferred",
					"type": "event"
				},
				{
					"anonymous": false,
					"inputs": [
						{
							"indexed": false,
							"internalType": "uint256",
							"name": "id",
							"type": "uint256"
						},
						{
							"indexed": false,
							"internalType": "address",
							"name": "author",
							"type": "address"
						},
						{
							"indexed": false,
							"internalType": "string",
							"name": "content",
							"type": "string"
						},
						{
							"indexed": false,
							"internalType": "uint256",
							"name": "timestamp",
							"type": "uint256"
						}
					],
					"name": "TweetCreated",
					"type": "event"
				},
				{
					"anonymous": false,
					"inputs": [
						{
							"indexed": false,
							"internalType": "address",
							"name": "liker",
							"type": "address"
						},
						{
							"indexed": false,
							"internalType": "address",
							"name": "tweetAuthor",
							"type": "address"
						},
						{
							"indexed": false,
							"internalType": "uint256",
							"name": "tweetId",
							"type": "uint256"
						},
						{
							"indexed": false,
							"internalType": "uint256",
							"name": "newLikeCount",
							"type": "uint256"
						}
					],
					"name": "TweetLiked",
					"type": "event"
				},
				{
					"anonymous": false,
					"inputs": [
						{
							"indexed": false,
							"internalType": "address",
							"name": "unliker",
							"type": "address"
						},
						{
							"indexed": false,
							"internalType": "address",
							"name": "tweetAuthor",
							"type": "address"
						},
						{
							"indexed": false,
							"internalType": "uint256",
							"name": "tweetId",
							"type": "uint256"
						},
						{
							"indexed": false,
							"internalType": "uint256",
							"name": "newLikeCount",
							"type": "uint256"
						}
					],
					"name": "TweetUnliked",
					"type": "event"
				},
				{
					"inputs": [],
					"name": "MAX_TWEET_LENGTH",
					"outputs": [
						{
							"internalType": "uint16",
							"name": "",
							"type": "uint16"
						}
					],
					"stateMutability": "view",
					"type": "function"
				},
				{
					"inputs": [
						{
							"internalType": "string",
							"name": "_tweet",
							"type": "string"
						}
					],
					"name": "createTweet",
					"outputs": [],
					"stateMutability": "nonpayable",
					"type": "function"
				},
				{
					"inputs": [
						{
							"internalType": "address",
							"name": "_owner",
							"type": "address"
						}
					],
					"name": "getAllTweets",
					"outputs": [
						{
							"components": [
								{
									"internalType": "uint256",
									"name": "id",
									"type": "uint256"
								},
								{
									"internalType": "address",
									"name": "author",
									"type": "address"
								},
								{
									"internalType": "string",
									"name": "content",
									"type": "string"
								},
								{
									"internalType": "uint256",
									"name": "timestamp",
									"type": "uint256"
								},
								{
									"internalType": "uint256",
									"name": "likes",
									"type": "uint256"
								}
							],
							"internalType": "struct Twitter.Tweet[]",
							"name": "",
							"type": "tuple[]"
						}
					],
					"stateMutability": "view",
					"type": "function"
				},
				{
					"inputs": [
						{
							"internalType": "address",
							"name": "_author",
							"type": "address"
						}
					],
					"name": "getTotalLikes",
					"outputs": [
						{
							"internalType": "uint256",
							"name": "",
							"type": "uint256"
						}
					],
					"stateMutability": "view",
					"type": "function"
				},
				{
					"inputs": [
						{
							"internalType": "uint256",
							"name": "_i",
							"type": "uint256"
						}
					],
					"name": "getTweet",
					"outputs": [
						{
							"components": [
								{
									"internalType": "uint256",
									"name": "id",
									"type": "uint256"
								},
								{
									"internalType": "address",
									"name": "author",
									"type": "address"
								},
								{
									"internalType": "string",
									"name": "content",
									"type": "string"
								},
								{
									"internalType": "uint256",
									"name": "timestamp",
									"type": "uint256"
								},
								{
									"internalType": "uint256",
									"name": "likes",
									"type": "uint256"
								}
							],
							"internalType": "struct Twitter.Tweet",
							"name": "",
							"type": "tuple"
						}
					],
					"stateMutability": "view",
					"type": "function"
				},
				{
					"inputs": [
						{
							"internalType": "address",
							"name": "author",
							"type": "address"
						},
						{
							"internalType": "uint256",
							"name": "id",
							"type": "uint256"
						}
					],
					"name": "likeTweet",
					"outputs": [],
					"stateMutability": "nonpayable",
					"type": "function"
				},
				{
					"inputs": [],
					"name": "owner",
					"outputs": [
						{
							"internalType": "address",
							"name": "",
							"type": "address"
						}
					],
					"stateMutability": "view",
					"type": "function"
				},
				{
					"inputs": [],
					"name": "renounceOwnership",
					"outputs": [],
					"stateMutability": "nonpayable",
					"type": "function"
				},
				{
					"inputs": [
						{
							"internalType": "address",
							"name": "newOwner",
							"type": "address"
						}
					],
					"name": "transferOwnership",
					"outputs": [],
					"stateMutability": "nonpayable",
					"type": "function"
				},
				{
					"inputs": [
						{
							"internalType": "address",
							"name": "",
							"type": "address"
						},
						{
							"internalType": "uint256",
							"name": "",
							"type": "uint256"
						}
					],
					"name": "tweets",
					"outputs": [
						{
							"internalType": "uint256",
							"name": "id",
							"type": "uint256"
						},
						{
							"internalType": "address",
							"name": "author",
							"type": "address"
						},
						{
							"internalType": "string",
							"name": "content",
							"type": "string"
						},
						{
							"internalType": "uint256",
							"name": "timestamp",
							"type": "uint256"
						},
						{
							"internalType": "uint256",
							"name": "likes",
							"type": "uint256"
						}
					],
					"stateMutability": "view",
					"type": "function"
				},
				{
					"inputs": [
						{
							"internalType": "address",
							"name": "author",
							"type": "address"
						},
						{
							"internalType": "uint256",
							"name": "id",
							"type": "uint256"
						}
					],
					"name": "unlikeTweet",
					"outputs": [],
					"stateMutability": "nonpayable",
					"type": "function"
				}
			],
			"devdoc": {
				"errors": {
					"OwnableInvalidOwner(address)": [
						{
							"details": "The owner is not a valid owner account. (eg. `address(0)`)"
						}
					],
					"OwnableUnauthorizedAccount(address)": [
						{
							"details": "The caller account is not authorized to perform an operation."
						}
					]
				},
				"kind": "dev",
				"methods": {
					"owner()": {
						"details": "Returns the address of the current owner."
					},
					"renounceOwnership()": {
						"details": "Leaves the contract without owner. It will not be possible to call `onlyOwner` functions. Can only be called by the current owner. NOTE: Renouncing ownership will leave the contract without an owner, thereby disabling any functionality that is only available to the owner."
					},
					"transferOwnership(address)": {
						"details": "Transfers ownership of the contract to a new account (`newOwner`). Can only be called by the current owner."
					}
				},
				"version": 1
			},
			"evm": {
				"assembly": "    /* \"contracts/Twitter-Interaction-Exercise-Main.sol\":848:3698  contract Twitter is Ownable {... */\n  mstore(0x40, 0x80)\n    /* \"contracts/Twitter-Interaction-Exercise-Main.sol\":915:918  280 */\n  0x0118\n    /* \"contracts/Twitter-Interaction-Exercise-Main.sol\":882:918  uint16 public MAX_TWEET_LENGTH = 280 */\n  0x00\n  exp(0x0100, 0x14)\n  dup2\n  sload\n  dup2\n  0xffff\n  mul\n  not\n  and\n  swap1\n  dup4\n  0xffff\n  and\n  mul\n  or\n  swap1\n  sstore\n  pop\n    /* \"contracts/Twitter-Interaction-Exercise-Main.sol\":1825:1938  constructor(address initialOwner) Ownable(initialOwner) {... */\n  callvalue\n  dup1\n  iszero\n  tag_1\n  jumpi\n  0x00\n  dup1\n  revert\ntag_1:\n  pop\n  mload(0x40)\n  sub(codesize, bytecodeSize)\n  dup1\n  bytecodeSize\n  dup4\n  codecopy\n  dup2\n  dup2\n  add\n  0x40\n  mstore\n  dup2\n  add\n  swap1\n  tag_2\n  swap2\n  swap1\n  tag_3\n  jump\t// in\ntag_2:\n    /* \"contracts/Twitter-Interaction-Exercise-Main.sol\":1867:1879  initialOwner */\n  dup1\n    /* \"@openzeppelin/contracts/access/Ownable.sol\":1297:1298  0 */\n  0x00\n    /* \"@openzeppelin/contracts/access/Ownable.sol\":1273:1299  initialOwner == address(0) */\n  0xffffffffffffffffffffffffffffffffffffffff\n  and\n    /* \"@openzeppelin/contracts/access/Ownable.sol\":1273:1285  initialOwner */\n  dup2\n    /* \"@openzeppelin/contracts/access/Ownable.sol\":1273:1299  initialOwner == address(0) */\n  0xffffffffffffffffffffffffffffffffffffffff\n  and\n  sub\n    /* \"@openzeppelin/contracts/access/Ownable.sol\":1269:1364  if (initialOwner == address(0)) {... */\n  tag_7\n  jumpi\n    /* \"@openzeppelin/contracts/access/Ownable.sol\":1350:1351  0 */\n  0x00\n    /* \"@openzeppelin/contracts/access/Ownable.sol\":1322:1353  OwnableInvalidOwner(address(0)) */\n  mload(0x40)\n  0x1e4fbdf700000000000000000000000000000000000000000000000000000000\n  dup2\n  mstore\n  0x04\n  add\n  tag_8\n  swap2\n  swap1\n  tag_9\n  jump\t// in\ntag_8:\n  mload(0x40)\n  dup1\n  swap2\n  sub\n  swap1\n  revert\n    /* \"@openzeppelin/contracts/access/Ownable.sol\":1269:1364  if (initialOwner == address(0)) {... */\ntag_7:\n    /* \"@openzeppelin/contracts/access/Ownable.sol\":1373:1405  _transferOwnership(initialOwner) */\n  tag_10\n    /* \"@openzeppelin/contracts/access/Ownable.sol\":1392:1404  initialOwner */\n  dup2\n    /* \"@openzeppelin/contracts/access/Ownable.sol\":1373:1391  _transferOwnership */\n  shl(0x20, tag_11)\n    /* \"@openzeppelin/contracts/access/Ownable.sol\":1373:1405  _transferOwnership(initialOwner) */\n  0x20\n  shr\n  jump\t// in\ntag_10:\n    /* \"@openzeppelin/contracts/access/Ownable.sol\":1225:1412  constructor(address initialOwner) {... */\n  pop\n    /* \"contracts/Twitter-Interaction-Exercise-Main.sol\":1918:1930  initialOwner */\n  dup1\n    /* \"contracts/Twitter-Interaction-Exercise-Main.sol\":1891:1906  profileContract */\n  0x01\n  0x00\n    /* \"contracts/Twitter-Interaction-Exercise-Main.sol\":1891:1931  profileContract = IProfile(initialOwner) */\n  0x0100\n  exp\n  dup2\n  sload\n  dup2\n  0xffffffffffffffffffffffffffffffffffffffff\n  mul\n  not\n  and\n  swap1\n  dup4\n  0xffffffffffffffffffffffffffffffffffffffff\n  and\n  mul\n  or\n  swap1\n  sstore\n  pop\n    /* \"contracts/Twitter-Interaction-Exercise-Main.sol\":1825:1938  constructor(address initialOwner) Ownable(initialOwner) {... */\n  pop\n    /* \"contracts/Twitter-Interaction-Exercise-Main.sol\":848:3698  contract Twitter is Ownable {... */\n  jump(tag_13)\n    /* \"@openzeppelin/contracts/access/Ownable.sol\":2912:3099  function _transferOwnership(address newOwner) internal virtual {... */\ntag_11:\n    /* \"@openzeppelin/contracts/access/Ownable.sol\":2985:3001  address oldOwner */\n  0x00\n    /* \"@openzeppelin/contracts/access/Ownable.sol\":3004:3010  _owner */\n  dup1\n  0x00\n  swap1\n  sload\n  swap1\n  0x0100\n  exp\n  swap1\n  div\n  0xffffffffffffffffffffffffffffffffffffffff\n  and\n    /* \"@openzeppelin/contracts/access/Ownable.sol\":2985:3010  address oldOwner = _owner */\n  swap1\n  pop\n    /* \"@openzeppelin/contracts/access/Ownable.sol\":3029:3037  newOwner */\n  dup2\n    /* \"@openzeppelin/contracts/access/Ownable.sol\":3020:3026  _owner */\n  0x00\n  dup1\n    /* \"@openzeppelin/contracts/access/Ownable.sol\":3020:3037  _owner = newOwner */\n  0x0100\n  exp\n  dup2\n  sload\n  dup2\n  0xffffffffffffffffffffffffffffffffffffffff\n  mul\n  not\n  and\n  swap1\n  dup4\n  0xffffffffffffffffffffffffffffffffffffffff\n  and\n  mul\n  or\n  swap1\n  sstore\n  pop\n    /* \"@openzeppelin/contracts/access/Ownable.sol\":3083:3091  newOwner */\n  dup2\n    /* \"@openzeppelin/contracts/access/Ownable.sol\":3052:3092  OwnershipTransferred(oldOwner, newOwner) */\n  0xffffffffffffffffffffffffffffffffffffffff\n  and\n    /* \"@openzeppelin/contracts/access/Ownable.sol\":3073:3081  oldOwner */\n  dup2\n    /* \"@openzeppelin/contracts/access/Ownable.sol\":3052:3092  OwnershipTransferred(oldOwner, newOwner) */\n  0xffffffffffffffffffffffffffffffffffffffff\n  and\n  0x8be0079c531659141344cd1fd0a4f28419497f9722a3daafe3b4186f6b6457e0\n  mload(0x40)\n  mload(0x40)\n  dup1\n  swap2\n  sub\n  swap1\n  log3\n    /* \"@openzeppelin/contracts/access/Ownable.sol\":2975:3099  {... */\n  pop\n    /* \"@openzeppelin/contracts/access/Ownable.sol\":2912:3099  function _transferOwnership(address newOwner) internal virtual {... */\n  pop\n  jump\t// out\n    /* \"#utility.yul\":88:205   */\ntag_16:\n    /* \"#utility.yul\":197:198   */\n  0x00\n    /* \"#utility.yul\":194:195   */\n  dup1\n    /* \"#utility.yul\":187:199   */\n  revert\n    /* \"#utility.yul\":334:460   */\ntag_18:\n    /* \"#utility.yul\":371:378   */\n  0x00\n    /* \"#utility.yul\":411:453   */\n  0xffffffffffffffffffffffffffffffffffffffff\n    /* \"#utility.yul\":404:409   */\n  dup3\n    /* \"#utility.yul\":400:454   */\n  and\n    /* \"#utility.yul\":389:454   */\n  swap1\n  pop\n    /* \"#utility.yul\":334:460   */\n  swap2\n  swap1\n  pop\n  jump\t// out\n    /* \"#utility.yul\":466:562   */\ntag_19:\n    /* \"#utility.yul\":503:510   */\n  0x00\n    /* \"#utility.yul\":532:556   */\n  tag_29\n    /* \"#utility.yul\":550:555   */\n  dup3\n    /* \"#utility.yul\":532:556   */\n  tag_18\n  jump\t// in\ntag_29:\n    /* \"#utility.yul\":521:556   */\n  swap1\n  pop\n    /* \"#utility.yul\":466:562   */\n  swap2\n  swap1\n  pop\n  jump\t// out\n    /* \"#utility.yul\":568:690   */\ntag_20:\n    /* \"#utility.yul\":641:665   */\n  tag_31\n    /* \"#utility.yul\":659:664   */\n  dup2\n    /* \"#utility.yul\":641:665   */\n  tag_19\n  jump\t// in\ntag_31:\n    /* \"#utility.yul\":634:639   */\n  dup2\n    /* \"#utility.yul\":631:666   */\n  eq\n    /* \"#utility.yul\":621:684   */\n  tag_32\n  jumpi\n    /* \"#utility.yul\":680:681   */\n  0x00\n    /* \"#utility.yul\":677:678   */\n  dup1\n    /* \"#utility.yul\":670:682   */\n  revert\n    /* \"#utility.yul\":621:684   */\ntag_32:\n    /* \"#utility.yul\":568:690   */\n  pop\n  jump\t// out\n    /* \"#utility.yul\":696:839   */\ntag_21:\n    /* \"#utility.yul\":753:758   */\n  0x00\n    /* \"#utility.yul\":784:790   */\n  dup2\n    /* \"#utility.yul\":778:791   */\n  mload\n    /* \"#utility.yul\":769:791   */\n  swap1\n  pop\n    /* \"#utility.yul\":800:833   */\n  tag_34\n    /* \"#utility.yul\":827:832   */\n  dup2\n    /* \"#utility.yul\":800:833   */\n  tag_20\n  jump\t// in\ntag_34:\n    /* \"#utility.yul\":696:839   */\n  swap3\n  swap2\n  pop\n  pop\n  jump\t// out\n    /* \"#utility.yul\":845:1196   */\ntag_3:\n    /* \"#utility.yul\":915:921   */\n  0x00\n    /* \"#utility.yul\":964:966   */\n  0x20\n    /* \"#utility.yul\":952:961   */\n  dup3\n    /* \"#utility.yul\":943:950   */\n  dup5\n    /* \"#utility.yul\":939:962   */\n  sub\n    /* \"#utility.yul\":935:967   */\n  slt\n    /* \"#utility.yul\":932:1051   */\n  iszero\n  tag_36\n  jumpi\n    /* \"#utility.yul\":970:1049   */\n  tag_37\n  tag_16\n  jump\t// in\ntag_37:\n    /* \"#utility.yul\":932:1051   */\ntag_36:\n    /* \"#utility.yul\":1090:1091   */\n  0x00\n    /* \"#utility.yul\":1115:1179   */\n  tag_38\n    /* \"#utility.yul\":1171:1178   */\n  dup5\n    /* \"#utility.yul\":1162:1168   */\n  dup3\n    /* \"#utility.yul\":1151:1160   */\n  dup6\n    /* \"#utility.yul\":1147:1169   */\n  add\n    /* \"#utility.yul\":1115:1179   */\n  tag_21\n  jump\t// in\ntag_38:\n    /* \"#utility.yul\":1105:1179   */\n  swap2\n  pop\n    /* \"#utility.yul\":1061:1189   */\n  pop\n    /* \"#utility.yul\":845:1196   */\n  swap3\n  swap2\n  pop\n  pop\n  jump\t// out\n    /* \"#utility.yul\":1202:1320   */\ntag_22:\n    /* \"#utility.yul\":1289:1313   */\n  tag_40\n    /* \"#utility.yul\":1307:1312   */\n  dup2\n    /* \"#utility.yul\":1289:1313   */\n  tag_19\n  jump\t// in\ntag_40:\n    /* \"#utility.yul\":1284:1287   */\n  dup3\n    /* \"#utility.yul\":1277:1314   */\n  mstore\n    /* \"#utility.yul\":1202:1320   */\n  pop\n  pop\n  jump\t// out\n    /* \"#utility.yul\":1326:1548   */\ntag_9:\n    /* \"#utility.yul\":1419:1423   */\n  0x00\n    /* \"#utility.yul\":1457:1459   */\n  0x20\n    /* \"#utility.yul\":1446:1455   */\n  dup3\n    /* \"#utility.yul\":1442:1460   */\n  add\n    /* \"#utility.yul\":1434:1460   */\n  swap1\n  pop\n    /* \"#utility.yul\":1470:1541   */\n  tag_42\n    /* \"#utility.yul\":1538:1539   */\n  0x00\n    /* \"#utility.yul\":1527:1536   */\n  dup4\n    /* \"#utility.yul\":1523:1540   */\n  add\n    /* \"#utility.yul\":1514:1520   */\n  dup5\n    /* \"#utility.yul\":1470:1541   */\n  tag_22\n  jump\t// in\ntag_42:\n    /* \"#utility.yul\":1326:1548   */\n  swap3\n  swap2\n  pop\n  pop\n  jump\t// out\n    /* \"contracts/Twitter-Interaction-Exercise-Main.sol\":848:3698  contract Twitter is Ownable {... */\ntag_13:\n  dataSize(sub_0)\n  dup1\n  dataOffset(sub_0)\n  0x00\n  codecopy\n  0x00\n  return\nstop\n\nsub_0: assembly {\n        /* \"contracts/Twitter-Interaction-Exercise-Main.sol\":848:3698  contract Twitter is Ownable {... */\n      mstore(0x40, 0x80)\n      callvalue\n      dup1\n      iszero\n      tag_1\n      jumpi\n      0x00\n      dup1\n      revert\n    tag_1:\n      pop\n      jumpi(tag_2, lt(calldatasize, 0x04))\n      shr(0xe0, calldataload(0x00))\n      dup1\n      0x715018a6\n      gt\n      tag_14\n      jumpi\n      dup1\n      0x715018a6\n      eq\n      tag_8\n      jumpi\n      dup1\n      0x7c9cd2bc\n      eq\n      tag_9\n      jumpi\n      dup1\n      0x820785cc\n      eq\n      tag_10\n      jumpi\n      dup1\n      0x8da5cb5b\n      eq\n      tag_11\n      jumpi\n      dup1\n      0xc3ad5ecb\n      eq\n      tag_12\n      jumpi\n      dup1\n      0xf2fde38b\n      eq\n      tag_13\n      jumpi\n      jump(tag_2)\n    tag_14:\n      dup1\n      0x05a1b4a9\n      eq\n      tag_3\n      jumpi\n      dup1\n      0x12e7ee1c\n      eq\n      tag_4\n      jumpi\n      dup1\n      0x3d9b569f\n      eq\n      tag_5\n      jumpi\n      dup1\n      0x63378216\n      eq\n      tag_6\n      jumpi\n      dup1\n      0x6eb10797\n      eq\n      tag_7\n      jumpi\n    tag_2:\n      0x00\n      dup1\n      revert\n        /* \"contracts/Twitter-Interaction-Exercise-Main.sol\":1099:1140  mapping(address => Tweet[]) public tweets */\n    tag_3:\n      tag_15\n      0x04\n      dup1\n      calldatasize\n      sub\n      dup2\n      add\n      swap1\n      tag_16\n      swap2\n      swap1\n      tag_17\n      jump\t// in\n    tag_16:\n      tag_18\n      jump\t// in\n    tag_15:\n      mload(0x40)\n      tag_19\n      swap6\n      swap5\n      swap4\n      swap3\n      swap2\n      swap1\n      tag_20\n      jump\t// in\n    tag_19:\n      mload(0x40)\n      dup1\n      swap2\n      sub\n      swap1\n      return\n        /* \"contracts/Twitter-Interaction-Exercise-Main.sol\":3583:3696  function getAllTweets(address _owner) public view returns (Tweet[] memory) {... */\n    tag_4:\n      tag_21\n      0x04\n      dup1\n      calldatasize\n      sub\n      dup2\n      add\n      swap1\n      tag_22\n      swap2\n      swap1\n      tag_23\n      jump\t// in\n    tag_22:\n      tag_24\n      jump\t// in\n    tag_21:\n      mload(0x40)\n      tag_25\n      swap2\n      swap1\n      tag_26\n      jump\t// in\n    tag_25:\n      mload(0x40)\n      dup1\n      swap2\n      sub\n      swap1\n      return\n        /* \"contracts/Twitter-Interaction-Exercise-Main.sol\":3049:3381  function unlikeTweet(address author, uint256 id) external onlyRegistered{... */\n    tag_5:\n      tag_27\n      0x04\n      dup1\n      calldatasize\n      sub\n      dup2\n      add\n      swap1\n      tag_28\n      swap2\n      swap1\n      tag_17\n      jump\t// in\n    tag_28:\n      tag_29\n      jump\t// in\n    tag_27:\n      stop\n        /* \"contracts/Twitter-Interaction-Exercise-Main.sol\":2784:3043  function likeTweet(address author, uint256 id) external onlyRegistered{... */\n    tag_6:\n      tag_30\n      0x04\n      dup1\n      calldatasize\n      sub\n      dup2\n      add\n      swap1\n      tag_31\n      swap2\n      swap1\n      tag_17\n      jump\t// in\n    tag_31:\n      tag_32\n      jump\t// in\n    tag_30:\n      stop\n        /* \"contracts/Twitter-Interaction-Exercise-Main.sol\":882:918  uint16 public MAX_TWEET_LENGTH = 280 */\n    tag_7:\n      tag_33\n      tag_34\n      jump\t// in\n    tag_33:\n      mload(0x40)\n      tag_35\n      swap2\n      swap1\n      tag_36\n      jump\t// in\n    tag_35:\n      mload(0x40)\n      dup1\n      swap2\n      sub\n      swap1\n      return\n        /* \"@openzeppelin/contracts/access/Ownable.sol\":2293:2394  function renounceOwnership() public virtual onlyOwner {... */\n    tag_8:\n      tag_37\n      tag_38\n      jump\t// in\n    tag_37:\n      stop\n        /* \"contracts/Twitter-Interaction-Exercise-Main.sol\":2211:2778  function createTweet(string memory _tweet) public onlyRegistered{... */\n    tag_9:\n      tag_39\n      0x04\n      dup1\n      calldatasize\n      sub\n      dup2\n      add\n      swap1\n      tag_40\n      swap2\n      swap1\n      tag_41\n      jump\t// in\n    tag_40:\n      tag_42\n      jump\t// in\n    tag_39:\n      stop\n        /* \"contracts/Twitter-Interaction-Exercise-Main.sol\":1944:2205  function getTotalLikes(address _author) external view returns (uint256) {... */\n    tag_10:\n      tag_43\n      0x04\n      dup1\n      calldatasize\n      sub\n      dup2\n      add\n      swap1\n      tag_44\n      swap2\n      swap1\n      tag_23\n      jump\t// in\n    tag_44:\n      tag_45\n      jump\t// in\n    tag_43:\n      mload(0x40)\n      tag_46\n      swap2\n      swap1\n      tag_47\n      jump\t// in\n    tag_46:\n      mload(0x40)\n      dup1\n      swap2\n      sub\n      swap1\n      return\n        /* \"@openzeppelin/contracts/access/Ownable.sol\":1638:1723  function owner() public view virtual returns (address) {... */\n    tag_11:\n      tag_48\n      tag_49\n      jump\t// in\n    tag_48:\n      mload(0x40)\n      tag_50\n      swap2\n      swap1\n      tag_51\n      jump\t// in\n    tag_50:\n      mload(0x40)\n      dup1\n      swap2\n      sub\n      swap1\n      return\n        /* \"contracts/Twitter-Interaction-Exercise-Main.sol\":3387:3577  function getTweet(uint256 _i) public view returns (Tweet memory) {... */\n    tag_12:\n      tag_52\n      0x04\n      dup1\n      calldatasize\n      sub\n      dup2\n      add\n      swap1\n      tag_53\n      swap2\n      swap1\n      tag_54\n      jump\t// in\n    tag_53:\n      tag_55\n      jump\t// in\n    tag_52:\n      mload(0x40)\n      tag_56\n      swap2\n      swap1\n      tag_57\n      jump\t// in\n    tag_56:\n      mload(0x40)\n      dup1\n      swap2\n      sub\n      swap1\n      return\n        /* \"@openzeppelin/contracts/access/Ownable.sol\":2543:2758  function transferOwnership(address newOwner) public virtual onlyOwner {... */\n    tag_13:\n      tag_58\n      0x04\n      dup1\n      calldatasize\n      sub\n      dup2\n      add\n      swap1\n      tag_59\n      swap2\n      swap1\n      tag_23\n      jump\t// in\n    tag_59:\n      tag_60\n      jump\t// in\n    tag_58:\n      stop\n        /* \"contracts/Twitter-Interaction-Exercise-Main.sol\":1099:1140  mapping(address => Tweet[]) public tweets */\n    tag_18:\n      mstore(0x20, 0x02)\n      dup2\n      0x00\n      mstore\n      keccak256(0x00, 0x40)\n      dup2\n      dup2\n      sload\n      dup2\n      lt\n      tag_61\n      jumpi\n      0x00\n      dup1\n      revert\n    tag_61:\n      swap1\n      0x00\n      mstore\n      keccak256(0x00, 0x20)\n      swap1\n      0x05\n      mul\n      add\n      0x00\n      swap2\n      pop\n      swap2\n      pop\n      pop\n      dup1\n      0x00\n      add\n      sload\n      swap1\n      dup1\n      0x01\n      add\n      0x00\n      swap1\n      sload\n      swap1\n      0x0100\n      exp\n      swap1\n      div\n      0xffffffffffffffffffffffffffffffffffffffff\n      and\n      swap1\n      dup1\n      0x02\n      add\n      dup1\n      sload\n      tag_63\n      swap1\n      tag_64\n      jump\t// in\n    tag_63:\n      dup1\n      0x1f\n      add\n      0x20\n      dup1\n      swap2\n      div\n      mul\n      0x20\n      add\n      mload(0x40)\n      swap1\n      dup2\n      add\n      0x40\n      mstore\n      dup1\n      swap3\n      swap2\n      swap1\n      dup2\n      dup2\n      mstore\n      0x20\n      add\n      dup3\n      dup1\n      sload\n      tag_65\n      swap1\n      tag_64\n      jump\t// in\n    tag_65:\n      dup1\n      iszero\n      tag_66\n      jumpi\n      dup1\n      0x1f\n      lt\n      tag_67\n      jumpi\n      0x0100\n      dup1\n      dup4\n      sload\n      div\n      mul\n      dup4\n      mstore\n      swap2\n      0x20\n      add\n      swap2\n      jump(tag_66)\n    tag_67:\n      dup3\n      add\n      swap2\n      swap1\n      0x00\n      mstore\n      keccak256(0x00, 0x20)\n      swap1\n    tag_68:\n      dup2\n      sload\n      dup2\n      mstore\n      swap1\n      0x01\n      add\n      swap1\n      0x20\n      add\n      dup1\n      dup4\n      gt\n      tag_68\n      jumpi\n      dup3\n      swap1\n      sub\n      0x1f\n      and\n      dup3\n      add\n      swap2\n    tag_66:\n      pop\n      pop\n      pop\n      pop\n      pop\n      swap1\n      dup1\n      0x03\n      add\n      sload\n      swap1\n      dup1\n      0x04\n      add\n      sload\n      swap1\n      pop\n      dup6\n      jump\t// out\n        /* \"contracts/Twitter-Interaction-Exercise-Main.sol\":3583:3696  function getAllTweets(address _owner) public view returns (Tweet[] memory) {... */\n    tag_24:\n        /* \"contracts/Twitter-Interaction-Exercise-Main.sol\":3642:3656  Tweet[] memory */\n      0x60\n        /* \"contracts/Twitter-Interaction-Exercise-Main.sol\":3675:3681  tweets */\n      0x02\n        /* \"contracts/Twitter-Interaction-Exercise-Main.sol\":3675:3689  tweets[_owner] */\n      0x00\n        /* \"contracts/Twitter-Interaction-Exercise-Main.sol\":3682:3688  _owner */\n      dup4\n        /* \"contracts/Twitter-Interaction-Exercise-Main.sol\":3675:3689  tweets[_owner] */\n      0xffffffffffffffffffffffffffffffffffffffff\n      and\n      0xffffffffffffffffffffffffffffffffffffffff\n      and\n      dup2\n      mstore\n      0x20\n      add\n      swap1\n      dup2\n      mstore\n      0x20\n      add\n      0x00\n      keccak256\n        /* \"contracts/Twitter-Interaction-Exercise-Main.sol\":3668:3689  return tweets[_owner] */\n      dup1\n      sload\n      dup1\n      0x20\n      mul\n      0x20\n      add\n      mload(0x40)\n      swap1\n      dup2\n      add\n      0x40\n      mstore\n      dup1\n      swap3\n      swap2\n      swap1\n      dup2\n      dup2\n      mstore\n      0x20\n      add\n      0x00\n      swap1\n    tag_70:\n      dup3\n      dup3\n      lt\n      iszero\n      tag_71\n      jumpi\n      dup4\n      dup3\n      swap1\n      0x00\n      mstore\n      keccak256(0x00, 0x20)\n      swap1\n      0x05\n      mul\n      add\n      mload(0x40)\n      dup1\n      0xa0\n      add\n      0x40\n      mstore\n      swap1\n      dup2\n      0x00\n      dup3\n      add\n      sload\n      dup2\n      mstore\n      0x20\n      add\n      0x01\n      dup3\n      add\n      0x00\n      swap1\n      sload\n      swap1\n      0x0100\n      exp\n      swap1\n      div\n      0xffffffffffffffffffffffffffffffffffffffff\n      and\n      0xffffffffffffffffffffffffffffffffffffffff\n      and\n      0xffffffffffffffffffffffffffffffffffffffff\n      and\n      dup2\n      mstore\n      0x20\n      add\n      0x02\n      dup3\n      add\n      dup1\n      sload\n      tag_73\n      swap1\n      tag_64\n      jump\t// in\n    tag_73:\n      dup1\n      0x1f\n      add\n      0x20\n      dup1\n      swap2\n      div\n      mul\n      0x20\n      add\n      mload(0x40)\n      swap1\n      dup2\n      add\n      0x40\n      mstore\n      dup1\n      swap3\n      swap2\n      swap1\n      dup2\n      dup2\n      mstore\n      0x20\n      add\n      dup3\n      dup1\n      sload\n      tag_74\n      swap1\n      tag_64\n      jump\t// in\n    tag_74:\n      dup1\n      iszero\n      tag_75\n      jumpi\n      dup1\n      0x1f\n      lt\n      tag_76\n      jumpi\n      0x0100\n      dup1\n      dup4\n      sload\n      div\n      mul\n      dup4\n      mstore\n      swap2\n      0x20\n      add\n      swap2\n      jump(tag_75)\n    tag_76:\n      dup3\n      add\n      swap2\n      swap1\n      0x00\n      mstore\n      keccak256(0x00, 0x20)\n      swap1\n    tag_77:\n      dup2\n      sload\n      dup2\n      mstore\n      swap1\n      0x01\n      add\n      swap1\n      0x20\n      add\n      dup1\n      dup4\n      gt\n      tag_77\n      jumpi\n      dup3\n      swap1\n      sub\n      0x1f\n      and\n      dup3\n      add\n      swap2\n    tag_75:\n      pop\n      pop\n      pop\n      pop\n      pop\n      dup2\n      mstore\n      0x20\n      add\n      0x03\n      dup3\n      add\n      sload\n      dup2\n      mstore\n      0x20\n      add\n      0x04\n      dup3\n      add\n      sload\n      dup2\n      mstore\n      pop\n      pop\n      dup2\n      mstore\n      0x20\n      add\n      swap1\n      0x01\n      add\n      swap1\n      jump(tag_70)\n    tag_71:\n      pop\n      pop\n      pop\n      pop\n      swap1\n      pop\n        /* \"contracts/Twitter-Interaction-Exercise-Main.sol\":3583:3696  function getAllTweets(address _owner) public view returns (Tweet[] memory) {... */\n      swap2\n      swap1\n      pop\n      jump\t// out\n        /* \"contracts/Twitter-Interaction-Exercise-Main.sol\":3049:3381  function unlikeTweet(address author, uint256 id) external onlyRegistered{... */\n    tag_29:\n        /* \"contracts/Twitter-Interaction-Exercise-Main.sol\":1583:1626  IProfile.UserProfile memory userProfileTemp */\n      0x00\n        /* \"contracts/Twitter-Interaction-Exercise-Main.sol\":1629:1644  profileContract */\n      0x01\n      0x00\n      swap1\n      sload\n      swap1\n      0x0100\n      exp\n      swap1\n      div\n      0xffffffffffffffffffffffffffffffffffffffff\n      and\n        /* \"contracts/Twitter-Interaction-Exercise-Main.sol\":1629:1668  profileContract... */\n      0xffffffffffffffffffffffffffffffffffffffff\n      and\n      0x0f53a470\n        /* \"contracts/Twitter-Interaction-Exercise-Main.sol\":1669:1679  msg.sender */\n      caller\n        /* \"contracts/Twitter-Interaction-Exercise-Main.sol\":1629:1680  profileContract... */\n      mload(0x40)\n      dup3\n      0xffffffff\n      and\n      0xe0\n      shl\n      dup2\n      mstore\n      0x04\n      add\n      tag_79\n      swap2\n      swap1\n      tag_51\n      jump\t// in\n    tag_79:\n      0x00\n      mload(0x40)\n      dup1\n      dup4\n      sub\n      dup2\n      dup7\n      gas\n      staticcall\n      iszero\n      dup1\n      iszero\n      tag_81\n      jumpi\n      returndatasize\n      0x00\n      dup1\n      returndatacopy\n      revert(0x00, returndatasize)\n    tag_81:\n      pop\n      pop\n      pop\n      pop\n      mload(0x40)\n      returndatasize\n      0x00\n      dup3\n      returndatacopy\n      returndatasize\n      not(0x1f)\n      0x1f\n      dup3\n      add\n      and\n      dup3\n      add\n      dup1\n      0x40\n      mstore\n      pop\n      dup2\n      add\n      swap1\n      tag_82\n      swap2\n      swap1\n      tag_83\n      jump\t// in\n    tag_82:\n        /* \"contracts/Twitter-Interaction-Exercise-Main.sol\":1583:1680  IProfile.UserProfile memory userProfileTemp = profileContract... */\n      swap1\n      pop\n        /* \"contracts/Twitter-Interaction-Exercise-Main.sol\":1755:1756  0 */\n      0x00\n        /* \"contracts/Twitter-Interaction-Exercise-Main.sol\":1717:1732  userProfileTemp */\n      dup2\n        /* \"contracts/Twitter-Interaction-Exercise-Main.sol\":1717:1744  userProfileTemp.displayName */\n      0x00\n      add\n      mload\n        /* \"contracts/Twitter-Interaction-Exercise-Main.sol\":1711:1752  bytes(userProfileTemp.displayName).length */\n      mload\n        /* \"contracts/Twitter-Interaction-Exercise-Main.sol\":1711:1756  bytes(userProfileTemp.displayName).length > 0 */\n      gt\n        /* \"contracts/Twitter-Interaction-Exercise-Main.sol\":1690:1801  require(... */\n      tag_84\n      jumpi\n      mload(0x40)\n      0x08c379a000000000000000000000000000000000000000000000000000000000\n      dup2\n      mstore\n      0x04\n      add\n      tag_85\n      swap1\n      tag_86\n      jump\t// in\n    tag_85:\n      mload(0x40)\n      dup1\n      swap2\n      sub\n      swap1\n      revert\n    tag_84:\n        /* \"contracts/Twitter-Interaction-Exercise-Main.sol\":3144:3150  tweets */\n      0x02\n        /* \"contracts/Twitter-Interaction-Exercise-Main.sol\":3144:3158  tweets[author] */\n      0x00\n        /* \"contracts/Twitter-Interaction-Exercise-Main.sol\":3151:3157  author */\n      dup5\n        /* \"contracts/Twitter-Interaction-Exercise-Main.sol\":3144:3158  tweets[author] */\n      0xffffffffffffffffffffffffffffffffffffffff\n      and\n      0xffffffffffffffffffffffffffffffffffffffff\n      and\n      dup2\n      mstore\n      0x20\n      add\n      swap1\n      dup2\n      mstore\n      0x20\n      add\n      0x00\n      keccak256\n        /* \"contracts/Twitter-Interaction-Exercise-Main.sol\":3144:3165  tweets[author].length */\n      dup1\n      sload\n      swap1\n      pop\n        /* \"contracts/Twitter-Interaction-Exercise-Main.sol\":3139:3141  id */\n      dup3\n        /* \"contracts/Twitter-Interaction-Exercise-Main.sol\":3139:3165  id < tweets[author].length */\n      lt\n        /* \"contracts/Twitter-Interaction-Exercise-Main.sol\":3131:3190  require(id < tweets[author].length, \"Tweet does not exist\") */\n      tag_88\n      jumpi\n      mload(0x40)\n      0x08c379a000000000000000000000000000000000000000000000000000000000\n      dup2\n      mstore\n      0x04\n      add\n      tag_89\n      swap1\n      tag_90\n      jump\t// in\n    tag_89:\n      mload(0x40)\n      dup1\n      swap2\n      sub\n      swap1\n      revert\n    tag_88:\n        /* \"contracts/Twitter-Interaction-Exercise-Main.sol\":3235:3236  0 */\n      0x00\n        /* \"contracts/Twitter-Interaction-Exercise-Main.sol\":3208:3214  tweets */\n      0x02\n        /* \"contracts/Twitter-Interaction-Exercise-Main.sol\":3208:3222  tweets[author] */\n      0x00\n        /* \"contracts/Twitter-Interaction-Exercise-Main.sol\":3215:3221  author */\n      dup6\n        /* \"contracts/Twitter-Interaction-Exercise-Main.sol\":3208:3222  tweets[author] */\n      0xffffffffffffffffffffffffffffffffffffffff\n      and\n      0xffffffffffffffffffffffffffffffffffffffff\n      and\n      dup2\n      mstore\n      0x20\n      add\n      swap1\n      dup2\n      mstore\n      0x20\n      add\n      0x00\n      keccak256\n        /* \"contracts/Twitter-Interaction-Exercise-Main.sol\":3223:3225  id */\n      dup4\n        /* \"contracts/Twitter-Interaction-Exercise-Main.sol\":3208:3226  tweets[author][id] */\n      dup2\n      sload\n      dup2\n      lt\n      tag_91\n      jumpi\n      tag_92\n      tag_93\n      jump\t// in\n    tag_92:\n    tag_91:\n      swap1\n      0x00\n      mstore\n      keccak256(0x00, 0x20)\n      swap1\n      0x05\n      mul\n      add\n        /* \"contracts/Twitter-Interaction-Exercise-Main.sol\":3208:3232  tweets[author][id].likes */\n      0x04\n      add\n      sload\n        /* \"contracts/Twitter-Interaction-Exercise-Main.sol\":3208:3236  tweets[author][id].likes > 0 */\n      gt\n        /* \"contracts/Twitter-Interaction-Exercise-Main.sol\":3200:3259  require(tweets[author][id].likes > 0, \"Tweet has no likes\") */\n      tag_95\n      jumpi\n      mload(0x40)\n      0x08c379a000000000000000000000000000000000000000000000000000000000\n      dup2\n      mstore\n      0x04\n      add\n      tag_96\n      swap1\n      tag_97\n      jump\t// in\n    tag_96:\n      mload(0x40)\n      dup1\n      swap2\n      sub\n      swap1\n      revert\n    tag_95:\n        /* \"contracts/Twitter-Interaction-Exercise-Main.sol\":3270:3276  tweets */\n      0x02\n        /* \"contracts/Twitter-Interaction-Exercise-Main.sol\":3270:3284  tweets[author] */\n      0x00\n        /* \"contracts/Twitter-Interaction-Exercise-Main.sol\":3277:3283  author */\n      dup5\n        /* \"contracts/Twitter-Interaction-Exercise-Main.sol\":3270:3284  tweets[author] */\n      0xffffffffffffffffffffffffffffffffffffffff\n      and\n      0xffffffffffffffffffffffffffffffffffffffff\n      and\n      dup2\n      mstore\n      0x20\n      add\n      swap1\n      dup2\n      mstore\n      0x20\n      add\n      0x00\n      keccak256\n        /* \"contracts/Twitter-Interaction-Exercise-Main.sol\":3285:3287  id */\n      dup3\n        /* \"contracts/Twitter-Interaction-Exercise-Main.sol\":3270:3288  tweets[author][id] */\n      dup2\n      sload\n      dup2\n      lt\n      tag_98\n      jumpi\n      tag_99\n      tag_93\n      jump\t// in\n    tag_99:\n    tag_98:\n      swap1\n      0x00\n      mstore\n      keccak256(0x00, 0x20)\n      swap1\n      0x05\n      mul\n      add\n        /* \"contracts/Twitter-Interaction-Exercise-Main.sol\":3270:3294  tweets[author][id].likes */\n      0x04\n      add\n      0x00\n        /* \"contracts/Twitter-Interaction-Exercise-Main.sol\":3270:3296  tweets[author][id].likes-- */\n      dup2\n      sload\n      dup1\n      swap3\n      swap2\n      swap1\n      tag_101\n      swap1\n      tag_102\n      jump\t// in\n    tag_101:\n      swap2\n      swap1\n      pop\n      sstore\n      pop\n        /* \"contracts/Twitter-Interaction-Exercise-Main.sol\":3312:3374  TweetUnliked(msg.sender, author, id, tweets[author][id].likes) */\n      0x762c2616349603ac16eba0de8e6141b79129a07ab63bd99e0a80b3a471716943\n        /* \"contracts/Twitter-Interaction-Exercise-Main.sol\":3325:3335  msg.sender */\n      caller\n        /* \"contracts/Twitter-Interaction-Exercise-Main.sol\":3337:3343  author */\n      dup5\n        /* \"contracts/Twitter-Interaction-Exercise-Main.sol\":3345:3347  id */\n      dup5\n        /* \"contracts/Twitter-Interaction-Exercise-Main.sol\":3349:3355  tweets */\n      0x02\n        /* \"contracts/Twitter-Interaction-Exercise-Main.sol\":3349:3363  tweets[author] */\n      0x00\n        /* \"contracts/Twitter-Interaction-Exercise-Main.sol\":3356:3362  author */\n      dup9\n        /* \"contracts/Twitter-Interaction-Exercise-Main.sol\":3349:3363  tweets[author] */\n      0xffffffffffffffffffffffffffffffffffffffff\n      and\n      0xffffffffffffffffffffffffffffffffffffffff\n      and\n      dup2\n      mstore\n      0x20\n      add\n      swap1\n      dup2\n      mstore\n      0x20\n      add\n      0x00\n      keccak256\n        /* \"contracts/Twitter-Interaction-Exercise-Main.sol\":3364:3366  id */\n      dup7\n        /* \"contracts/Twitter-Interaction-Exercise-Main.sol\":3349:3367  tweets[author][id] */\n      dup2\n      sload\n      dup2\n      lt\n      tag_103\n      jumpi\n      tag_104\n      tag_93\n      jump\t// in\n    tag_104:\n    tag_103:\n      swap1\n      0x00\n      mstore\n      keccak256(0x00, 0x20)\n      swap1\n      0x05\n      mul\n      add\n        /* \"contracts/Twitter-Interaction-Exercise-Main.sol\":3349:3373  tweets[author][id].likes */\n      0x04\n      add\n      sload\n        /* \"contracts/Twitter-Interaction-Exercise-Main.sol\":3312:3374  TweetUnliked(msg.sender, author, id, tweets[author][id].likes) */\n      mload(0x40)\n      tag_106\n      swap5\n      swap4\n      swap3\n      swap2\n      swap1\n      tag_107\n      jump\t// in\n    tag_106:\n      mload(0x40)\n      dup1\n      swap2\n      sub\n      swap1\n      log1\n        /* \"contracts/Twitter-Interaction-Exercise-Main.sol\":1573:1819  {... */\n      pop\n        /* \"contracts/Twitter-Interaction-Exercise-Main.sol\":3049:3381  function unlikeTweet(address author, uint256 id) external onlyRegistered{... */\n      pop\n      pop\n      jump\t// out\n        /* \"contracts/Twitter-Interaction-Exercise-Main.sol\":2784:3043  function likeTweet(address author, uint256 id) external onlyRegistered{... */\n    tag_32:\n        /* \"contracts/Twitter-Interaction-Exercise-Main.sol\":1583:1626  IProfile.UserProfile memory userProfileTemp */\n      0x00\n        /* \"contracts/Twitter-Interaction-Exercise-Main.sol\":1629:1644  profileContract */\n      0x01\n      0x00\n      swap1\n      sload\n      swap1\n      0x0100\n      exp\n      swap1\n      div\n      0xffffffffffffffffffffffffffffffffffffffff\n      and\n        /* \"contracts/Twitter-Interaction-Exercise-Main.sol\":1629:1668  profileContract... */\n      0xffffffffffffffffffffffffffffffffffffffff\n      and\n      0x0f53a470\n        /* \"contracts/Twitter-Interaction-Exercise-Main.sol\":1669:1679  msg.sender */\n      caller\n        /* \"contracts/Twitter-Interaction-Exercise-Main.sol\":1629:1680  profileContract... */\n      mload(0x40)\n      dup3\n      0xffffffff\n      and\n      0xe0\n      shl\n      dup2\n      mstore\n      0x04\n      add\n      tag_109\n      swap2\n      swap1\n      tag_51\n      jump\t// in\n    tag_109:\n      0x00\n      mload(0x40)\n      dup1\n      dup4\n      sub\n      dup2\n      dup7\n      gas\n      staticcall\n      iszero\n      dup1\n      iszero\n      tag_111\n      jumpi\n      returndatasize\n      0x00\n      dup1\n      returndatacopy\n      revert(0x00, returndatasize)\n    tag_111:\n      pop\n      pop\n      pop\n      pop\n      mload(0x40)\n      returndatasize\n      0x00\n      dup3\n      returndatacopy\n      returndatasize\n      not(0x1f)\n      0x1f\n      dup3\n      add\n      and\n      dup3\n      add\n      dup1\n      0x40\n      mstore\n      pop\n      dup2\n      add\n      swap1\n      tag_112\n      swap2\n      swap1\n      tag_83\n      jump\t// in\n    tag_112:\n        /* \"contracts/Twitter-Interaction-Exercise-Main.sol\":1583:1680  IProfile.UserProfile memory userProfileTemp = profileContract... */\n      swap1\n      pop\n        /* \"contracts/Twitter-Interaction-Exercise-Main.sol\":1755:1756  0 */\n      0x00\n        /* \"contracts/Twitter-Interaction-Exercise-Main.sol\":1717:1732  userProfileTemp */\n      dup2\n        /* \"contracts/Twitter-Interaction-Exercise-Main.sol\":1717:1744  userProfileTemp.displayName */\n      0x00\n      add\n      mload\n        /* \"contracts/Twitter-Interaction-Exercise-Main.sol\":1711:1752  bytes(userProfileTemp.displayName).length */\n      mload\n        /* \"contracts/Twitter-Interaction-Exercise-Main.sol\":1711:1756  bytes(userProfileTemp.displayName).length > 0 */\n      gt\n        /* \"contracts/Twitter-Interaction-Exercise-Main.sol\":1690:1801  require(... */\n      tag_113\n      jumpi\n      mload(0x40)\n      0x08c379a000000000000000000000000000000000000000000000000000000000\n      dup2\n      mstore\n      0x04\n      add\n      tag_114\n      swap1\n      tag_86\n      jump\t// in\n    tag_114:\n      mload(0x40)\n      dup1\n      swap2\n      sub\n      swap1\n      revert\n    tag_113:\n        /* \"contracts/Twitter-Interaction-Exercise-Main.sol\":2877:2883  tweets */\n      0x02\n        /* \"contracts/Twitter-Interaction-Exercise-Main.sol\":2877:2891  tweets[author] */\n      0x00\n        /* \"contracts/Twitter-Interaction-Exercise-Main.sol\":2884:2890  author */\n      dup5\n        /* \"contracts/Twitter-Interaction-Exercise-Main.sol\":2877:2891  tweets[author] */\n      0xffffffffffffffffffffffffffffffffffffffff\n      and\n      0xffffffffffffffffffffffffffffffffffffffff\n      and\n      dup2\n      mstore\n      0x20\n      add\n      swap1\n      dup2\n      mstore\n      0x20\n      add\n      0x00\n      keccak256\n        /* \"contracts/Twitter-Interaction-Exercise-Main.sol\":2877:2898  tweets[author].length */\n      dup1\n      sload\n      swap1\n      pop\n        /* \"contracts/Twitter-Interaction-Exercise-Main.sol\":2872:2874  id */\n      dup3\n        /* \"contracts/Twitter-Interaction-Exercise-Main.sol\":2872:2898  id < tweets[author].length */\n      lt\n        /* \"contracts/Twitter-Interaction-Exercise-Main.sol\":2864:2923  require(id < tweets[author].length, \"Tweet does not exist\") */\n      tag_116\n      jumpi\n      mload(0x40)\n      0x08c379a000000000000000000000000000000000000000000000000000000000\n      dup2\n      mstore\n      0x04\n      add\n      tag_117\n      swap1\n      tag_90\n      jump\t// in\n    tag_117:\n      mload(0x40)\n      dup1\n      swap2\n      sub\n      swap1\n      revert\n    tag_116:\n        /* \"contracts/Twitter-Interaction-Exercise-Main.sol\":2934:2940  tweets */\n      0x02\n        /* \"contracts/Twitter-Interaction-Exercise-Main.sol\":2934:2948  tweets[author] */\n      0x00\n        /* \"contracts/Twitter-Interaction-Exercise-Main.sol\":2941:2947  author */\n      dup5\n        /* \"contracts/Twitter-Interaction-Exercise-Main.sol\":2934:2948  tweets[author] */\n      0xffffffffffffffffffffffffffffffffffffffff\n      and\n      0xffffffffffffffffffffffffffffffffffffffff\n      and\n      dup2\n      mstore\n      0x20\n      add\n      swap1\n      dup2\n      mstore\n      0x20\n      add\n      0x00\n      keccak256\n        /* \"contracts/Twitter-Interaction-Exercise-Main.sol\":2949:2951  id */\n      dup3\n        /* \"contracts/Twitter-Interaction-Exercise-Main.sol\":2934:2952  tweets[author][id] */\n      dup2\n      sload\n      dup2\n      lt\n      tag_118\n      jumpi\n      tag_119\n      tag_93\n      jump\t// in\n    tag_119:\n    tag_118:\n      swap1\n      0x00\n      mstore\n      keccak256(0x00, 0x20)\n      swap1\n      0x05\n      mul\n      add\n        /* \"contracts/Twitter-Interaction-Exercise-Main.sol\":2934:2958  tweets[author][id].likes */\n      0x04\n      add\n      0x00\n        /* \"contracts/Twitter-Interaction-Exercise-Main.sol\":2934:2960  tweets[author][id].likes++ */\n      dup2\n      sload\n      dup1\n      swap3\n      swap2\n      swap1\n      tag_121\n      swap1\n      tag_122\n      jump\t// in\n    tag_121:\n      swap2\n      swap1\n      pop\n      sstore\n      pop\n        /* \"contracts/Twitter-Interaction-Exercise-Main.sol\":2976:3036  TweetLiked(msg.sender, author, id, tweets[author][id].likes) */\n      0xe8a76fc0f16d11a00d1e93b689b63d76cf60af914dd3d915375dc41d01a0c3c8\n        /* \"contracts/Twitter-Interaction-Exercise-Main.sol\":2987:2997  msg.sender */\n      caller\n        /* \"contracts/Twitter-Interaction-Exercise-Main.sol\":2999:3005  author */\n      dup5\n        /* \"contracts/Twitter-Interaction-Exercise-Main.sol\":3007:3009  id */\n      dup5\n        /* \"contracts/Twitter-Interaction-Exercise-Main.sol\":3011:3017  tweets */\n      0x02\n        /* \"contracts/Twitter-Interaction-Exercise-Main.sol\":3011:3025  tweets[author] */\n      0x00\n        /* \"contracts/Twitter-Interaction-Exercise-Main.sol\":3018:3024  author */\n      dup9\n        /* \"contracts/Twitter-Interaction-Exercise-Main.sol\":3011:3025  tweets[author] */\n      0xffffffffffffffffffffffffffffffffffffffff\n      and\n      0xffffffffffffffffffffffffffffffffffffffff\n      and\n      dup2\n      mstore\n      0x20\n      add\n      swap1\n      dup2\n      mstore\n      0x20\n      add\n      0x00\n      keccak256\n        /* \"contracts/Twitter-Interaction-Exercise-Main.sol\":3026:3028  id */\n      dup7\n        /* \"contracts/Twitter-Interaction-Exercise-Main.sol\":3011:3029  tweets[author][id] */\n      dup2\n      sload\n      dup2\n      lt\n      tag_123\n      jumpi\n      tag_124\n      tag_93\n      jump\t// in\n    tag_124:\n    tag_123:\n      swap1\n      0x00\n      mstore\n      keccak256(0x00, 0x20)\n      swap1\n      0x05\n      mul\n      add\n        /* \"contracts/Twitter-Interaction-Exercise-Main.sol\":3011:3035  tweets[author][id].likes */\n      0x04\n      add\n      sload\n        /* \"contracts/Twitter-Interaction-Exercise-Main.sol\":2976:3036  TweetLiked(msg.sender, author, id, tweets[author][id].likes) */\n      mload(0x40)\n      tag_126\n      swap5\n      swap4\n      swap3\n      swap2\n      swap1\n      tag_107\n      jump\t// in\n    tag_126:\n      mload(0x40)\n      dup1\n      swap2\n      sub\n      swap1\n      log1\n        /* \"contracts/Twitter-Interaction-Exercise-Main.sol\":1573:1819  {... */\n      pop\n        /* \"contracts/Twitter-Interaction-Exercise-Main.sol\":2784:3043  function likeTweet(address author, uint256 id) external onlyRegistered{... */\n      pop\n      pop\n      jump\t// out\n        /* \"contracts/Twitter-Interaction-Exercise-Main.sol\":882:918  uint16 public MAX_TWEET_LENGTH = 280 */\n    tag_34:\n      0x00\n      0x14\n      swap1\n      sload\n      swap1\n      0x0100\n      exp\n      swap1\n      div\n      0xffff\n      and\n      dup2\n      jump\t// out\n        /* \"@openzeppelin/contracts/access/Ownable.sol\":2293:2394  function renounceOwnership() public virtual onlyOwner {... */\n    tag_38:\n        /* \"@openzeppelin/contracts/access/Ownable.sol\":1531:1544  _checkOwner() */\n      tag_128\n        /* \"@openzeppelin/contracts/access/Ownable.sol\":1531:1542  _checkOwner */\n      tag_129\n        /* \"@openzeppelin/contracts/access/Ownable.sol\":1531:1544  _checkOwner() */\n      jump\t// in\n    tag_128:\n        /* \"@openzeppelin/contracts/access/Ownable.sol\":2357:2387  _transferOwnership(address(0)) */\n      tag_131\n        /* \"@openzeppelin/contracts/access/Ownable.sol\":2384:2385  0 */\n      0x00\n        /* \"@openzeppelin/contracts/access/Ownable.sol\":2357:2375  _transferOwnership */\n      tag_132\n        /* \"@openzeppelin/contracts/access/Ownable.sol\":2357:2387  _transferOwnership(address(0)) */\n      jump\t// in\n    tag_131:\n        /* \"@openzeppelin/contracts/access/Ownable.sol\":2293:2394  function renounceOwnership() public virtual onlyOwner {... */\n      jump\t// out\n        /* \"contracts/Twitter-Interaction-Exercise-Main.sol\":2211:2778  function createTweet(string memory _tweet) public onlyRegistered{... */\n    tag_42:\n        /* \"contracts/Twitter-Interaction-Exercise-Main.sol\":1583:1626  IProfile.UserProfile memory userProfileTemp */\n      0x00\n        /* \"contracts/Twitter-Interaction-Exercise-Main.sol\":1629:1644  profileContract */\n      0x01\n      0x00\n      swap1\n      sload\n      swap1\n      0x0100\n      exp\n      swap1\n      div\n      0xffffffffffffffffffffffffffffffffffffffff\n      and\n        /* \"contracts/Twitter-Interaction-Exercise-Main.sol\":1629:1668  profileContract... */\n      0xffffffffffffffffffffffffffffffffffffffff\n      and\n      0x0f53a470\n        /* \"contracts/Twitter-Interaction-Exercise-Main.sol\":1669:1679  msg.sender */\n      caller\n        /* \"contracts/Twitter-Interaction-Exercise-Main.sol\":1629:1680  profileContract... */\n      mload(0x40)\n      dup3\n      0xffffffff\n      and\n      0xe0\n      shl\n      dup2\n      mstore\n      0x04\n      add\n      tag_134\n      swap2\n      swap1\n      tag_51\n      jump\t// in\n    tag_134:\n      0x00\n      mload(0x40)\n      dup1\n      dup4\n      sub\n      dup2\n      dup7\n      gas\n      staticcall\n      iszero\n      dup1\n      iszero\n      tag_136\n      jumpi\n      returndatasize\n      0x00\n      dup1\n      returndatacopy\n      revert(0x00, returndatasize)\n    tag_136:\n      pop\n      pop\n      pop\n      pop\n      mload(0x40)\n      returndatasize\n      0x00\n      dup3\n      returndatacopy\n      returndatasize\n      not(0x1f)\n      0x1f\n      dup3\n      add\n      and\n      dup3\n      add\n      dup1\n      0x40\n      mstore\n      pop\n      dup2\n      add\n      swap1\n      tag_137\n      swap2\n      swap1\n      tag_83\n      jump\t// in\n    tag_137:\n        /* \"contracts/Twitter-Interaction-Exercise-Main.sol\":1583:1680  IProfile.UserProfile memory userProfileTemp = profileContract... */\n      swap1\n      pop\n        /* \"contracts/Twitter-Interaction-Exercise-Main.sol\":1755:1756  0 */\n      0x00\n        /* \"contracts/Twitter-Interaction-Exercise-Main.sol\":1717:1732  userProfileTemp */\n      dup2\n        /* \"contracts/Twitter-Interaction-Exercise-Main.sol\":1717:1744  userProfileTemp.displayName */\n      0x00\n      add\n      mload\n        /* \"contracts/Twitter-Interaction-Exercise-Main.sol\":1711:1752  bytes(userProfileTemp.displayName).length */\n      mload\n        /* \"contracts/Twitter-Interaction-Exercise-Main.sol\":1711:1756  bytes(userProfileTemp.displayName).length > 0 */\n      gt\n        /* \"contracts/Twitter-Interaction-Exercise-Main.sol\":1690:1801  require(... */\n      tag_138\n      jumpi\n      mload(0x40)\n      0x08c379a000000000000000000000000000000000000000000000000000000000\n      dup2\n      mstore\n      0x04\n      add\n      tag_139\n      swap1\n      tag_86\n      jump\t// in\n    tag_139:\n      mload(0x40)\n      dup1\n      swap2\n      sub\n      swap1\n      revert\n    tag_138:\n        /* \"contracts/Twitter-Interaction-Exercise-Main.sol\":2317:2333  MAX_TWEET_LENGTH */\n      0x00\n      0x14\n      swap1\n      sload\n      swap1\n      0x0100\n      exp\n      swap1\n      div\n      0xffff\n      and\n        /* \"contracts/Twitter-Interaction-Exercise-Main.sol\":2293:2333  bytes(_tweet).length <= MAX_TWEET_LENGTH */\n      0xffff\n      and\n        /* \"contracts/Twitter-Interaction-Exercise-Main.sol\":2299:2305  _tweet */\n      dup3\n        /* \"contracts/Twitter-Interaction-Exercise-Main.sol\":2293:2313  bytes(_tweet).length */\n      mload\n        /* \"contracts/Twitter-Interaction-Exercise-Main.sol\":2293:2333  bytes(_tweet).length <= MAX_TWEET_LENGTH */\n      gt\n      iszero\n        /* \"contracts/Twitter-Interaction-Exercise-Main.sol\":2285:2355  require(bytes(_tweet).length <= MAX_TWEET_LENGTH, \"Tweet is too long\") */\n      tag_141\n      jumpi\n      mload(0x40)\n      0x08c379a000000000000000000000000000000000000000000000000000000000\n      dup2\n      mstore\n      0x04\n      add\n      tag_142\n      swap1\n      tag_143\n      jump\t// in\n    tag_142:\n      mload(0x40)\n      dup1\n      swap2\n      sub\n      swap1\n      revert\n    tag_141:\n        /* \"contracts/Twitter-Interaction-Exercise-Main.sol\":2366:2387  Tweet memory newTweet */\n      0x00\n        /* \"contracts/Twitter-Interaction-Exercise-Main.sol\":2390:2573  Tweet({... */\n      mload(0x40)\n      dup1\n      0xa0\n      add\n      0x40\n      mstore\n      dup1\n        /* \"contracts/Twitter-Interaction-Exercise-Main.sol\":2414:2420  tweets */\n      0x02\n        /* \"contracts/Twitter-Interaction-Exercise-Main.sol\":2414:2432  tweets[msg.sender] */\n      0x00\n        /* \"contracts/Twitter-Interaction-Exercise-Main.sol\":2421:2431  msg.sender */\n      caller\n        /* \"contracts/Twitter-Interaction-Exercise-Main.sol\":2414:2432  tweets[msg.sender] */\n      0xffffffffffffffffffffffffffffffffffffffff\n      and\n      0xffffffffffffffffffffffffffffffffffffffff\n      and\n      dup2\n      mstore\n      0x20\n      add\n      swap1\n      dup2\n      mstore\n      0x20\n      add\n      0x00\n      keccak256\n        /* \"contracts/Twitter-Interaction-Exercise-Main.sol\":2414:2439  tweets[msg.sender].length */\n      dup1\n      sload\n      swap1\n      pop\n        /* \"contracts/Twitter-Interaction-Exercise-Main.sol\":2390:2573  Tweet({... */\n      dup2\n      mstore\n      0x20\n      add\n        /* \"contracts/Twitter-Interaction-Exercise-Main.sol\":2461:2471  msg.sender */\n      caller\n        /* \"contracts/Twitter-Interaction-Exercise-Main.sol\":2390:2573  Tweet({... */\n      0xffffffffffffffffffffffffffffffffffffffff\n      and\n      dup2\n      mstore\n      0x20\n      add\n        /* \"contracts/Twitter-Interaction-Exercise-Main.sol\":2494:2500  _tweet */\n      dup5\n        /* \"contracts/Twitter-Interaction-Exercise-Main.sol\":2390:2573  Tweet({... */\n      dup2\n      mstore\n      0x20\n      add\n        /* \"contracts/Twitter-Interaction-Exercise-Main.sol\":2525:2540  block.timestamp */\n      timestamp\n        /* \"contracts/Twitter-Interaction-Exercise-Main.sol\":2390:2573  Tweet({... */\n      dup2\n      mstore\n      0x20\n      add\n        /* \"contracts/Twitter-Interaction-Exercise-Main.sol\":2561:2562  0 */\n      0x00\n        /* \"contracts/Twitter-Interaction-Exercise-Main.sol\":2390:2573  Tweet({... */\n      dup2\n      mstore\n      pop\n        /* \"contracts/Twitter-Interaction-Exercise-Main.sol\":2366:2573  Tweet memory newTweet = Tweet({... */\n      swap1\n      pop\n        /* \"contracts/Twitter-Interaction-Exercise-Main.sol\":2584:2590  tweets */\n      0x02\n        /* \"contracts/Twitter-Interaction-Exercise-Main.sol\":2584:2602  tweets[msg.sender] */\n      0x00\n        /* \"contracts/Twitter-Interaction-Exercise-Main.sol\":2591:2601  msg.sender */\n      caller\n        /* \"contracts/Twitter-Interaction-Exercise-Main.sol\":2584:2602  tweets[msg.sender] */\n      0xffffffffffffffffffffffffffffffffffffffff\n      and\n      0xffffffffffffffffffffffffffffffffffffffff\n      and\n      dup2\n      mstore\n      0x20\n      add\n      swap1\n      dup2\n      mstore\n      0x20\n      add\n      0x00\n      keccak256\n        /* \"contracts/Twitter-Interaction-Exercise-Main.sol\":2608:2616  newTweet */\n      dup2\n        /* \"contracts/Twitter-Interaction-Exercise-Main.sol\":2584:2617  tweets[msg.sender].push(newTweet) */\n      swap1\n      dup1\n      0x01\n      dup2\n      sload\n      add\n      dup1\n      dup3\n      sstore\n      dup1\n      swap2\n      pop\n      pop\n      0x01\n      swap1\n      sub\n      swap1\n      0x00\n      mstore\n      keccak256(0x00, 0x20)\n      swap1\n      0x05\n      mul\n      add\n      0x00\n      swap1\n      swap2\n      swap1\n      swap2\n      swap1\n      swap2\n      pop\n      0x00\n      dup3\n      add\n      mload\n      dup2\n      0x00\n      add\n      sstore\n      0x20\n      dup3\n      add\n      mload\n      dup2\n      0x01\n      add\n      exp(0x0100, 0x00)\n      dup2\n      sload\n      dup2\n      0xffffffffffffffffffffffffffffffffffffffff\n      mul\n      not\n      and\n      swap1\n      dup4\n      0xffffffffffffffffffffffffffffffffffffffff\n      and\n      mul\n      or\n      swap1\n      sstore\n      pop\n      0x40\n      dup3\n      add\n      mload\n      dup2\n      0x02\n      add\n      swap1\n      dup2\n      tag_145\n      swap2\n      swap1\n      tag_146\n      jump\t// in\n    tag_145:\n      pop\n      0x60\n      dup3\n      add\n      mload\n      dup2\n      0x03\n      add\n      sstore\n      0x80\n      dup3\n      add\n      mload\n      dup2\n      0x04\n      add\n      sstore\n      pop\n      pop\n        /* \"contracts/Twitter-Interaction-Exercise-Main.sol\":2633:2771  TweetCreated(... */\n      0x16fd3c13e9d46923e0a8bce11c7b473ec508a72e6c96cd2404b29ce972afc29e\n        /* \"contracts/Twitter-Interaction-Exercise-Main.sol\":2659:2667  newTweet */\n      dup2\n        /* \"contracts/Twitter-Interaction-Exercise-Main.sol\":2659:2670  newTweet.id */\n      0x00\n      add\n      mload\n        /* \"contracts/Twitter-Interaction-Exercise-Main.sol\":2684:2692  newTweet */\n      dup3\n        /* \"contracts/Twitter-Interaction-Exercise-Main.sol\":2684:2699  newTweet.author */\n      0x20\n      add\n      mload\n        /* \"contracts/Twitter-Interaction-Exercise-Main.sol\":2713:2721  newTweet */\n      dup4\n        /* \"contracts/Twitter-Interaction-Exercise-Main.sol\":2713:2729  newTweet.content */\n      0x40\n      add\n      mload\n        /* \"contracts/Twitter-Interaction-Exercise-Main.sol\":2743:2751  newTweet */\n      dup5\n        /* \"contracts/Twitter-Interaction-Exercise-Main.sol\":2743:2761  newTweet.timestamp */\n      0x60\n      add\n      mload\n        /* \"contracts/Twitter-Interaction-Exercise-Main.sol\":2633:2771  TweetCreated(... */\n      mload(0x40)\n      tag_147\n      swap5\n      swap4\n      swap3\n      swap2\n      swap1\n      tag_148\n      jump\t// in\n    tag_147:\n      mload(0x40)\n      dup1\n      swap2\n      sub\n      swap1\n      log1\n        /* \"contracts/Twitter-Interaction-Exercise-Main.sol\":2275:2778  {... */\n      pop\n        /* \"contracts/Twitter-Interaction-Exercise-Main.sol\":1573:1819  {... */\n      pop\n        /* \"contracts/Twitter-Interaction-Exercise-Main.sol\":2211:2778  function createTweet(string memory _tweet) public onlyRegistered{... */\n      pop\n      jump\t// out\n        /* \"contracts/Twitter-Interaction-Exercise-Main.sol\":1944:2205  function getTotalLikes(address _author) external view returns (uint256) {... */\n    tag_45:\n        /* \"contracts/Twitter-Interaction-Exercise-Main.sol\":2007:2014  uint256 */\n      0x00\n        /* \"contracts/Twitter-Interaction-Exercise-Main.sol\":2026:2044  uint256 totalLikes */\n      dup1\n        /* \"contracts/Twitter-Interaction-Exercise-Main.sol\":2060:2069  uint256 i */\n      0x00\n        /* \"contracts/Twitter-Interaction-Exercise-Main.sol\":2055:2171  for (uint256 i = 0; i < tweets[_author].length; i++) {... */\n    tag_150:\n        /* \"contracts/Twitter-Interaction-Exercise-Main.sol\":2079:2085  tweets */\n      0x02\n        /* \"contracts/Twitter-Interaction-Exercise-Main.sol\":2079:2094  tweets[_author] */\n      0x00\n        /* \"contracts/Twitter-Interaction-Exercise-Main.sol\":2086:2093  _author */\n      dup6\n        /* \"contracts/Twitter-Interaction-Exercise-Main.sol\":2079:2094  tweets[_author] */\n      0xffffffffffffffffffffffffffffffffffffffff\n      and\n      0xffffffffffffffffffffffffffffffffffffffff\n      and\n      dup2\n      mstore\n      0x20\n      add\n      swap1\n      dup2\n      mstore\n      0x20\n      add\n      0x00\n      keccak256\n        /* \"contracts/Twitter-Interaction-Exercise-Main.sol\":2079:2101  tweets[_author].length */\n      dup1\n      sload\n      swap1\n      pop\n        /* \"contracts/Twitter-Interaction-Exercise-Main.sol\":2075:2076  i */\n      dup2\n        /* \"contracts/Twitter-Interaction-Exercise-Main.sol\":2075:2101  i < tweets[_author].length */\n      lt\n        /* \"contracts/Twitter-Interaction-Exercise-Main.sol\":2055:2171  for (uint256 i = 0; i < tweets[_author].length; i++) {... */\n      iszero\n      tag_151\n      jumpi\n        /* \"contracts/Twitter-Interaction-Exercise-Main.sol\":2136:2142  tweets */\n      0x02\n        /* \"contracts/Twitter-Interaction-Exercise-Main.sol\":2136:2151  tweets[_author] */\n      0x00\n        /* \"contracts/Twitter-Interaction-Exercise-Main.sol\":2143:2150  _author */\n      dup6\n        /* \"contracts/Twitter-Interaction-Exercise-Main.sol\":2136:2151  tweets[_author] */\n      0xffffffffffffffffffffffffffffffffffffffff\n      and\n      0xffffffffffffffffffffffffffffffffffffffff\n      and\n      dup2\n      mstore\n      0x20\n      add\n      swap1\n      dup2\n      mstore\n      0x20\n      add\n      0x00\n      keccak256\n        /* \"contracts/Twitter-Interaction-Exercise-Main.sol\":2152:2153  i */\n      dup2\n        /* \"contracts/Twitter-Interaction-Exercise-Main.sol\":2136:2154  tweets[_author][i] */\n      dup2\n      sload\n      dup2\n      lt\n      tag_153\n      jumpi\n      tag_154\n      tag_93\n      jump\t// in\n    tag_154:\n    tag_153:\n      swap1\n      0x00\n      mstore\n      keccak256(0x00, 0x20)\n      swap1\n      0x05\n      mul\n      add\n        /* \"contracts/Twitter-Interaction-Exercise-Main.sol\":2136:2160  tweets[_author][i].likes */\n      0x04\n      add\n      sload\n        /* \"contracts/Twitter-Interaction-Exercise-Main.sol\":2122:2160  totalLikes += tweets[_author][i].likes */\n      dup3\n      tag_156\n      swap2\n      swap1\n      tag_157\n      jump\t// in\n    tag_156:\n      swap2\n      pop\n        /* \"contracts/Twitter-Interaction-Exercise-Main.sol\":2103:2106  i++ */\n      dup1\n      dup1\n      0x01\n      add\n      swap2\n      pop\n      pop\n        /* \"contracts/Twitter-Interaction-Exercise-Main.sol\":2055:2171  for (uint256 i = 0; i < tweets[_author].length; i++) {... */\n      jump(tag_150)\n    tag_151:\n      pop\n        /* \"contracts/Twitter-Interaction-Exercise-Main.sol\":2188:2198  totalLikes */\n      dup1\n        /* \"contracts/Twitter-Interaction-Exercise-Main.sol\":2181:2198  return totalLikes */\n      swap2\n      pop\n      pop\n        /* \"contracts/Twitter-Interaction-Exercise-Main.sol\":1944:2205  function getTotalLikes(address _author) external view returns (uint256) {... */\n      swap2\n      swap1\n      pop\n      jump\t// out\n        /* \"@openzeppelin/contracts/access/Ownable.sol\":1638:1723  function owner() public view virtual returns (address) {... */\n    tag_49:\n        /* \"@openzeppelin/contracts/access/Ownable.sol\":1684:1691  address */\n      0x00\n        /* \"@openzeppelin/contracts/access/Ownable.sol\":1710:1716  _owner */\n      dup1\n      0x00\n      swap1\n      sload\n      swap1\n      0x0100\n      exp\n      swap1\n      div\n      0xffffffffffffffffffffffffffffffffffffffff\n      and\n        /* \"@openzeppelin/contracts/access/Ownable.sol\":1703:1716  return _owner */\n      swap1\n      pop\n        /* \"@openzeppelin/contracts/access/Ownable.sol\":1638:1723  function owner() public view virtual returns (address) {... */\n      swap1\n      jump\t// out\n        /* \"contracts/Twitter-Interaction-Exercise-Main.sol\":3387:3577  function getTweet(uint256 _i) public view returns (Tweet memory) {... */\n    tag_55:\n        /* \"contracts/Twitter-Interaction-Exercise-Main.sol\":3438:3450  Tweet memory */\n      tag_159\n      tag_160\n      jump\t// in\n    tag_159:\n        /* \"contracts/Twitter-Interaction-Exercise-Main.sol\":3475:3481  tweets */\n      0x02\n        /* \"contracts/Twitter-Interaction-Exercise-Main.sol\":3475:3493  tweets[msg.sender] */\n      0x00\n        /* \"contracts/Twitter-Interaction-Exercise-Main.sol\":3482:3492  msg.sender */\n      caller\n        /* \"contracts/Twitter-Interaction-Exercise-Main.sol\":3475:3493  tweets[msg.sender] */\n      0xffffffffffffffffffffffffffffffffffffffff\n      and\n      0xffffffffffffffffffffffffffffffffffffffff\n      and\n      dup2\n      mstore\n      0x20\n      add\n      swap1\n      dup2\n      mstore\n      0x20\n      add\n      0x00\n      keccak256\n        /* \"contracts/Twitter-Interaction-Exercise-Main.sol\":3475:3500  tweets[msg.sender].length */\n      dup1\n      sload\n      swap1\n      pop\n        /* \"contracts/Twitter-Interaction-Exercise-Main.sol\":3470:3472  _i */\n      dup3\n        /* \"contracts/Twitter-Interaction-Exercise-Main.sol\":3470:3500  _i < tweets[msg.sender].length */\n      lt\n        /* \"contracts/Twitter-Interaction-Exercise-Main.sol\":3462:3530  require(_i < tweets[msg.sender].length, \"Tweet index out of bounds\") */\n      tag_162\n      jumpi\n      mload(0x40)\n      0x08c379a000000000000000000000000000000000000000000000000000000000\n      dup2\n      mstore\n      0x04\n      add\n      tag_163\n      swap1\n      tag_164\n      jump\t// in\n    tag_163:\n      mload(0x40)\n      dup1\n      swap2\n      sub\n      swap1\n      revert\n    tag_162:\n        /* \"contracts/Twitter-Interaction-Exercise-Main.sol\":3548:3554  tweets */\n      0x02\n        /* \"contracts/Twitter-Interaction-Exercise-Main.sol\":3548:3566  tweets[msg.sender] */\n      0x00\n        /* \"contracts/Twitter-Interaction-Exercise-Main.sol\":3555:3565  msg.sender */\n      caller\n        /* \"contracts/Twitter-Interaction-Exercise-Main.sol\":3548:3566  tweets[msg.sender] */\n      0xffffffffffffffffffffffffffffffffffffffff\n      and\n      0xffffffffffffffffffffffffffffffffffffffff\n      and\n      dup2\n      mstore\n      0x20\n      add\n      swap1\n      dup2\n      mstore\n      0x20\n      add\n      0x00\n      keccak256\n        /* \"contracts/Twitter-Interaction-Exercise-Main.sol\":3567:3569  _i */\n      dup3\n        /* \"contracts/Twitter-Interaction-Exercise-Main.sol\":3548:3570  tweets[msg.sender][_i] */\n      dup2\n      sload\n      dup2\n      lt\n      tag_165\n      jumpi\n      tag_166\n      tag_93\n      jump\t// in\n    tag_166:\n    tag_165:\n      swap1\n      0x00\n      mstore\n      keccak256(0x00, 0x20)\n      swap1\n      0x05\n      mul\n      add\n        /* \"contracts/Twitter-Interaction-Exercise-Main.sol\":3541:3570  return tweets[msg.sender][_i] */\n      mload(0x40)\n      dup1\n      0xa0\n      add\n      0x40\n      mstore\n      swap1\n      dup2\n      0x00\n      dup3\n      add\n      sload\n      dup2\n      mstore\n      0x20\n      add\n      0x01\n      dup3\n      add\n      0x00\n      swap1\n      sload\n      swap1\n      0x0100\n      exp\n      swap1\n      div\n      0xffffffffffffffffffffffffffffffffffffffff\n      and\n      0xffffffffffffffffffffffffffffffffffffffff\n      and\n      0xffffffffffffffffffffffffffffffffffffffff\n      and\n      dup2\n      mstore\n      0x20\n      add\n      0x02\n      dup3\n      add\n      dup1\n      sload\n      tag_168\n      swap1\n      tag_64\n      jump\t// in\n    tag_168:\n      dup1\n      0x1f\n      add\n      0x20\n      dup1\n      swap2\n      div\n      mul\n      0x20\n      add\n      mload(0x40)\n      swap1\n      dup2\n      add\n      0x40\n      mstore\n      dup1\n      swap3\n      swap2\n      swap1\n      dup2\n      dup2\n      mstore\n      0x20\n      add\n      dup3\n      dup1\n      sload\n      tag_169\n      swap1\n      tag_64\n      jump\t// in\n    tag_169:\n      dup1\n      iszero\n      tag_170\n      jumpi\n      dup1\n      0x1f\n      lt\n      tag_171\n      jumpi\n      0x0100\n      dup1\n      dup4\n      sload\n      div\n      mul\n      dup4\n      mstore\n      swap2\n      0x20\n      add\n      swap2\n      jump(tag_170)\n    tag_171:\n      dup3\n      add\n      swap2\n      swap1\n      0x00\n      mstore\n      keccak256(0x00, 0x20)\n      swap1\n    tag_172:\n      dup2\n      sload\n      dup2\n      mstore\n      swap1\n      0x01\n      add\n      swap1\n      0x20\n      add\n      dup1\n      dup4\n      gt\n      tag_172\n      jumpi\n      dup3\n      swap1\n      sub\n      0x1f\n      and\n      dup3\n      add\n      swap2\n    tag_170:\n      pop\n      pop\n      pop\n      pop\n      pop\n      dup2\n      mstore\n      0x20\n      add\n      0x03\n      dup3\n      add\n      sload\n      dup2\n      mstore\n      0x20\n      add\n      0x04\n      dup3\n      add\n      sload\n      dup2\n      mstore\n      pop\n      pop\n      swap1\n      pop\n        /* \"contracts/Twitter-Interaction-Exercise-Main.sol\":3387:3577  function getTweet(uint256 _i) public view returns (Tweet memory) {... */\n      swap2\n      swap1\n      pop\n      jump\t// out\n        /* \"@openzeppelin/contracts/access/Ownable.sol\":2543:2758  function transferOwnership(address newOwner) public virtual onlyOwner {... */\n    tag_60:\n        /* \"@openzeppelin/contracts/access/Ownable.sol\":1531:1544  _checkOwner() */\n      tag_174\n        /* \"@openzeppelin/contracts/access/Ownable.sol\":1531:1542  _checkOwner */\n      tag_129\n        /* \"@openzeppelin/contracts/access/Ownable.sol\":1531:1544  _checkOwner() */\n      jump\t// in\n    tag_174:\n        /* \"@openzeppelin/contracts/access/Ownable.sol\":2647:2648  0 */\n      0x00\n        /* \"@openzeppelin/contracts/access/Ownable.sol\":2627:2649  newOwner == address(0) */\n      0xffffffffffffffffffffffffffffffffffffffff\n      and\n        /* \"@openzeppelin/contracts/access/Ownable.sol\":2627:2635  newOwner */\n      dup2\n        /* \"@openzeppelin/contracts/access/Ownable.sol\":2627:2649  newOwner == address(0) */\n      0xffffffffffffffffffffffffffffffffffffffff\n      and\n      sub\n        /* \"@openzeppelin/contracts/access/Ownable.sol\":2623:2714  if (newOwner == address(0)) {... */\n      tag_176\n      jumpi\n        /* \"@openzeppelin/contracts/access/Ownable.sol\":2700:2701  0 */\n      0x00\n        /* \"@openzeppelin/contracts/access/Ownable.sol\":2672:2703  OwnableInvalidOwner(address(0)) */\n      mload(0x40)\n      0x1e4fbdf700000000000000000000000000000000000000000000000000000000\n      dup2\n      mstore\n      0x04\n      add\n      tag_177\n      swap2\n      swap1\n      tag_51\n      jump\t// in\n    tag_177:\n      mload(0x40)\n      dup1\n      swap2\n      sub\n      swap1\n      revert\n        /* \"@openzeppelin/contracts/access/Ownable.sol\":2623:2714  if (newOwner == address(0)) {... */\n    tag_176:\n        /* \"@openzeppelin/contracts/access/Ownable.sol\":2723:2751  _transferOwnership(newOwner) */\n      tag_178\n        /* \"@openzeppelin/contracts/access/Ownable.sol\":2742:2750  newOwner */\n      dup2\n        /* \"@openzeppelin/contracts/access/Ownable.sol\":2723:2741  _transferOwnership */\n      tag_132\n        /* \"@openzeppelin/contracts/access/Ownable.sol\":2723:2751  _transferOwnership(newOwner) */\n      jump\t// in\n    tag_178:\n        /* \"@openzeppelin/contracts/access/Ownable.sol\":2543:2758  function transferOwnership(address newOwner) public virtual onlyOwner {... */\n      pop\n      jump\t// out\n        /* \"@openzeppelin/contracts/access/Ownable.sol\":1796:1958  function _checkOwner() internal view virtual {... */\n    tag_129:\n        /* \"@openzeppelin/contracts/access/Ownable.sol\":1866:1878  _msgSender() */\n      tag_180\n        /* \"@openzeppelin/contracts/access/Ownable.sol\":1866:1876  _msgSender */\n      tag_181\n        /* \"@openzeppelin/contracts/access/Ownable.sol\":1866:1878  _msgSender() */\n      jump\t// in\n    tag_180:\n        /* \"@openzeppelin/contracts/access/Ownable.sol\":1855:1878  owner() != _msgSender() */\n      0xffffffffffffffffffffffffffffffffffffffff\n      and\n        /* \"@openzeppelin/contracts/access/Ownable.sol\":1855:1862  owner() */\n      tag_182\n        /* \"@openzeppelin/contracts/access/Ownable.sol\":1855:1860  owner */\n      tag_49\n        /* \"@openzeppelin/contracts/access/Ownable.sol\":1855:1862  owner() */\n      jump\t// in\n    tag_182:\n        /* \"@openzeppelin/contracts/access/Ownable.sol\":1855:1878  owner() != _msgSender() */\n      0xffffffffffffffffffffffffffffffffffffffff\n      and\n      eq\n        /* \"@openzeppelin/contracts/access/Ownable.sol\":1851:1952  if (owner() != _msgSender()) {... */\n      tag_183\n      jumpi\n        /* \"@openzeppelin/contracts/access/Ownable.sol\":1928:1940  _msgSender() */\n      tag_184\n        /* \"@openzeppelin/contracts/access/Ownable.sol\":1928:1938  _msgSender */\n      tag_181\n        /* \"@openzeppelin/contracts/access/Ownable.sol\":1928:1940  _msgSender() */\n      jump\t// in\n    tag_184:\n        /* \"@openzeppelin/contracts/access/Ownable.sol\":1901:1941  OwnableUnauthorizedAccount(_msgSender()) */\n      mload(0x40)\n      0x118cdaa700000000000000000000000000000000000000000000000000000000\n      dup2\n      mstore\n      0x04\n      add\n      tag_185\n      swap2\n      swap1\n      tag_51\n      jump\t// in\n    tag_185:\n      mload(0x40)\n      dup1\n      swap2\n      sub\n      swap1\n      revert\n        /* \"@openzeppelin/contracts/access/Ownable.sol\":1851:1952  if (owner() != _msgSender()) {... */\n    tag_183:\n        /* \"@openzeppelin/contracts/access/Ownable.sol\":1796:1958  function _checkOwner() internal view virtual {... */\n      jump\t// out\n        /* \"@openzeppelin/contracts/access/Ownable.sol\":2912:3099  function _transferOwnership(address newOwner) internal virtual {... */\n    tag_132:\n        /* \"@openzeppelin/contracts/access/Ownable.sol\":2985:3001  address oldOwner */\n      0x00\n        /* \"@openzeppelin/contracts/access/Ownable.sol\":3004:3010  _owner */\n      dup1\n      0x00\n      swap1\n      sload\n      swap1\n      0x0100\n      exp\n      swap1\n      div\n      0xffffffffffffffffffffffffffffffffffffffff\n      and\n        /* \"@openzeppelin/contracts/access/Ownable.sol\":2985:3010  address oldOwner = _owner */\n      swap1\n      pop\n        /* \"@openzeppelin/contracts/access/Ownable.sol\":3029:3037  newOwner */\n      dup2\n        /* \"@openzeppelin/contracts/access/Ownable.sol\":3020:3026  _owner */\n      0x00\n      dup1\n        /* \"@openzeppelin/contracts/access/Ownable.sol\":3020:3037  _owner = newOwner */\n      0x0100\n      exp\n      dup2\n      sload\n      dup2\n      0xffffffffffffffffffffffffffffffffffffffff\n      mul\n      not\n      and\n      swap1\n      dup4\n      0xffffffffffffffffffffffffffffffffffffffff\n      and\n      mul\n      or\n      swap1\n      sstore\n      pop\n        /* \"@openzeppelin/contracts/access/Ownable.sol\":3083:3091  newOwner */\n      dup2\n        /* \"@openzeppelin/contracts/access/Ownable.sol\":3052:3092  OwnershipTransferred(oldOwner, newOwner) */\n      0xffffffffffffffffffffffffffffffffffffffff\n      and\n        /* \"@openzeppelin/contracts/access/Ownable.sol\":3073:3081  oldOwner */\n      dup2\n        /* \"@openzeppelin/contracts/access/Ownable.sol\":3052:3092  OwnershipTransferred(oldOwner, newOwner) */\n      0xffffffffffffffffffffffffffffffffffffffff\n      and\n      0x8be0079c531659141344cd1fd0a4f28419497f9722a3daafe3b4186f6b6457e0\n      mload(0x40)\n      mload(0x40)\n      dup1\n      swap2\n      sub\n      swap1\n      log3\n        /* \"@openzeppelin/contracts/access/Ownable.sol\":2975:3099  {... */\n      pop\n        /* \"@openzeppelin/contracts/access/Ownable.sol\":2912:3099  function _transferOwnership(address newOwner) internal virtual {... */\n      pop\n      jump\t// out\n        /* \"@openzeppelin/contracts/utils/Context.sol\":656:752  function _msgSender() internal view virtual returns (address) {... */\n    tag_181:\n        /* \"@openzeppelin/contracts/utils/Context.sol\":709:716  address */\n      0x00\n        /* \"@openzeppelin/contracts/utils/Context.sol\":735:745  msg.sender */\n      caller\n        /* \"@openzeppelin/contracts/utils/Context.sol\":728:745  return msg.sender */\n      swap1\n      pop\n        /* \"@openzeppelin/contracts/utils/Context.sol\":656:752  function _msgSender() internal view virtual returns (address) {... */\n      swap1\n      jump\t// out\n    tag_160:\n      mload(0x40)\n      dup1\n      0xa0\n      add\n      0x40\n      mstore\n      dup1\n      0x00\n      dup2\n      mstore\n      0x20\n      add\n      and(0xffffffffffffffffffffffffffffffffffffffff, 0x00)\n      dup2\n      mstore\n      0x20\n      add\n      0x60\n      dup2\n      mstore\n      0x20\n      add\n      0x00\n      dup2\n      mstore\n      0x20\n      add\n      0x00\n      dup2\n      mstore\n      pop\n      swap1\n      jump\t// out\n        /* \"#utility.yul\":7:82   */\n    tag_188:\n        /* \"#utility.yul\":40:46   */\n      0x00\n        /* \"#utility.yul\":73:75   */\n      0x40\n        /* \"#utility.yul\":67:76   */\n      mload\n        /* \"#utility.yul\":57:76   */\n      swap1\n      pop\n        /* \"#utility.yul\":7:82   */\n      swap1\n      jump\t// out\n        /* \"#utility.yul\":88:205   */\n    tag_189:\n        /* \"#utility.yul\":197:198   */\n      0x00\n        /* \"#utility.yul\":194:195   */\n      dup1\n        /* \"#utility.yul\":187:199   */\n      revert\n        /* \"#utility.yul\":211:328   */\n    tag_190:\n        /* \"#utility.yul\":320:321   */\n      0x00\n        /* \"#utility.yul\":317:318   */\n      dup1\n        /* \"#utility.yul\":310:322   */\n      revert\n        /* \"#utility.yul\":334:460   */\n    tag_191:\n        /* \"#utility.yul\":371:378   */\n      0x00\n        /* \"#utility.yul\":411:453   */\n      0xffffffffffffffffffffffffffffffffffffffff\n        /* \"#utility.yul\":404:409   */\n      dup3\n        /* \"#utility.yul\":400:454   */\n      and\n        /* \"#utility.yul\":389:454   */\n      swap1\n      pop\n        /* \"#utility.yul\":334:460   */\n      swap2\n      swap1\n      pop\n      jump\t// out\n        /* \"#utility.yul\":466:562   */\n    tag_192:\n        /* \"#utility.yul\":503:510   */\n      0x00\n        /* \"#utility.yul\":532:556   */\n      tag_266\n        /* \"#utility.yul\":550:555   */\n      dup3\n        /* \"#utility.yul\":532:556   */\n      tag_191\n      jump\t// in\n    tag_266:\n        /* \"#utility.yul\":521:556   */\n      swap1\n      pop\n        /* \"#utility.yul\":466:562   */\n      swap2\n      swap1\n      pop\n      jump\t// out\n        /* \"#utility.yul\":568:690   */\n    tag_193:\n        /* \"#utility.yul\":641:665   */\n      tag_268\n        /* \"#utility.yul\":659:664   */\n      dup2\n        /* \"#utility.yul\":641:665   */\n      tag_192\n      jump\t// in\n    tag_268:\n        /* \"#utility.yul\":634:639   */\n      dup2\n        /* \"#utility.yul\":631:666   */\n      eq\n        /* \"#utility.yul\":621:684   */\n      tag_269\n      jumpi\n        /* \"#utility.yul\":680:681   */\n      0x00\n        /* \"#utility.yul\":677:678   */\n      dup1\n        /* \"#utility.yul\":670:682   */\n      revert\n        /* \"#utility.yul\":621:684   */\n    tag_269:\n        /* \"#utility.yul\":568:690   */\n      pop\n      jump\t// out\n        /* \"#utility.yul\":696:835   */\n    tag_194:\n        /* \"#utility.yul\":742:747   */\n      0x00\n        /* \"#utility.yul\":780:786   */\n      dup2\n        /* \"#utility.yul\":767:787   */\n      calldataload\n        /* \"#utility.yul\":758:787   */\n      swap1\n      pop\n        /* \"#utility.yul\":796:829   */\n      tag_271\n        /* \"#utility.yul\":823:828   */\n      dup2\n        /* \"#utility.yul\":796:829   */\n      tag_193\n      jump\t// in\n    tag_271:\n        /* \"#utility.yul\":696:835   */\n      swap3\n      swap2\n      pop\n      pop\n      jump\t// out\n        /* \"#utility.yul\":841:918   */\n    tag_195:\n        /* \"#utility.yul\":878:885   */\n      0x00\n        /* \"#utility.yul\":907:912   */\n      dup2\n        /* \"#utility.yul\":896:912   */\n      swap1\n      pop\n        /* \"#utility.yul\":841:918   */\n      swap2\n      swap1\n      pop\n      jump\t// out\n        /* \"#utility.yul\":924:1046   */\n    tag_196:\n        /* \"#utility.yul\":997:1021   */\n      tag_274\n        /* \"#utility.yul\":1015:1020   */\n      dup2\n        /* \"#utility.yul\":997:1021   */\n      tag_195\n      jump\t// in\n    tag_274:\n        /* \"#utility.yul\":990:995   */\n      dup2\n        /* \"#utility.yul\":987:1022   */\n      eq\n        /* \"#utility.yul\":977:1040   */\n      tag_275\n      jumpi\n        /* \"#utility.yul\":1036:1037   */\n      0x00\n        /* \"#utility.yul\":1033:1034   */\n      dup1\n        /* \"#utility.yul\":1026:1038   */\n      revert\n        /* \"#utility.yul\":977:1040   */\n    tag_275:\n        /* \"#utility.yul\":924:1046   */\n      pop\n      jump\t// out\n        /* \"#utility.yul\":1052:1191   */\n    tag_197:\n        /* \"#utility.yul\":1098:1103   */\n      0x00\n        /* \"#utility.yul\":1136:1142   */\n      dup2\n        /* \"#utility.yul\":1123:1143   */\n      calldataload\n        /* \"#utility.yul\":1114:1143   */\n      swap1\n      pop\n        /* \"#utility.yul\":1152:1185   */\n      tag_277\n        /* \"#utility.yul\":1179:1184   */\n      dup2\n        /* \"#utility.yul\":1152:1185   */\n      tag_196\n      jump\t// in\n    tag_277:\n        /* \"#utility.yul\":1052:1191   */\n      swap3\n      swap2\n      pop\n      pop\n      jump\t// out\n        /* \"#utility.yul\":1197:1671   */\n    tag_17:\n        /* \"#utility.yul\":1265:1271   */\n      0x00\n        /* \"#utility.yul\":1273:1279   */\n      dup1\n        /* \"#utility.yul\":1322:1324   */\n      0x40\n        /* \"#utility.yul\":1310:1319   */\n      dup4\n        /* \"#utility.yul\":1301:1308   */\n      dup6\n        /* \"#utility.yul\":1297:1320   */\n      sub\n        /* \"#utility.yul\":1293:1325   */\n      slt\n        /* \"#utility.yul\":1290:1409   */\n      iszero\n      tag_279\n      jumpi\n        /* \"#utility.yul\":1328:1407   */\n      tag_280\n      tag_189\n      jump\t// in\n    tag_280:\n        /* \"#utility.yul\":1290:1409   */\n    tag_279:\n        /* \"#utility.yul\":1448:1449   */\n      0x00\n        /* \"#utility.yul\":1473:1526   */\n      tag_281\n        /* \"#utility.yul\":1518:1525   */\n      dup6\n        /* \"#utility.yul\":1509:1515   */\n      dup3\n        /* \"#utility.yul\":1498:1507   */\n      dup7\n        /* \"#utility.yul\":1494:1516   */\n      add\n        /* \"#utility.yul\":1473:1526   */\n      tag_194\n      jump\t// in\n    tag_281:\n        /* \"#utility.yul\":1463:1526   */\n      swap3\n      pop\n        /* \"#utility.yul\":1419:1536   */\n      pop\n        /* \"#utility.yul\":1575:1577   */\n      0x20\n        /* \"#utility.yul\":1601:1654   */\n      tag_282\n        /* \"#utility.yul\":1646:1653   */\n      dup6\n        /* \"#utility.yul\":1637:1643   */\n      dup3\n        /* \"#utility.yul\":1626:1635   */\n      dup7\n        /* \"#utility.yul\":1622:1644   */\n      add\n        /* \"#utility.yul\":1601:1654   */\n      tag_197\n      jump\t// in\n    tag_282:\n        /* \"#utility.yul\":1591:1654   */\n      swap2\n      pop\n        /* \"#utility.yul\":1546:1664   */\n      pop\n        /* \"#utility.yul\":1197:1671   */\n      swap3\n      pop\n      swap3\n      swap1\n      pop\n      jump\t// out\n        /* \"#utility.yul\":1677:1795   */\n    tag_198:\n        /* \"#utility.yul\":1764:1788   */\n      tag_284\n        /* \"#utility.yul\":1782:1787   */\n      dup2\n        /* \"#utility.yul\":1764:1788   */\n      tag_195\n      jump\t// in\n    tag_284:\n        /* \"#utility.yul\":1759:1762   */\n      dup3\n        /* \"#utility.yul\":1752:1789   */\n      mstore\n        /* \"#utility.yul\":1677:1795   */\n      pop\n      pop\n      jump\t// out\n        /* \"#utility.yul\":1801:1919   */\n    tag_199:\n        /* \"#utility.yul\":1888:1912   */\n      tag_286\n        /* \"#utility.yul\":1906:1911   */\n      dup2\n        /* \"#utility.yul\":1888:1912   */\n      tag_192\n      jump\t// in\n    tag_286:\n        /* \"#utility.yul\":1883:1886   */\n      dup3\n        /* \"#utility.yul\":1876:1913   */\n      mstore\n        /* \"#utility.yul\":1801:1919   */\n      pop\n      pop\n      jump\t// out\n        /* \"#utility.yul\":1925:2024   */\n    tag_200:\n        /* \"#utility.yul\":1977:1983   */\n      0x00\n        /* \"#utility.yul\":2011:2016   */\n      dup2\n        /* \"#utility.yul\":2005:2017   */\n      mload\n        /* \"#utility.yul\":1995:2017   */\n      swap1\n      pop\n        /* \"#utility.yul\":1925:2024   */\n      swap2\n      swap1\n      pop\n      jump\t// out\n        /* \"#utility.yul\":2030:2199   */\n    tag_201:\n        /* \"#utility.yul\":2114:2125   */\n      0x00\n        /* \"#utility.yul\":2148:2154   */\n      dup3\n        /* \"#utility.yul\":2143:2146   */\n      dup3\n        /* \"#utility.yul\":2136:2155   */\n      mstore\n        /* \"#utility.yul\":2188:2192   */\n      0x20\n        /* \"#utility.yul\":2183:2186   */\n      dup3\n        /* \"#utility.yul\":2179:2193   */\n      add\n        /* \"#utility.yul\":2164:2193   */\n      swap1\n      pop\n        /* \"#utility.yul\":2030:2199   */\n      swap3\n      swap2\n      pop\n      pop\n      jump\t// out\n        /* \"#utility.yul\":2205:2344   */\n    tag_202:\n        /* \"#utility.yul\":2294:2300   */\n      dup3\n        /* \"#utility.yul\":2289:2292   */\n      dup2\n        /* \"#utility.yul\":2284:2287   */\n      dup4\n        /* \"#utility.yul\":2278:2301   */\n      mcopy\n        /* \"#utility.yul\":2335:2336   */\n      0x00\n        /* \"#utility.yul\":2326:2332   */\n      dup4\n        /* \"#utility.yul\":2321:2324   */\n      dup4\n        /* \"#utility.yul\":2317:2333   */\n      add\n        /* \"#utility.yul\":2310:2337   */\n      mstore\n        /* \"#utility.yul\":2205:2344   */\n      pop\n      pop\n      pop\n      jump\t// out\n        /* \"#utility.yul\":2350:2452   */\n    tag_203:\n        /* \"#utility.yul\":2391:2397   */\n      0x00\n        /* \"#utility.yul\":2442:2444   */\n      0x1f\n        /* \"#utility.yul\":2438:2445   */\n      not\n        /* \"#utility.yul\":2433:2435   */\n      0x1f\n        /* \"#utility.yul\":2426:2431   */\n      dup4\n        /* \"#utility.yul\":2422:2436   */\n      add\n        /* \"#utility.yul\":2418:2446   */\n      and\n        /* \"#utility.yul\":2408:2446   */\n      swap1\n      pop\n        /* \"#utility.yul\":2350:2452   */\n      swap2\n      swap1\n      pop\n      jump\t// out\n        /* \"#utility.yul\":2458:2835   */\n    tag_204:\n        /* \"#utility.yul\":2546:2549   */\n      0x00\n        /* \"#utility.yul\":2574:2613   */\n      tag_292\n        /* \"#utility.yul\":2607:2612   */\n      dup3\n        /* \"#utility.yul\":2574:2613   */\n      tag_200\n      jump\t// in\n    tag_292:\n        /* \"#utility.yul\":2629:2700   */\n      tag_293\n        /* \"#utility.yul\":2693:2699   */\n      dup2\n        /* \"#utility.yul\":2688:2691   */\n      dup6\n        /* \"#utility.yul\":2629:2700   */\n      tag_201\n      jump\t// in\n    tag_293:\n        /* \"#utility.yul\":2622:2700   */\n      swap4\n      pop\n        /* \"#utility.yul\":2709:2774   */\n      tag_294\n        /* \"#utility.yul\":2767:2773   */\n      dup2\n        /* \"#utility.yul\":2762:2765   */\n      dup6\n        /* \"#utility.yul\":2755:2759   */\n      0x20\n        /* \"#utility.yul\":2748:2753   */\n      dup7\n        /* \"#utility.yul\":2744:2760   */\n      add\n        /* \"#utility.yul\":2709:2774   */\n      tag_202\n      jump\t// in\n    tag_294:\n        /* \"#utility.yul\":2799:2828   */\n      tag_295\n        /* \"#utility.yul\":2821:2827   */\n      dup2\n        /* \"#utility.yul\":2799:2828   */\n      tag_203\n      jump\t// in\n    tag_295:\n        /* \"#utility.yul\":2794:2797   */\n      dup5\n        /* \"#utility.yul\":2790:2829   */\n      add\n        /* \"#utility.yul\":2783:2829   */\n      swap2\n      pop\n        /* \"#utility.yul\":2550:2835   */\n      pop\n        /* \"#utility.yul\":2458:2835   */\n      swap3\n      swap2\n      pop\n      pop\n      jump\t// out\n        /* \"#utility.yul\":2841:3596   */\n    tag_20:\n        /* \"#utility.yul\":3066:3070   */\n      0x00\n        /* \"#utility.yul\":3104:3107   */\n      0xa0\n        /* \"#utility.yul\":3093:3102   */\n      dup3\n        /* \"#utility.yul\":3089:3108   */\n      add\n        /* \"#utility.yul\":3081:3108   */\n      swap1\n      pop\n        /* \"#utility.yul\":3118:3189   */\n      tag_297\n        /* \"#utility.yul\":3186:3187   */\n      0x00\n        /* \"#utility.yul\":3175:3184   */\n      dup4\n        /* \"#utility.yul\":3171:3188   */\n      add\n        /* \"#utility.yul\":3162:3168   */\n      dup9\n        /* \"#utility.yul\":3118:3189   */\n      tag_198\n      jump\t// in\n    tag_297:\n        /* \"#utility.yul\":3199:3271   */\n      tag_298\n        /* \"#utility.yul\":3267:3269   */\n      0x20\n        /* \"#utility.yul\":3256:3265   */\n      dup4\n        /* \"#utility.yul\":3252:3270   */\n      add\n        /* \"#utility.yul\":3243:3249   */\n      dup8\n        /* \"#utility.yul\":3199:3271   */\n      tag_199\n      jump\t// in\n    tag_298:\n        /* \"#utility.yul\":3318:3327   */\n      dup2\n        /* \"#utility.yul\":3312:3316   */\n      dup2\n        /* \"#utility.yul\":3308:3328   */\n      sub\n        /* \"#utility.yul\":3303:3305   */\n      0x40\n        /* \"#utility.yul\":3292:3301   */\n      dup4\n        /* \"#utility.yul\":3288:3306   */\n      add\n        /* \"#utility.yul\":3281:3329   */\n      mstore\n        /* \"#utility.yul\":3346:3424   */\n      tag_299\n        /* \"#utility.yul\":3419:3423   */\n      dup2\n        /* \"#utility.yul\":3410:3416   */\n      dup7\n        /* \"#utility.yul\":3346:3424   */\n      tag_204\n      jump\t// in\n    tag_299:\n        /* \"#utility.yul\":3338:3424   */\n      swap1\n      pop\n        /* \"#utility.yul\":3434:3506   */\n      tag_300\n        /* \"#utility.yul\":3502:3504   */\n      0x60\n        /* \"#utility.yul\":3491:3500   */\n      dup4\n        /* \"#utility.yul\":3487:3505   */\n      add\n        /* \"#utility.yul\":3478:3484   */\n      dup6\n        /* \"#utility.yul\":3434:3506   */\n      tag_198\n      jump\t// in\n    tag_300:\n        /* \"#utility.yul\":3516:3589   */\n      tag_301\n        /* \"#utility.yul\":3584:3587   */\n      0x80\n        /* \"#utility.yul\":3573:3582   */\n      dup4\n        /* \"#utility.yul\":3569:3588   */\n      add\n        /* \"#utility.yul\":3560:3566   */\n      dup5\n        /* \"#utility.yul\":3516:3589   */\n      tag_198\n      jump\t// in\n    tag_301:\n        /* \"#utility.yul\":2841:3596   */\n      swap7\n      swap6\n      pop\n      pop\n      pop\n      pop\n      pop\n      pop\n      jump\t// out\n        /* \"#utility.yul\":3602:3931   */\n    tag_23:\n        /* \"#utility.yul\":3661:3667   */\n      0x00\n        /* \"#utility.yul\":3710:3712   */\n      0x20\n        /* \"#utility.yul\":3698:3707   */\n      dup3\n        /* \"#utility.yul\":3689:3696   */\n      dup5\n        /* \"#utility.yul\":3685:3708   */\n      sub\n        /* \"#utility.yul\":3681:3713   */\n      slt\n        /* \"#utility.yul\":3678:3797   */\n      iszero\n      tag_303\n      jumpi\n        /* \"#utility.yul\":3716:3795   */\n      tag_304\n      tag_189\n      jump\t// in\n    tag_304:\n        /* \"#utility.yul\":3678:3797   */\n    tag_303:\n        /* \"#utility.yul\":3836:3837   */\n      0x00\n        /* \"#utility.yul\":3861:3914   */\n      tag_305\n        /* \"#utility.yul\":3906:3913   */\n      dup5\n        /* \"#utility.yul\":3897:3903   */\n      dup3\n        /* \"#utility.yul\":3886:3895   */\n      dup6\n        /* \"#utility.yul\":3882:3904   */\n      add\n        /* \"#utility.yul\":3861:3914   */\n      tag_194\n      jump\t// in\n    tag_305:\n        /* \"#utility.yul\":3851:3914   */\n      swap2\n      pop\n        /* \"#utility.yul\":3807:3924   */\n      pop\n        /* \"#utility.yul\":3602:3931   */\n      swap3\n      swap2\n      pop\n      pop\n      jump\t// out\n        /* \"#utility.yul\":3937:4073   */\n    tag_205:\n        /* \"#utility.yul\":4026:4032   */\n      0x00\n        /* \"#utility.yul\":4060:4065   */\n      dup2\n        /* \"#utility.yul\":4054:4066   */\n      mload\n        /* \"#utility.yul\":4044:4066   */\n      swap1\n      pop\n        /* \"#utility.yul\":3937:4073   */\n      swap2\n      swap1\n      pop\n      jump\t// out\n        /* \"#utility.yul\":4079:4285   */\n    tag_206:\n        /* \"#utility.yul\":4200:4211   */\n      0x00\n        /* \"#utility.yul\":4234:4240   */\n      dup3\n        /* \"#utility.yul\":4229:4232   */\n      dup3\n        /* \"#utility.yul\":4222:4241   */\n      mstore\n        /* \"#utility.yul\":4274:4278   */\n      0x20\n        /* \"#utility.yul\":4269:4272   */\n      dup3\n        /* \"#utility.yul\":4265:4279   */\n      add\n        /* \"#utility.yul\":4250:4279   */\n      swap1\n      pop\n        /* \"#utility.yul\":4079:4285   */\n      swap3\n      swap2\n      pop\n      pop\n      jump\t// out\n        /* \"#utility.yul\":4291:4445   */\n    tag_207:\n        /* \"#utility.yul\":4380:4384   */\n      0x00\n        /* \"#utility.yul\":4403:4406   */\n      dup2\n        /* \"#utility.yul\":4395:4406   */\n      swap1\n      pop\n        /* \"#utility.yul\":4433:4437   */\n      0x20\n        /* \"#utility.yul\":4428:4431   */\n      dup3\n        /* \"#utility.yul\":4424:4438   */\n      add\n        /* \"#utility.yul\":4416:4438   */\n      swap1\n      pop\n        /* \"#utility.yul\":4291:4445   */\n      swap2\n      swap1\n      pop\n      jump\t// out\n        /* \"#utility.yul\":4451:4559   */\n    tag_208:\n        /* \"#utility.yul\":4528:4552   */\n      tag_310\n        /* \"#utility.yul\":4546:4551   */\n      dup2\n        /* \"#utility.yul\":4528:4552   */\n      tag_195\n      jump\t// in\n    tag_310:\n        /* \"#utility.yul\":4523:4526   */\n      dup3\n        /* \"#utility.yul\":4516:4553   */\n      mstore\n        /* \"#utility.yul\":4451:4559   */\n      pop\n      pop\n      jump\t// out\n        /* \"#utility.yul\":4565:4673   */\n    tag_209:\n        /* \"#utility.yul\":4642:4666   */\n      tag_312\n        /* \"#utility.yul\":4660:4665   */\n      dup2\n        /* \"#utility.yul\":4642:4666   */\n      tag_192\n      jump\t// in\n    tag_312:\n        /* \"#utility.yul\":4637:4640   */\n      dup3\n        /* \"#utility.yul\":4630:4667   */\n      mstore\n        /* \"#utility.yul\":4565:4673   */\n      pop\n      pop\n      jump\t// out\n        /* \"#utility.yul\":4679:4838   */\n    tag_210:\n        /* \"#utility.yul\":4753:4764   */\n      0x00\n        /* \"#utility.yul\":4787:4793   */\n      dup3\n        /* \"#utility.yul\":4782:4785   */\n      dup3\n        /* \"#utility.yul\":4775:4794   */\n      mstore\n        /* \"#utility.yul\":4827:4831   */\n      0x20\n        /* \"#utility.yul\":4822:4825   */\n      dup3\n        /* \"#utility.yul\":4818:4832   */\n      add\n        /* \"#utility.yul\":4803:4832   */\n      swap1\n      pop\n        /* \"#utility.yul\":4679:4838   */\n      swap3\n      swap2\n      pop\n      pop\n      jump\t// out\n        /* \"#utility.yul\":4844:5201   */\n    tag_211:\n        /* \"#utility.yul\":4922:4925   */\n      0x00\n        /* \"#utility.yul\":4950:4989   */\n      tag_315\n        /* \"#utility.yul\":4983:4988   */\n      dup3\n        /* \"#utility.yul\":4950:4989   */\n      tag_200\n      jump\t// in\n    tag_315:\n        /* \"#utility.yul\":5005:5066   */\n      tag_316\n        /* \"#utility.yul\":5059:5065   */\n      dup2\n        /* \"#utility.yul\":5054:5057   */\n      dup6\n        /* \"#utility.yul\":5005:5066   */\n      tag_210\n      jump\t// in\n    tag_316:\n        /* \"#utility.yul\":4998:5066   */\n      swap4\n      pop\n        /* \"#utility.yul\":5075:5140   */\n      tag_317\n        /* \"#utility.yul\":5133:5139   */\n      dup2\n        /* \"#utility.yul\":5128:5131   */\n      dup6\n        /* \"#utility.yul\":5121:5125   */\n      0x20\n        /* \"#utility.yul\":5114:5119   */\n      dup7\n        /* \"#utility.yul\":5110:5126   */\n      add\n        /* \"#utility.yul\":5075:5140   */\n      tag_202\n      jump\t// in\n    tag_317:\n        /* \"#utility.yul\":5165:5194   */\n      tag_318\n        /* \"#utility.yul\":5187:5193   */\n      dup2\n        /* \"#utility.yul\":5165:5194   */\n      tag_203\n      jump\t// in\n    tag_318:\n        /* \"#utility.yul\":5160:5163   */\n      dup5\n        /* \"#utility.yul\":5156:5195   */\n      add\n        /* \"#utility.yul\":5149:5195   */\n      swap2\n      pop\n        /* \"#utility.yul\":4926:5201   */\n      pop\n        /* \"#utility.yul\":4844:5201   */\n      swap3\n      swap2\n      pop\n      pop\n      jump\t// out\n        /* \"#utility.yul\":5259:6380   */\n    tag_212:\n        /* \"#utility.yul\":5362:5365   */\n      0x00\n        /* \"#utility.yul\":5398:5402   */\n      0xa0\n        /* \"#utility.yul\":5393:5396   */\n      dup4\n        /* \"#utility.yul\":5389:5403   */\n      add\n        /* \"#utility.yul\":5483:5487   */\n      0x00\n        /* \"#utility.yul\":5476:5481   */\n      dup4\n        /* \"#utility.yul\":5472:5488   */\n      add\n        /* \"#utility.yul\":5466:5489   */\n      mload\n        /* \"#utility.yul\":5502:5565   */\n      tag_320\n        /* \"#utility.yul\":5559:5563   */\n      0x00\n        /* \"#utility.yul\":5554:5557   */\n      dup7\n        /* \"#utility.yul\":5550:5564   */\n      add\n        /* \"#utility.yul\":5536:5548   */\n      dup3\n        /* \"#utility.yul\":5502:5565   */\n      tag_208\n      jump\t// in\n    tag_320:\n        /* \"#utility.yul\":5413:5575   */\n      pop\n        /* \"#utility.yul\":5659:5663   */\n      0x20\n        /* \"#utility.yul\":5652:5657   */\n      dup4\n        /* \"#utility.yul\":5648:5664   */\n      add\n        /* \"#utility.yul\":5642:5665   */\n      mload\n        /* \"#utility.yul\":5678:5741   */\n      tag_321\n        /* \"#utility.yul\":5735:5739   */\n      0x20\n        /* \"#utility.yul\":5730:5733   */\n      dup7\n        /* \"#utility.yul\":5726:5740   */\n      add\n        /* \"#utility.yul\":5712:5724   */\n      dup3\n        /* \"#utility.yul\":5678:5741   */\n      tag_209\n      jump\t// in\n    tag_321:\n        /* \"#utility.yul\":5585:5751   */\n      pop\n        /* \"#utility.yul\":5836:5840   */\n      0x40\n        /* \"#utility.yul\":5829:5834   */\n      dup4\n        /* \"#utility.yul\":5825:5841   */\n      add\n        /* \"#utility.yul\":5819:5842   */\n      mload\n        /* \"#utility.yul\":5889:5892   */\n      dup5\n        /* \"#utility.yul\":5883:5887   */\n      dup3\n        /* \"#utility.yul\":5879:5893   */\n      sub\n        /* \"#utility.yul\":5872:5876   */\n      0x40\n        /* \"#utility.yul\":5867:5870   */\n      dup7\n        /* \"#utility.yul\":5863:5877   */\n      add\n        /* \"#utility.yul\":5856:5894   */\n      mstore\n        /* \"#utility.yul\":5915:5988   */\n      tag_322\n        /* \"#utility.yul\":5983:5987   */\n      dup3\n        /* \"#utility.yul\":5969:5981   */\n      dup3\n        /* \"#utility.yul\":5915:5988   */\n      tag_211\n      jump\t// in\n    tag_322:\n        /* \"#utility.yul\":5907:5988   */\n      swap2\n      pop\n        /* \"#utility.yul\":5761:5999   */\n      pop\n        /* \"#utility.yul\":6086:6090   */\n      0x60\n        /* \"#utility.yul\":6079:6084   */\n      dup4\n        /* \"#utility.yul\":6075:6091   */\n      add\n        /* \"#utility.yul\":6069:6092   */\n      mload\n        /* \"#utility.yul\":6105:6168   */\n      tag_323\n        /* \"#utility.yul\":6162:6166   */\n      0x60\n        /* \"#utility.yul\":6157:6160   */\n      dup7\n        /* \"#utility.yul\":6153:6167   */\n      add\n        /* \"#utility.yul\":6139:6151   */\n      dup3\n        /* \"#utility.yul\":6105:6168   */\n      tag_208\n      jump\t// in\n    tag_323:\n        /* \"#utility.yul\":6009:6178   */\n      pop\n        /* \"#utility.yul\":6261:6265   */\n      0x80\n        /* \"#utility.yul\":6254:6259   */\n      dup4\n        /* \"#utility.yul\":6250:6266   */\n      add\n        /* \"#utility.yul\":6244:6267   */\n      mload\n        /* \"#utility.yul\":6280:6343   */\n      tag_324\n        /* \"#utility.yul\":6337:6341   */\n      0x80\n        /* \"#utility.yul\":6332:6335   */\n      dup7\n        /* \"#utility.yul\":6328:6342   */\n      add\n        /* \"#utility.yul\":6314:6326   */\n      dup3\n        /* \"#utility.yul\":6280:6343   */\n      tag_208\n      jump\t// in\n    tag_324:\n        /* \"#utility.yul\":6188:6353   */\n      pop\n        /* \"#utility.yul\":6370:6374   */\n      dup1\n        /* \"#utility.yul\":6363:6374   */\n      swap2\n      pop\n        /* \"#utility.yul\":5367:6380   */\n      pop\n        /* \"#utility.yul\":5259:6380   */\n      swap3\n      swap2\n      pop\n      pop\n      jump\t// out\n        /* \"#utility.yul\":6386:6630   */\n    tag_213:\n        /* \"#utility.yul\":6499:6509   */\n      0x00\n        /* \"#utility.yul\":6534:6624   */\n      tag_326\n        /* \"#utility.yul\":6620:6623   */\n      dup4\n        /* \"#utility.yul\":6612:6618   */\n      dup4\n        /* \"#utility.yul\":6534:6624   */\n      tag_212\n      jump\t// in\n    tag_326:\n        /* \"#utility.yul\":6520:6624   */\n      swap1\n      pop\n        /* \"#utility.yul\":6386:6630   */\n      swap3\n      swap2\n      pop\n      pop\n      jump\t// out\n        /* \"#utility.yul\":6636:6771   */\n    tag_214:\n        /* \"#utility.yul\":6728:6732   */\n      0x00\n        /* \"#utility.yul\":6760:6764   */\n      0x20\n        /* \"#utility.yul\":6755:6758   */\n      dup3\n        /* \"#utility.yul\":6751:6765   */\n      add\n        /* \"#utility.yul\":6743:6765   */\n      swap1\n      pop\n        /* \"#utility.yul\":6636:6771   */\n      swap2\n      swap1\n      pop\n      jump\t// out\n        /* \"#utility.yul\":6833:7920   */\n    tag_215:\n        /* \"#utility.yul\":6996:6999   */\n      0x00\n        /* \"#utility.yul\":7025:7101   */\n      tag_329\n        /* \"#utility.yul\":7095:7100   */\n      dup3\n        /* \"#utility.yul\":7025:7101   */\n      tag_205\n      jump\t// in\n    tag_329:\n        /* \"#utility.yul\":7117:7225   */\n      tag_330\n        /* \"#utility.yul\":7218:7224   */\n      dup2\n        /* \"#utility.yul\":7213:7216   */\n      dup6\n        /* \"#utility.yul\":7117:7225   */\n      tag_206\n      jump\t// in\n    tag_330:\n        /* \"#utility.yul\":7110:7225   */\n      swap4\n      pop\n        /* \"#utility.yul\":7251:7254   */\n      dup4\n        /* \"#utility.yul\":7296:7300   */\n      0x20\n        /* \"#utility.yul\":7288:7294   */\n      dup3\n        /* \"#utility.yul\":7284:7301   */\n      mul\n        /* \"#utility.yul\":7279:7282   */\n      dup6\n        /* \"#utility.yul\":7275:7302   */\n      add\n        /* \"#utility.yul\":7326:7404   */\n      tag_331\n        /* \"#utility.yul\":7398:7403   */\n      dup6\n        /* \"#utility.yul\":7326:7404   */\n      tag_207\n      jump\t// in\n    tag_331:\n        /* \"#utility.yul\":7427:7434   */\n      dup1\n        /* \"#utility.yul\":7458:7459   */\n      0x00\n        /* \"#utility.yul\":7443:7875   */\n    tag_332:\n        /* \"#utility.yul\":7468:7474   */\n      dup6\n        /* \"#utility.yul\":7465:7466   */\n      dup2\n        /* \"#utility.yul\":7462:7475   */\n      lt\n        /* \"#utility.yul\":7443:7875   */\n      iszero\n      tag_334\n      jumpi\n        /* \"#utility.yul\":7539:7548   */\n      dup5\n        /* \"#utility.yul\":7533:7537   */\n      dup5\n        /* \"#utility.yul\":7529:7549   */\n      sub\n        /* \"#utility.yul\":7524:7527   */\n      dup10\n        /* \"#utility.yul\":7517:7550   */\n      mstore\n        /* \"#utility.yul\":7590:7596   */\n      dup2\n        /* \"#utility.yul\":7584:7597   */\n      mload\n        /* \"#utility.yul\":7618:7726   */\n      tag_335\n        /* \"#utility.yul\":7721:7725   */\n      dup6\n        /* \"#utility.yul\":7706:7719   */\n      dup3\n        /* \"#utility.yul\":7618:7726   */\n      tag_213\n      jump\t// in\n    tag_335:\n        /* \"#utility.yul\":7610:7726   */\n      swap5\n      pop\n        /* \"#utility.yul\":7749:7831   */\n      tag_336\n        /* \"#utility.yul\":7824:7830   */\n      dup4\n        /* \"#utility.yul\":7749:7831   */\n      tag_214\n      jump\t// in\n    tag_336:\n        /* \"#utility.yul\":7739:7831   */\n      swap3\n      pop\n        /* \"#utility.yul\":7860:7864   */\n      0x20\n        /* \"#utility.yul\":7855:7858   */\n      dup11\n        /* \"#utility.yul\":7851:7865   */\n      add\n        /* \"#utility.yul\":7844:7865   */\n      swap10\n      pop\n        /* \"#utility.yul\":7503:7875   */\n      pop\n        /* \"#utility.yul\":7490:7491   */\n      0x01\n        /* \"#utility.yul\":7487:7488   */\n      dup2\n        /* \"#utility.yul\":7483:7492   */\n      add\n        /* \"#utility.yul\":7478:7492   */\n      swap1\n      pop\n        /* \"#utility.yul\":7443:7875   */\n      jump(tag_332)\n    tag_334:\n        /* \"#utility.yul\":7447:7461   */\n      pop\n        /* \"#utility.yul\":7891:7895   */\n      dup3\n        /* \"#utility.yul\":7884:7895   */\n      swap8\n      pop\n        /* \"#utility.yul\":7911:7914   */\n      dup8\n        /* \"#utility.yul\":7904:7914   */\n      swap6\n      pop\n        /* \"#utility.yul\":7001:7920   */\n      pop\n      pop\n      pop\n      pop\n      pop\n        /* \"#utility.yul\":6833:7920   */\n      swap3\n      swap2\n      pop\n      pop\n      jump\t// out\n        /* \"#utility.yul\":7926:8387   */\n    tag_26:\n        /* \"#utility.yul\":8113:8117   */\n      0x00\n        /* \"#utility.yul\":8151:8153   */\n      0x20\n        /* \"#utility.yul\":8140:8149   */\n      dup3\n        /* \"#utility.yul\":8136:8154   */\n      add\n        /* \"#utility.yul\":8128:8154   */\n      swap1\n      pop\n        /* \"#utility.yul\":8200:8209   */\n      dup2\n        /* \"#utility.yul\":8194:8198   */\n      dup2\n        /* \"#utility.yul\":8190:8210   */\n      sub\n        /* \"#utility.yul\":8186:8187   */\n      0x00\n        /* \"#utility.yul\":8175:8184   */\n      dup4\n        /* \"#utility.yul\":8171:8188   */\n      add\n        /* \"#utility.yul\":8164:8211   */\n      mstore\n        /* \"#utility.yul\":8228:8380   */\n      tag_338\n        /* \"#utility.yul\":8375:8379   */\n      dup2\n        /* \"#utility.yul\":8366:8372   */\n      dup5\n        /* \"#utility.yul\":8228:8380   */\n      tag_215\n      jump\t// in\n    tag_338:\n        /* \"#utility.yul\":8220:8380   */\n      swap1\n      pop\n        /* \"#utility.yul\":7926:8387   */\n      swap3\n      swap2\n      pop\n      pop\n      jump\t// out\n        /* \"#utility.yul\":8393:8482   */\n    tag_216:\n        /* \"#utility.yul\":8429:8436   */\n      0x00\n        /* \"#utility.yul\":8469:8475   */\n      0xffff\n        /* \"#utility.yul\":8462:8467   */\n      dup3\n        /* \"#utility.yul\":8458:8476   */\n      and\n        /* \"#utility.yul\":8447:8476   */\n      swap1\n      pop\n        /* \"#utility.yul\":8393:8482   */\n      swap2\n      swap1\n      pop\n      jump\t// out\n        /* \"#utility.yul\":8488:8603   */\n    tag_217:\n        /* \"#utility.yul\":8573:8596   */\n      tag_341\n        /* \"#utility.yul\":8590:8595   */\n      dup2\n        /* \"#utility.yul\":8573:8596   */\n      tag_216\n      jump\t// in\n    tag_341:\n        /* \"#utility.yul\":8568:8571   */\n      dup3\n        /* \"#utility.yul\":8561:8597   */\n      mstore\n        /* \"#utility.yul\":8488:8603   */\n      pop\n      pop\n      jump\t// out\n        /* \"#utility.yul\":8609:8827   */\n    tag_36:\n        /* \"#utility.yul\":8700:8704   */\n      0x00\n        /* \"#utility.yul\":8738:8740   */\n      0x20\n        /* \"#utility.yul\":8727:8736   */\n      dup3\n        /* \"#utility.yul\":8723:8741   */\n      add\n        /* \"#utility.yul\":8715:8741   */\n      swap1\n      pop\n        /* \"#utility.yul\":8751:8820   */\n      tag_343\n        /* \"#utility.yul\":8817:8818   */\n      0x00\n        /* \"#utility.yul\":8806:8815   */\n      dup4\n        /* \"#utility.yul\":8802:8819   */\n      add\n        /* \"#utility.yul\":8793:8799   */\n      dup5\n        /* \"#utility.yul\":8751:8820   */\n      tag_217\n      jump\t// in\n    tag_343:\n        /* \"#utility.yul\":8609:8827   */\n      swap3\n      swap2\n      pop\n      pop\n      jump\t// out\n        /* \"#utility.yul\":8833:8950   */\n    tag_218:\n        /* \"#utility.yul\":8942:8943   */\n      0x00\n        /* \"#utility.yul\":8939:8940   */\n      dup1\n        /* \"#utility.yul\":8932:8944   */\n      revert\n        /* \"#utility.yul\":8956:9073   */\n    tag_219:\n        /* \"#utility.yul\":9065:9066   */\n      0x00\n        /* \"#utility.yul\":9062:9063   */\n      dup1\n        /* \"#utility.yul\":9055:9067   */\n      revert\n        /* \"#utility.yul\":9079:9259   */\n    tag_220:\n        /* \"#utility.yul\":9127:9204   */\n      0x4e487b7100000000000000000000000000000000000000000000000000000000\n        /* \"#utility.yul\":9124:9125   */\n      0x00\n        /* \"#utility.yul\":9117:9205   */\n      mstore\n        /* \"#utility.yul\":9224:9228   */\n      0x41\n        /* \"#utility.yul\":9221:9222   */\n      0x04\n        /* \"#utility.yul\":9214:9229   */\n      mstore\n        /* \"#utility.yul\":9248:9252   */\n      0x24\n        /* \"#utility.yul\":9245:9246   */\n      0x00\n        /* \"#utility.yul\":9238:9253   */\n      revert\n        /* \"#utility.yul\":9265:9546   */\n    tag_221:\n        /* \"#utility.yul\":9348:9375   */\n      tag_348\n        /* \"#utility.yul\":9370:9374   */\n      dup3\n        /* \"#utility.yul\":9348:9375   */\n      tag_203\n      jump\t// in\n    tag_348:\n        /* \"#utility.yul\":9340:9346   */\n      dup2\n        /* \"#utility.yul\":9336:9376   */\n      add\n        /* \"#utility.yul\":9478:9484   */\n      dup2\n        /* \"#utility.yul\":9466:9476   */\n      dup2\n        /* \"#utility.yul\":9463:9485   */\n      lt\n        /* \"#utility.yul\":9442:9460   */\n      0xffffffffffffffff\n        /* \"#utility.yul\":9430:9440   */\n      dup3\n        /* \"#utility.yul\":9427:9461   */\n      gt\n        /* \"#utility.yul\":9424:9486   */\n      or\n        /* \"#utility.yul\":9421:9509   */\n      iszero\n      tag_349\n      jumpi\n        /* \"#utility.yul\":9489:9507   */\n      tag_350\n      tag_220\n      jump\t// in\n    tag_350:\n        /* \"#utility.yul\":9421:9509   */\n    tag_349:\n        /* \"#utility.yul\":9529:9539   */\n      dup1\n        /* \"#utility.yul\":9525:9527   */\n      0x40\n        /* \"#utility.yul\":9518:9540   */\n      mstore\n        /* \"#utility.yul\":9308:9546   */\n      pop\n        /* \"#utility.yul\":9265:9546   */\n      pop\n      pop\n      jump\t// out\n        /* \"#utility.yul\":9552:9681   */\n    tag_222:\n        /* \"#utility.yul\":9586:9592   */\n      0x00\n        /* \"#utility.yul\":9613:9633   */\n      tag_352\n      tag_188\n      jump\t// in\n    tag_352:\n        /* \"#utility.yul\":9603:9633   */\n      swap1\n      pop\n        /* \"#utility.yul\":9642:9675   */\n      tag_353\n        /* \"#utility.yul\":9670:9674   */\n      dup3\n        /* \"#utility.yul\":9662:9668   */\n      dup3\n        /* \"#utility.yul\":9642:9675   */\n      tag_221\n      jump\t// in\n    tag_353:\n        /* \"#utility.yul\":9552:9681   */\n      swap2\n      swap1\n      pop\n      jump\t// out\n        /* \"#utility.yul\":9687:9995   */\n    tag_223:\n        /* \"#utility.yul\":9749:9753   */\n      0x00\n        /* \"#utility.yul\":9839:9857   */\n      0xffffffffffffffff\n        /* \"#utility.yul\":9831:9837   */\n      dup3\n        /* \"#utility.yul\":9828:9858   */\n      gt\n        /* \"#utility.yul\":9825:9881   */\n      iszero\n      tag_355\n      jumpi\n        /* \"#utility.yul\":9861:9879   */\n      tag_356\n      tag_220\n      jump\t// in\n    tag_356:\n        /* \"#utility.yul\":9825:9881   */\n    tag_355:\n        /* \"#utility.yul\":9899:9928   */\n      tag_357\n        /* \"#utility.yul\":9921:9927   */\n      dup3\n        /* \"#utility.yul\":9899:9928   */\n      tag_203\n      jump\t// in\n    tag_357:\n        /* \"#utility.yul\":9891:9928   */\n      swap1\n      pop\n        /* \"#utility.yul\":9983:9987   */\n      0x20\n        /* \"#utility.yul\":9977:9981   */\n      dup2\n        /* \"#utility.yul\":9973:9988   */\n      add\n        /* \"#utility.yul\":9965:9988   */\n      swap1\n      pop\n        /* \"#utility.yul\":9687:9995   */\n      swap2\n      swap1\n      pop\n      jump\t// out\n        /* \"#utility.yul\":10001:10149   */\n    tag_224:\n        /* \"#utility.yul\":10099:10105   */\n      dup3\n        /* \"#utility.yul\":10094:10097   */\n      dup2\n        /* \"#utility.yul\":10089:10092   */\n      dup4\n        /* \"#utility.yul\":10076:10106   */\n      calldatacopy\n        /* \"#utility.yul\":10140:10141   */\n      0x00\n        /* \"#utility.yul\":10131:10137   */\n      dup4\n        /* \"#utility.yul\":10126:10129   */\n      dup4\n        /* \"#utility.yul\":10122:10138   */\n      add\n        /* \"#utility.yul\":10115:10142   */\n      mstore\n        /* \"#utility.yul\":10001:10149   */\n      pop\n      pop\n      pop\n      jump\t// out\n        /* \"#utility.yul\":10155:10580   */\n    tag_225:\n        /* \"#utility.yul\":10233:10238   */\n      0x00\n        /* \"#utility.yul\":10258:10324   */\n      tag_360\n        /* \"#utility.yul\":10274:10323   */\n      tag_361\n        /* \"#utility.yul\":10316:10322   */\n      dup5\n        /* \"#utility.yul\":10274:10323   */\n      tag_223\n      jump\t// in\n    tag_361:\n        /* \"#utility.yul\":10258:10324   */\n      tag_222\n      jump\t// in\n    tag_360:\n        /* \"#utility.yul\":10249:10324   */\n      swap1\n      pop\n        /* \"#utility.yul\":10347:10353   */\n      dup3\n        /* \"#utility.yul\":10340:10345   */\n      dup2\n        /* \"#utility.yul\":10333:10354   */\n      mstore\n        /* \"#utility.yul\":10385:10389   */\n      0x20\n        /* \"#utility.yul\":10378:10383   */\n      dup2\n        /* \"#utility.yul\":10374:10390   */\n      add\n        /* \"#utility.yul\":10423:10426   */\n      dup5\n        /* \"#utility.yul\":10414:10420   */\n      dup5\n        /* \"#utility.yul\":10409:10412   */\n      dup5\n        /* \"#utility.yul\":10405:10421   */\n      add\n        /* \"#utility.yul\":10402:10427   */\n      gt\n        /* \"#utility.yul\":10399:10511   */\n      iszero\n      tag_362\n      jumpi\n        /* \"#utility.yul\":10430:10509   */\n      tag_363\n      tag_219\n      jump\t// in\n    tag_363:\n        /* \"#utility.yul\":10399:10511   */\n    tag_362:\n        /* \"#utility.yul\":10520:10574   */\n      tag_364\n        /* \"#utility.yul\":10567:10573   */\n      dup5\n        /* \"#utility.yul\":10562:10565   */\n      dup3\n        /* \"#utility.yul\":10557:10560   */\n      dup6\n        /* \"#utility.yul\":10520:10574   */\n      tag_224\n      jump\t// in\n    tag_364:\n        /* \"#utility.yul\":10239:10580   */\n      pop\n        /* \"#utility.yul\":10155:10580   */\n      swap4\n      swap3\n      pop\n      pop\n      pop\n      jump\t// out\n        /* \"#utility.yul\":10600:10940   */\n    tag_226:\n        /* \"#utility.yul\":10656:10661   */\n      0x00\n        /* \"#utility.yul\":10705:10708   */\n      dup3\n        /* \"#utility.yul\":10698:10702   */\n      0x1f\n        /* \"#utility.yul\":10690:10696   */\n      dup4\n        /* \"#utility.yul\":10686:10703   */\n      add\n        /* \"#utility.yul\":10682:10709   */\n      slt\n        /* \"#utility.yul\":10672:10794   */\n      tag_366\n      jumpi\n        /* \"#utility.yul\":10713:10792   */\n      tag_367\n      tag_218\n      jump\t// in\n    tag_367:\n        /* \"#utility.yul\":10672:10794   */\n    tag_366:\n        /* \"#utility.yul\":10830:10836   */\n      dup2\n        /* \"#utility.yul\":10817:10837   */\n      calldataload\n        /* \"#utility.yul\":10855:10934   */\n      tag_368\n        /* \"#utility.yul\":10930:10933   */\n      dup5\n        /* \"#utility.yul\":10922:10928   */\n      dup3\n        /* \"#utility.yul\":10915:10919   */\n      0x20\n        /* \"#utility.yul\":10907:10913   */\n      dup7\n        /* \"#utility.yul\":10903:10920   */\n      add\n        /* \"#utility.yul\":10855:10934   */\n      tag_225\n      jump\t// in\n    tag_368:\n        /* \"#utility.yul\":10846:10934   */\n      swap2\n      pop\n        /* \"#utility.yul\":10662:10940   */\n      pop\n        /* \"#utility.yul\":10600:10940   */\n      swap3\n      swap2\n      pop\n      pop\n      jump\t// out\n        /* \"#utility.yul\":10946:11455   */\n    tag_41:\n        /* \"#utility.yul\":11015:11021   */\n      0x00\n        /* \"#utility.yul\":11064:11066   */\n      0x20\n        /* \"#utility.yul\":11052:11061   */\n      dup3\n        /* \"#utility.yul\":11043:11050   */\n      dup5\n        /* \"#utility.yul\":11039:11062   */\n      sub\n        /* \"#utility.yul\":11035:11067   */\n      slt\n        /* \"#utility.yul\":11032:11151   */\n      iszero\n      tag_370\n      jumpi\n        /* \"#utility.yul\":11070:11149   */\n      tag_371\n      tag_189\n      jump\t// in\n    tag_371:\n        /* \"#utility.yul\":11032:11151   */\n    tag_370:\n        /* \"#utility.yul\":11218:11219   */\n      0x00\n        /* \"#utility.yul\":11207:11216   */\n      dup3\n        /* \"#utility.yul\":11203:11220   */\n      add\n        /* \"#utility.yul\":11190:11221   */\n      calldataload\n        /* \"#utility.yul\":11248:11266   */\n      0xffffffffffffffff\n        /* \"#utility.yul\":11240:11246   */\n      dup2\n        /* \"#utility.yul\":11237:11267   */\n      gt\n        /* \"#utility.yul\":11234:11351   */\n      iszero\n      tag_372\n      jumpi\n        /* \"#utility.yul\":11270:11349   */\n      tag_373\n      tag_190\n      jump\t// in\n    tag_373:\n        /* \"#utility.yul\":11234:11351   */\n    tag_372:\n        /* \"#utility.yul\":11375:11438   */\n      tag_374\n        /* \"#utility.yul\":11430:11437   */\n      dup5\n        /* \"#utility.yul\":11421:11427   */\n      dup3\n        /* \"#utility.yul\":11410:11419   */\n      dup6\n        /* \"#utility.yul\":11406:11428   */\n      add\n        /* \"#utility.yul\":11375:11438   */\n      tag_226\n      jump\t// in\n    tag_374:\n        /* \"#utility.yul\":11365:11438   */\n      swap2\n      pop\n        /* \"#utility.yul\":11161:11448   */\n      pop\n        /* \"#utility.yul\":10946:11455   */\n      swap3\n      swap2\n      pop\n      pop\n      jump\t// out\n        /* \"#utility.yul\":11461:11683   */\n    tag_47:\n        /* \"#utility.yul\":11554:11558   */\n      0x00\n        /* \"#utility.yul\":11592:11594   */\n      0x20\n        /* \"#utility.yul\":11581:11590   */\n      dup3\n        /* \"#utility.yul\":11577:11595   */\n      add\n        /* \"#utility.yul\":11569:11595   */\n      swap1\n      pop\n        /* \"#utility.yul\":11605:11676   */\n      tag_376\n        /* \"#utility.yul\":11673:11674   */\n      0x00\n        /* \"#utility.yul\":11662:11671   */\n      dup4\n        /* \"#utility.yul\":11658:11675   */\n      add\n        /* \"#utility.yul\":11649:11655   */\n      dup5\n        /* \"#utility.yul\":11605:11676   */\n      tag_198\n      jump\t// in\n    tag_376:\n        /* \"#utility.yul\":11461:11683   */\n      swap3\n      swap2\n      pop\n      pop\n      jump\t// out\n        /* \"#utility.yul\":11689:11911   */\n    tag_51:\n        /* \"#utility.yul\":11782:11786   */\n      0x00\n        /* \"#utility.yul\":11820:11822   */\n      0x20\n        /* \"#utility.yul\":11809:11818   */\n      dup3\n        /* \"#utility.yul\":11805:11823   */\n      add\n        /* \"#utility.yul\":11797:11823   */\n      swap1\n      pop\n        /* \"#utility.yul\":11833:11904   */\n      tag_378\n        /* \"#utility.yul\":11901:11902   */\n      0x00\n        /* \"#utility.yul\":11890:11899   */\n      dup4\n        /* \"#utility.yul\":11886:11903   */\n      add\n        /* \"#utility.yul\":11877:11883   */\n      dup5\n        /* \"#utility.yul\":11833:11904   */\n      tag_199\n      jump\t// in\n    tag_378:\n        /* \"#utility.yul\":11689:11911   */\n      swap3\n      swap2\n      pop\n      pop\n      jump\t// out\n        /* \"#utility.yul\":11917:12246   */\n    tag_54:\n        /* \"#utility.yul\":11976:11982   */\n      0x00\n        /* \"#utility.yul\":12025:12027   */\n      0x20\n        /* \"#utility.yul\":12013:12022   */\n      dup3\n        /* \"#utility.yul\":12004:12011   */\n      dup5\n        /* \"#utility.yul\":12000:12023   */\n      sub\n        /* \"#utility.yul\":11996:12028   */\n      slt\n        /* \"#utility.yul\":11993:12112   */\n      iszero\n      tag_380\n      jumpi\n        /* \"#utility.yul\":12031:12110   */\n      tag_381\n      tag_189\n      jump\t// in\n    tag_381:\n        /* \"#utility.yul\":11993:12112   */\n    tag_380:\n        /* \"#utility.yul\":12151:12152   */\n      0x00\n        /* \"#utility.yul\":12176:12229   */\n      tag_382\n        /* \"#utility.yul\":12221:12228   */\n      dup5\n        /* \"#utility.yul\":12212:12218   */\n      dup3\n        /* \"#utility.yul\":12201:12210   */\n      dup6\n        /* \"#utility.yul\":12197:12219   */\n      add\n        /* \"#utility.yul\":12176:12229   */\n      tag_197\n      jump\t// in\n    tag_382:\n        /* \"#utility.yul\":12166:12229   */\n      swap2\n      pop\n        /* \"#utility.yul\":12122:12239   */\n      pop\n        /* \"#utility.yul\":11917:12246   */\n      swap3\n      swap2\n      pop\n      pop\n      jump\t// out\n        /* \"#utility.yul\":12304:13435   */\n    tag_227:\n        /* \"#utility.yul\":12417:12420   */\n      0x00\n        /* \"#utility.yul\":12453:12457   */\n      0xa0\n        /* \"#utility.yul\":12448:12451   */\n      dup4\n        /* \"#utility.yul\":12444:12458   */\n      add\n        /* \"#utility.yul\":12538:12542   */\n      0x00\n        /* \"#utility.yul\":12531:12536   */\n      dup4\n        /* \"#utility.yul\":12527:12543   */\n      add\n        /* \"#utility.yul\":12521:12544   */\n      mload\n        /* \"#utility.yul\":12557:12620   */\n      tag_384\n        /* \"#utility.yul\":12614:12618   */\n      0x00\n        /* \"#utility.yul\":12609:12612   */\n      dup7\n        /* \"#utility.yul\":12605:12619   */\n      add\n        /* \"#utility.yul\":12591:12603   */\n      dup3\n        /* \"#utility.yul\":12557:12620   */\n      tag_208\n      jump\t// in\n    tag_384:\n        /* \"#utility.yul\":12468:12630   */\n      pop\n        /* \"#utility.yul\":12714:12718   */\n      0x20\n        /* \"#utility.yul\":12707:12712   */\n      dup4\n        /* \"#utility.yul\":12703:12719   */\n      add\n        /* \"#utility.yul\":12697:12720   */\n      mload\n        /* \"#utility.yul\":12733:12796   */\n      tag_385\n        /* \"#utility.yul\":12790:12794   */\n      0x20\n        /* \"#utility.yul\":12785:12788   */\n      dup7\n        /* \"#utility.yul\":12781:12795   */\n      add\n        /* \"#utility.yul\":12767:12779   */\n      dup3\n        /* \"#utility.yul\":12733:12796   */\n      tag_209\n      jump\t// in\n    tag_385:\n        /* \"#utility.yul\":12640:12806   */\n      pop\n        /* \"#utility.yul\":12891:12895   */\n      0x40\n        /* \"#utility.yul\":12884:12889   */\n      dup4\n        /* \"#utility.yul\":12880:12896   */\n      add\n        /* \"#utility.yul\":12874:12897   */\n      mload\n        /* \"#utility.yul\":12944:12947   */\n      dup5\n        /* \"#utility.yul\":12938:12942   */\n      dup3\n        /* \"#utility.yul\":12934:12948   */\n      sub\n        /* \"#utility.yul\":12927:12931   */\n      0x40\n        /* \"#utility.yul\":12922:12925   */\n      dup7\n        /* \"#utility.yul\":12918:12932   */\n      add\n        /* \"#utility.yul\":12911:12949   */\n      mstore\n        /* \"#utility.yul\":12970:13043   */\n      tag_386\n        /* \"#utility.yul\":13038:13042   */\n      dup3\n        /* \"#utility.yul\":13024:13036   */\n      dup3\n        /* \"#utility.yul\":12970:13043   */\n      tag_211\n      jump\t// in\n    tag_386:\n        /* \"#utility.yul\":12962:13043   */\n      swap2\n      pop\n        /* \"#utility.yul\":12816:13054   */\n      pop\n        /* \"#utility.yul\":13141:13145   */\n      0x60\n        /* \"#utility.yul\":13134:13139   */\n      dup4\n        /* \"#utility.yul\":13130:13146   */\n      add\n        /* \"#utility.yul\":13124:13147   */\n      mload\n        /* \"#utility.yul\":13160:13223   */\n      tag_387\n        /* \"#utility.yul\":13217:13221   */\n      0x60\n        /* \"#utility.yul\":13212:13215   */\n      dup7\n        /* \"#utility.yul\":13208:13222   */\n      add\n        /* \"#utility.yul\":13194:13206   */\n      dup3\n        /* \"#utility.yul\":13160:13223   */\n      tag_208\n      jump\t// in\n    tag_387:\n        /* \"#utility.yul\":13064:13233   */\n      pop\n        /* \"#utility.yul\":13316:13320   */\n      0x80\n        /* \"#utility.yul\":13309:13314   */\n      dup4\n        /* \"#utility.yul\":13305:13321   */\n      add\n        /* \"#utility.yul\":13299:13322   */\n      mload\n        /* \"#utility.yul\":13335:13398   */\n      tag_388\n        /* \"#utility.yul\":13392:13396   */\n      0x80\n        /* \"#utility.yul\":13387:13390   */\n      dup7\n        /* \"#utility.yul\":13383:13397   */\n      add\n        /* \"#utility.yul\":13369:13381   */\n      dup3\n        /* \"#utility.yul\":13335:13398   */\n      tag_208\n      jump\t// in\n    tag_388:\n        /* \"#utility.yul\":13243:13408   */\n      pop\n        /* \"#utility.yul\":13425:13429   */\n      dup1\n        /* \"#utility.yul\":13418:13429   */\n      swap2\n      pop\n        /* \"#utility.yul\":12422:13435   */\n      pop\n        /* \"#utility.yul\":12304:13435   */\n      swap3\n      swap2\n      pop\n      pop\n      jump\t// out\n        /* \"#utility.yul\":13441:13802   */\n    tag_57:\n        /* \"#utility.yul\":13578:13582   */\n      0x00\n        /* \"#utility.yul\":13616:13618   */\n      0x20\n        /* \"#utility.yul\":13605:13614   */\n      dup3\n        /* \"#utility.yul\":13601:13619   */\n      add\n        /* \"#utility.yul\":13593:13619   */\n      swap1\n      pop\n        /* \"#utility.yul\":13665:13674   */\n      dup2\n        /* \"#utility.yul\":13659:13663   */\n      dup2\n        /* \"#utility.yul\":13655:13675   */\n      sub\n        /* \"#utility.yul\":13651:13652   */\n      0x00\n        /* \"#utility.yul\":13640:13649   */\n      dup4\n        /* \"#utility.yul\":13636:13653   */\n      add\n        /* \"#utility.yul\":13629:13676   */\n      mstore\n        /* \"#utility.yul\":13693:13795   */\n      tag_390\n        /* \"#utility.yul\":13790:13794   */\n      dup2\n        /* \"#utility.yul\":13781:13787   */\n      dup5\n        /* \"#utility.yul\":13693:13795   */\n      tag_227\n      jump\t// in\n    tag_390:\n        /* \"#utility.yul\":13685:13795   */\n      swap1\n      pop\n        /* \"#utility.yul\":13441:13802   */\n      swap3\n      swap2\n      pop\n      pop\n      jump\t// out\n        /* \"#utility.yul\":13808:13988   */\n    tag_228:\n        /* \"#utility.yul\":13856:13933   */\n      0x4e487b7100000000000000000000000000000000000000000000000000000000\n        /* \"#utility.yul\":13853:13854   */\n      0x00\n        /* \"#utility.yul\":13846:13934   */\n      mstore\n        /* \"#utility.yul\":13953:13957   */\n      0x22\n        /* \"#utility.yul\":13950:13951   */\n      0x04\n        /* \"#utility.yul\":13943:13958   */\n      mstore\n        /* \"#utility.yul\":13977:13981   */\n      0x24\n        /* \"#utility.yul\":13974:13975   */\n      0x00\n        /* \"#utility.yul\":13967:13982   */\n      revert\n        /* \"#utility.yul\":13994:14314   */\n    tag_64:\n        /* \"#utility.yul\":14038:14044   */\n      0x00\n        /* \"#utility.yul\":14075:14076   */\n      0x02\n        /* \"#utility.yul\":14069:14073   */\n      dup3\n        /* \"#utility.yul\":14065:14077   */\n      div\n        /* \"#utility.yul\":14055:14077   */\n      swap1\n      pop\n        /* \"#utility.yul\":14122:14123   */\n      0x01\n        /* \"#utility.yul\":14116:14120   */\n      dup3\n        /* \"#utility.yul\":14112:14124   */\n      and\n        /* \"#utility.yul\":14143:14161   */\n      dup1\n        /* \"#utility.yul\":14133:14214   */\n      tag_393\n      jumpi\n        /* \"#utility.yul\":14199:14203   */\n      0x7f\n        /* \"#utility.yul\":14191:14197   */\n      dup3\n        /* \"#utility.yul\":14187:14204   */\n      and\n        /* \"#utility.yul\":14177:14204   */\n      swap2\n      pop\n        /* \"#utility.yul\":14133:14214   */\n    tag_393:\n        /* \"#utility.yul\":14261:14263   */\n      0x20\n        /* \"#utility.yul\":14253:14259   */\n      dup3\n        /* \"#utility.yul\":14250:14264   */\n      lt\n        /* \"#utility.yul\":14230:14248   */\n      dup2\n        /* \"#utility.yul\":14227:14265   */\n      sub\n        /* \"#utility.yul\":14224:14308   */\n      tag_394\n      jumpi\n        /* \"#utility.yul\":14280:14298   */\n      tag_395\n      tag_228\n      jump\t// in\n    tag_395:\n        /* \"#utility.yul\":14224:14308   */\n    tag_394:\n        /* \"#utility.yul\":14045:14314   */\n      pop\n        /* \"#utility.yul\":13994:14314   */\n      swap2\n      swap1\n      pop\n      jump\t// out\n        /* \"#utility.yul\":14320:14437   */\n    tag_229:\n        /* \"#utility.yul\":14429:14430   */\n      0x00\n        /* \"#utility.yul\":14426:14427   */\n      dup1\n        /* \"#utility.yul\":14419:14431   */\n      revert\n        /* \"#utility.yul\":14443:14560   */\n    tag_230:\n        /* \"#utility.yul\":14552:14553   */\n      0x00\n        /* \"#utility.yul\":14549:14550   */\n      dup1\n        /* \"#utility.yul\":14542:14554   */\n      revert\n        /* \"#utility.yul\":14566:15000   */\n    tag_231:\n        /* \"#utility.yul\":14655:14660   */\n      0x00\n        /* \"#utility.yul\":14680:14746   */\n      tag_399\n        /* \"#utility.yul\":14696:14745   */\n      tag_400\n        /* \"#utility.yul\":14738:14744   */\n      dup5\n        /* \"#utility.yul\":14696:14745   */\n      tag_223\n      jump\t// in\n    tag_400:\n        /* \"#utility.yul\":14680:14746   */\n      tag_222\n      jump\t// in\n    tag_399:\n        /* \"#utility.yul\":14671:14746   */\n      swap1\n      pop\n        /* \"#utility.yul\":14769:14775   */\n      dup3\n        /* \"#utility.yul\":14762:14767   */\n      dup2\n        /* \"#utility.yul\":14755:14776   */\n      mstore\n        /* \"#utility.yul\":14807:14811   */\n      0x20\n        /* \"#utility.yul\":14800:14805   */\n      dup2\n        /* \"#utility.yul\":14796:14812   */\n      add\n        /* \"#utility.yul\":14845:14848   */\n      dup5\n        /* \"#utility.yul\":14836:14842   */\n      dup5\n        /* \"#utility.yul\":14831:14834   */\n      dup5\n        /* \"#utility.yul\":14827:14843   */\n      add\n        /* \"#utility.yul\":14824:14849   */\n      gt\n        /* \"#utility.yul\":14821:14933   */\n      iszero\n      tag_401\n      jumpi\n        /* \"#utility.yul\":14852:14931   */\n      tag_402\n      tag_219\n      jump\t// in\n    tag_402:\n        /* \"#utility.yul\":14821:14933   */\n    tag_401:\n        /* \"#utility.yul\":14942:14994   */\n      tag_403\n        /* \"#utility.yul\":14987:14993   */\n      dup5\n        /* \"#utility.yul\":14982:14985   */\n      dup3\n        /* \"#utility.yul\":14977:14980   */\n      dup6\n        /* \"#utility.yul\":14942:14994   */\n      tag_202\n      jump\t// in\n    tag_403:\n        /* \"#utility.yul\":14661:15000   */\n      pop\n        /* \"#utility.yul\":14566:15000   */\n      swap4\n      swap3\n      pop\n      pop\n      pop\n      jump\t// out\n        /* \"#utility.yul\":15020:15375   */\n    tag_232:\n        /* \"#utility.yul\":15087:15092   */\n      0x00\n        /* \"#utility.yul\":15136:15139   */\n      dup3\n        /* \"#utility.yul\":15129:15133   */\n      0x1f\n        /* \"#utility.yul\":15121:15127   */\n      dup4\n        /* \"#utility.yul\":15117:15134   */\n      add\n        /* \"#utility.yul\":15113:15140   */\n      slt\n        /* \"#utility.yul\":15103:15225   */\n      tag_405\n      jumpi\n        /* \"#utility.yul\":15144:15223   */\n      tag_406\n      tag_218\n      jump\t// in\n    tag_406:\n        /* \"#utility.yul\":15103:15225   */\n    tag_405:\n        /* \"#utility.yul\":15254:15260   */\n      dup2\n        /* \"#utility.yul\":15248:15261   */\n      mload\n        /* \"#utility.yul\":15279:15369   */\n      tag_407\n        /* \"#utility.yul\":15365:15368   */\n      dup5\n        /* \"#utility.yul\":15357:15363   */\n      dup3\n        /* \"#utility.yul\":15350:15354   */\n      0x20\n        /* \"#utility.yul\":15342:15348   */\n      dup7\n        /* \"#utility.yul\":15338:15355   */\n      add\n        /* \"#utility.yul\":15279:15369   */\n      tag_231\n      jump\t// in\n    tag_407:\n        /* \"#utility.yul\":15270:15369   */\n      swap2\n      pop\n        /* \"#utility.yul\":15093:15375   */\n      pop\n        /* \"#utility.yul\":15020:15375   */\n      swap3\n      swap2\n      pop\n      pop\n      jump\t// out\n        /* \"#utility.yul\":15416:16358   */\n    tag_233:\n        /* \"#utility.yul\":15504:15509   */\n      0x00\n        /* \"#utility.yul\":15548:15552   */\n      0x40\n        /* \"#utility.yul\":15536:15545   */\n      dup3\n        /* \"#utility.yul\":15531:15534   */\n      dup5\n        /* \"#utility.yul\":15527:15546   */\n      sub\n        /* \"#utility.yul\":15523:15553   */\n      slt\n        /* \"#utility.yul\":15520:15637   */\n      iszero\n      tag_409\n      jumpi\n        /* \"#utility.yul\":15556:15635   */\n      tag_410\n      tag_229\n      jump\t// in\n    tag_410:\n        /* \"#utility.yul\":15520:15637   */\n    tag_409:\n        /* \"#utility.yul\":15655:15676   */\n      tag_411\n        /* \"#utility.yul\":15671:15675   */\n      0x40\n        /* \"#utility.yul\":15655:15676   */\n      tag_222\n      jump\t// in\n    tag_411:\n        /* \"#utility.yul\":15646:15676   */\n      swap1\n      pop\n        /* \"#utility.yul\":15763:15764   */\n      0x00\n        /* \"#utility.yul\":15752:15761   */\n      dup3\n        /* \"#utility.yul\":15748:15765   */\n      add\n        /* \"#utility.yul\":15742:15766   */\n      mload\n        /* \"#utility.yul\":15793:15811   */\n      0xffffffffffffffff\n        /* \"#utility.yul\":15785:15791   */\n      dup2\n        /* \"#utility.yul\":15782:15812   */\n      gt\n        /* \"#utility.yul\":15779:15896   */\n      iszero\n      tag_412\n      jumpi\n        /* \"#utility.yul\":15815:15894   */\n      tag_413\n      tag_230\n      jump\t// in\n    tag_413:\n        /* \"#utility.yul\":15779:15896   */\n    tag_412:\n        /* \"#utility.yul\":15935:16005   */\n      tag_414\n        /* \"#utility.yul\":16001:16004   */\n      dup5\n        /* \"#utility.yul\":15992:15998   */\n      dup3\n        /* \"#utility.yul\":15981:15990   */\n      dup6\n        /* \"#utility.yul\":15977:15999   */\n      add\n        /* \"#utility.yul\":15935:16005   */\n      tag_232\n      jump\t// in\n    tag_414:\n        /* \"#utility.yul\":15928:15932   */\n      0x00\n        /* \"#utility.yul\":15921:15926   */\n      dup4\n        /* \"#utility.yul\":15917:15933   */\n      add\n        /* \"#utility.yul\":15910:16006   */\n      mstore\n        /* \"#utility.yul\":15686:16017   */\n      pop\n        /* \"#utility.yul\":16096:16098   */\n      0x20\n        /* \"#utility.yul\":16085:16094   */\n      dup3\n        /* \"#utility.yul\":16081:16099   */\n      add\n        /* \"#utility.yul\":16075:16100   */\n      mload\n        /* \"#utility.yul\":16127:16145   */\n      0xffffffffffffffff\n        /* \"#utility.yul\":16119:16125   */\n      dup2\n        /* \"#utility.yul\":16116:16146   */\n      gt\n        /* \"#utility.yul\":16113:16230   */\n      iszero\n      tag_415\n      jumpi\n        /* \"#utility.yul\":16149:16228   */\n      tag_416\n      tag_230\n      jump\t// in\n    tag_416:\n        /* \"#utility.yul\":16113:16230   */\n    tag_415:\n        /* \"#utility.yul\":16269:16339   */\n      tag_417\n        /* \"#utility.yul\":16335:16338   */\n      dup5\n        /* \"#utility.yul\":16326:16332   */\n      dup3\n        /* \"#utility.yul\":16315:16324   */\n      dup6\n        /* \"#utility.yul\":16311:16333   */\n      add\n        /* \"#utility.yul\":16269:16339   */\n      tag_232\n      jump\t// in\n    tag_417:\n        /* \"#utility.yul\":16262:16266   */\n      0x20\n        /* \"#utility.yul\":16255:16260   */\n      dup4\n        /* \"#utility.yul\":16251:16267   */\n      add\n        /* \"#utility.yul\":16244:16340   */\n      mstore\n        /* \"#utility.yul\":16027:16351   */\n      pop\n        /* \"#utility.yul\":15416:16358   */\n      swap3\n      swap2\n      pop\n      pop\n      jump\t// out\n        /* \"#utility.yul\":16364:16924   */\n    tag_83:\n        /* \"#utility.yul\":16462:16468   */\n      0x00\n        /* \"#utility.yul\":16511:16513   */\n      0x20\n        /* \"#utility.yul\":16499:16508   */\n      dup3\n        /* \"#utility.yul\":16490:16497   */\n      dup5\n        /* \"#utility.yul\":16486:16509   */\n      sub\n        /* \"#utility.yul\":16482:16514   */\n      slt\n        /* \"#utility.yul\":16479:16598   */\n      iszero\n      tag_419\n      jumpi\n        /* \"#utility.yul\":16517:16596   */\n      tag_420\n      tag_189\n      jump\t// in\n    tag_420:\n        /* \"#utility.yul\":16479:16598   */\n    tag_419:\n        /* \"#utility.yul\":16658:16659   */\n      0x00\n        /* \"#utility.yul\":16647:16656   */\n      dup3\n        /* \"#utility.yul\":16643:16660   */\n      add\n        /* \"#utility.yul\":16637:16661   */\n      mload\n        /* \"#utility.yul\":16688:16706   */\n      0xffffffffffffffff\n        /* \"#utility.yul\":16680:16686   */\n      dup2\n        /* \"#utility.yul\":16677:16707   */\n      gt\n        /* \"#utility.yul\":16674:16791   */\n      iszero\n      tag_421\n      jumpi\n        /* \"#utility.yul\":16710:16789   */\n      tag_422\n      tag_190\n      jump\t// in\n    tag_422:\n        /* \"#utility.yul\":16674:16791   */\n    tag_421:\n        /* \"#utility.yul\":16815:16907   */\n      tag_423\n        /* \"#utility.yul\":16899:16906   */\n      dup5\n        /* \"#utility.yul\":16890:16896   */\n      dup3\n        /* \"#utility.yul\":16879:16888   */\n      dup6\n        /* \"#utility.yul\":16875:16897   */\n      add\n        /* \"#utility.yul\":16815:16907   */\n      tag_233\n      jump\t// in\n    tag_423:\n        /* \"#utility.yul\":16805:16907   */\n      swap2\n      pop\n        /* \"#utility.yul\":16608:16917   */\n      pop\n        /* \"#utility.yul\":16364:16924   */\n      swap3\n      swap2\n      pop\n      pop\n      jump\t// out\n        /* \"#utility.yul\":16930:17099   */\n    tag_234:\n        /* \"#utility.yul\":17070:17091   */\n      0x55534552204e4f54205245474953544552454400000000000000000000000000\n        /* \"#utility.yul\":17066:17067   */\n      0x00\n        /* \"#utility.yul\":17058:17064   */\n      dup3\n        /* \"#utility.yul\":17054:17068   */\n      add\n        /* \"#utility.yul\":17047:17092   */\n      mstore\n        /* \"#utility.yul\":16930:17099   */\n      pop\n      jump\t// out\n        /* \"#utility.yul\":17105:17471   */\n    tag_235:\n        /* \"#utility.yul\":17247:17250   */\n      0x00\n        /* \"#utility.yul\":17268:17335   */\n      tag_426\n        /* \"#utility.yul\":17332:17334   */\n      0x13\n        /* \"#utility.yul\":17327:17330   */\n      dup4\n        /* \"#utility.yul\":17268:17335   */\n      tag_201\n      jump\t// in\n    tag_426:\n        /* \"#utility.yul\":17261:17335   */\n      swap2\n      pop\n        /* \"#utility.yul\":17344:17437   */\n      tag_427\n        /* \"#utility.yul\":17433:17436   */\n      dup3\n        /* \"#utility.yul\":17344:17437   */\n      tag_234\n      jump\t// in\n    tag_427:\n        /* \"#utility.yul\":17462:17464   */\n      0x20\n        /* \"#utility.yul\":17457:17460   */\n      dup3\n        /* \"#utility.yul\":17453:17465   */\n      add\n        /* \"#utility.yul\":17446:17465   */\n      swap1\n      pop\n        /* \"#utility.yul\":17105:17471   */\n      swap2\n      swap1\n      pop\n      jump\t// out\n        /* \"#utility.yul\":17477:17896   */\n    tag_86:\n        /* \"#utility.yul\":17643:17647   */\n      0x00\n        /* \"#utility.yul\":17681:17683   */\n      0x20\n        /* \"#utility.yul\":17670:17679   */\n      dup3\n        /* \"#utility.yul\":17666:17684   */\n      add\n        /* \"#utility.yul\":17658:17684   */\n      swap1\n      pop\n        /* \"#utility.yul\":17730:17739   */\n      dup2\n        /* \"#utility.yul\":17724:17728   */\n      dup2\n        /* \"#utility.yul\":17720:17740   */\n      sub\n        /* \"#utility.yul\":17716:17717   */\n      0x00\n        /* \"#utility.yul\":17705:17714   */\n      dup4\n        /* \"#utility.yul\":17701:17718   */\n      add\n        /* \"#utility.yul\":17694:17741   */\n      mstore\n        /* \"#utility.yul\":17758:17889   */\n      tag_429\n        /* \"#utility.yul\":17884:17888   */\n      dup2\n        /* \"#utility.yul\":17758:17889   */\n      tag_235\n      jump\t// in\n    tag_429:\n        /* \"#utility.yul\":17750:17889   */\n      swap1\n      pop\n        /* \"#utility.yul\":17477:17896   */\n      swap2\n      swap1\n      pop\n      jump\t// out\n        /* \"#utility.yul\":17902:18072   */\n    tag_236:\n        /* \"#utility.yul\":18042:18064   */\n      0x547765657420646f6573206e6f74206578697374000000000000000000000000\n        /* \"#utility.yul\":18038:18039   */\n      0x00\n        /* \"#utility.yul\":18030:18036   */\n      dup3\n        /* \"#utility.yul\":18026:18040   */\n      add\n        /* \"#utility.yul\":18019:18065   */\n      mstore\n        /* \"#utility.yul\":17902:18072   */\n      pop\n      jump\t// out\n        /* \"#utility.yul\":18078:18444   */\n    tag_237:\n        /* \"#utility.yul\":18220:18223   */\n      0x00\n        /* \"#utility.yul\":18241:18308   */\n      tag_432\n        /* \"#utility.yul\":18305:18307   */\n      0x14\n        /* \"#utility.yul\":18300:18303   */\n      dup4\n        /* \"#utility.yul\":18241:18308   */\n      tag_201\n      jump\t// in\n    tag_432:\n        /* \"#utility.yul\":18234:18308   */\n      swap2\n      pop\n        /* \"#utility.yul\":18317:18410   */\n      tag_433\n        /* \"#utility.yul\":18406:18409   */\n      dup3\n        /* \"#utility.yul\":18317:18410   */\n      tag_236\n      jump\t// in\n    tag_433:\n        /* \"#utility.yul\":18435:18437   */\n      0x20\n        /* \"#utility.yul\":18430:18433   */\n      dup3\n        /* \"#utility.yul\":18426:18438   */\n      add\n        /* \"#utility.yul\":18419:18438   */\n      swap1\n      pop\n        /* \"#utility.yul\":18078:18444   */\n      swap2\n      swap1\n      pop\n      jump\t// out\n        /* \"#utility.yul\":18450:18869   */\n    tag_90:\n        /* \"#utility.yul\":18616:18620   */\n      0x00\n        /* \"#utility.yul\":18654:18656   */\n      0x20\n        /* \"#utility.yul\":18643:18652   */\n      dup3\n        /* \"#utility.yul\":18639:18657   */\n      add\n        /* \"#utility.yul\":18631:18657   */\n      swap1\n      pop\n        /* \"#utility.yul\":18703:18712   */\n      dup2\n        /* \"#utility.yul\":18697:18701   */\n      dup2\n        /* \"#utility.yul\":18693:18713   */\n      sub\n        /* \"#utility.yul\":18689:18690   */\n      0x00\n        /* \"#utility.yul\":18678:18687   */\n      dup4\n        /* \"#utility.yul\":18674:18691   */\n      add\n        /* \"#utility.yul\":18667:18714   */\n      mstore\n        /* \"#utility.yul\":18731:18862   */\n      tag_435\n        /* \"#utility.yul\":18857:18861   */\n      dup2\n        /* \"#utility.yul\":18731:18862   */\n      tag_237\n      jump\t// in\n    tag_435:\n        /* \"#utility.yul\":18723:18862   */\n      swap1\n      pop\n        /* \"#utility.yul\":18450:18869   */\n      swap2\n      swap1\n      pop\n      jump\t// out\n        /* \"#utility.yul\":18875:19055   */\n    tag_93:\n        /* \"#utility.yul\":18923:19000   */\n      0x4e487b7100000000000000000000000000000000000000000000000000000000\n        /* \"#utility.yul\":18920:18921   */\n      0x00\n        /* \"#utility.yul\":18913:19001   */\n      mstore\n        /* \"#utility.yul\":19020:19024   */\n      0x32\n        /* \"#utility.yul\":19017:19018   */\n      0x04\n        /* \"#utility.yul\":19010:19025   */\n      mstore\n        /* \"#utility.yul\":19044:19048   */\n      0x24\n        /* \"#utility.yul\":19041:19042   */\n      0x00\n        /* \"#utility.yul\":19034:19049   */\n      revert\n        /* \"#utility.yul\":19061:19229   */\n    tag_238:\n        /* \"#utility.yul\":19201:19221   */\n      0x547765657420686173206e6f206c696b65730000000000000000000000000000\n        /* \"#utility.yul\":19197:19198   */\n      0x00\n        /* \"#utility.yul\":19189:19195   */\n      dup3\n        /* \"#utility.yul\":19185:19199   */\n      add\n        /* \"#utility.yul\":19178:19222   */\n      mstore\n        /* \"#utility.yul\":19061:19229   */\n      pop\n      jump\t// out\n        /* \"#utility.yul\":19235:19601   */\n    tag_239:\n        /* \"#utility.yul\":19377:19380   */\n      0x00\n        /* \"#utility.yul\":19398:19465   */\n      tag_439\n        /* \"#utility.yul\":19462:19464   */\n      0x12\n        /* \"#utility.yul\":19457:19460   */\n      dup4\n        /* \"#utility.yul\":19398:19465   */\n      tag_201\n      jump\t// in\n    tag_439:\n        /* \"#utility.yul\":19391:19465   */\n      swap2\n      pop\n        /* \"#utility.yul\":19474:19567   */\n      tag_440\n        /* \"#utility.yul\":19563:19566   */\n      dup3\n        /* \"#utility.yul\":19474:19567   */\n      tag_238\n      jump\t// in\n    tag_440:\n        /* \"#utility.yul\":19592:19594   */\n      0x20\n        /* \"#utility.yul\":19587:19590   */\n      dup3\n        /* \"#utility.yul\":19583:19595   */\n      add\n        /* \"#utility.yul\":19576:19595   */\n      swap1\n      pop\n        /* \"#utility.yul\":19235:19601   */\n      swap2\n      swap1\n      pop\n      jump\t// out\n        /* \"#utility.yul\":19607:20026   */\n    tag_97:\n        /* \"#utility.yul\":19773:19777   */\n      0x00\n        /* \"#utility.yul\":19811:19813   */\n      0x20\n        /* \"#utility.yul\":19800:19809   */\n      dup3\n        /* \"#utility.yul\":19796:19814   */\n      add\n        /* \"#utility.yul\":19788:19814   */\n      swap1\n      pop\n        /* \"#utility.yul\":19860:19869   */\n      dup2\n        /* \"#utility.yul\":19854:19858   */\n      dup2\n        /* \"#utility.yul\":19850:19870   */\n      sub\n        /* \"#utility.yul\":19846:19847   */\n      0x00\n        /* \"#utility.yul\":19835:19844   */\n      dup4\n        /* \"#utility.yul\":19831:19848   */\n      add\n        /* \"#utility.yul\":19824:19871   */\n      mstore\n        /* \"#utility.yul\":19888:20019   */\n      tag_442\n        /* \"#utility.yul\":20014:20018   */\n      dup2\n        /* \"#utility.yul\":19888:20019   */\n      tag_239\n      jump\t// in\n    tag_442:\n        /* \"#utility.yul\":19880:20019   */\n      swap1\n      pop\n        /* \"#utility.yul\":19607:20026   */\n      swap2\n      swap1\n      pop\n      jump\t// out\n        /* \"#utility.yul\":20032:20212   */\n    tag_240:\n        /* \"#utility.yul\":20080:20157   */\n      0x4e487b7100000000000000000000000000000000000000000000000000000000\n        /* \"#utility.yul\":20077:20078   */\n      0x00\n        /* \"#utility.yul\":20070:20158   */\n      mstore\n        /* \"#utility.yul\":20177:20181   */\n      0x11\n        /* \"#utility.yul\":20174:20175   */\n      0x04\n        /* \"#utility.yul\":20167:20182   */\n      mstore\n        /* \"#utility.yul\":20201:20205   */\n      0x24\n        /* \"#utility.yul\":20198:20199   */\n      0x00\n        /* \"#utility.yul\":20191:20206   */\n      revert\n        /* \"#utility.yul\":20218:20389   */\n    tag_102:\n        /* \"#utility.yul\":20257:20260   */\n      0x00\n        /* \"#utility.yul\":20280:20304   */\n      tag_445\n        /* \"#utility.yul\":20298:20303   */\n      dup3\n        /* \"#utility.yul\":20280:20304   */\n      tag_195\n      jump\t// in\n    tag_445:\n        /* \"#utility.yul\":20271:20304   */\n      swap2\n      pop\n        /* \"#utility.yul\":20326:20330   */\n      0x00\n        /* \"#utility.yul\":20319:20324   */\n      dup3\n        /* \"#utility.yul\":20316:20331   */\n      sub\n        /* \"#utility.yul\":20313:20354   */\n      tag_446\n      jumpi\n        /* \"#utility.yul\":20334:20352   */\n      tag_447\n      tag_240\n      jump\t// in\n    tag_447:\n        /* \"#utility.yul\":20313:20354   */\n    tag_446:\n        /* \"#utility.yul\":20381:20382   */\n      0x01\n        /* \"#utility.yul\":20374:20379   */\n      dup3\n        /* \"#utility.yul\":20370:20383   */\n      sub\n        /* \"#utility.yul\":20363:20383   */\n      swap1\n      pop\n        /* \"#utility.yul\":20218:20389   */\n      swap2\n      swap1\n      pop\n      jump\t// out\n        /* \"#utility.yul\":20395:20948   */\n    tag_107:\n        /* \"#utility.yul\":20572:20576   */\n      0x00\n        /* \"#utility.yul\":20610:20613   */\n      0x80\n        /* \"#utility.yul\":20599:20608   */\n      dup3\n        /* \"#utility.yul\":20595:20614   */\n      add\n        /* \"#utility.yul\":20587:20614   */\n      swap1\n      pop\n        /* \"#utility.yul\":20624:20695   */\n      tag_449\n        /* \"#utility.yul\":20692:20693   */\n      0x00\n        /* \"#utility.yul\":20681:20690   */\n      dup4\n        /* \"#utility.yul\":20677:20694   */\n      add\n        /* \"#utility.yul\":20668:20674   */\n      dup8\n        /* \"#utility.yul\":20624:20695   */\n      tag_199\n      jump\t// in\n    tag_449:\n        /* \"#utility.yul\":20705:20777   */\n      tag_450\n        /* \"#utility.yul\":20773:20775   */\n      0x20\n        /* \"#utility.yul\":20762:20771   */\n      dup4\n        /* \"#utility.yul\":20758:20776   */\n      add\n        /* \"#utility.yul\":20749:20755   */\n      dup7\n        /* \"#utility.yul\":20705:20777   */\n      tag_199\n      jump\t// in\n    tag_450:\n        /* \"#utility.yul\":20787:20859   */\n      tag_451\n        /* \"#utility.yul\":20855:20857   */\n      0x40\n        /* \"#utility.yul\":20844:20853   */\n      dup4\n        /* \"#utility.yul\":20840:20858   */\n      add\n        /* \"#utility.yul\":20831:20837   */\n      dup6\n        /* \"#utility.yul\":20787:20859   */\n      tag_198\n      jump\t// in\n    tag_451:\n        /* \"#utility.yul\":20869:20941   */\n      tag_452\n        /* \"#utility.yul\":20937:20939   */\n      0x60\n        /* \"#utility.yul\":20926:20935   */\n      dup4\n        /* \"#utility.yul\":20922:20940   */\n      add\n        /* \"#utility.yul\":20913:20919   */\n      dup5\n        /* \"#utility.yul\":20869:20941   */\n      tag_198\n      jump\t// in\n    tag_452:\n        /* \"#utility.yul\":20395:20948   */\n      swap6\n      swap5\n      pop\n      pop\n      pop\n      pop\n      pop\n      jump\t// out\n        /* \"#utility.yul\":20954:21187   */\n    tag_122:\n        /* \"#utility.yul\":20993:20996   */\n      0x00\n        /* \"#utility.yul\":21016:21040   */\n      tag_454\n        /* \"#utility.yul\":21034:21039   */\n      dup3\n        /* \"#utility.yul\":21016:21040   */\n      tag_195\n      jump\t// in\n    tag_454:\n        /* \"#utility.yul\":21007:21040   */\n      swap2\n      pop\n        /* \"#utility.yul\":21062:21128   */\n      0xffffffffffffffffffffffffffffffffffffffffffffffffffffffffffffffff\n        /* \"#utility.yul\":21055:21060   */\n      dup3\n        /* \"#utility.yul\":21052:21129   */\n      sub\n        /* \"#utility.yul\":21049:21152   */\n      tag_455\n      jumpi\n        /* \"#utility.yul\":21132:21150   */\n      tag_456\n      tag_240\n      jump\t// in\n    tag_456:\n        /* \"#utility.yul\":21049:21152   */\n    tag_455:\n        /* \"#utility.yul\":21179:21180   */\n      0x01\n        /* \"#utility.yul\":21172:21177   */\n      dup3\n        /* \"#utility.yul\":21168:21181   */\n      add\n        /* \"#utility.yul\":21161:21181   */\n      swap1\n      pop\n        /* \"#utility.yul\":20954:21187   */\n      swap2\n      swap1\n      pop\n      jump\t// out\n        /* \"#utility.yul\":21193:21360   */\n    tag_241:\n        /* \"#utility.yul\":21333:21352   */\n      0x547765657420697320746f6f206c6f6e67000000000000000000000000000000\n        /* \"#utility.yul\":21329:21330   */\n      0x00\n        /* \"#utility.yul\":21321:21327   */\n      dup3\n        /* \"#utility.yul\":21317:21331   */\n      add\n        /* \"#utility.yul\":21310:21353   */\n      mstore\n        /* \"#utility.yul\":21193:21360   */\n      pop\n      jump\t// out\n        /* \"#utility.yul\":21366:21732   */\n    tag_242:\n        /* \"#utility.yul\":21508:21511   */\n      0x00\n        /* \"#utility.yul\":21529:21596   */\n      tag_459\n        /* \"#utility.yul\":21593:21595   */\n      0x11\n        /* \"#utility.yul\":21588:21591   */\n      dup4\n        /* \"#utility.yul\":21529:21596   */\n      tag_201\n      jump\t// in\n    tag_459:\n        /* \"#utility.yul\":21522:21596   */\n      swap2\n      pop\n        /* \"#utility.yul\":21605:21698   */\n      tag_460\n        /* \"#utility.yul\":21694:21697   */\n      dup3\n        /* \"#utility.yul\":21605:21698   */\n      tag_241\n      jump\t// in\n    tag_460:\n        /* \"#utility.yul\":21723:21725   */\n      0x20\n        /* \"#utility.yul\":21718:21721   */\n      dup3\n        /* \"#utility.yul\":21714:21726   */\n      add\n        /* \"#utility.yul\":21707:21726   */\n      swap1\n      pop\n        /* \"#utility.yul\":21366:21732   */\n      swap2\n      swap1\n      pop\n      jump\t// out\n        /* \"#utility.yul\":21738:22157   */\n    tag_143:\n        /* \"#utility.yul\":21904:21908   */\n      0x00\n        /* \"#utility.yul\":21942:21944   */\n      0x20\n        /* \"#utility.yul\":21931:21940   */\n      dup3\n        /* \"#utility.yul\":21927:21945   */\n      add\n        /* \"#utility.yul\":21919:21945   */\n      swap1\n      pop\n        /* \"#utility.yul\":21991:22000   */\n      dup2\n        /* \"#utility.yul\":21985:21989   */\n      dup2\n        /* \"#utility.yul\":21981:22001   */\n      sub\n        /* \"#utility.yul\":21977:21978   */\n      0x00\n        /* \"#utility.yul\":21966:21975   */\n      dup4\n        /* \"#utility.yul\":21962:21979   */\n      add\n        /* \"#utility.yul\":21955:22002   */\n      mstore\n        /* \"#utility.yul\":22019:22150   */\n      tag_462\n        /* \"#utility.yul\":22145:22149   */\n      dup2\n        /* \"#utility.yul\":22019:22150   */\n      tag_242\n      jump\t// in\n    tag_462:\n        /* \"#utility.yul\":22011:22150   */\n      swap1\n      pop\n        /* \"#utility.yul\":21738:22157   */\n      swap2\n      swap1\n      pop\n      jump\t// out\n        /* \"#utility.yul\":22163:22304   */\n    tag_243:\n        /* \"#utility.yul\":22212:22216   */\n      0x00\n        /* \"#utility.yul\":22235:22238   */\n      dup2\n        /* \"#utility.yul\":22227:22238   */\n      swap1\n      pop\n        /* \"#utility.yul\":22258:22261   */\n      dup2\n        /* \"#utility.yul\":22255:22256   */\n      0x00\n        /* \"#utility.yul\":22248:22262   */\n      mstore\n        /* \"#utility.yul\":22292:22296   */\n      0x20\n        /* \"#utility.yul\":22289:22290   */\n      0x00\n        /* \"#utility.yul\":22279:22297   */\n      keccak256\n        /* \"#utility.yul\":22271:22297   */\n      swap1\n      pop\n        /* \"#utility.yul\":22163:22304   */\n      swap2\n      swap1\n      pop\n      jump\t// out\n        /* \"#utility.yul\":22310:22403   */\n    tag_244:\n        /* \"#utility.yul\":22347:22353   */\n      0x00\n        /* \"#utility.yul\":22394:22396   */\n      0x20\n        /* \"#utility.yul\":22389:22391   */\n      0x1f\n        /* \"#utility.yul\":22382:22387   */\n      dup4\n        /* \"#utility.yul\":22378:22392   */\n      add\n        /* \"#utility.yul\":22374:22397   */\n      div\n        /* \"#utility.yul\":22364:22397   */\n      swap1\n      pop\n        /* \"#utility.yul\":22310:22403   */\n      swap2\n      swap1\n      pop\n      jump\t// out\n        /* \"#utility.yul\":22409:22516   */\n    tag_245:\n        /* \"#utility.yul\":22453:22461   */\n      0x00\n        /* \"#utility.yul\":22503:22508   */\n      dup3\n        /* \"#utility.yul\":22497:22501   */\n      dup3\n        /* \"#utility.yul\":22493:22509   */\n      shl\n        /* \"#utility.yul\":22472:22509   */\n      swap1\n      pop\n        /* \"#utility.yul\":22409:22516   */\n      swap3\n      swap2\n      pop\n      pop\n      jump\t// out\n        /* \"#utility.yul\":22522:22915   */\n    tag_246:\n        /* \"#utility.yul\":22591:22597   */\n      0x00\n        /* \"#utility.yul\":22641:22642   */\n      0x08\n        /* \"#utility.yul\":22629:22639   */\n      dup4\n        /* \"#utility.yul\":22625:22643   */\n      mul\n        /* \"#utility.yul\":22664:22761   */\n      tag_467\n        /* \"#utility.yul\":22694:22760   */\n      0xffffffffffffffffffffffffffffffffffffffffffffffffffffffffffffffff\n        /* \"#utility.yul\":22683:22692   */\n      dup3\n        /* \"#utility.yul\":22664:22761   */\n      tag_245\n      jump\t// in\n    tag_467:\n        /* \"#utility.yul\":22782:22821   */\n      tag_468\n        /* \"#utility.yul\":22812:22820   */\n      dup7\n        /* \"#utility.yul\":22801:22810   */\n      dup4\n        /* \"#utility.yul\":22782:22821   */\n      tag_245\n      jump\t// in\n    tag_468:\n        /* \"#utility.yul\":22770:22821   */\n      swap6\n      pop\n        /* \"#utility.yul\":22854:22858   */\n      dup1\n        /* \"#utility.yul\":22850:22859   */\n      not\n        /* \"#utility.yul\":22843:22848   */\n      dup5\n        /* \"#utility.yul\":22839:22860   */\n      and\n        /* \"#utility.yul\":22830:22860   */\n      swap4\n      pop\n        /* \"#utility.yul\":22903:22907   */\n      dup1\n        /* \"#utility.yul\":22893:22901   */\n      dup7\n        /* \"#utility.yul\":22889:22908   */\n      and\n        /* \"#utility.yul\":22882:22887   */\n      dup5\n        /* \"#utility.yul\":22879:22909   */\n      or\n        /* \"#utility.yul\":22869:22909   */\n      swap3\n      pop\n        /* \"#utility.yul\":22598:22915   */\n      pop\n      pop\n        /* \"#utility.yul\":22522:22915   */\n      swap4\n      swap3\n      pop\n      pop\n      pop\n      jump\t// out\n        /* \"#utility.yul\":22921:22981   */\n    tag_247:\n        /* \"#utility.yul\":22949:22952   */\n      0x00\n        /* \"#utility.yul\":22970:22975   */\n      dup2\n        /* \"#utility.yul\":22963:22975   */\n      swap1\n      pop\n        /* \"#utility.yul\":22921:22981   */\n      swap2\n      swap1\n      pop\n      jump\t// out\n        /* \"#utility.yul\":22987:23129   */\n    tag_248:\n        /* \"#utility.yul\":23037:23046   */\n      0x00\n        /* \"#utility.yul\":23070:23123   */\n      tag_471\n        /* \"#utility.yul\":23088:23122   */\n      tag_472\n        /* \"#utility.yul\":23097:23121   */\n      tag_473\n        /* \"#utility.yul\":23115:23120   */\n      dup5\n        /* \"#utility.yul\":23097:23121   */\n      tag_195\n      jump\t// in\n    tag_473:\n        /* \"#utility.yul\":23088:23122   */\n      tag_247\n      jump\t// in\n    tag_472:\n        /* \"#utility.yul\":23070:23123   */\n      tag_195\n      jump\t// in\n    tag_471:\n        /* \"#utility.yul\":23057:23123   */\n      swap1\n      pop\n        /* \"#utility.yul\":22987:23129   */\n      swap2\n      swap1\n      pop\n      jump\t// out\n        /* \"#utility.yul\":23135:23210   */\n    tag_249:\n        /* \"#utility.yul\":23178:23181   */\n      0x00\n        /* \"#utility.yul\":23199:23204   */\n      dup2\n        /* \"#utility.yul\":23192:23204   */\n      swap1\n      pop\n        /* \"#utility.yul\":23135:23210   */\n      swap2\n      swap1\n      pop\n      jump\t// out\n        /* \"#utility.yul\":23216:23485   */\n    tag_250:\n        /* \"#utility.yul\":23326:23365   */\n      tag_476\n        /* \"#utility.yul\":23357:23364   */\n      dup4\n        /* \"#utility.yul\":23326:23365   */\n      tag_248\n      jump\t// in\n    tag_476:\n        /* \"#utility.yul\":23387:23478   */\n      tag_477\n        /* \"#utility.yul\":23436:23477   */\n      tag_478\n        /* \"#utility.yul\":23460:23476   */\n      dup3\n        /* \"#utility.yul\":23436:23477   */\n      tag_249\n      jump\t// in\n    tag_478:\n        /* \"#utility.yul\":23428:23434   */\n      dup5\n        /* \"#utility.yul\":23421:23425   */\n      dup5\n        /* \"#utility.yul\":23415:23426   */\n      sload\n        /* \"#utility.yul\":23387:23478   */\n      tag_246\n      jump\t// in\n    tag_477:\n        /* \"#utility.yul\":23381:23385   */\n      dup3\n        /* \"#utility.yul\":23374:23479   */\n      sstore\n        /* \"#utility.yul\":23292:23485   */\n      pop\n        /* \"#utility.yul\":23216:23485   */\n      pop\n      pop\n      pop\n      jump\t// out\n        /* \"#utility.yul\":23491:23564   */\n    tag_251:\n        /* \"#utility.yul\":23536:23539   */\n      0x00\n        /* \"#utility.yul\":23491:23564   */\n      swap1\n      jump\t// out\n        /* \"#utility.yul\":23570:23759   */\n    tag_252:\n        /* \"#utility.yul\":23647:23679   */\n      tag_481\n      tag_251\n      jump\t// in\n    tag_481:\n        /* \"#utility.yul\":23688:23753   */\n      tag_482\n        /* \"#utility.yul\":23746:23752   */\n      dup2\n        /* \"#utility.yul\":23738:23744   */\n      dup5\n        /* \"#utility.yul\":23732:23736   */\n      dup5\n        /* \"#utility.yul\":23688:23753   */\n      tag_250\n      jump\t// in\n    tag_482:\n        /* \"#utility.yul\":23623:23759   */\n      pop\n        /* \"#utility.yul\":23570:23759   */\n      pop\n      pop\n      jump\t// out\n        /* \"#utility.yul\":23765:23951   */\n    tag_253:\n        /* \"#utility.yul\":23825:23945   */\n    tag_484:\n        /* \"#utility.yul\":23842:23845   */\n      dup2\n        /* \"#utility.yul\":23835:23840   */\n      dup2\n        /* \"#utility.yul\":23832:23846   */\n      lt\n        /* \"#utility.yul\":23825:23945   */\n      iszero\n      tag_486\n      jumpi\n        /* \"#utility.yul\":23896:23935   */\n      tag_487\n        /* \"#utility.yul\":23933:23934   */\n      0x00\n        /* \"#utility.yul\":23926:23931   */\n      dup3\n        /* \"#utility.yul\":23896:23935   */\n      tag_252\n      jump\t// in\n    tag_487:\n        /* \"#utility.yul\":23869:23870   */\n      0x01\n        /* \"#utility.yul\":23862:23867   */\n      dup2\n        /* \"#utility.yul\":23858:23871   */\n      add\n        /* \"#utility.yul\":23849:23871   */\n      swap1\n      pop\n        /* \"#utility.yul\":23825:23945   */\n      jump(tag_484)\n    tag_486:\n        /* \"#utility.yul\":23765:23951   */\n      pop\n      pop\n      jump\t// out\n        /* \"#utility.yul\":23957:24500   */\n    tag_254:\n        /* \"#utility.yul\":24058:24060   */\n      0x1f\n        /* \"#utility.yul\":24053:24056   */\n      dup3\n        /* \"#utility.yul\":24050:24061   */\n      gt\n        /* \"#utility.yul\":24047:24493   */\n      iszero\n      tag_489\n      jumpi\n        /* \"#utility.yul\":24092:24130   */\n      tag_490\n        /* \"#utility.yul\":24124:24129   */\n      dup2\n        /* \"#utility.yul\":24092:24130   */\n      tag_243\n      jump\t// in\n    tag_490:\n        /* \"#utility.yul\":24176:24205   */\n      tag_491\n        /* \"#utility.yul\":24194:24204   */\n      dup5\n        /* \"#utility.yul\":24176:24205   */\n      tag_244\n      jump\t// in\n    tag_491:\n        /* \"#utility.yul\":24166:24174   */\n      dup2\n        /* \"#utility.yul\":24162:24206   */\n      add\n        /* \"#utility.yul\":24359:24361   */\n      0x20\n        /* \"#utility.yul\":24347:24357   */\n      dup6\n        /* \"#utility.yul\":24344:24362   */\n      lt\n        /* \"#utility.yul\":24341:24390   */\n      iszero\n      tag_492\n      jumpi\n        /* \"#utility.yul\":24380:24388   */\n      dup2\n        /* \"#utility.yul\":24365:24388   */\n      swap1\n      pop\n        /* \"#utility.yul\":24341:24390   */\n    tag_492:\n        /* \"#utility.yul\":24403:24483   */\n      tag_493\n        /* \"#utility.yul\":24459:24481   */\n      tag_494\n        /* \"#utility.yul\":24477:24480   */\n      dup6\n        /* \"#utility.yul\":24459:24481   */\n      tag_244\n      jump\t// in\n    tag_494:\n        /* \"#utility.yul\":24449:24457   */\n      dup4\n        /* \"#utility.yul\":24445:24482   */\n      add\n        /* \"#utility.yul\":24432:24443   */\n      dup3\n        /* \"#utility.yul\":24403:24483   */\n      tag_253\n      jump\t// in\n    tag_493:\n        /* \"#utility.yul\":24062:24493   */\n      pop\n      pop\n        /* \"#utility.yul\":24047:24493   */\n    tag_489:\n        /* \"#utility.yul\":23957:24500   */\n      pop\n      pop\n      pop\n      jump\t// out\n        /* \"#utility.yul\":24506:24623   */\n    tag_255:\n        /* \"#utility.yul\":24560:24568   */\n      0x00\n        /* \"#utility.yul\":24610:24615   */\n      dup3\n        /* \"#utility.yul\":24604:24608   */\n      dup3\n        /* \"#utility.yul\":24600:24616   */\n      shr\n        /* \"#utility.yul\":24579:24616   */\n      swap1\n      pop\n        /* \"#utility.yul\":24506:24623   */\n      swap3\n      swap2\n      pop\n      pop\n      jump\t// out\n        /* \"#utility.yul\":24629:24798   */\n    tag_256:\n        /* \"#utility.yul\":24673:24679   */\n      0x00\n        /* \"#utility.yul\":24706:24757   */\n      tag_497\n        /* \"#utility.yul\":24754:24755   */\n      0x00\n        /* \"#utility.yul\":24750:24756   */\n      not\n        /* \"#utility.yul\":24742:24747   */\n      dup5\n        /* \"#utility.yul\":24739:24740   */\n      0x08\n        /* \"#utility.yul\":24735:24748   */\n      mul\n        /* \"#utility.yul\":24706:24757   */\n      tag_255\n      jump\t// in\n    tag_497:\n        /* \"#utility.yul\":24702:24758   */\n      not\n        /* \"#utility.yul\":24787:24791   */\n      dup1\n        /* \"#utility.yul\":24781:24785   */\n      dup4\n        /* \"#utility.yul\":24777:24792   */\n      and\n        /* \"#utility.yul\":24767:24792   */\n      swap2\n      pop\n        /* \"#utility.yul\":24680:24798   */\n      pop\n        /* \"#utility.yul\":24629:24798   */\n      swap3\n      swap2\n      pop\n      pop\n      jump\t// out\n        /* \"#utility.yul\":24803:25098   */\n    tag_257:\n        /* \"#utility.yul\":24879:24883   */\n      0x00\n        /* \"#utility.yul\":25025:25054   */\n      tag_499\n        /* \"#utility.yul\":25050:25053   */\n      dup4\n        /* \"#utility.yul\":25044:25048   */\n      dup4\n        /* \"#utility.yul\":25025:25054   */\n      tag_256\n      jump\t// in\n    tag_499:\n        /* \"#utility.yul\":25017:25054   */\n      swap2\n      pop\n        /* \"#utility.yul\":25087:25090   */\n      dup3\n        /* \"#utility.yul\":25084:25085   */\n      0x02\n        /* \"#utility.yul\":25080:25091   */\n      mul\n        /* \"#utility.yul\":25074:25078   */\n      dup3\n        /* \"#utility.yul\":25071:25092   */\n      or\n        /* \"#utility.yul\":25063:25092   */\n      swap1\n      pop\n        /* \"#utility.yul\":24803:25098   */\n      swap3\n      swap2\n      pop\n      pop\n      jump\t// out\n        /* \"#utility.yul\":25103:26498   */\n    tag_146:\n        /* \"#utility.yul\":25220:25257   */\n      tag_501\n        /* \"#utility.yul\":25253:25256   */\n      dup3\n        /* \"#utility.yul\":25220:25257   */\n      tag_200\n      jump\t// in\n    tag_501:\n        /* \"#utility.yul\":25322:25340   */\n      0xffffffffffffffff\n        /* \"#utility.yul\":25314:25320   */\n      dup2\n        /* \"#utility.yul\":25311:25341   */\n      gt\n        /* \"#utility.yul\":25308:25364   */\n      iszero\n      tag_502\n      jumpi\n        /* \"#utility.yul\":25344:25362   */\n      tag_503\n      tag_220\n      jump\t// in\n    tag_503:\n        /* \"#utility.yul\":25308:25364   */\n    tag_502:\n        /* \"#utility.yul\":25388:25426   */\n      tag_504\n        /* \"#utility.yul\":25420:25424   */\n      dup3\n        /* \"#utility.yul\":25414:25425   */\n      sload\n        /* \"#utility.yul\":25388:25426   */\n      tag_64\n      jump\t// in\n    tag_504:\n        /* \"#utility.yul\":25473:25540   */\n      tag_505\n        /* \"#utility.yul\":25533:25539   */\n      dup3\n        /* \"#utility.yul\":25525:25531   */\n      dup3\n        /* \"#utility.yul\":25519:25523   */\n      dup6\n        /* \"#utility.yul\":25473:25540   */\n      tag_254\n      jump\t// in\n    tag_505:\n        /* \"#utility.yul\":25567:25568   */\n      0x00\n        /* \"#utility.yul\":25591:25595   */\n      0x20\n        /* \"#utility.yul\":25578:25595   */\n      swap1\n      pop\n        /* \"#utility.yul\":25623:25625   */\n      0x1f\n        /* \"#utility.yul\":25615:25621   */\n      dup4\n        /* \"#utility.yul\":25612:25626   */\n      gt\n        /* \"#utility.yul\":25640:25641   */\n      0x01\n        /* \"#utility.yul\":25635:26253   */\n      dup2\n      eq\n      tag_507\n      jumpi\n        /* \"#utility.yul\":26297:26298   */\n      0x00\n        /* \"#utility.yul\":26314:26320   */\n      dup5\n        /* \"#utility.yul\":26311:26388   */\n      iszero\n      tag_508\n      jumpi\n        /* \"#utility.yul\":26363:26372   */\n      dup3\n        /* \"#utility.yul\":26358:26361   */\n      dup8\n        /* \"#utility.yul\":26354:26373   */\n      add\n        /* \"#utility.yul\":26348:26374   */\n      mload\n        /* \"#utility.yul\":26339:26374   */\n      swap1\n      pop\n        /* \"#utility.yul\":26311:26388   */\n    tag_508:\n        /* \"#utility.yul\":26414:26481   */\n      tag_509\n        /* \"#utility.yul\":26474:26480   */\n      dup6\n        /* \"#utility.yul\":26467:26472   */\n      dup3\n        /* \"#utility.yul\":26414:26481   */\n      tag_257\n      jump\t// in\n    tag_509:\n        /* \"#utility.yul\":26408:26412   */\n      dup7\n        /* \"#utility.yul\":26401:26482   */\n      sstore\n        /* \"#utility.yul\":26270:26492   */\n      pop\n        /* \"#utility.yul\":25605:26492   */\n      jump(tag_506)\n        /* \"#utility.yul\":25635:26253   */\n    tag_507:\n        /* \"#utility.yul\":25687:25691   */\n      0x1f\n        /* \"#utility.yul\":25683:25692   */\n      not\n        /* \"#utility.yul\":25675:25681   */\n      dup5\n        /* \"#utility.yul\":25671:25693   */\n      and\n        /* \"#utility.yul\":25721:25758   */\n      tag_510\n        /* \"#utility.yul\":25753:25757   */\n      dup7\n        /* \"#utility.yul\":25721:25758   */\n      tag_243\n      jump\t// in\n    tag_510:\n        /* \"#utility.yul\":25780:25781   */\n      0x00\n        /* \"#utility.yul\":25794:26002   */\n    tag_511:\n        /* \"#utility.yul\":25808:25815   */\n      dup3\n        /* \"#utility.yul\":25805:25806   */\n      dup2\n        /* \"#utility.yul\":25802:25816   */\n      lt\n        /* \"#utility.yul\":25794:26002   */\n      iszero\n      tag_513\n      jumpi\n        /* \"#utility.yul\":25887:25896   */\n      dup5\n        /* \"#utility.yul\":25882:25885   */\n      dup10\n        /* \"#utility.yul\":25878:25897   */\n      add\n        /* \"#utility.yul\":25872:25898   */\n      mload\n        /* \"#utility.yul\":25864:25870   */\n      dup3\n        /* \"#utility.yul\":25857:25899   */\n      sstore\n        /* \"#utility.yul\":25938:25939   */\n      0x01\n        /* \"#utility.yul\":25930:25936   */\n      dup3\n        /* \"#utility.yul\":25926:25940   */\n      add\n        /* \"#utility.yul\":25916:25940   */\n      swap2\n      pop\n        /* \"#utility.yul\":25985:25987   */\n      0x20\n        /* \"#utility.yul\":25974:25983   */\n      dup6\n        /* \"#utility.yul\":25970:25988   */\n      add\n        /* \"#utility.yul\":25957:25988   */\n      swap5\n      pop\n        /* \"#utility.yul\":25831:25835   */\n      0x20\n        /* \"#utility.yul\":25828:25829   */\n      dup2\n        /* \"#utility.yul\":25824:25836   */\n      add\n        /* \"#utility.yul\":25819:25836   */\n      swap1\n      pop\n        /* \"#utility.yul\":25794:26002   */\n      jump(tag_511)\n    tag_513:\n        /* \"#utility.yul\":26030:26036   */\n      dup7\n        /* \"#utility.yul\":26021:26028   */\n      dup4\n        /* \"#utility.yul\":26018:26037   */\n      lt\n        /* \"#utility.yul\":26015:26194   */\n      iszero\n      tag_514\n      jumpi\n        /* \"#utility.yul\":26088:26097   */\n      dup5\n        /* \"#utility.yul\":26083:26086   */\n      dup10\n        /* \"#utility.yul\":26079:26098   */\n      add\n        /* \"#utility.yul\":26073:26099   */\n      mload\n        /* \"#utility.yul\":26131:26179   */\n      tag_515\n        /* \"#utility.yul\":26173:26177   */\n      0x1f\n        /* \"#utility.yul\":26165:26171   */\n      dup10\n        /* \"#utility.yul\":26161:26178   */\n      and\n        /* \"#utility.yul\":26150:26159   */\n      dup3\n        /* \"#utility.yul\":26131:26179   */\n      tag_256\n      jump\t// in\n    tag_515:\n        /* \"#utility.yul\":26123:26129   */\n      dup4\n        /* \"#utility.yul\":26116:26180   */\n      sstore\n        /* \"#utility.yul\":26038:26194   */\n      pop\n        /* \"#utility.yul\":26015:26194   */\n    tag_514:\n        /* \"#utility.yul\":26240:26241   */\n      0x01\n        /* \"#utility.yul\":26236:26237   */\n      0x02\n        /* \"#utility.yul\":26228:26234   */\n      dup9\n        /* \"#utility.yul\":26224:26238   */\n      mul\n        /* \"#utility.yul\":26220:26242   */\n      add\n        /* \"#utility.yul\":26214:26218   */\n      dup9\n        /* \"#utility.yul\":26207:26243   */\n      sstore\n        /* \"#utility.yul\":25642:26253   */\n      pop\n      pop\n      pop\n        /* \"#utility.yul\":25605:26492   */\n    tag_506:\n      pop\n        /* \"#utility.yul\":25195:26498   */\n      pop\n      pop\n      pop\n        /* \"#utility.yul\":25103:26498   */\n      pop\n      pop\n      jump\t// out\n        /* \"#utility.yul\":26504:27148   */\n    tag_148:\n        /* \"#utility.yul\":26701:26705   */\n      0x00\n        /* \"#utility.yul\":26739:26742   */\n      0x80\n        /* \"#utility.yul\":26728:26737   */\n      dup3\n        /* \"#utility.yul\":26724:26743   */\n      add\n        /* \"#utility.yul\":26716:26743   */\n      swap1\n      pop\n        /* \"#utility.yul\":26753:26824   */\n      tag_517\n        /* \"#utility.yul\":26821:26822   */\n      0x00\n        /* \"#utility.yul\":26810:26819   */\n      dup4\n        /* \"#utility.yul\":26806:26823   */\n      add\n        /* \"#utility.yul\":26797:26803   */\n      dup8\n        /* \"#utility.yul\":26753:26824   */\n      tag_198\n      jump\t// in\n    tag_517:\n        /* \"#utility.yul\":26834:26906   */\n      tag_518\n        /* \"#utility.yul\":26902:26904   */\n      0x20\n        /* \"#utility.yul\":26891:26900   */\n      dup4\n        /* \"#utility.yul\":26887:26905   */\n      add\n        /* \"#utility.yul\":26878:26884   */\n      dup7\n        /* \"#utility.yul\":26834:26906   */\n      tag_199\n      jump\t// in\n    tag_518:\n        /* \"#utility.yul\":26953:26962   */\n      dup2\n        /* \"#utility.yul\":26947:26951   */\n      dup2\n        /* \"#utility.yul\":26943:26963   */\n      sub\n        /* \"#utility.yul\":26938:26940   */\n      0x40\n        /* \"#utility.yul\":26927:26936   */\n      dup4\n        /* \"#utility.yul\":26923:26941   */\n      add\n        /* \"#utility.yul\":26916:26964   */\n      mstore\n        /* \"#utility.yul\":26981:27059   */\n      tag_519\n        /* \"#utility.yul\":27054:27058   */\n      dup2\n        /* \"#utility.yul\":27045:27051   */\n      dup6\n        /* \"#utility.yul\":26981:27059   */\n      tag_204\n      jump\t// in\n    tag_519:\n        /* \"#utility.yul\":26973:27059   */\n      swap1\n      pop\n        /* \"#utility.yul\":27069:27141   */\n      tag_520\n        /* \"#utility.yul\":27137:27139   */\n      0x60\n        /* \"#utility.yul\":27126:27135   */\n      dup4\n        /* \"#utility.yul\":27122:27140   */\n      add\n        /* \"#utility.yul\":27113:27119   */\n      dup5\n        /* \"#utility.yul\":27069:27141   */\n      tag_198\n      jump\t// in\n    tag_520:\n        /* \"#utility.yul\":26504:27148   */\n      swap6\n      swap5\n      pop\n      pop\n      pop\n      pop\n      pop\n      jump\t// out\n        /* \"#utility.yul\":27154:27345   */\n    tag_157:\n        /* \"#utility.yul\":27194:27197   */\n      0x00\n        /* \"#utility.yul\":27213:27233   */\n      tag_522\n        /* \"#utility.yul\":27231:27232   */\n      dup3\n        /* \"#utility.yul\":27213:27233   */\n      tag_195\n      jump\t// in\n    tag_522:\n        /* \"#utility.yul\":27208:27233   */\n      swap2\n      pop\n        /* \"#utility.yul\":27247:27267   */\n      tag_523\n        /* \"#utility.yul\":27265:27266   */\n      dup4\n        /* \"#utility.yul\":27247:27267   */\n      tag_195\n      jump\t// in\n    tag_523:\n        /* \"#utility.yul\":27242:27267   */\n      swap3\n      pop\n        /* \"#utility.yul\":27290:27291   */\n      dup3\n        /* \"#utility.yul\":27287:27288   */\n      dup3\n        /* \"#utility.yul\":27283:27292   */\n      add\n        /* \"#utility.yul\":27276:27292   */\n      swap1\n      pop\n        /* \"#utility.yul\":27311:27314   */\n      dup1\n        /* \"#utility.yul\":27308:27309   */\n      dup3\n        /* \"#utility.yul\":27305:27315   */\n      gt\n        /* \"#utility.yul\":27302:27338   */\n      iszero\n      tag_524\n      jumpi\n        /* \"#utility.yul\":27318:27336   */\n      tag_525\n      tag_240\n      jump\t// in\n    tag_525:\n        /* \"#utility.yul\":27302:27338   */\n    tag_524:\n        /* \"#utility.yul\":27154:27345   */\n      swap3\n      swap2\n      pop\n      pop\n      jump\t// out\n        /* \"#utility.yul\":27351:27526   */\n    tag_258:\n        /* \"#utility.yul\":27491:27518   */\n      0x547765657420696e646578206f7574206f6620626f756e647300000000000000\n        /* \"#utility.yul\":27487:27488   */\n      0x00\n        /* \"#utility.yul\":27479:27485   */\n      dup3\n        /* \"#utility.yul\":27475:27489   */\n      add\n        /* \"#utility.yul\":27468:27519   */\n      mstore\n        /* \"#utility.yul\":27351:27526   */\n      pop\n      jump\t// out\n        /* \"#utility.yul\":27532:27898   */\n    tag_259:\n        /* \"#utility.yul\":27674:27677   */\n      0x00\n        /* \"#utility.yul\":27695:27762   */\n      tag_528\n        /* \"#utility.yul\":27759:27761   */\n      0x19\n        /* \"#utility.yul\":27754:27757   */\n      dup4\n        /* \"#utility.yul\":27695:27762   */\n      tag_201\n      jump\t// in\n    tag_528:\n        /* \"#utility.yul\":27688:27762   */\n      swap2\n      pop\n        /* \"#utility.yul\":27771:27864   */\n      tag_529\n        /* \"#utility.yul\":27860:27863   */\n      dup3\n        /* \"#utility.yul\":27771:27864   */\n      tag_258\n      jump\t// in\n    tag_529:\n        /* \"#utility.yul\":27889:27891   */\n      0x20\n        /* \"#utility.yul\":27884:27887   */\n      dup3\n        /* \"#utility.yul\":27880:27892   */\n      add\n        /* \"#utility.yul\":27873:27892   */\n      swap1\n      pop\n        /* \"#utility.yul\":27532:27898   */\n      swap2\n      swap1\n      pop\n      jump\t// out\n        /* \"#utility.yul\":27904:28323   */\n    tag_164:\n        /* \"#utility.yul\":28070:28074   */\n      0x00\n        /* \"#utility.yul\":28108:28110   */\n      0x20\n        /* \"#utility.yul\":28097:28106   */\n      dup3\n        /* \"#utility.yul\":28093:28111   */\n      add\n        /* \"#utility.yul\":28085:28111   */\n      swap1\n      pop\n        /* \"#utility.yul\":28157:28166   */\n      dup2\n        /* \"#utility.yul\":28151:28155   */\n      dup2\n        /* \"#utility.yul\":28147:28167   */\n      sub\n        /* \"#utility.yul\":28143:28144   */\n      0x00\n        /* \"#utility.yul\":28132:28141   */\n      dup4\n        /* \"#utility.yul\":28128:28145   */\n      add\n        /* \"#utility.yul\":28121:28168   */\n      mstore\n        /* \"#utility.yul\":28185:28316   */\n      tag_531\n        /* \"#utility.yul\":28311:28315   */\n      dup2\n        /* \"#utility.yul\":28185:28316   */\n      tag_259\n      jump\t// in\n    tag_531:\n        /* \"#utility.yul\":28177:28316   */\n      swap1\n      pop\n        /* \"#utility.yul\":27904:28323   */\n      swap2\n      swap1\n      pop\n      jump\t// out\n\n    auxdata: 0xa26469706673582212205733f4ab1ec21b7d61a6012761a2087af9517784ec048dd9b58b356b54b704ed64736f6c634300081a0033\n}\n",
				"bytecode": {
					"linkReferences": {},
					"object": "60806040526101185f60146101000a81548161ffff021916908361ffff16021790555034801561002d575f80fd5b506040516122f83803806122f8833981810160405281019061004f9190610235565b805f73ffffffffffffffffffffffffffffffffffffffff168173ffffffffffffffffffffffffffffffffffffffff16036100c0575f6040517f1e4fbdf70000000000000000000000000000000000000000000000000000000081526004016100b7919061026f565b60405180910390fd5b6100cf8161011660201b60201c565b508060015f6101000a81548173ffffffffffffffffffffffffffffffffffffffff021916908373ffffffffffffffffffffffffffffffffffffffff16021790555050610288565b5f805f9054906101000a900473ffffffffffffffffffffffffffffffffffffffff169050815f806101000a81548173ffffffffffffffffffffffffffffffffffffffff021916908373ffffffffffffffffffffffffffffffffffffffff1602179055508173ffffffffffffffffffffffffffffffffffffffff168173ffffffffffffffffffffffffffffffffffffffff167f8be0079c531659141344cd1fd0a4f28419497f9722a3daafe3b4186f6b6457e060405160405180910390a35050565b5f80fd5b5f73ffffffffffffffffffffffffffffffffffffffff82169050919050565b5f610204826101db565b9050919050565b610214816101fa565b811461021e575f80fd5b50565b5f8151905061022f8161020b565b92915050565b5f6020828403121561024a576102496101d7565b5b5f61025784828501610221565b91505092915050565b610269816101fa565b82525050565b5f6020820190506102825f830184610260565b92915050565b612063806102955f395ff3fe608060405234801561000f575f80fd5b50600436106100a7575f3560e01c8063715018a61161006f578063715018a6146101655780637c9cd2bc1461016f578063820785cc1461018b5780638da5cb5b146101bb578063c3ad5ecb146101d9578063f2fde38b14610209576100a7565b806305a1b4a9146100ab57806312e7ee1c146100df5780633d9b569f1461010f578063633782161461012b5780636eb1079714610147575b5f80fd5b6100c560048036038101906100c091906112f7565b610225565b6040516100d69594939291906113c3565b60405180910390f35b6100f960048036038101906100f4919061141b565b610316565b60405161010691906115da565b60405180910390f35b610129600480360381019061012491906112f7565b6104b1565b005b610145600480360381019061014091906112f7565b6107cb565b005b61014f610a45565b60405161015c9190611616565b60405180910390f35b61016d610a58565b005b6101896004803603810190610184919061175b565b610a6b565b005b6101a560048036038101906101a0919061141b565b610d56565b6040516101b291906117a2565b60405180910390f35b6101c3610e25565b6040516101d091906117bb565b60405180910390f35b6101f360048036038101906101ee91906117d4565b610e4c565b6040516102009190611872565b60405180910390f35b610223600480360381019061021e919061141b565b611045565b005b6002602052815f5260405f20818154811061023e575f80fd5b905f5260205f2090600502015f9150915050805f015490806001015f9054906101000a900473ffffffffffffffffffffffffffffffffffffffff1690806002018054610289906118bf565b80601f01602080910402602001604051908101604052809291908181526020018280546102b5906118bf565b80156103005780601f106102d757610100808354040283529160200191610300565b820191905f5260205f20905b8154815290600101906020018083116102e357829003601f168201915b5050505050908060030154908060040154905085565b606060025f8373ffffffffffffffffffffffffffffffffffffffff1673ffffffffffffffffffffffffffffffffffffffff1681526020019081526020015f20805480602002602001604051908101604052809291908181526020015f905b828210156104a6578382905f5260205f2090600502016040518060a00160405290815f8201548152602001600182015f9054906101000a900473ffffffffffffffffffffffffffffffffffffffff1673ffffffffffffffffffffffffffffffffffffffff1673ffffffffffffffffffffffffffffffffffffffff168152602001600282018054610403906118bf565b80601f016020809104026020016040519081016040528092919081815260200182805461042f906118bf565b801561047a5780601f106104515761010080835404028352916020019161047a565b820191905f5260205f20905b81548152906001019060200180831161045d57829003601f168201915b505050505081526020016003820154815260200160048201548152505081526020019060010190610374565b505050509050919050565b5f60015f9054906101000a900473ffffffffffffffffffffffffffffffffffffffff1673ffffffffffffffffffffffffffffffffffffffff16630f53a470336040518263ffffffff1660e01b815260040161050c91906117bb565b5f60405180830381865afa158015610526573d5f803e3d5ffd5b505050506040513d5f823e3d601f19601f8201168201806040525081019061054e91906119ea565b90505f815f01515111610596576040517f08c379a000000000000000000000000000000000000000000000000000000000815260040161058d90611a7b565b60405180910390fd5b60025f8473ffffffffffffffffffffffffffffffffffffffff1673ffffffffffffffffffffffffffffffffffffffff1681526020019081526020015f20805490508210610618576040517f08c379a000000000000000000000000000000000000000000000000000000000815260040161060f90611ae3565b60405180910390fd5b5f60025f8573ffffffffffffffffffffffffffffffffffffffff1673ffffffffffffffffffffffffffffffffffffffff1681526020019081526020015f20838154811061066857610667611b01565b5b905f5260205f20906005020160040154116106b8576040517f08c379a00000000000000000000000000000000000000000000000000000000081526004016106af90611b78565b60405180910390fd5b60025f8473ffffffffffffffffffffffffffffffffffffffff1673ffffffffffffffffffffffffffffffffffffffff1681526020019081526020015f20828154811061070757610706611b01565b5b905f5260205f2090600502016004015f81548092919061072690611bc3565b91905055507f762c2616349603ac16eba0de8e6141b79129a07ab63bd99e0a80b3a47171694333848460025f8873ffffffffffffffffffffffffffffffffffffffff1673ffffffffffffffffffffffffffffffffffffffff1681526020019081526020015f20868154811061079e5761079d611b01565b5b905f5260205f209060050201600401546040516107be9493929190611bea565b60405180910390a1505050565b5f60015f9054906101000a900473ffffffffffffffffffffffffffffffffffffffff1673ffffffffffffffffffffffffffffffffffffffff16630f53a470336040518263ffffffff1660e01b815260040161082691906117bb565b5f60405180830381865afa158015610840573d5f803e3d5ffd5b505050506040513d5f823e3d601f19601f8201168201806040525081019061086891906119ea565b90505f815f015151116108b0576040517f08c379a00000000000000000000000000000000000000000000000000000000081526004016108a790611a7b565b60405180910390fd5b60025f8473ffffffffffffffffffffffffffffffffffffffff1673ffffffffffffffffffffffffffffffffffffffff1681526020019081526020015f20805490508210610932576040517f08c379a000000000000000000000000000000000000000000000000000000000815260040161092990611ae3565b60405180910390fd5b60025f8473ffffffffffffffffffffffffffffffffffffffff1673ffffffffffffffffffffffffffffffffffffffff1681526020019081526020015f20828154811061098157610980611b01565b5b905f5260205f2090600502016004015f8154809291906109a090611c2d565b91905055507fe8a76fc0f16d11a00d1e93b689b63d76cf60af914dd3d915375dc41d01a0c3c833848460025f8873ffffffffffffffffffffffffffffffffffffffff1673ffffffffffffffffffffffffffffffffffffffff1681526020019081526020015f208681548110610a1857610a17611b01565b5b905f5260205f20906005020160040154604051610a389493929190611bea565b60405180910390a1505050565b5f60149054906101000a900461ffff1681565b610a606110c9565b610a695f611150565b565b5f60015f9054906101000a900473ffffffffffffffffffffffffffffffffffffffff1673ffffffffffffffffffffffffffffffffffffffff16630f53a470336040518263ffffffff1660e01b8152600401610ac691906117bb565b5f60405180830381865afa158015610ae0573d5f803e3d5ffd5b505050506040513d5f823e3d601f19601f82011682018060405250810190610b0891906119ea565b90505f815f01515111610b50576040517f08c379a0000000000000000000000000000000000000000000000000000000008152600401610b4790611a7b565b60405180910390fd5b5f60149054906101000a900461ffff1661ffff1682511115610ba7576040517f08c379a0000000000000000000000000000000000000000000000000000000008152600401610b9e90611cbe565b60405180910390fd5b5f6040518060a0016040528060025f3373ffffffffffffffffffffffffffffffffffffffff1673ffffffffffffffffffffffffffffffffffffffff1681526020019081526020015f208054905081526020013373ffffffffffffffffffffffffffffffffffffffff1681526020018481526020014281526020015f815250905060025f3373ffffffffffffffffffffffffffffffffffffffff1673ffffffffffffffffffffffffffffffffffffffff1681526020019081526020015f2081908060018154018082558091505060019003905f5260205f2090600502015f909190919091505f820151815f01556020820151816001015f6101000a81548173ffffffffffffffffffffffffffffffffffffffff021916908373ffffffffffffffffffffffffffffffffffffffff1602179055506040820151816002019081610cee9190611e79565b50606082015181600301556080820151816004015550507f16fd3c13e9d46923e0a8bce11c7b473ec508a72e6c96cd2404b29ce972afc29e815f0151826020015183604001518460600151604051610d499493929190611f48565b60405180910390a1505050565b5f805f5b60025f8573ffffffffffffffffffffffffffffffffffffffff1673ffffffffffffffffffffffffffffffffffffffff1681526020019081526020015f2080549050811015610e1b5760025f8573ffffffffffffffffffffffffffffffffffffffff1673ffffffffffffffffffffffffffffffffffffffff1681526020019081526020015f208181548110610df157610df0611b01565b5b905f5260205f2090600502016004015482610e0c9190611f92565b91508080600101915050610d5a565b5080915050919050565b5f805f9054906101000a900473ffffffffffffffffffffffffffffffffffffffff16905090565b610e54611218565b60025f3373ffffffffffffffffffffffffffffffffffffffff1673ffffffffffffffffffffffffffffffffffffffff1681526020019081526020015f20805490508210610ed6576040517f08c379a0000000000000000000000000000000000000000000000000000000008152600401610ecd9061200f565b60405180910390fd5b60025f3373ffffffffffffffffffffffffffffffffffffffff1673ffffffffffffffffffffffffffffffffffffffff1681526020019081526020015f208281548110610f2557610f24611b01565b5b905f5260205f2090600502016040518060a00160405290815f8201548152602001600182015f9054906101000a900473ffffffffffffffffffffffffffffffffffffffff1673ffffffffffffffffffffffffffffffffffffffff1673ffffffffffffffffffffffffffffffffffffffff168152602001600282018054610faa906118bf565b80601f0160208091040260200160405190810160405280929190818152602001828054610fd6906118bf565b80156110215780601f10610ff857610100808354040283529160200191611021565b820191905f5260205f20905b81548152906001019060200180831161100457829003601f168201915b50505050508152602001600382015481526020016004820154815250509050919050565b61104d6110c9565b5f73ffffffffffffffffffffffffffffffffffffffff168173ffffffffffffffffffffffffffffffffffffffff16036110bd575f6040517f1e4fbdf70000000000000000000000000000000000000000000000000000000081526004016110b491906117bb565b60405180910390fd5b6110c681611150565b50565b6110d1611211565b73ffffffffffffffffffffffffffffffffffffffff166110ef610e25565b73ffffffffffffffffffffffffffffffffffffffff161461114e57611112611211565b6040517f118cdaa700000000000000000000000000000000000000000000000000000000815260040161114591906117bb565b60405180910390fd5b565b5f805f9054906101000a900473ffffffffffffffffffffffffffffffffffffffff169050815f806101000a81548173ffffffffffffffffffffffffffffffffffffffff021916908373ffffffffffffffffffffffffffffffffffffffff1602179055508173ffffffffffffffffffffffffffffffffffffffff168173ffffffffffffffffffffffffffffffffffffffff167f8be0079c531659141344cd1fd0a4f28419497f9722a3daafe3b4186f6b6457e060405160405180910390a35050565b5f33905090565b6040518060a001604052805f81526020015f73ffffffffffffffffffffffffffffffffffffffff168152602001606081526020015f81526020015f81525090565b5f604051905090565b5f80fd5b5f80fd5b5f73ffffffffffffffffffffffffffffffffffffffff82169050919050565b5f6112938261126a565b9050919050565b6112a381611289565b81146112ad575f80fd5b50565b5f813590506112be8161129a565b92915050565b5f819050919050565b6112d6816112c4565b81146112e0575f80fd5b50565b5f813590506112f1816112cd565b92915050565b5f806040838503121561130d5761130c611262565b5b5f61131a858286016112b0565b925050602061132b858286016112e3565b9150509250929050565b61133e816112c4565b82525050565b61134d81611289565b82525050565b5f81519050919050565b5f82825260208201905092915050565b8281835e5f83830152505050565b5f601f19601f8301169050919050565b5f61139582611353565b61139f818561135d565b93506113af81856020860161136d565b6113b88161137b565b840191505092915050565b5f60a0820190506113d65f830188611335565b6113e36020830187611344565b81810360408301526113f5818661138b565b90506114046060830185611335565b6114116080830184611335565b9695505050505050565b5f602082840312156114305761142f611262565b5b5f61143d848285016112b0565b91505092915050565b5f81519050919050565b5f82825260208201905092915050565b5f819050602082019050919050565b611478816112c4565b82525050565b61148781611289565b82525050565b5f82825260208201905092915050565b5f6114a782611353565b6114b1818561148d565b93506114c181856020860161136d565b6114ca8161137b565b840191505092915050565b5f60a083015f8301516114ea5f86018261146f565b5060208301516114fd602086018261147e565b5060408301518482036040860152611515828261149d565b915050606083015161152a606086018261146f565b50608083015161153d608086018261146f565b508091505092915050565b5f61155383836114d5565b905092915050565b5f602082019050919050565b5f61157182611446565b61157b8185611450565b93508360208202850161158d85611460565b805f5b858110156115c857848403895281516115a98582611548565b94506115b48361155b565b925060208a01995050600181019050611590565b50829750879550505050505092915050565b5f6020820190508181035f8301526115f28184611567565b905092915050565b5f61ffff82169050919050565b611610816115fa565b82525050565b5f6020820190506116295f830184611607565b92915050565b5f80fd5b5f80fd5b7f4e487b71000000000000000000000000000000000000000000000000000000005f52604160045260245ffd5b61166d8261137b565b810181811067ffffffffffffffff8211171561168c5761168b611637565b5b80604052505050565b5f61169e611259565b90506116aa8282611664565b919050565b5f67ffffffffffffffff8211156116c9576116c8611637565b5b6116d28261137b565b9050602081019050919050565b828183375f83830152505050565b5f6116ff6116fa846116af565b611695565b90508281526020810184848401111561171b5761171a611633565b5b6117268482856116df565b509392505050565b5f82601f8301126117425761174161162f565b5b81356117528482602086016116ed565b91505092915050565b5f602082840312156117705761176f611262565b5b5f82013567ffffffffffffffff81111561178d5761178c611266565b5b6117998482850161172e565b91505092915050565b5f6020820190506117b55f830184611335565b92915050565b5f6020820190506117ce5f830184611344565b92915050565b5f602082840312156117e9576117e8611262565b5b5f6117f6848285016112e3565b91505092915050565b5f60a083015f8301516118145f86018261146f565b506020830151611827602086018261147e565b506040830151848203604086015261183f828261149d565b9150506060830151611854606086018261146f565b506080830151611867608086018261146f565b508091505092915050565b5f6020820190508181035f83015261188a81846117ff565b905092915050565b7f4e487b71000000000000000000000000000000000000000000000000000000005f52602260045260245ffd5b5f60028204905060018216806118d657607f821691505b6020821081036118e9576118e8611892565b5b50919050565b5f80fd5b5f80fd5b5f611909611904846116af565b611695565b90508281526020810184848401111561192557611924611633565b5b61193084828561136d565b509392505050565b5f82601f83011261194c5761194b61162f565b5b815161195c8482602086016118f7565b91505092915050565b5f6040828403121561197a576119796118ef565b5b6119846040611695565b90505f82015167ffffffffffffffff8111156119a3576119a26118f3565b5b6119af84828501611938565b5f83015250602082015167ffffffffffffffff8111156119d2576119d16118f3565b5b6119de84828501611938565b60208301525092915050565b5f602082840312156119ff576119fe611262565b5b5f82015167ffffffffffffffff811115611a1c57611a1b611266565b5b611a2884828501611965565b91505092915050565b7f55534552204e4f542052454749535445524544000000000000000000000000005f82015250565b5f611a6560138361135d565b9150611a7082611a31565b602082019050919050565b5f6020820190508181035f830152611a9281611a59565b9050919050565b7f547765657420646f6573206e6f742065786973740000000000000000000000005f82015250565b5f611acd60148361135d565b9150611ad882611a99565b602082019050919050565b5f6020820190508181035f830152611afa81611ac1565b9050919050565b7f4e487b71000000000000000000000000000000000000000000000000000000005f52603260045260245ffd5b7f547765657420686173206e6f206c696b657300000000000000000000000000005f82015250565b5f611b6260128361135d565b9150611b6d82611b2e565b602082019050919050565b5f6020820190508181035f830152611b8f81611b56565b9050919050565b7f4e487b71000000000000000000000000000000000000000000000000000000005f52601160045260245ffd5b5f611bcd826112c4565b91505f8203611bdf57611bde611b96565b5b600182039050919050565b5f608082019050611bfd5f830187611344565b611c0a6020830186611344565b611c176040830185611335565b611c246060830184611335565b95945050505050565b5f611c37826112c4565b91507fffffffffffffffffffffffffffffffffffffffffffffffffffffffffffffffff8203611c6957611c68611b96565b5b600182019050919050565b7f547765657420697320746f6f206c6f6e670000000000000000000000000000005f82015250565b5f611ca860118361135d565b9150611cb382611c74565b602082019050919050565b5f6020820190508181035f830152611cd581611c9c565b9050919050565b5f819050815f5260205f209050919050565b5f6020601f8301049050919050565b5f82821b905092915050565b5f60088302611d387fffffffffffffffffffffffffffffffffffffffffffffffffffffffffffffffff82611cfd565b611d428683611cfd565b95508019841693508086168417925050509392505050565b5f819050919050565b5f611d7d611d78611d73846112c4565b611d5a565b6112c4565b9050919050565b5f819050919050565b611d9683611d63565b611daa611da282611d84565b848454611d09565b825550505050565b5f90565b611dbe611db2565b611dc9818484611d8d565b505050565b5b81811015611dec57611de15f82611db6565b600181019050611dcf565b5050565b601f821115611e3157611e0281611cdc565b611e0b84611cee565b81016020851015611e1a578190505b611e2e611e2685611cee565b830182611dce565b50505b505050565b5f82821c905092915050565b5f611e515f1984600802611e36565b1980831691505092915050565b5f611e698383611e42565b9150826002028217905092915050565b611e8282611353565b67ffffffffffffffff811115611e9b57611e9a611637565b5b611ea582546118bf565b611eb0828285611df0565b5f60209050601f831160018114611ee1575f8415611ecf578287015190505b611ed98582611e5e565b865550611f40565b601f198416611eef86611cdc565b5f5b82811015611f1657848901518255600182019150602085019450602081019050611ef1565b86831015611f335784890151611f2f601f891682611e42565b8355505b6001600288020188555050505b505050505050565b5f608082019050611f5b5f830187611335565b611f686020830186611344565b8181036040830152611f7a818561138b565b9050611f896060830184611335565b95945050505050565b5f611f9c826112c4565b9150611fa7836112c4565b9250828201905080821115611fbf57611fbe611b96565b5b92915050565b7f547765657420696e646578206f7574206f6620626f756e6473000000000000005f82015250565b5f611ff960198361135d565b915061200482611fc5565b602082019050919050565b5f6020820190508181035f83015261202681611fed565b905091905056fea26469706673582212205733f4ab1ec21b7d61a6012761a2087af9517784ec048dd9b58b356b54b704ed64736f6c634300081a0033",
					"opcodes": "PUSH1 0x80 PUSH1 0x40 MSTORE PUSH2 0x118 PUSH0 PUSH1 0x14 PUSH2 0x100 EXP DUP2 SLOAD DUP2 PUSH2 0xFFFF MUL NOT AND SWAP1 DUP4 PUSH2 0xFFFF AND MUL OR SWAP1 SSTORE POP CALLVALUE DUP1 ISZERO PUSH2 0x2D JUMPI PUSH0 DUP1 REVERT JUMPDEST POP PUSH1 0x40 MLOAD PUSH2 0x22F8 CODESIZE SUB DUP1 PUSH2 0x22F8 DUP4 CODECOPY DUP2 DUP2 ADD PUSH1 0x40 MSTORE DUP2 ADD SWAP1 PUSH2 0x4F SWAP2 SWAP1 PUSH2 0x235 JUMP JUMPDEST DUP1 PUSH0 PUSH20 0xFFFFFFFFFFFFFFFFFFFFFFFFFFFFFFFFFFFFFFFF AND DUP2 PUSH20 0xFFFFFFFFFFFFFFFFFFFFFFFFFFFFFFFFFFFFFFFF AND SUB PUSH2 0xC0 JUMPI PUSH0 PUSH1 0x40 MLOAD PUSH32 0x1E4FBDF700000000000000000000000000000000000000000000000000000000 DUP2 MSTORE PUSH1 0x4 ADD PUSH2 0xB7 SWAP2 SWAP1 PUSH2 0x26F JUMP JUMPDEST PUSH1 0x40 MLOAD DUP1 SWAP2 SUB SWAP1 REVERT JUMPDEST PUSH2 0xCF DUP2 PUSH2 0x116 PUSH1 0x20 SHL PUSH1 0x20 SHR JUMP JUMPDEST POP DUP1 PUSH1 0x1 PUSH0 PUSH2 0x100 EXP DUP2 SLOAD DUP2 PUSH20 0xFFFFFFFFFFFFFFFFFFFFFFFFFFFFFFFFFFFFFFFF MUL NOT AND SWAP1 DUP4 PUSH20 0xFFFFFFFFFFFFFFFFFFFFFFFFFFFFFFFFFFFFFFFF AND MUL OR SWAP1 SSTORE POP POP PUSH2 0x288 JUMP JUMPDEST PUSH0 DUP1 PUSH0 SWAP1 SLOAD SWAP1 PUSH2 0x100 EXP SWAP1 DIV PUSH20 0xFFFFFFFFFFFFFFFFFFFFFFFFFFFFFFFFFFFFFFFF AND SWAP1 POP DUP2 PUSH0 DUP1 PUSH2 0x100 EXP DUP2 SLOAD DUP2 PUSH20 0xFFFFFFFFFFFFFFFFFFFFFFFFFFFFFFFFFFFFFFFF MUL NOT AND SWAP1 DUP4 PUSH20 0xFFFFFFFFFFFFFFFFFFFFFFFFFFFFFFFFFFFFFFFF AND MUL OR SWAP1 SSTORE POP DUP2 PUSH20 0xFFFFFFFFFFFFFFFFFFFFFFFFFFFFFFFFFFFFFFFF AND DUP2 PUSH20 0xFFFFFFFFFFFFFFFFFFFFFFFFFFFFFFFFFFFFFFFF AND PUSH32 0x8BE0079C531659141344CD1FD0A4F28419497F9722A3DAAFE3B4186F6B6457E0 PUSH1 0x40 MLOAD PUSH1 0x40 MLOAD DUP1 SWAP2 SUB SWAP1 LOG3 POP POP JUMP JUMPDEST PUSH0 DUP1 REVERT JUMPDEST PUSH0 PUSH20 0xFFFFFFFFFFFFFFFFFFFFFFFFFFFFFFFFFFFFFFFF DUP3 AND SWAP1 POP SWAP2 SWAP1 POP JUMP JUMPDEST PUSH0 PUSH2 0x204 DUP3 PUSH2 0x1DB JUMP JUMPDEST SWAP1 POP SWAP2 SWAP1 POP JUMP JUMPDEST PUSH2 0x214 DUP2 PUSH2 0x1FA JUMP JUMPDEST DUP2 EQ PUSH2 0x21E JUMPI PUSH0 DUP1 REVERT JUMPDEST POP JUMP JUMPDEST PUSH0 DUP2 MLOAD SWAP1 POP PUSH2 0x22F DUP2 PUSH2 0x20B JUMP JUMPDEST SWAP3 SWAP2 POP POP JUMP JUMPDEST PUSH0 PUSH1 0x20 DUP3 DUP5 SUB SLT ISZERO PUSH2 0x24A JUMPI PUSH2 0x249 PUSH2 0x1D7 JUMP JUMPDEST JUMPDEST PUSH0 PUSH2 0x257 DUP5 DUP3 DUP6 ADD PUSH2 0x221 JUMP JUMPDEST SWAP2 POP POP SWAP3 SWAP2 POP POP JUMP JUMPDEST PUSH2 0x269 DUP2 PUSH2 0x1FA JUMP JUMPDEST DUP3 MSTORE POP POP JUMP JUMPDEST PUSH0 PUSH1 0x20 DUP3 ADD SWAP1 POP PUSH2 0x282 PUSH0 DUP4 ADD DUP5 PUSH2 0x260 JUMP JUMPDEST SWAP3 SWAP2 POP POP JUMP JUMPDEST PUSH2 0x2063 DUP1 PUSH2 0x295 PUSH0 CODECOPY PUSH0 RETURN INVALID PUSH1 0x80 PUSH1 0x40 MSTORE CALLVALUE DUP1 ISZERO PUSH2 0xF JUMPI PUSH0 DUP1 REVERT JUMPDEST POP PUSH1 0x4 CALLDATASIZE LT PUSH2 0xA7 JUMPI PUSH0 CALLDATALOAD PUSH1 0xE0 SHR DUP1 PUSH4 0x715018A6 GT PUSH2 0x6F JUMPI DUP1 PUSH4 0x715018A6 EQ PUSH2 0x165 JUMPI DUP1 PUSH4 0x7C9CD2BC EQ PUSH2 0x16F JUMPI DUP1 PUSH4 0x820785CC EQ PUSH2 0x18B JUMPI DUP1 PUSH4 0x8DA5CB5B EQ PUSH2 0x1BB JUMPI DUP1 PUSH4 0xC3AD5ECB EQ PUSH2 0x1D9 JUMPI DUP1 PUSH4 0xF2FDE38B EQ PUSH2 0x209 JUMPI PUSH2 0xA7 JUMP JUMPDEST DUP1 PUSH4 0x5A1B4A9 EQ PUSH2 0xAB JUMPI DUP1 PUSH4 0x12E7EE1C EQ PUSH2 0xDF JUMPI DUP1 PUSH4 0x3D9B569F EQ PUSH2 0x10F JUMPI DUP1 PUSH4 0x63378216 EQ PUSH2 0x12B JUMPI DUP1 PUSH4 0x6EB10797 EQ PUSH2 0x147 JUMPI JUMPDEST PUSH0 DUP1 REVERT JUMPDEST PUSH2 0xC5 PUSH1 0x4 DUP1 CALLDATASIZE SUB DUP2 ADD SWAP1 PUSH2 0xC0 SWAP2 SWAP1 PUSH2 0x12F7 JUMP JUMPDEST PUSH2 0x225 JUMP JUMPDEST PUSH1 0x40 MLOAD PUSH2 0xD6 SWAP6 SWAP5 SWAP4 SWAP3 SWAP2 SWAP1 PUSH2 0x13C3 JUMP JUMPDEST PUSH1 0x40 MLOAD DUP1 SWAP2 SUB SWAP1 RETURN JUMPDEST PUSH2 0xF9 PUSH1 0x4 DUP1 CALLDATASIZE SUB DUP2 ADD SWAP1 PUSH2 0xF4 SWAP2 SWAP1 PUSH2 0x141B JUMP JUMPDEST PUSH2 0x316 JUMP JUMPDEST PUSH1 0x40 MLOAD PUSH2 0x106 SWAP2 SWAP1 PUSH2 0x15DA JUMP JUMPDEST PUSH1 0x40 MLOAD DUP1 SWAP2 SUB SWAP1 RETURN JUMPDEST PUSH2 0x129 PUSH1 0x4 DUP1 CALLDATASIZE SUB DUP2 ADD SWAP1 PUSH2 0x124 SWAP2 SWAP1 PUSH2 0x12F7 JUMP JUMPDEST PUSH2 0x4B1 JUMP JUMPDEST STOP JUMPDEST PUSH2 0x145 PUSH1 0x4 DUP1 CALLDATASIZE SUB DUP2 ADD SWAP1 PUSH2 0x140 SWAP2 SWAP1 PUSH2 0x12F7 JUMP JUMPDEST PUSH2 0x7CB JUMP JUMPDEST STOP JUMPDEST PUSH2 0x14F PUSH2 0xA45 JUMP JUMPDEST PUSH1 0x40 MLOAD PUSH2 0x15C SWAP2 SWAP1 PUSH2 0x1616 JUMP JUMPDEST PUSH1 0x40 MLOAD DUP1 SWAP2 SUB SWAP1 RETURN JUMPDEST PUSH2 0x16D PUSH2 0xA58 JUMP JUMPDEST STOP JUMPDEST PUSH2 0x189 PUSH1 0x4 DUP1 CALLDATASIZE SUB DUP2 ADD SWAP1 PUSH2 0x184 SWAP2 SWAP1 PUSH2 0x175B JUMP JUMPDEST PUSH2 0xA6B JUMP JUMPDEST STOP JUMPDEST PUSH2 0x1A5 PUSH1 0x4 DUP1 CALLDATASIZE SUB DUP2 ADD SWAP1 PUSH2 0x1A0 SWAP2 SWAP1 PUSH2 0x141B JUMP JUMPDEST PUSH2 0xD56 JUMP JUMPDEST PUSH1 0x40 MLOAD PUSH2 0x1B2 SWAP2 SWAP1 PUSH2 0x17A2 JUMP JUMPDEST PUSH1 0x40 MLOAD DUP1 SWAP2 SUB SWAP1 RETURN JUMPDEST PUSH2 0x1C3 PUSH2 0xE25 JUMP JUMPDEST PUSH1 0x40 MLOAD PUSH2 0x1D0 SWAP2 SWAP1 PUSH2 0x17BB JUMP JUMPDEST PUSH1 0x40 MLOAD DUP1 SWAP2 SUB SWAP1 RETURN JUMPDEST PUSH2 0x1F3 PUSH1 0x4 DUP1 CALLDATASIZE SUB DUP2 ADD SWAP1 PUSH2 0x1EE SWAP2 SWAP1 PUSH2 0x17D4 JUMP JUMPDEST PUSH2 0xE4C JUMP JUMPDEST PUSH1 0x40 MLOAD PUSH2 0x200 SWAP2 SWAP1 PUSH2 0x1872 JUMP JUMPDEST PUSH1 0x40 MLOAD DUP1 SWAP2 SUB SWAP1 RETURN JUMPDEST PUSH2 0x223 PUSH1 0x4 DUP1 CALLDATASIZE SUB DUP2 ADD SWAP1 PUSH2 0x21E SWAP2 SWAP1 PUSH2 0x141B JUMP JUMPDEST PUSH2 0x1045 JUMP JUMPDEST STOP JUMPDEST PUSH1 0x2 PUSH1 0x20 MSTORE DUP2 PUSH0 MSTORE PUSH1 0x40 PUSH0 KECCAK256 DUP2 DUP2 SLOAD DUP2 LT PUSH2 0x23E JUMPI PUSH0 DUP1 REVERT JUMPDEST SWAP1 PUSH0 MSTORE PUSH1 0x20 PUSH0 KECCAK256 SWAP1 PUSH1 0x5 MUL ADD PUSH0 SWAP2 POP SWAP2 POP POP DUP1 PUSH0 ADD SLOAD SWAP1 DUP1 PUSH1 0x1 ADD PUSH0 SWAP1 SLOAD SWAP1 PUSH2 0x100 EXP SWAP1 DIV PUSH20 0xFFFFFFFFFFFFFFFFFFFFFFFFFFFFFFFFFFFFFFFF AND SWAP1 DUP1 PUSH1 0x2 ADD DUP1 SLOAD PUSH2 0x289 SWAP1 PUSH2 0x18BF JUMP JUMPDEST DUP1 PUSH1 0x1F ADD PUSH1 0x20 DUP1 SWAP2 DIV MUL PUSH1 0x20 ADD PUSH1 0x40 MLOAD SWAP1 DUP2 ADD PUSH1 0x40 MSTORE DUP1 SWAP3 SWAP2 SWAP1 DUP2 DUP2 MSTORE PUSH1 0x20 ADD DUP3 DUP1 SLOAD PUSH2 0x2B5 SWAP1 PUSH2 0x18BF JUMP JUMPDEST DUP1 ISZERO PUSH2 0x300 JUMPI DUP1 PUSH1 0x1F LT PUSH2 0x2D7 JUMPI PUSH2 0x100 DUP1 DUP4 SLOAD DIV MUL DUP4 MSTORE SWAP2 PUSH1 0x20 ADD SWAP2 PUSH2 0x300 JUMP JUMPDEST DUP3 ADD SWAP2 SWAP1 PUSH0 MSTORE PUSH1 0x20 PUSH0 KECCAK256 SWAP1 JUMPDEST DUP2 SLOAD DUP2 MSTORE SWAP1 PUSH1 0x1 ADD SWAP1 PUSH1 0x20 ADD DUP1 DUP4 GT PUSH2 0x2E3 JUMPI DUP3 SWAP1 SUB PUSH1 0x1F AND DUP3 ADD SWAP2 JUMPDEST POP POP POP POP POP SWAP1 DUP1 PUSH1 0x3 ADD SLOAD SWAP1 DUP1 PUSH1 0x4 ADD SLOAD SWAP1 POP DUP6 JUMP JUMPDEST PUSH1 0x60 PUSH1 0x2 PUSH0 DUP4 PUSH20 0xFFFFFFFFFFFFFFFFFFFFFFFFFFFFFFFFFFFFFFFF AND PUSH20 0xFFFFFFFFFFFFFFFFFFFFFFFFFFFFFFFFFFFFFFFF AND DUP2 MSTORE PUSH1 0x20 ADD SWAP1 DUP2 MSTORE PUSH1 0x20 ADD PUSH0 KECCAK256 DUP1 SLOAD DUP1 PUSH1 0x20 MUL PUSH1 0x20 ADD PUSH1 0x40 MLOAD SWAP1 DUP2 ADD PUSH1 0x40 MSTORE DUP1 SWAP3 SWAP2 SWAP1 DUP2 DUP2 MSTORE PUSH1 0x20 ADD PUSH0 SWAP1 JUMPDEST DUP3 DUP3 LT ISZERO PUSH2 0x4A6 JUMPI DUP4 DUP3 SWAP1 PUSH0 MSTORE PUSH1 0x20 PUSH0 KECCAK256 SWAP1 PUSH1 0x5 MUL ADD PUSH1 0x40 MLOAD DUP1 PUSH1 0xA0 ADD PUSH1 0x40 MSTORE SWAP1 DUP2 PUSH0 DUP3 ADD SLOAD DUP2 MSTORE PUSH1 0x20 ADD PUSH1 0x1 DUP3 ADD PUSH0 SWAP1 SLOAD SWAP1 PUSH2 0x100 EXP SWAP1 DIV PUSH20 0xFFFFFFFFFFFFFFFFFFFFFFFFFFFFFFFFFFFFFFFF AND PUSH20 0xFFFFFFFFFFFFFFFFFFFFFFFFFFFFFFFFFFFFFFFF AND PUSH20 0xFFFFFFFFFFFFFFFFFFFFFFFFFFFFFFFFFFFFFFFF AND DUP2 MSTORE PUSH1 0x20 ADD PUSH1 0x2 DUP3 ADD DUP1 SLOAD PUSH2 0x403 SWAP1 PUSH2 0x18BF JUMP JUMPDEST DUP1 PUSH1 0x1F ADD PUSH1 0x20 DUP1 SWAP2 DIV MUL PUSH1 0x20 ADD PUSH1 0x40 MLOAD SWAP1 DUP2 ADD PUSH1 0x40 MSTORE DUP1 SWAP3 SWAP2 SWAP1 DUP2 DUP2 MSTORE PUSH1 0x20 ADD DUP3 DUP1 SLOAD PUSH2 0x42F SWAP1 PUSH2 0x18BF JUMP JUMPDEST DUP1 ISZERO PUSH2 0x47A JUMPI DUP1 PUSH1 0x1F LT PUSH2 0x451 JUMPI PUSH2 0x100 DUP1 DUP4 SLOAD DIV MUL DUP4 MSTORE SWAP2 PUSH1 0x20 ADD SWAP2 PUSH2 0x47A JUMP JUMPDEST DUP3 ADD SWAP2 SWAP1 PUSH0 MSTORE PUSH1 0x20 PUSH0 KECCAK256 SWAP1 JUMPDEST DUP2 SLOAD DUP2 MSTORE SWAP1 PUSH1 0x1 ADD SWAP1 PUSH1 0x20 ADD DUP1 DUP4 GT PUSH2 0x45D JUMPI DUP3 SWAP1 SUB PUSH1 0x1F AND DUP3 ADD SWAP2 JUMPDEST POP POP POP POP POP DUP2 MSTORE PUSH1 0x20 ADD PUSH1 0x3 DUP3 ADD SLOAD DUP2 MSTORE PUSH1 0x20 ADD PUSH1 0x4 DUP3 ADD SLOAD DUP2 MSTORE POP POP DUP2 MSTORE PUSH1 0x20 ADD SWAP1 PUSH1 0x1 ADD SWAP1 PUSH2 0x374 JUMP JUMPDEST POP POP POP POP SWAP1 POP SWAP2 SWAP1 POP JUMP JUMPDEST PUSH0 PUSH1 0x1 PUSH0 SWAP1 SLOAD SWAP1 PUSH2 0x100 EXP SWAP1 DIV PUSH20 0xFFFFFFFFFFFFFFFFFFFFFFFFFFFFFFFFFFFFFFFF AND PUSH20 0xFFFFFFFFFFFFFFFFFFFFFFFFFFFFFFFFFFFFFFFF AND PUSH4 0xF53A470 CALLER PUSH1 0x40 MLOAD DUP3 PUSH4 0xFFFFFFFF AND PUSH1 0xE0 SHL DUP2 MSTORE PUSH1 0x4 ADD PUSH2 0x50C SWAP2 SWAP1 PUSH2 0x17BB JUMP JUMPDEST PUSH0 PUSH1 0x40 MLOAD DUP1 DUP4 SUB DUP2 DUP7 GAS STATICCALL ISZERO DUP1 ISZERO PUSH2 0x526 JUMPI RETURNDATASIZE PUSH0 DUP1 RETURNDATACOPY RETURNDATASIZE PUSH0 REVERT JUMPDEST POP POP POP POP PUSH1 0x40 MLOAD RETURNDATASIZE PUSH0 DUP3 RETURNDATACOPY RETURNDATASIZE PUSH1 0x1F NOT PUSH1 0x1F DUP3 ADD AND DUP3 ADD DUP1 PUSH1 0x40 MSTORE POP DUP2 ADD SWAP1 PUSH2 0x54E SWAP2 SWAP1 PUSH2 0x19EA JUMP JUMPDEST SWAP1 POP PUSH0 DUP2 PUSH0 ADD MLOAD MLOAD GT PUSH2 0x596 JUMPI PUSH1 0x40 MLOAD PUSH32 0x8C379A000000000000000000000000000000000000000000000000000000000 DUP2 MSTORE PUSH1 0x4 ADD PUSH2 0x58D SWAP1 PUSH2 0x1A7B JUMP JUMPDEST PUSH1 0x40 MLOAD DUP1 SWAP2 SUB SWAP1 REVERT JUMPDEST PUSH1 0x2 PUSH0 DUP5 PUSH20 0xFFFFFFFFFFFFFFFFFFFFFFFFFFFFFFFFFFFFFFFF AND PUSH20 0xFFFFFFFFFFFFFFFFFFFFFFFFFFFFFFFFFFFFFFFF AND DUP2 MSTORE PUSH1 0x20 ADD SWAP1 DUP2 MSTORE PUSH1 0x20 ADD PUSH0 KECCAK256 DUP1 SLOAD SWAP1 POP DUP3 LT PUSH2 0x618 JUMPI PUSH1 0x40 MLOAD PUSH32 0x8C379A000000000000000000000000000000000000000000000000000000000 DUP2 MSTORE PUSH1 0x4 ADD PUSH2 0x60F SWAP1 PUSH2 0x1AE3 JUMP JUMPDEST PUSH1 0x40 MLOAD DUP1 SWAP2 SUB SWAP1 REVERT JUMPDEST PUSH0 PUSH1 0x2 PUSH0 DUP6 PUSH20 0xFFFFFFFFFFFFFFFFFFFFFFFFFFFFFFFFFFFFFFFF AND PUSH20 0xFFFFFFFFFFFFFFFFFFFFFFFFFFFFFFFFFFFFFFFF AND DUP2 MSTORE PUSH1 0x20 ADD SWAP1 DUP2 MSTORE PUSH1 0x20 ADD PUSH0 KECCAK256 DUP4 DUP2 SLOAD DUP2 LT PUSH2 0x668 JUMPI PUSH2 0x667 PUSH2 0x1B01 JUMP JUMPDEST JUMPDEST SWAP1 PUSH0 MSTORE PUSH1 0x20 PUSH0 KECCAK256 SWAP1 PUSH1 0x5 MUL ADD PUSH1 0x4 ADD SLOAD GT PUSH2 0x6B8 JUMPI PUSH1 0x40 MLOAD PUSH32 0x8C379A000000000000000000000000000000000000000000000000000000000 DUP2 MSTORE PUSH1 0x4 ADD PUSH2 0x6AF SWAP1 PUSH2 0x1B78 JUMP JUMPDEST PUSH1 0x40 MLOAD DUP1 SWAP2 SUB SWAP1 REVERT JUMPDEST PUSH1 0x2 PUSH0 DUP5 PUSH20 0xFFFFFFFFFFFFFFFFFFFFFFFFFFFFFFFFFFFFFFFF AND PUSH20 0xFFFFFFFFFFFFFFFFFFFFFFFFFFFFFFFFFFFFFFFF AND DUP2 MSTORE PUSH1 0x20 ADD SWAP1 DUP2 MSTORE PUSH1 0x20 ADD PUSH0 KECCAK256 DUP3 DUP2 SLOAD DUP2 LT PUSH2 0x707 JUMPI PUSH2 0x706 PUSH2 0x1B01 JUMP JUMPDEST JUMPDEST SWAP1 PUSH0 MSTORE PUSH1 0x20 PUSH0 KECCAK256 SWAP1 PUSH1 0x5 MUL ADD PUSH1 0x4 ADD PUSH0 DUP2 SLOAD DUP1 SWAP3 SWAP2 SWAP1 PUSH2 0x726 SWAP1 PUSH2 0x1BC3 JUMP JUMPDEST SWAP2 SWAP1 POP SSTORE POP PUSH32 0x762C2616349603AC16EBA0DE8E6141B79129A07AB63BD99E0A80B3A471716943 CALLER DUP5 DUP5 PUSH1 0x2 PUSH0 DUP9 PUSH20 0xFFFFFFFFFFFFFFFFFFFFFFFFFFFFFFFFFFFFFFFF AND PUSH20 0xFFFFFFFFFFFFFFFFFFFFFFFFFFFFFFFFFFFFFFFF AND DUP2 MSTORE PUSH1 0x20 ADD SWAP1 DUP2 MSTORE PUSH1 0x20 ADD PUSH0 KECCAK256 DUP7 DUP2 SLOAD DUP2 LT PUSH2 0x79E JUMPI PUSH2 0x79D PUSH2 0x1B01 JUMP JUMPDEST JUMPDEST SWAP1 PUSH0 MSTORE PUSH1 0x20 PUSH0 KECCAK256 SWAP1 PUSH1 0x5 MUL ADD PUSH1 0x4 ADD SLOAD PUSH1 0x40 MLOAD PUSH2 0x7BE SWAP5 SWAP4 SWAP3 SWAP2 SWAP1 PUSH2 0x1BEA JUMP JUMPDEST PUSH1 0x40 MLOAD DUP1 SWAP2 SUB SWAP1 LOG1 POP POP POP JUMP JUMPDEST PUSH0 PUSH1 0x1 PUSH0 SWAP1 SLOAD SWAP1 PUSH2 0x100 EXP SWAP1 DIV PUSH20 0xFFFFFFFFFFFFFFFFFFFFFFFFFFFFFFFFFFFFFFFF AND PUSH20 0xFFFFFFFFFFFFFFFFFFFFFFFFFFFFFFFFFFFFFFFF AND PUSH4 0xF53A470 CALLER PUSH1 0x40 MLOAD DUP3 PUSH4 0xFFFFFFFF AND PUSH1 0xE0 SHL DUP2 MSTORE PUSH1 0x4 ADD PUSH2 0x826 SWAP2 SWAP1 PUSH2 0x17BB JUMP JUMPDEST PUSH0 PUSH1 0x40 MLOAD DUP1 DUP4 SUB DUP2 DUP7 GAS STATICCALL ISZERO DUP1 ISZERO PUSH2 0x840 JUMPI RETURNDATASIZE PUSH0 DUP1 RETURNDATACOPY RETURNDATASIZE PUSH0 REVERT JUMPDEST POP POP POP POP PUSH1 0x40 MLOAD RETURNDATASIZE PUSH0 DUP3 RETURNDATACOPY RETURNDATASIZE PUSH1 0x1F NOT PUSH1 0x1F DUP3 ADD AND DUP3 ADD DUP1 PUSH1 0x40 MSTORE POP DUP2 ADD SWAP1 PUSH2 0x868 SWAP2 SWAP1 PUSH2 0x19EA JUMP JUMPDEST SWAP1 POP PUSH0 DUP2 PUSH0 ADD MLOAD MLOAD GT PUSH2 0x8B0 JUMPI PUSH1 0x40 MLOAD PUSH32 0x8C379A000000000000000000000000000000000000000000000000000000000 DUP2 MSTORE PUSH1 0x4 ADD PUSH2 0x8A7 SWAP1 PUSH2 0x1A7B JUMP JUMPDEST PUSH1 0x40 MLOAD DUP1 SWAP2 SUB SWAP1 REVERT JUMPDEST PUSH1 0x2 PUSH0 DUP5 PUSH20 0xFFFFFFFFFFFFFFFFFFFFFFFFFFFFFFFFFFFFFFFF AND PUSH20 0xFFFFFFFFFFFFFFFFFFFFFFFFFFFFFFFFFFFFFFFF AND DUP2 MSTORE PUSH1 0x20 ADD SWAP1 DUP2 MSTORE PUSH1 0x20 ADD PUSH0 KECCAK256 DUP1 SLOAD SWAP1 POP DUP3 LT PUSH2 0x932 JUMPI PUSH1 0x40 MLOAD PUSH32 0x8C379A000000000000000000000000000000000000000000000000000000000 DUP2 MSTORE PUSH1 0x4 ADD PUSH2 0x929 SWAP1 PUSH2 0x1AE3 JUMP JUMPDEST PUSH1 0x40 MLOAD DUP1 SWAP2 SUB SWAP1 REVERT JUMPDEST PUSH1 0x2 PUSH0 DUP5 PUSH20 0xFFFFFFFFFFFFFFFFFFFFFFFFFFFFFFFFFFFFFFFF AND PUSH20 0xFFFFFFFFFFFFFFFFFFFFFFFFFFFFFFFFFFFFFFFF AND DUP2 MSTORE PUSH1 0x20 ADD SWAP1 DUP2 MSTORE PUSH1 0x20 ADD PUSH0 KECCAK256 DUP3 DUP2 SLOAD DUP2 LT PUSH2 0x981 JUMPI PUSH2 0x980 PUSH2 0x1B01 JUMP JUMPDEST JUMPDEST SWAP1 PUSH0 MSTORE PUSH1 0x20 PUSH0 KECCAK256 SWAP1 PUSH1 0x5 MUL ADD PUSH1 0x4 ADD PUSH0 DUP2 SLOAD DUP1 SWAP3 SWAP2 SWAP1 PUSH2 0x9A0 SWAP1 PUSH2 0x1C2D JUMP JUMPDEST SWAP2 SWAP1 POP SSTORE POP PUSH32 0xE8A76FC0F16D11A00D1E93B689B63D76CF60AF914DD3D915375DC41D01A0C3C8 CALLER DUP5 DUP5 PUSH1 0x2 PUSH0 DUP9 PUSH20 0xFFFFFFFFFFFFFFFFFFFFFFFFFFFFFFFFFFFFFFFF AND PUSH20 0xFFFFFFFFFFFFFFFFFFFFFFFFFFFFFFFFFFFFFFFF AND DUP2 MSTORE PUSH1 0x20 ADD SWAP1 DUP2 MSTORE PUSH1 0x20 ADD PUSH0 KECCAK256 DUP7 DUP2 SLOAD DUP2 LT PUSH2 0xA18 JUMPI PUSH2 0xA17 PUSH2 0x1B01 JUMP JUMPDEST JUMPDEST SWAP1 PUSH0 MSTORE PUSH1 0x20 PUSH0 KECCAK256 SWAP1 PUSH1 0x5 MUL ADD PUSH1 0x4 ADD SLOAD PUSH1 0x40 MLOAD PUSH2 0xA38 SWAP5 SWAP4 SWAP3 SWAP2 SWAP1 PUSH2 0x1BEA JUMP JUMPDEST PUSH1 0x40 MLOAD DUP1 SWAP2 SUB SWAP1 LOG1 POP POP POP JUMP JUMPDEST PUSH0 PUSH1 0x14 SWAP1 SLOAD SWAP1 PUSH2 0x100 EXP SWAP1 DIV PUSH2 0xFFFF AND DUP2 JUMP JUMPDEST PUSH2 0xA60 PUSH2 0x10C9 JUMP JUMPDEST PUSH2 0xA69 PUSH0 PUSH2 0x1150 JUMP JUMPDEST JUMP JUMPDEST PUSH0 PUSH1 0x1 PUSH0 SWAP1 SLOAD SWAP1 PUSH2 0x100 EXP SWAP1 DIV PUSH20 0xFFFFFFFFFFFFFFFFFFFFFFFFFFFFFFFFFFFFFFFF AND PUSH20 0xFFFFFFFFFFFFFFFFFFFFFFFFFFFFFFFFFFFFFFFF AND PUSH4 0xF53A470 CALLER PUSH1 0x40 MLOAD DUP3 PUSH4 0xFFFFFFFF AND PUSH1 0xE0 SHL DUP2 MSTORE PUSH1 0x4 ADD PUSH2 0xAC6 SWAP2 SWAP1 PUSH2 0x17BB JUMP JUMPDEST PUSH0 PUSH1 0x40 MLOAD DUP1 DUP4 SUB DUP2 DUP7 GAS STATICCALL ISZERO DUP1 ISZERO PUSH2 0xAE0 JUMPI RETURNDATASIZE PUSH0 DUP1 RETURNDATACOPY RETURNDATASIZE PUSH0 REVERT JUMPDEST POP POP POP POP PUSH1 0x40 MLOAD RETURNDATASIZE PUSH0 DUP3 RETURNDATACOPY RETURNDATASIZE PUSH1 0x1F NOT PUSH1 0x1F DUP3 ADD AND DUP3 ADD DUP1 PUSH1 0x40 MSTORE POP DUP2 ADD SWAP1 PUSH2 0xB08 SWAP2 SWAP1 PUSH2 0x19EA JUMP JUMPDEST SWAP1 POP PUSH0 DUP2 PUSH0 ADD MLOAD MLOAD GT PUSH2 0xB50 JUMPI PUSH1 0x40 MLOAD PUSH32 0x8C379A000000000000000000000000000000000000000000000000000000000 DUP2 MSTORE PUSH1 0x4 ADD PUSH2 0xB47 SWAP1 PUSH2 0x1A7B JUMP JUMPDEST PUSH1 0x40 MLOAD DUP1 SWAP2 SUB SWAP1 REVERT JUMPDEST PUSH0 PUSH1 0x14 SWAP1 SLOAD SWAP1 PUSH2 0x100 EXP SWAP1 DIV PUSH2 0xFFFF AND PUSH2 0xFFFF AND DUP3 MLOAD GT ISZERO PUSH2 0xBA7 JUMPI PUSH1 0x40 MLOAD PUSH32 0x8C379A000000000000000000000000000000000000000000000000000000000 DUP2 MSTORE PUSH1 0x4 ADD PUSH2 0xB9E SWAP1 PUSH2 0x1CBE JUMP JUMPDEST PUSH1 0x40 MLOAD DUP1 SWAP2 SUB SWAP1 REVERT JUMPDEST PUSH0 PUSH1 0x40 MLOAD DUP1 PUSH1 0xA0 ADD PUSH1 0x40 MSTORE DUP1 PUSH1 0x2 PUSH0 CALLER PUSH20 0xFFFFFFFFFFFFFFFFFFFFFFFFFFFFFFFFFFFFFFFF AND PUSH20 0xFFFFFFFFFFFFFFFFFFFFFFFFFFFFFFFFFFFFFFFF AND DUP2 MSTORE PUSH1 0x20 ADD SWAP1 DUP2 MSTORE PUSH1 0x20 ADD PUSH0 KECCAK256 DUP1 SLOAD SWAP1 POP DUP2 MSTORE PUSH1 0x20 ADD CALLER PUSH20 0xFFFFFFFFFFFFFFFFFFFFFFFFFFFFFFFFFFFFFFFF AND DUP2 MSTORE PUSH1 0x20 ADD DUP5 DUP2 MSTORE PUSH1 0x20 ADD TIMESTAMP DUP2 MSTORE PUSH1 0x20 ADD PUSH0 DUP2 MSTORE POP SWAP1 POP PUSH1 0x2 PUSH0 CALLER PUSH20 0xFFFFFFFFFFFFFFFFFFFFFFFFFFFFFFFFFFFFFFFF AND PUSH20 0xFFFFFFFFFFFFFFFFFFFFFFFFFFFFFFFFFFFFFFFF AND DUP2 MSTORE PUSH1 0x20 ADD SWAP1 DUP2 MSTORE PUSH1 0x20 ADD PUSH0 KECCAK256 DUP2 SWAP1 DUP1 PUSH1 0x1 DUP2 SLOAD ADD DUP1 DUP3 SSTORE DUP1 SWAP2 POP POP PUSH1 0x1 SWAP1 SUB SWAP1 PUSH0 MSTORE PUSH1 0x20 PUSH0 KECCAK256 SWAP1 PUSH1 0x5 MUL ADD PUSH0 SWAP1 SWAP2 SWAP1 SWAP2 SWAP1 SWAP2 POP PUSH0 DUP3 ADD MLOAD DUP2 PUSH0 ADD SSTORE PUSH1 0x20 DUP3 ADD MLOAD DUP2 PUSH1 0x1 ADD PUSH0 PUSH2 0x100 EXP DUP2 SLOAD DUP2 PUSH20 0xFFFFFFFFFFFFFFFFFFFFFFFFFFFFFFFFFFFFFFFF MUL NOT AND SWAP1 DUP4 PUSH20 0xFFFFFFFFFFFFFFFFFFFFFFFFFFFFFFFFFFFFFFFF AND MUL OR SWAP1 SSTORE POP PUSH1 0x40 DUP3 ADD MLOAD DUP2 PUSH1 0x2 ADD SWAP1 DUP2 PUSH2 0xCEE SWAP2 SWAP1 PUSH2 0x1E79 JUMP JUMPDEST POP PUSH1 0x60 DUP3 ADD MLOAD DUP2 PUSH1 0x3 ADD SSTORE PUSH1 0x80 DUP3 ADD MLOAD DUP2 PUSH1 0x4 ADD SSTORE POP POP PUSH32 0x16FD3C13E9D46923E0A8BCE11C7B473EC508A72E6C96CD2404B29CE972AFC29E DUP2 PUSH0 ADD MLOAD DUP3 PUSH1 0x20 ADD MLOAD DUP4 PUSH1 0x40 ADD MLOAD DUP5 PUSH1 0x60 ADD MLOAD PUSH1 0x40 MLOAD PUSH2 0xD49 SWAP5 SWAP4 SWAP3 SWAP2 SWAP1 PUSH2 0x1F48 JUMP JUMPDEST PUSH1 0x40 MLOAD DUP1 SWAP2 SUB SWAP1 LOG1 POP POP POP JUMP JUMPDEST PUSH0 DUP1 PUSH0 JUMPDEST PUSH1 0x2 PUSH0 DUP6 PUSH20 0xFFFFFFFFFFFFFFFFFFFFFFFFFFFFFFFFFFFFFFFF AND PUSH20 0xFFFFFFFFFFFFFFFFFFFFFFFFFFFFFFFFFFFFFFFF AND DUP2 MSTORE PUSH1 0x20 ADD SWAP1 DUP2 MSTORE PUSH1 0x20 ADD PUSH0 KECCAK256 DUP1 SLOAD SWAP1 POP DUP2 LT ISZERO PUSH2 0xE1B JUMPI PUSH1 0x2 PUSH0 DUP6 PUSH20 0xFFFFFFFFFFFFFFFFFFFFFFFFFFFFFFFFFFFFFFFF AND PUSH20 0xFFFFFFFFFFFFFFFFFFFFFFFFFFFFFFFFFFFFFFFF AND DUP2 MSTORE PUSH1 0x20 ADD SWAP1 DUP2 MSTORE PUSH1 0x20 ADD PUSH0 KECCAK256 DUP2 DUP2 SLOAD DUP2 LT PUSH2 0xDF1 JUMPI PUSH2 0xDF0 PUSH2 0x1B01 JUMP JUMPDEST JUMPDEST SWAP1 PUSH0 MSTORE PUSH1 0x20 PUSH0 KECCAK256 SWAP1 PUSH1 0x5 MUL ADD PUSH1 0x4 ADD SLOAD DUP3 PUSH2 0xE0C SWAP2 SWAP1 PUSH2 0x1F92 JUMP JUMPDEST SWAP2 POP DUP1 DUP1 PUSH1 0x1 ADD SWAP2 POP POP PUSH2 0xD5A JUMP JUMPDEST POP DUP1 SWAP2 POP POP SWAP2 SWAP1 POP JUMP JUMPDEST PUSH0 DUP1 PUSH0 SWAP1 SLOAD SWAP1 PUSH2 0x100 EXP SWAP1 DIV PUSH20 0xFFFFFFFFFFFFFFFFFFFFFFFFFFFFFFFFFFFFFFFF AND SWAP1 POP SWAP1 JUMP JUMPDEST PUSH2 0xE54 PUSH2 0x1218 JUMP JUMPDEST PUSH1 0x2 PUSH0 CALLER PUSH20 0xFFFFFFFFFFFFFFFFFFFFFFFFFFFFFFFFFFFFFFFF AND PUSH20 0xFFFFFFFFFFFFFFFFFFFFFFFFFFFFFFFFFFFFFFFF AND DUP2 MSTORE PUSH1 0x20 ADD SWAP1 DUP2 MSTORE PUSH1 0x20 ADD PUSH0 KECCAK256 DUP1 SLOAD SWAP1 POP DUP3 LT PUSH2 0xED6 JUMPI PUSH1 0x40 MLOAD PUSH32 0x8C379A000000000000000000000000000000000000000000000000000000000 DUP2 MSTORE PUSH1 0x4 ADD PUSH2 0xECD SWAP1 PUSH2 0x200F JUMP JUMPDEST PUSH1 0x40 MLOAD DUP1 SWAP2 SUB SWAP1 REVERT JUMPDEST PUSH1 0x2 PUSH0 CALLER PUSH20 0xFFFFFFFFFFFFFFFFFFFFFFFFFFFFFFFFFFFFFFFF AND PUSH20 0xFFFFFFFFFFFFFFFFFFFFFFFFFFFFFFFFFFFFFFFF AND DUP2 MSTORE PUSH1 0x20 ADD SWAP1 DUP2 MSTORE PUSH1 0x20 ADD PUSH0 KECCAK256 DUP3 DUP2 SLOAD DUP2 LT PUSH2 0xF25 JUMPI PUSH2 0xF24 PUSH2 0x1B01 JUMP JUMPDEST JUMPDEST SWAP1 PUSH0 MSTORE PUSH1 0x20 PUSH0 KECCAK256 SWAP1 PUSH1 0x5 MUL ADD PUSH1 0x40 MLOAD DUP1 PUSH1 0xA0 ADD PUSH1 0x40 MSTORE SWAP1 DUP2 PUSH0 DUP3 ADD SLOAD DUP2 MSTORE PUSH1 0x20 ADD PUSH1 0x1 DUP3 ADD PUSH0 SWAP1 SLOAD SWAP1 PUSH2 0x100 EXP SWAP1 DIV PUSH20 0xFFFFFFFFFFFFFFFFFFFFFFFFFFFFFFFFFFFFFFFF AND PUSH20 0xFFFFFFFFFFFFFFFFFFFFFFFFFFFFFFFFFFFFFFFF AND PUSH20 0xFFFFFFFFFFFFFFFFFFFFFFFFFFFFFFFFFFFFFFFF AND DUP2 MSTORE PUSH1 0x20 ADD PUSH1 0x2 DUP3 ADD DUP1 SLOAD PUSH2 0xFAA SWAP1 PUSH2 0x18BF JUMP JUMPDEST DUP1 PUSH1 0x1F ADD PUSH1 0x20 DUP1 SWAP2 DIV MUL PUSH1 0x20 ADD PUSH1 0x40 MLOAD SWAP1 DUP2 ADD PUSH1 0x40 MSTORE DUP1 SWAP3 SWAP2 SWAP1 DUP2 DUP2 MSTORE PUSH1 0x20 ADD DUP3 DUP1 SLOAD PUSH2 0xFD6 SWAP1 PUSH2 0x18BF JUMP JUMPDEST DUP1 ISZERO PUSH2 0x1021 JUMPI DUP1 PUSH1 0x1F LT PUSH2 0xFF8 JUMPI PUSH2 0x100 DUP1 DUP4 SLOAD DIV MUL DUP4 MSTORE SWAP2 PUSH1 0x20 ADD SWAP2 PUSH2 0x1021 JUMP JUMPDEST DUP3 ADD SWAP2 SWAP1 PUSH0 MSTORE PUSH1 0x20 PUSH0 KECCAK256 SWAP1 JUMPDEST DUP2 SLOAD DUP2 MSTORE SWAP1 PUSH1 0x1 ADD SWAP1 PUSH1 0x20 ADD DUP1 DUP4 GT PUSH2 0x1004 JUMPI DUP3 SWAP1 SUB PUSH1 0x1F AND DUP3 ADD SWAP2 JUMPDEST POP POP POP POP POP DUP2 MSTORE PUSH1 0x20 ADD PUSH1 0x3 DUP3 ADD SLOAD DUP2 MSTORE PUSH1 0x20 ADD PUSH1 0x4 DUP3 ADD SLOAD DUP2 MSTORE POP POP SWAP1 POP SWAP2 SWAP1 POP JUMP JUMPDEST PUSH2 0x104D PUSH2 0x10C9 JUMP JUMPDEST PUSH0 PUSH20 0xFFFFFFFFFFFFFFFFFFFFFFFFFFFFFFFFFFFFFFFF AND DUP2 PUSH20 0xFFFFFFFFFFFFFFFFFFFFFFFFFFFFFFFFFFFFFFFF AND SUB PUSH2 0x10BD JUMPI PUSH0 PUSH1 0x40 MLOAD PUSH32 0x1E4FBDF700000000000000000000000000000000000000000000000000000000 DUP2 MSTORE PUSH1 0x4 ADD PUSH2 0x10B4 SWAP2 SWAP1 PUSH2 0x17BB JUMP JUMPDEST PUSH1 0x40 MLOAD DUP1 SWAP2 SUB SWAP1 REVERT JUMPDEST PUSH2 0x10C6 DUP2 PUSH2 0x1150 JUMP JUMPDEST POP JUMP JUMPDEST PUSH2 0x10D1 PUSH2 0x1211 JUMP JUMPDEST PUSH20 0xFFFFFFFFFFFFFFFFFFFFFFFFFFFFFFFFFFFFFFFF AND PUSH2 0x10EF PUSH2 0xE25 JUMP JUMPDEST PUSH20 0xFFFFFFFFFFFFFFFFFFFFFFFFFFFFFFFFFFFFFFFF AND EQ PUSH2 0x114E JUMPI PUSH2 0x1112 PUSH2 0x1211 JUMP JUMPDEST PUSH1 0x40 MLOAD PUSH32 0x118CDAA700000000000000000000000000000000000000000000000000000000 DUP2 MSTORE PUSH1 0x4 ADD PUSH2 0x1145 SWAP2 SWAP1 PUSH2 0x17BB JUMP JUMPDEST PUSH1 0x40 MLOAD DUP1 SWAP2 SUB SWAP1 REVERT JUMPDEST JUMP JUMPDEST PUSH0 DUP1 PUSH0 SWAP1 SLOAD SWAP1 PUSH2 0x100 EXP SWAP1 DIV PUSH20 0xFFFFFFFFFFFFFFFFFFFFFFFFFFFFFFFFFFFFFFFF AND SWAP1 POP DUP2 PUSH0 DUP1 PUSH2 0x100 EXP DUP2 SLOAD DUP2 PUSH20 0xFFFFFFFFFFFFFFFFFFFFFFFFFFFFFFFFFFFFFFFF MUL NOT AND SWAP1 DUP4 PUSH20 0xFFFFFFFFFFFFFFFFFFFFFFFFFFFFFFFFFFFFFFFF AND MUL OR SWAP1 SSTORE POP DUP2 PUSH20 0xFFFFFFFFFFFFFFFFFFFFFFFFFFFFFFFFFFFFFFFF AND DUP2 PUSH20 0xFFFFFFFFFFFFFFFFFFFFFFFFFFFFFFFFFFFFFFFF AND PUSH32 0x8BE0079C531659141344CD1FD0A4F28419497F9722A3DAAFE3B4186F6B6457E0 PUSH1 0x40 MLOAD PUSH1 0x40 MLOAD DUP1 SWAP2 SUB SWAP1 LOG3 POP POP JUMP JUMPDEST PUSH0 CALLER SWAP1 POP SWAP1 JUMP JUMPDEST PUSH1 0x40 MLOAD DUP1 PUSH1 0xA0 ADD PUSH1 0x40 MSTORE DUP1 PUSH0 DUP2 MSTORE PUSH1 0x20 ADD PUSH0 PUSH20 0xFFFFFFFFFFFFFFFFFFFFFFFFFFFFFFFFFFFFFFFF AND DUP2 MSTORE PUSH1 0x20 ADD PUSH1 0x60 DUP2 MSTORE PUSH1 0x20 ADD PUSH0 DUP2 MSTORE PUSH1 0x20 ADD PUSH0 DUP2 MSTORE POP SWAP1 JUMP JUMPDEST PUSH0 PUSH1 0x40 MLOAD SWAP1 POP SWAP1 JUMP JUMPDEST PUSH0 DUP1 REVERT JUMPDEST PUSH0 DUP1 REVERT JUMPDEST PUSH0 PUSH20 0xFFFFFFFFFFFFFFFFFFFFFFFFFFFFFFFFFFFFFFFF DUP3 AND SWAP1 POP SWAP2 SWAP1 POP JUMP JUMPDEST PUSH0 PUSH2 0x1293 DUP3 PUSH2 0x126A JUMP JUMPDEST SWAP1 POP SWAP2 SWAP1 POP JUMP JUMPDEST PUSH2 0x12A3 DUP2 PUSH2 0x1289 JUMP JUMPDEST DUP2 EQ PUSH2 0x12AD JUMPI PUSH0 DUP1 REVERT JUMPDEST POP JUMP JUMPDEST PUSH0 DUP2 CALLDATALOAD SWAP1 POP PUSH2 0x12BE DUP2 PUSH2 0x129A JUMP JUMPDEST SWAP3 SWAP2 POP POP JUMP JUMPDEST PUSH0 DUP2 SWAP1 POP SWAP2 SWAP1 POP JUMP JUMPDEST PUSH2 0x12D6 DUP2 PUSH2 0x12C4 JUMP JUMPDEST DUP2 EQ PUSH2 0x12E0 JUMPI PUSH0 DUP1 REVERT JUMPDEST POP JUMP JUMPDEST PUSH0 DUP2 CALLDATALOAD SWAP1 POP PUSH2 0x12F1 DUP2 PUSH2 0x12CD JUMP JUMPDEST SWAP3 SWAP2 POP POP JUMP JUMPDEST PUSH0 DUP1 PUSH1 0x40 DUP4 DUP6 SUB SLT ISZERO PUSH2 0x130D JUMPI PUSH2 0x130C PUSH2 0x1262 JUMP JUMPDEST JUMPDEST PUSH0 PUSH2 0x131A DUP6 DUP3 DUP7 ADD PUSH2 0x12B0 JUMP JUMPDEST SWAP3 POP POP PUSH1 0x20 PUSH2 0x132B DUP6 DUP3 DUP7 ADD PUSH2 0x12E3 JUMP JUMPDEST SWAP2 POP POP SWAP3 POP SWAP3 SWAP1 POP JUMP JUMPDEST PUSH2 0x133E DUP2 PUSH2 0x12C4 JUMP JUMPDEST DUP3 MSTORE POP POP JUMP JUMPDEST PUSH2 0x134D DUP2 PUSH2 0x1289 JUMP JUMPDEST DUP3 MSTORE POP POP JUMP JUMPDEST PUSH0 DUP2 MLOAD SWAP1 POP SWAP2 SWAP1 POP JUMP JUMPDEST PUSH0 DUP3 DUP3 MSTORE PUSH1 0x20 DUP3 ADD SWAP1 POP SWAP3 SWAP2 POP POP JUMP JUMPDEST DUP3 DUP2 DUP4 MCOPY PUSH0 DUP4 DUP4 ADD MSTORE POP POP POP JUMP JUMPDEST PUSH0 PUSH1 0x1F NOT PUSH1 0x1F DUP4 ADD AND SWAP1 POP SWAP2 SWAP1 POP JUMP JUMPDEST PUSH0 PUSH2 0x1395 DUP3 PUSH2 0x1353 JUMP JUMPDEST PUSH2 0x139F DUP2 DUP6 PUSH2 0x135D JUMP JUMPDEST SWAP4 POP PUSH2 0x13AF DUP2 DUP6 PUSH1 0x20 DUP7 ADD PUSH2 0x136D JUMP JUMPDEST PUSH2 0x13B8 DUP2 PUSH2 0x137B JUMP JUMPDEST DUP5 ADD SWAP2 POP POP SWAP3 SWAP2 POP POP JUMP JUMPDEST PUSH0 PUSH1 0xA0 DUP3 ADD SWAP1 POP PUSH2 0x13D6 PUSH0 DUP4 ADD DUP9 PUSH2 0x1335 JUMP JUMPDEST PUSH2 0x13E3 PUSH1 0x20 DUP4 ADD DUP8 PUSH2 0x1344 JUMP JUMPDEST DUP2 DUP2 SUB PUSH1 0x40 DUP4 ADD MSTORE PUSH2 0x13F5 DUP2 DUP7 PUSH2 0x138B JUMP JUMPDEST SWAP1 POP PUSH2 0x1404 PUSH1 0x60 DUP4 ADD DUP6 PUSH2 0x1335 JUMP JUMPDEST PUSH2 0x1411 PUSH1 0x80 DUP4 ADD DUP5 PUSH2 0x1335 JUMP JUMPDEST SWAP7 SWAP6 POP POP POP POP POP POP JUMP JUMPDEST PUSH0 PUSH1 0x20 DUP3 DUP5 SUB SLT ISZERO PUSH2 0x1430 JUMPI PUSH2 0x142F PUSH2 0x1262 JUMP JUMPDEST JUMPDEST PUSH0 PUSH2 0x143D DUP5 DUP3 DUP6 ADD PUSH2 0x12B0 JUMP JUMPDEST SWAP2 POP POP SWAP3 SWAP2 POP POP JUMP JUMPDEST PUSH0 DUP2 MLOAD SWAP1 POP SWAP2 SWAP1 POP JUMP JUMPDEST PUSH0 DUP3 DUP3 MSTORE PUSH1 0x20 DUP3 ADD SWAP1 POP SWAP3 SWAP2 POP POP JUMP JUMPDEST PUSH0 DUP2 SWAP1 POP PUSH1 0x20 DUP3 ADD SWAP1 POP SWAP2 SWAP1 POP JUMP JUMPDEST PUSH2 0x1478 DUP2 PUSH2 0x12C4 JUMP JUMPDEST DUP3 MSTORE POP POP JUMP JUMPDEST PUSH2 0x1487 DUP2 PUSH2 0x1289 JUMP JUMPDEST DUP3 MSTORE POP POP JUMP JUMPDEST PUSH0 DUP3 DUP3 MSTORE PUSH1 0x20 DUP3 ADD SWAP1 POP SWAP3 SWAP2 POP POP JUMP JUMPDEST PUSH0 PUSH2 0x14A7 DUP3 PUSH2 0x1353 JUMP JUMPDEST PUSH2 0x14B1 DUP2 DUP6 PUSH2 0x148D JUMP JUMPDEST SWAP4 POP PUSH2 0x14C1 DUP2 DUP6 PUSH1 0x20 DUP7 ADD PUSH2 0x136D JUMP JUMPDEST PUSH2 0x14CA DUP2 PUSH2 0x137B JUMP JUMPDEST DUP5 ADD SWAP2 POP POP SWAP3 SWAP2 POP POP JUMP JUMPDEST PUSH0 PUSH1 0xA0 DUP4 ADD PUSH0 DUP4 ADD MLOAD PUSH2 0x14EA PUSH0 DUP7 ADD DUP3 PUSH2 0x146F JUMP JUMPDEST POP PUSH1 0x20 DUP4 ADD MLOAD PUSH2 0x14FD PUSH1 0x20 DUP7 ADD DUP3 PUSH2 0x147E JUMP JUMPDEST POP PUSH1 0x40 DUP4 ADD MLOAD DUP5 DUP3 SUB PUSH1 0x40 DUP7 ADD MSTORE PUSH2 0x1515 DUP3 DUP3 PUSH2 0x149D JUMP JUMPDEST SWAP2 POP POP PUSH1 0x60 DUP4 ADD MLOAD PUSH2 0x152A PUSH1 0x60 DUP7 ADD DUP3 PUSH2 0x146F JUMP JUMPDEST POP PUSH1 0x80 DUP4 ADD MLOAD PUSH2 0x153D PUSH1 0x80 DUP7 ADD DUP3 PUSH2 0x146F JUMP JUMPDEST POP DUP1 SWAP2 POP POP SWAP3 SWAP2 POP POP JUMP JUMPDEST PUSH0 PUSH2 0x1553 DUP4 DUP4 PUSH2 0x14D5 JUMP JUMPDEST SWAP1 POP SWAP3 SWAP2 POP POP JUMP JUMPDEST PUSH0 PUSH1 0x20 DUP3 ADD SWAP1 POP SWAP2 SWAP1 POP JUMP JUMPDEST PUSH0 PUSH2 0x1571 DUP3 PUSH2 0x1446 JUMP JUMPDEST PUSH2 0x157B DUP2 DUP6 PUSH2 0x1450 JUMP JUMPDEST SWAP4 POP DUP4 PUSH1 0x20 DUP3 MUL DUP6 ADD PUSH2 0x158D DUP6 PUSH2 0x1460 JUMP JUMPDEST DUP1 PUSH0 JUMPDEST DUP6 DUP2 LT ISZERO PUSH2 0x15C8 JUMPI DUP5 DUP5 SUB DUP10 MSTORE DUP2 MLOAD PUSH2 0x15A9 DUP6 DUP3 PUSH2 0x1548 JUMP JUMPDEST SWAP5 POP PUSH2 0x15B4 DUP4 PUSH2 0x155B JUMP JUMPDEST SWAP3 POP PUSH1 0x20 DUP11 ADD SWAP10 POP POP PUSH1 0x1 DUP2 ADD SWAP1 POP PUSH2 0x1590 JUMP JUMPDEST POP DUP3 SWAP8 POP DUP8 SWAP6 POP POP POP POP POP POP SWAP3 SWAP2 POP POP JUMP JUMPDEST PUSH0 PUSH1 0x20 DUP3 ADD SWAP1 POP DUP2 DUP2 SUB PUSH0 DUP4 ADD MSTORE PUSH2 0x15F2 DUP2 DUP5 PUSH2 0x1567 JUMP JUMPDEST SWAP1 POP SWAP3 SWAP2 POP POP JUMP JUMPDEST PUSH0 PUSH2 0xFFFF DUP3 AND SWAP1 POP SWAP2 SWAP1 POP JUMP JUMPDEST PUSH2 0x1610 DUP2 PUSH2 0x15FA JUMP JUMPDEST DUP3 MSTORE POP POP JUMP JUMPDEST PUSH0 PUSH1 0x20 DUP3 ADD SWAP1 POP PUSH2 0x1629 PUSH0 DUP4 ADD DUP5 PUSH2 0x1607 JUMP JUMPDEST SWAP3 SWAP2 POP POP JUMP JUMPDEST PUSH0 DUP1 REVERT JUMPDEST PUSH0 DUP1 REVERT JUMPDEST PUSH32 0x4E487B7100000000000000000000000000000000000000000000000000000000 PUSH0 MSTORE PUSH1 0x41 PUSH1 0x4 MSTORE PUSH1 0x24 PUSH0 REVERT JUMPDEST PUSH2 0x166D DUP3 PUSH2 0x137B JUMP JUMPDEST DUP2 ADD DUP2 DUP2 LT PUSH8 0xFFFFFFFFFFFFFFFF DUP3 GT OR ISZERO PUSH2 0x168C JUMPI PUSH2 0x168B PUSH2 0x1637 JUMP JUMPDEST JUMPDEST DUP1 PUSH1 0x40 MSTORE POP POP POP JUMP JUMPDEST PUSH0 PUSH2 0x169E PUSH2 0x1259 JUMP JUMPDEST SWAP1 POP PUSH2 0x16AA DUP3 DUP3 PUSH2 0x1664 JUMP JUMPDEST SWAP2 SWAP1 POP JUMP JUMPDEST PUSH0 PUSH8 0xFFFFFFFFFFFFFFFF DUP3 GT ISZERO PUSH2 0x16C9 JUMPI PUSH2 0x16C8 PUSH2 0x1637 JUMP JUMPDEST JUMPDEST PUSH2 0x16D2 DUP3 PUSH2 0x137B JUMP JUMPDEST SWAP1 POP PUSH1 0x20 DUP2 ADD SWAP1 POP SWAP2 SWAP1 POP JUMP JUMPDEST DUP3 DUP2 DUP4 CALLDATACOPY PUSH0 DUP4 DUP4 ADD MSTORE POP POP POP JUMP JUMPDEST PUSH0 PUSH2 0x16FF PUSH2 0x16FA DUP5 PUSH2 0x16AF JUMP JUMPDEST PUSH2 0x1695 JUMP JUMPDEST SWAP1 POP DUP3 DUP2 MSTORE PUSH1 0x20 DUP2 ADD DUP5 DUP5 DUP5 ADD GT ISZERO PUSH2 0x171B JUMPI PUSH2 0x171A PUSH2 0x1633 JUMP JUMPDEST JUMPDEST PUSH2 0x1726 DUP5 DUP3 DUP6 PUSH2 0x16DF JUMP JUMPDEST POP SWAP4 SWAP3 POP POP POP JUMP JUMPDEST PUSH0 DUP3 PUSH1 0x1F DUP4 ADD SLT PUSH2 0x1742 JUMPI PUSH2 0x1741 PUSH2 0x162F JUMP JUMPDEST JUMPDEST DUP2 CALLDATALOAD PUSH2 0x1752 DUP5 DUP3 PUSH1 0x20 DUP7 ADD PUSH2 0x16ED JUMP JUMPDEST SWAP2 POP POP SWAP3 SWAP2 POP POP JUMP JUMPDEST PUSH0 PUSH1 0x20 DUP3 DUP5 SUB SLT ISZERO PUSH2 0x1770 JUMPI PUSH2 0x176F PUSH2 0x1262 JUMP JUMPDEST JUMPDEST PUSH0 DUP3 ADD CALLDATALOAD PUSH8 0xFFFFFFFFFFFFFFFF DUP2 GT ISZERO PUSH2 0x178D JUMPI PUSH2 0x178C PUSH2 0x1266 JUMP JUMPDEST JUMPDEST PUSH2 0x1799 DUP5 DUP3 DUP6 ADD PUSH2 0x172E JUMP JUMPDEST SWAP2 POP POP SWAP3 SWAP2 POP POP JUMP JUMPDEST PUSH0 PUSH1 0x20 DUP3 ADD SWAP1 POP PUSH2 0x17B5 PUSH0 DUP4 ADD DUP5 PUSH2 0x1335 JUMP JUMPDEST SWAP3 SWAP2 POP POP JUMP JUMPDEST PUSH0 PUSH1 0x20 DUP3 ADD SWAP1 POP PUSH2 0x17CE PUSH0 DUP4 ADD DUP5 PUSH2 0x1344 JUMP JUMPDEST SWAP3 SWAP2 POP POP JUMP JUMPDEST PUSH0 PUSH1 0x20 DUP3 DUP5 SUB SLT ISZERO PUSH2 0x17E9 JUMPI PUSH2 0x17E8 PUSH2 0x1262 JUMP JUMPDEST JUMPDEST PUSH0 PUSH2 0x17F6 DUP5 DUP3 DUP6 ADD PUSH2 0x12E3 JUMP JUMPDEST SWAP2 POP POP SWAP3 SWAP2 POP POP JUMP JUMPDEST PUSH0 PUSH1 0xA0 DUP4 ADD PUSH0 DUP4 ADD MLOAD PUSH2 0x1814 PUSH0 DUP7 ADD DUP3 PUSH2 0x146F JUMP JUMPDEST POP PUSH1 0x20 DUP4 ADD MLOAD PUSH2 0x1827 PUSH1 0x20 DUP7 ADD DUP3 PUSH2 0x147E JUMP JUMPDEST POP PUSH1 0x40 DUP4 ADD MLOAD DUP5 DUP3 SUB PUSH1 0x40 DUP7 ADD MSTORE PUSH2 0x183F DUP3 DUP3 PUSH2 0x149D JUMP JUMPDEST SWAP2 POP POP PUSH1 0x60 DUP4 ADD MLOAD PUSH2 0x1854 PUSH1 0x60 DUP7 ADD DUP3 PUSH2 0x146F JUMP JUMPDEST POP PUSH1 0x80 DUP4 ADD MLOAD PUSH2 0x1867 PUSH1 0x80 DUP7 ADD DUP3 PUSH2 0x146F JUMP JUMPDEST POP DUP1 SWAP2 POP POP SWAP3 SWAP2 POP POP JUMP JUMPDEST PUSH0 PUSH1 0x20 DUP3 ADD SWAP1 POP DUP2 DUP2 SUB PUSH0 DUP4 ADD MSTORE PUSH2 0x188A DUP2 DUP5 PUSH2 0x17FF JUMP JUMPDEST SWAP1 POP SWAP3 SWAP2 POP POP JUMP JUMPDEST PUSH32 0x4E487B7100000000000000000000000000000000000000000000000000000000 PUSH0 MSTORE PUSH1 0x22 PUSH1 0x4 MSTORE PUSH1 0x24 PUSH0 REVERT JUMPDEST PUSH0 PUSH1 0x2 DUP3 DIV SWAP1 POP PUSH1 0x1 DUP3 AND DUP1 PUSH2 0x18D6 JUMPI PUSH1 0x7F DUP3 AND SWAP2 POP JUMPDEST PUSH1 0x20 DUP3 LT DUP2 SUB PUSH2 0x18E9 JUMPI PUSH2 0x18E8 PUSH2 0x1892 JUMP JUMPDEST JUMPDEST POP SWAP2 SWAP1 POP JUMP JUMPDEST PUSH0 DUP1 REVERT JUMPDEST PUSH0 DUP1 REVERT JUMPDEST PUSH0 PUSH2 0x1909 PUSH2 0x1904 DUP5 PUSH2 0x16AF JUMP JUMPDEST PUSH2 0x1695 JUMP JUMPDEST SWAP1 POP DUP3 DUP2 MSTORE PUSH1 0x20 DUP2 ADD DUP5 DUP5 DUP5 ADD GT ISZERO PUSH2 0x1925 JUMPI PUSH2 0x1924 PUSH2 0x1633 JUMP JUMPDEST JUMPDEST PUSH2 0x1930 DUP5 DUP3 DUP6 PUSH2 0x136D JUMP JUMPDEST POP SWAP4 SWAP3 POP POP POP JUMP JUMPDEST PUSH0 DUP3 PUSH1 0x1F DUP4 ADD SLT PUSH2 0x194C JUMPI PUSH2 0x194B PUSH2 0x162F JUMP JUMPDEST JUMPDEST DUP2 MLOAD PUSH2 0x195C DUP5 DUP3 PUSH1 0x20 DUP7 ADD PUSH2 0x18F7 JUMP JUMPDEST SWAP2 POP POP SWAP3 SWAP2 POP POP JUMP JUMPDEST PUSH0 PUSH1 0x40 DUP3 DUP5 SUB SLT ISZERO PUSH2 0x197A JUMPI PUSH2 0x1979 PUSH2 0x18EF JUMP JUMPDEST JUMPDEST PUSH2 0x1984 PUSH1 0x40 PUSH2 0x1695 JUMP JUMPDEST SWAP1 POP PUSH0 DUP3 ADD MLOAD PUSH8 0xFFFFFFFFFFFFFFFF DUP2 GT ISZERO PUSH2 0x19A3 JUMPI PUSH2 0x19A2 PUSH2 0x18F3 JUMP JUMPDEST JUMPDEST PUSH2 0x19AF DUP5 DUP3 DUP6 ADD PUSH2 0x1938 JUMP JUMPDEST PUSH0 DUP4 ADD MSTORE POP PUSH1 0x20 DUP3 ADD MLOAD PUSH8 0xFFFFFFFFFFFFFFFF DUP2 GT ISZERO PUSH2 0x19D2 JUMPI PUSH2 0x19D1 PUSH2 0x18F3 JUMP JUMPDEST JUMPDEST PUSH2 0x19DE DUP5 DUP3 DUP6 ADD PUSH2 0x1938 JUMP JUMPDEST PUSH1 0x20 DUP4 ADD MSTORE POP SWAP3 SWAP2 POP POP JUMP JUMPDEST PUSH0 PUSH1 0x20 DUP3 DUP5 SUB SLT ISZERO PUSH2 0x19FF JUMPI PUSH2 0x19FE PUSH2 0x1262 JUMP JUMPDEST JUMPDEST PUSH0 DUP3 ADD MLOAD PUSH8 0xFFFFFFFFFFFFFFFF DUP2 GT ISZERO PUSH2 0x1A1C JUMPI PUSH2 0x1A1B PUSH2 0x1266 JUMP JUMPDEST JUMPDEST PUSH2 0x1A28 DUP5 DUP3 DUP6 ADD PUSH2 0x1965 JUMP JUMPDEST SWAP2 POP POP SWAP3 SWAP2 POP POP JUMP JUMPDEST PUSH32 0x55534552204E4F54205245474953544552454400000000000000000000000000 PUSH0 DUP3 ADD MSTORE POP JUMP JUMPDEST PUSH0 PUSH2 0x1A65 PUSH1 0x13 DUP4 PUSH2 0x135D JUMP JUMPDEST SWAP2 POP PUSH2 0x1A70 DUP3 PUSH2 0x1A31 JUMP JUMPDEST PUSH1 0x20 DUP3 ADD SWAP1 POP SWAP2 SWAP1 POP JUMP JUMPDEST PUSH0 PUSH1 0x20 DUP3 ADD SWAP1 POP DUP2 DUP2 SUB PUSH0 DUP4 ADD MSTORE PUSH2 0x1A92 DUP2 PUSH2 0x1A59 JUMP JUMPDEST SWAP1 POP SWAP2 SWAP1 POP JUMP JUMPDEST PUSH32 0x547765657420646F6573206E6F74206578697374000000000000000000000000 PUSH0 DUP3 ADD MSTORE POP JUMP JUMPDEST PUSH0 PUSH2 0x1ACD PUSH1 0x14 DUP4 PUSH2 0x135D JUMP JUMPDEST SWAP2 POP PUSH2 0x1AD8 DUP3 PUSH2 0x1A99 JUMP JUMPDEST PUSH1 0x20 DUP3 ADD SWAP1 POP SWAP2 SWAP1 POP JUMP JUMPDEST PUSH0 PUSH1 0x20 DUP3 ADD SWAP1 POP DUP2 DUP2 SUB PUSH0 DUP4 ADD MSTORE PUSH2 0x1AFA DUP2 PUSH2 0x1AC1 JUMP JUMPDEST SWAP1 POP SWAP2 SWAP1 POP JUMP JUMPDEST PUSH32 0x4E487B7100000000000000000000000000000000000000000000000000000000 PUSH0 MSTORE PUSH1 0x32 PUSH1 0x4 MSTORE PUSH1 0x24 PUSH0 REVERT JUMPDEST PUSH32 0x547765657420686173206E6F206C696B65730000000000000000000000000000 PUSH0 DUP3 ADD MSTORE POP JUMP JUMPDEST PUSH0 PUSH2 0x1B62 PUSH1 0x12 DUP4 PUSH2 0x135D JUMP JUMPDEST SWAP2 POP PUSH2 0x1B6D DUP3 PUSH2 0x1B2E JUMP JUMPDEST PUSH1 0x20 DUP3 ADD SWAP1 POP SWAP2 SWAP1 POP JUMP JUMPDEST PUSH0 PUSH1 0x20 DUP3 ADD SWAP1 POP DUP2 DUP2 SUB PUSH0 DUP4 ADD MSTORE PUSH2 0x1B8F DUP2 PUSH2 0x1B56 JUMP JUMPDEST SWAP1 POP SWAP2 SWAP1 POP JUMP JUMPDEST PUSH32 0x4E487B7100000000000000000000000000000000000000000000000000000000 PUSH0 MSTORE PUSH1 0x11 PUSH1 0x4 MSTORE PUSH1 0x24 PUSH0 REVERT JUMPDEST PUSH0 PUSH2 0x1BCD DUP3 PUSH2 0x12C4 JUMP JUMPDEST SWAP2 POP PUSH0 DUP3 SUB PUSH2 0x1BDF JUMPI PUSH2 0x1BDE PUSH2 0x1B96 JUMP JUMPDEST JUMPDEST PUSH1 0x1 DUP3 SUB SWAP1 POP SWAP2 SWAP1 POP JUMP JUMPDEST PUSH0 PUSH1 0x80 DUP3 ADD SWAP1 POP PUSH2 0x1BFD PUSH0 DUP4 ADD DUP8 PUSH2 0x1344 JUMP JUMPDEST PUSH2 0x1C0A PUSH1 0x20 DUP4 ADD DUP7 PUSH2 0x1344 JUMP JUMPDEST PUSH2 0x1C17 PUSH1 0x40 DUP4 ADD DUP6 PUSH2 0x1335 JUMP JUMPDEST PUSH2 0x1C24 PUSH1 0x60 DUP4 ADD DUP5 PUSH2 0x1335 JUMP JUMPDEST SWAP6 SWAP5 POP POP POP POP POP JUMP JUMPDEST PUSH0 PUSH2 0x1C37 DUP3 PUSH2 0x12C4 JUMP JUMPDEST SWAP2 POP PUSH32 0xFFFFFFFFFFFFFFFFFFFFFFFFFFFFFFFFFFFFFFFFFFFFFFFFFFFFFFFFFFFFFFFF DUP3 SUB PUSH2 0x1C69 JUMPI PUSH2 0x1C68 PUSH2 0x1B96 JUMP JUMPDEST JUMPDEST PUSH1 0x1 DUP3 ADD SWAP1 POP SWAP2 SWAP1 POP JUMP JUMPDEST PUSH32 0x547765657420697320746F6F206C6F6E67000000000000000000000000000000 PUSH0 DUP3 ADD MSTORE POP JUMP JUMPDEST PUSH0 PUSH2 0x1CA8 PUSH1 0x11 DUP4 PUSH2 0x135D JUMP JUMPDEST SWAP2 POP PUSH2 0x1CB3 DUP3 PUSH2 0x1C74 JUMP JUMPDEST PUSH1 0x20 DUP3 ADD SWAP1 POP SWAP2 SWAP1 POP JUMP JUMPDEST PUSH0 PUSH1 0x20 DUP3 ADD SWAP1 POP DUP2 DUP2 SUB PUSH0 DUP4 ADD MSTORE PUSH2 0x1CD5 DUP2 PUSH2 0x1C9C JUMP JUMPDEST SWAP1 POP SWAP2 SWAP1 POP JUMP JUMPDEST PUSH0 DUP2 SWAP1 POP DUP2 PUSH0 MSTORE PUSH1 0x20 PUSH0 KECCAK256 SWAP1 POP SWAP2 SWAP1 POP JUMP JUMPDEST PUSH0 PUSH1 0x20 PUSH1 0x1F DUP4 ADD DIV SWAP1 POP SWAP2 SWAP1 POP JUMP JUMPDEST PUSH0 DUP3 DUP3 SHL SWAP1 POP SWAP3 SWAP2 POP POP JUMP JUMPDEST PUSH0 PUSH1 0x8 DUP4 MUL PUSH2 0x1D38 PUSH32 0xFFFFFFFFFFFFFFFFFFFFFFFFFFFFFFFFFFFFFFFFFFFFFFFFFFFFFFFFFFFFFFFF DUP3 PUSH2 0x1CFD JUMP JUMPDEST PUSH2 0x1D42 DUP7 DUP4 PUSH2 0x1CFD JUMP JUMPDEST SWAP6 POP DUP1 NOT DUP5 AND SWAP4 POP DUP1 DUP7 AND DUP5 OR SWAP3 POP POP POP SWAP4 SWAP3 POP POP POP JUMP JUMPDEST PUSH0 DUP2 SWAP1 POP SWAP2 SWAP1 POP JUMP JUMPDEST PUSH0 PUSH2 0x1D7D PUSH2 0x1D78 PUSH2 0x1D73 DUP5 PUSH2 0x12C4 JUMP JUMPDEST PUSH2 0x1D5A JUMP JUMPDEST PUSH2 0x12C4 JUMP JUMPDEST SWAP1 POP SWAP2 SWAP1 POP JUMP JUMPDEST PUSH0 DUP2 SWAP1 POP SWAP2 SWAP1 POP JUMP JUMPDEST PUSH2 0x1D96 DUP4 PUSH2 0x1D63 JUMP JUMPDEST PUSH2 0x1DAA PUSH2 0x1DA2 DUP3 PUSH2 0x1D84 JUMP JUMPDEST DUP5 DUP5 SLOAD PUSH2 0x1D09 JUMP JUMPDEST DUP3 SSTORE POP POP POP POP JUMP JUMPDEST PUSH0 SWAP1 JUMP JUMPDEST PUSH2 0x1DBE PUSH2 0x1DB2 JUMP JUMPDEST PUSH2 0x1DC9 DUP2 DUP5 DUP5 PUSH2 0x1D8D JUMP JUMPDEST POP POP POP JUMP JUMPDEST JUMPDEST DUP2 DUP2 LT ISZERO PUSH2 0x1DEC JUMPI PUSH2 0x1DE1 PUSH0 DUP3 PUSH2 0x1DB6 JUMP JUMPDEST PUSH1 0x1 DUP2 ADD SWAP1 POP PUSH2 0x1DCF JUMP JUMPDEST POP POP JUMP JUMPDEST PUSH1 0x1F DUP3 GT ISZERO PUSH2 0x1E31 JUMPI PUSH2 0x1E02 DUP2 PUSH2 0x1CDC JUMP JUMPDEST PUSH2 0x1E0B DUP5 PUSH2 0x1CEE JUMP JUMPDEST DUP2 ADD PUSH1 0x20 DUP6 LT ISZERO PUSH2 0x1E1A JUMPI DUP2 SWAP1 POP JUMPDEST PUSH2 0x1E2E PUSH2 0x1E26 DUP6 PUSH2 0x1CEE JUMP JUMPDEST DUP4 ADD DUP3 PUSH2 0x1DCE JUMP JUMPDEST POP POP JUMPDEST POP POP POP JUMP JUMPDEST PUSH0 DUP3 DUP3 SHR SWAP1 POP SWAP3 SWAP2 POP POP JUMP JUMPDEST PUSH0 PUSH2 0x1E51 PUSH0 NOT DUP5 PUSH1 0x8 MUL PUSH2 0x1E36 JUMP JUMPDEST NOT DUP1 DUP4 AND SWAP2 POP POP SWAP3 SWAP2 POP POP JUMP JUMPDEST PUSH0 PUSH2 0x1E69 DUP4 DUP4 PUSH2 0x1E42 JUMP JUMPDEST SWAP2 POP DUP3 PUSH1 0x2 MUL DUP3 OR SWAP1 POP SWAP3 SWAP2 POP POP JUMP JUMPDEST PUSH2 0x1E82 DUP3 PUSH2 0x1353 JUMP JUMPDEST PUSH8 0xFFFFFFFFFFFFFFFF DUP2 GT ISZERO PUSH2 0x1E9B JUMPI PUSH2 0x1E9A PUSH2 0x1637 JUMP JUMPDEST JUMPDEST PUSH2 0x1EA5 DUP3 SLOAD PUSH2 0x18BF JUMP JUMPDEST PUSH2 0x1EB0 DUP3 DUP3 DUP6 PUSH2 0x1DF0 JUMP JUMPDEST PUSH0 PUSH1 0x20 SWAP1 POP PUSH1 0x1F DUP4 GT PUSH1 0x1 DUP2 EQ PUSH2 0x1EE1 JUMPI PUSH0 DUP5 ISZERO PUSH2 0x1ECF JUMPI DUP3 DUP8 ADD MLOAD SWAP1 POP JUMPDEST PUSH2 0x1ED9 DUP6 DUP3 PUSH2 0x1E5E JUMP JUMPDEST DUP7 SSTORE POP PUSH2 0x1F40 JUMP JUMPDEST PUSH1 0x1F NOT DUP5 AND PUSH2 0x1EEF DUP7 PUSH2 0x1CDC JUMP JUMPDEST PUSH0 JUMPDEST DUP3 DUP2 LT ISZERO PUSH2 0x1F16 JUMPI DUP5 DUP10 ADD MLOAD DUP3 SSTORE PUSH1 0x1 DUP3 ADD SWAP2 POP PUSH1 0x20 DUP6 ADD SWAP5 POP PUSH1 0x20 DUP2 ADD SWAP1 POP PUSH2 0x1EF1 JUMP JUMPDEST DUP7 DUP4 LT ISZERO PUSH2 0x1F33 JUMPI DUP5 DUP10 ADD MLOAD PUSH2 0x1F2F PUSH1 0x1F DUP10 AND DUP3 PUSH2 0x1E42 JUMP JUMPDEST DUP4 SSTORE POP JUMPDEST PUSH1 0x1 PUSH1 0x2 DUP9 MUL ADD DUP9 SSTORE POP POP POP JUMPDEST POP POP POP POP POP POP JUMP JUMPDEST PUSH0 PUSH1 0x80 DUP3 ADD SWAP1 POP PUSH2 0x1F5B PUSH0 DUP4 ADD DUP8 PUSH2 0x1335 JUMP JUMPDEST PUSH2 0x1F68 PUSH1 0x20 DUP4 ADD DUP7 PUSH2 0x1344 JUMP JUMPDEST DUP2 DUP2 SUB PUSH1 0x40 DUP4 ADD MSTORE PUSH2 0x1F7A DUP2 DUP6 PUSH2 0x138B JUMP JUMPDEST SWAP1 POP PUSH2 0x1F89 PUSH1 0x60 DUP4 ADD DUP5 PUSH2 0x1335 JUMP JUMPDEST SWAP6 SWAP5 POP POP POP POP POP JUMP JUMPDEST PUSH0 PUSH2 0x1F9C DUP3 PUSH2 0x12C4 JUMP JUMPDEST SWAP2 POP PUSH2 0x1FA7 DUP4 PUSH2 0x12C4 JUMP JUMPDEST SWAP3 POP DUP3 DUP3 ADD SWAP1 POP DUP1 DUP3 GT ISZERO PUSH2 0x1FBF JUMPI PUSH2 0x1FBE PUSH2 0x1B96 JUMP JUMPDEST JUMPDEST SWAP3 SWAP2 POP POP JUMP JUMPDEST PUSH32 0x547765657420696E646578206F7574206F6620626F756E647300000000000000 PUSH0 DUP3 ADD MSTORE POP JUMP JUMPDEST PUSH0 PUSH2 0x1FF9 PUSH1 0x19 DUP4 PUSH2 0x135D JUMP JUMPDEST SWAP2 POP PUSH2 0x2004 DUP3 PUSH2 0x1FC5 JUMP JUMPDEST PUSH1 0x20 DUP3 ADD SWAP1 POP SWAP2 SWAP1 POP JUMP JUMPDEST PUSH0 PUSH1 0x20 DUP3 ADD SWAP1 POP DUP2 DUP2 SUB PUSH0 DUP4 ADD MSTORE PUSH2 0x2026 DUP2 PUSH2 0x1FED JUMP JUMPDEST SWAP1 POP SWAP2 SWAP1 POP JUMP INVALID LOG2 PUSH5 0x6970667358 0x22 SLT KECCAK256 JUMPI CALLER DELEGATECALL 0xAB 0x1E 0xC2 SHL PUSH30 0x61A6012761A2087AF9517784EC048DD9B58B356B54B704ED64736F6C6343 STOP ADDMOD BYTE STOP CALLER "
				},
				"gasEstimates": {
					"creation": {
						"codeDepositCost": "1658200",
						"executionCost": "infinite",
						"totalCost": "infinite"
					},
					"external": {
						"MAX_TWEET_LENGTH()": "2605",
						"createTweet(string)": "infinite",
						"getAllTweets(address)": "infinite",
						"getTotalLikes(address)": "infinite",
						"getTweet(uint256)": "infinite",
						"likeTweet(address,uint256)": "infinite",
						"owner()": "2581",
						"renounceOwnership()": "infinite",
						"transferOwnership(address)": "infinite",
						"tweets(address,uint256)": "infinite",
						"unlikeTweet(address,uint256)": "infinite"
					}
				},
				"methodIdentifiers": {
					"MAX_TWEET_LENGTH()": "6eb10797",
					"createTweet(string)": "7c9cd2bc",
					"getAllTweets(address)": "12e7ee1c",
					"getTotalLikes(address)": "820785cc",
					"getTweet(uint256)": "c3ad5ecb",
					"likeTweet(address,uint256)": "63378216",
					"owner()": "8da5cb5b",
					"renounceOwnership()": "715018a6",
					"transferOwnership(address)": "f2fde38b",
					"tweets(address,uint256)": "05a1b4a9",
					"unlikeTweet(address,uint256)": "3d9b569f"
				}
			},
			"storageLayout": {
				"storage": [
					{
						"astId": 8,
						"contract": "contracts/Twitter-Interaction-Exercise-Main.sol:Twitter",
						"label": "_owner",
						"offset": 0,
						"slot": "0",
						"type": "t_address"
					},
					{
						"astId": 199,
						"contract": "contracts/Twitter-Interaction-Exercise-Main.sol:Twitter",
						"label": "MAX_TWEET_LENGTH",
						"offset": 20,
						"slot": "0",
						"type": "t_uint16"
					},
					{
						"astId": 213,
						"contract": "contracts/Twitter-Interaction-Exercise-Main.sol:Twitter",
						"label": "profileContract",
						"offset": 0,
						"slot": "1",
						"type": "t_contract(IProfile)194"
					},
					{
						"astId": 219,
						"contract": "contracts/Twitter-Interaction-Exercise-Main.sol:Twitter",
						"label": "tweets",
						"offset": 0,
						"slot": "2",
						"type": "t_mapping(t_address,t_array(t_struct(Tweet)210_storage)dyn_storage)"
					}
				],
				"types": {
					"t_address": {
						"encoding": "inplace",
						"label": "address",
						"numberOfBytes": "20"
					},
					"t_array(t_struct(Tweet)210_storage)dyn_storage": {
						"base": "t_struct(Tweet)210_storage",
						"encoding": "dynamic_array",
						"label": "struct Twitter.Tweet[]",
						"numberOfBytes": "32"
					},
					"t_contract(IProfile)194": {
						"encoding": "inplace",
						"label": "contract IProfile",
						"numberOfBytes": "20"
					},
					"t_mapping(t_address,t_array(t_struct(Tweet)210_storage)dyn_storage)": {
						"encoding": "mapping",
						"key": "t_address",
						"label": "mapping(address => struct Twitter.Tweet[])",
						"numberOfBytes": "32",
						"value": "t_array(t_struct(Tweet)210_storage)dyn_storage"
					},
					"t_string_storage": {
						"encoding": "bytes",
						"label": "string",
						"numberOfBytes": "32"
					},
					"t_struct(Tweet)210_storage": {
						"encoding": "inplace",
						"label": "struct Twitter.Tweet",
						"members": [
							{
								"astId": 201,
								"contract": "contracts/Twitter-Interaction-Exercise-Main.sol:Twitter",
								"label": "id",
								"offset": 0,
								"slot": "0",
								"type": "t_uint256"
							},
							{
								"astId": 203,
								"contract": "contracts/Twitter-Interaction-Exercise-Main.sol:Twitter",
								"label": "author",
								"offset": 0,
								"slot": "1",
								"type": "t_address"
							},
							{
								"astId": 205,
								"contract": "contracts/Twitter-Interaction-Exercise-Main.sol:Twitter",
								"label": "content",
								"offset": 0,
								"slot": "2",
								"type": "t_string_storage"
							},
							{
								"astId": 207,
								"contract": "contracts/Twitter-Interaction-Exercise-Main.sol:Twitter",
								"label": "timestamp",
								"offset": 0,
								"slot": "3",
								"type": "t_uint256"
							},
							{
								"astId": 209,
								"contract": "contracts/Twitter-Interaction-Exercise-Main.sol:Twitter",
								"label": "likes",
								"offset": 0,
								"slot": "4",
								"type": "t_uint256"
							}
						],
						"numberOfBytes": "160"
					},
					"t_uint16": {
						"encoding": "inplace",
						"label": "uint16",
						"numberOfBytes": "2"
					},
					"t_uint256": {
						"encoding": "inplace",
						"label": "uint256",
						"numberOfBytes": "32"
					}
				}
			},
			"userdoc": {
				"kind": "user",
				"methods": {},
				"version": 1
			}
		}
	}
}