{
	"data": {
		"bytecode": {
			"linkReferences": {},
			"object": "6080604052348015600e575f80fd5b50611a4c8061001c5f395ff3fe608060405234801561000f575f80fd5b5060043610610109575f3560e01c80635499fb31116100a057806385f8230b1161006f57806385f8230b1461027c578063a032a0eb14610298578063a1f24968146102b4578063cb78fd85146102e4578063ff1a22cf1461031557610109565b80635499fb311461021e5780635b0c8d701461022857806366c74acb146102445780637787d30b1461026057610109565b806344067bb6116100dc57806344067bb6146101835780634739326b146101b35780634b67f6af146101e4578063535bbfb91461020257610109565b806306fdde031461010d57806317d7de7c1461012b5780632431e87e14610149578063262a9dff14610165575b5f80fd5b610115610345565b6040516101229190610c25565b60405180910390f35b6101336103d0565b6040516101409190610c25565b60405180910390f35b610163600480360381019061015e9190610d47565b61045f565b005b61016d6104da565b60405161017a9190610dc7565b60405180910390f35b61019d60048036038101906101989190610de0565b6104ec565b6040516101aa9190610f57565b60405180910390f35b6101cd60048036038101906101c89190610faa565b610630565b6040516101db929190610fd5565b60405180910390f35b6101ec6106f1565b6040516101f99190610c25565b60405180910390f35b61021c60048036038101906102179190611003565b61077d565b005b610226610792565b005b610242600480360381019061023d919061104e565b6107a6565b005b61025e60048036038101906102599190611079565b6107c3565b005b61027a600480360381019061027591906110f8565b6107ff565b005b6102966004803603810190610291919061113f565b610839565b005b6102b260048036038101906102ad91906112c1565b6108af565b005b6102ce60048036038101906102c99190611308565b6108c1565b6040516102db9190611380565b60405180910390f35b6102fe60048036038101906102f991906113a0565b6109e5565b60405161030c929190610fd5565b60405180910390f35b61032f600480360381019061032a919061104e565b610ab1565b60405161033c9190611380565b60405180910390f35b5f80546103519061140b565b80601f016020809104026020016040519081016040528092919081815260200182805461037d9061140b565b80156103c85780601f1061039f576101008083540402835291602001916103c8565b820191905f5260205f20905b8154815290600101906020018083116103ab57829003601f168201915b505050505081565b60605f80546103de9061140b565b80601f016020809104026020016040519081016040528092919081815260200182805461040a9061140b565b80156104555780601f1061042c57610100808354040283529160200191610455565b820191905f5260205f20905b81548152906001019060200180831161043857829003601f168201915b5050505050905090565b5f60045f8673ffffffffffffffffffffffffffffffffffffffff1673ffffffffffffffffffffffffffffffffffffffff1681526020019081526020015f208260ff16815481106104b2576104b161143b565b5b905f5260205f20906002020190508383825f0191826104d292919061160f565b505050505050565b60025f9054906101000a900460ff1681565b606060045f8373ffffffffffffffffffffffffffffffffffffffff1673ffffffffffffffffffffffffffffffffffffffff1681526020019081526020015f20805480602002602001604051908101604052809291908181526020015f905b82821015610625578382905f5260205f2090600202016040518060400160405290815f8201805461057a9061140b565b80601f01602080910402602001604051908101604052809291908181526020018280546105a69061140b565b80156105f15780601f106105c8576101008083540402835291602001916105f1565b820191905f5260205f20905b8154815290600101906020018083116105d457829003601f168201915b50505050508152602001600182015f9054906101000a900460ff1660ff1660ff16815250508152602001906001019061054a565b505050509050919050565b6003818154811061063f575f80fd5b905f5260205f2090600202015f91509050805f01805461065e9061140b565b80601f016020809104026020016040519081016040528092919081815260200182805461068a9061140b565b80156106d55780601f106106ac576101008083540402835291602001916106d5565b820191905f5260205f20905b8154815290600101906020018083116106b857829003601f168201915b505050505090806001015f9054906101000a900460ff16905082565b600180546106fe9061140b565b80601f016020809104026020016040519081016040528092919081815260200182805461072a9061140b565b80156107755780601f1061074c57610100808354040283529160200191610775565b820191905f5260205f20905b81548152906001019060200180831161075857829003601f168201915b505050505081565b81815f918261078d92919061160f565b505050565b5f80600190816107a29190611703565b5050565b8060025f6101000a81548160ff021916908360ff16021790555050565b5f600382815481106107d8576107d761143b565b5b905f5260205f20906002020190508383825f0191826107f892919061160f565b5050505050565b600381908060018154018082558091505060019003905f5260205f2090600202015f9091909190915081816108349190611939565b505050565b60045f8373ffffffffffffffffffffffffffffffffffffffff1673ffffffffffffffffffffffffffffffffffffffff1681526020019081526020015f2081908060018154018082558091505060019003905f5260205f2090600202015f9091909190915081816108a99190611939565b50505050565b805f90816108bd9190611947565b5050565b6108c9610b99565b60045f8473ffffffffffffffffffffffffffffffffffffffff1673ffffffffffffffffffffffffffffffffffffffff1681526020019081526020015f208260ff168154811061091b5761091a61143b565b5b905f5260205f2090600202016040518060400160405290815f820180546109419061140b565b80601f016020809104026020016040519081016040528092919081815260200182805461096d9061140b565b80156109b85780601f1061098f576101008083540402835291602001916109b8565b820191905f5260205f20905b81548152906001019060200180831161099b57829003601f168201915b50505050508152602001600182015f9054906101000a900460ff1660ff1660ff1681525050905092915050565b6004602052815f5260405f2081815481106109fe575f80fd5b905f5260205f2090600202015f9150915050805f018054610a1e9061140b565b80601f0160208091040260200160405190810160405280929190818152602001828054610a4a9061140b565b8015610a955780601f10610a6c57610100808354040283529160200191610a95565b820191905f5260205f20905b815481529060010190602001808311610a7857829003601f168201915b505050505090806001015f9054906101000a900460ff16905082565b610ab9610b99565b60038260ff1681548110610ad057610acf61143b565b5b905f5260205f2090600202016040518060400160405290815f82018054610af69061140b565b80601f0160208091040260200160405190810160405280929190818152602001828054610b229061140b565b8015610b6d5780601f10610b4457610100808354040283529160200191610b6d565b820191905f5260205f20905b815481529060010190602001808311610b5057829003601f168201915b50505050508152602001600182015f9054906101000a900460ff1660ff1660ff16815250509050919050565b6040518060400160405280606081526020015f60ff1681525090565b5f81519050919050565b5f82825260208201905092915050565b8281835e5f83830152505050565b5f601f19601f8301169050919050565b5f610bf782610bb5565b610c018185610bbf565b9350610c11818560208601610bcf565b610c1a81610bdd565b840191505092915050565b5f6020820190508181035f830152610c3d8184610bed565b905092915050565b5f604051905090565b5f80fd5b5f80fd5b5f73ffffffffffffffffffffffffffffffffffffffff82169050919050565b5f610c7f82610c56565b9050919050565b610c8f81610c75565b8114610c99575f80fd5b50565b5f81359050610caa81610c86565b92915050565b5f80fd5b5f80fd5b5f80fd5b5f8083601f840112610cd157610cd0610cb0565b5b8235905067ffffffffffffffff811115610cee57610ced610cb4565b5b602083019150836001820283011115610d0a57610d09610cb8565b5b9250929050565b5f60ff82169050919050565b610d2681610d11565b8114610d30575f80fd5b50565b5f81359050610d4181610d1d565b92915050565b5f805f8060608587031215610d5f57610d5e610c4e565b5b5f610d6c87828801610c9c565b945050602085013567ffffffffffffffff811115610d8d57610d8c610c52565b5b610d9987828801610cbc565b93509350506040610dac87828801610d33565b91505092959194509250565b610dc181610d11565b82525050565b5f602082019050610dda5f830184610db8565b92915050565b5f60208284031215610df557610df4610c4e565b5b5f610e0284828501610c9c565b91505092915050565b5f81519050919050565b5f82825260208201905092915050565b5f819050602082019050919050565b5f82825260208201905092915050565b5f610e4e82610bb5565b610e588185610e34565b9350610e68818560208601610bcf565b610e7181610bdd565b840191505092915050565b610e8581610d11565b82525050565b5f604083015f8301518482035f860152610ea58282610e44565b9150506020830151610eba6020860182610e7c565b508091505092915050565b5f610ed08383610e8b565b905092915050565b5f602082019050919050565b5f610eee82610e0b565b610ef88185610e15565b935083602082028501610f0a85610e25565b805f5b85811015610f455784840389528151610f268582610ec5565b9450610f3183610ed8565b925060208a01995050600181019050610f0d565b50829750879550505050505092915050565b5f6020820190508181035f830152610f6f8184610ee4565b905092915050565b5f819050919050565b610f8981610f77565b8114610f93575f80fd5b50565b5f81359050610fa481610f80565b92915050565b5f60208284031215610fbf57610fbe610c4e565b5b5f610fcc84828501610f96565b91505092915050565b5f6040820190508181035f830152610fed8185610bed565b9050610ffc6020830184610db8565b9392505050565b5f806020838503121561101957611018610c4e565b5b5f83013567ffffffffffffffff81111561103657611035610c52565b5b61104285828601610cbc565b92509250509250929050565b5f6020828403121561106357611062610c4e565b5b5f61107084828501610d33565b91505092915050565b5f805f604084860312156110905761108f610c4e565b5b5f84013567ffffffffffffffff8111156110ad576110ac610c52565b5b6110b986828701610cbc565b935093505060206110cc86828701610f96565b9150509250925092565b5f80fd5b5f604082840312156110ef576110ee6110d6565b5b81905092915050565b5f6020828403121561110d5761110c610c4e565b5b5f82013567ffffffffffffffff81111561112a57611129610c52565b5b611136848285016110da565b91505092915050565b5f806040838503121561115557611154610c4e565b5b5f61116285828601610c9c565b925050602083013567ffffffffffffffff81111561118357611182610c52565b5b61118f858286016110da565b9150509250929050565b5f80fd5b7f4e487b71000000000000000000000000000000000000000000000000000000005f52604160045260245ffd5b6111d382610bdd565b810181811067ffffffffffffffff821117156111f2576111f161119d565b5b80604052505050565b5f611204610c45565b905061121082826111ca565b919050565b5f67ffffffffffffffff82111561122f5761122e61119d565b5b61123882610bdd565b9050602081019050919050565b828183375f83830152505050565b5f61126561126084611215565b6111fb565b90508281526020810184848401111561128157611280611199565b5b61128c848285611245565b509392505050565b5f82601f8301126112a8576112a7610cb0565b5b81356112b8848260208601611253565b91505092915050565b5f602082840312156112d6576112d5610c4e565b5b5f82013567ffffffffffffffff8111156112f3576112f2610c52565b5b6112ff84828501611294565b91505092915050565b5f806040838503121561131e5761131d610c4e565b5b5f61132b85828601610c9c565b925050602061133c85828601610d33565b9150509250929050565b5f604083015f8301518482035f8601526113608282610e44565b91505060208301516113756020860182610e7c565b508091505092915050565b5f6020820190508181035f8301526113988184611346565b905092915050565b5f80604083850312156113b6576113b5610c4e565b5b5f6113c385828601610c9c565b92505060206113d485828601610f96565b9150509250929050565b7f4e487b71000000000000000000000000000000000000000000000000000000005f52602260045260245ffd5b5f600282049050600182168061142257607f821691505b602082108103611435576114346113de565b5b50919050565b7f4e487b71000000000000000000000000000000000000000000000000000000005f52603260045260245ffd5b5f82905092915050565b5f819050815f5260205f209050919050565b5f6020601f8301049050919050565b5f82821b905092915050565b5f600883026114ce7fffffffffffffffffffffffffffffffffffffffffffffffffffffffffffffffff82611493565b6114d88683611493565b95508019841693508086168417925050509392505050565b5f819050919050565b5f61151361150e61150984610f77565b6114f0565b610f77565b9050919050565b5f819050919050565b61152c836114f9565b6115406115388261151a565b84845461149f565b825550505050565b5f90565b611554611548565b61155f818484611523565b505050565b5b81811015611582576115775f8261154c565b600181019050611565565b5050565b601f8211156115c75761159881611472565b6115a184611484565b810160208510156115b0578190505b6115c46115bc85611484565b830182611564565b50505b505050565b5f82821c905092915050565b5f6115e75f19846008026115cc565b1980831691505092915050565b5f6115ff83836115d8565b9150826002028217905092915050565b6116198383611468565b67ffffffffffffffff8111156116325761163161119d565b5b61163c825461140b565b611647828285611586565b5f601f831160018114611674575f8415611662578287013590505b61166c85826115f4565b8655506116d3565b601f19841661168286611472565b5f5b828110156116a957848901358255600182019150602085019450602081019050611684565b868310156116c657848901356116c2601f8916826115d8565b8355505b6001600288020188555050505b50505050505050565b5f815490506116ea8161140b565b9050919050565b5f819050815f5260205f209050919050565b8181036117115750506117e6565b61171a826116dc565b67ffffffffffffffff8111156117335761173261119d565b5b61173d825461140b565b611748828285611586565b5f601f831160018114611775575f8415611763578287015490505b61176d85826115f4565b8655506117df565b601f198416611783876116f1565b965061178e86611472565b5f5b828110156117b557848901548255600182019150600185019450602081019050611790565b868310156117d257848901546117ce601f8916826115d8565b8355505b6001600288020188555050505b5050505050505b565b5f80fd5b5f80fd5b5f80fd5b5f80833560016020038436030381126118105761180f6117e8565b5b80840192508235915067ffffffffffffffff821115611832576118316117ec565b5b60208301925060018202360383131561184e5761184d6117f0565b5b509250929050565b61186183838361160f565b505050565b5f813561187281610d1d565b80915050919050565b5f815f1b9050919050565b5f60ff6118928461187b565b9350801983169250808416831791505092915050565b5f6118c26118bd6118b884610d11565b6114f0565b610d11565b9050919050565b5f819050919050565b6118db826118a8565b6118ee6118e7826118c9565b8354611886565b8255505050565b5f81015f830161190581856117f4565b611910818386611856565b5050505060018101602083018061192681611866565b905061193281846118d2565b5050505050565b61194382826118f5565b5050565b61195082610bb5565b67ffffffffffffffff8111156119695761196861119d565b5b611973825461140b565b61197e828285611586565b5f60209050601f8311600181146119af575f841561199d578287015190505b6119a785826115f4565b865550611a0e565b601f1984166119bd86611472565b5f5b828110156119e4578489015182556001820191506020850194506020810190506119bf565b86831015611a0157848901516119fd601f8916826115d8565b8355505b6001600288020188555050505b50505050505056fea2646970667358221220080354804171f92e4c5196e4094e6c961d8761da8a6ece86ba85b414d9be8d2564736f6c634300081a0033",
			"opcodes": "PUSH1 0x80 PUSH1 0x40 MSTORE CALLVALUE DUP1 ISZERO PUSH1 0xE JUMPI PUSH0 DUP1 REVERT JUMPDEST POP PUSH2 0x1A4C DUP1 PUSH2 0x1C PUSH0 CODECOPY PUSH0 RETURN INVALID PUSH1 0x80 PUSH1 0x40 MSTORE CALLVALUE DUP1 ISZERO PUSH2 0xF JUMPI PUSH0 DUP1 REVERT JUMPDEST POP PUSH1 0x4 CALLDATASIZE LT PUSH2 0x109 JUMPI PUSH0 CALLDATALOAD PUSH1 0xE0 SHR DUP1 PUSH4 0x5499FB31 GT PUSH2 0xA0 JUMPI DUP1 PUSH4 0x85F8230B GT PUSH2 0x6F JUMPI DUP1 PUSH4 0x85F8230B EQ PUSH2 0x27C JUMPI DUP1 PUSH4 0xA032A0EB EQ PUSH2 0x298 JUMPI DUP1 PUSH4 0xA1F24968 EQ PUSH2 0x2B4 JUMPI DUP1 PUSH4 0xCB78FD85 EQ PUSH2 0x2E4 JUMPI DUP1 PUSH4 0xFF1A22CF EQ PUSH2 0x315 JUMPI PUSH2 0x109 JUMP JUMPDEST DUP1 PUSH4 0x5499FB31 EQ PUSH2 0x21E JUMPI DUP1 PUSH4 0x5B0C8D70 EQ PUSH2 0x228 JUMPI DUP1 PUSH4 0x66C74ACB EQ PUSH2 0x244 JUMPI DUP1 PUSH4 0x7787D30B EQ PUSH2 0x260 JUMPI PUSH2 0x109 JUMP JUMPDEST DUP1 PUSH4 0x44067BB6 GT PUSH2 0xDC JUMPI DUP1 PUSH4 0x44067BB6 EQ PUSH2 0x183 JUMPI DUP1 PUSH4 0x4739326B EQ PUSH2 0x1B3 JUMPI DUP1 PUSH4 0x4B67F6AF EQ PUSH2 0x1E4 JUMPI DUP1 PUSH4 0x535BBFB9 EQ PUSH2 0x202 JUMPI PUSH2 0x109 JUMP JUMPDEST DUP1 PUSH4 0x6FDDE03 EQ PUSH2 0x10D JUMPI DUP1 PUSH4 0x17D7DE7C EQ PUSH2 0x12B JUMPI DUP1 PUSH4 0x2431E87E EQ PUSH2 0x149 JUMPI DUP1 PUSH4 0x262A9DFF EQ PUSH2 0x165 JUMPI JUMPDEST PUSH0 DUP1 REVERT JUMPDEST PUSH2 0x115 PUSH2 0x345 JUMP JUMPDEST PUSH1 0x40 MLOAD PUSH2 0x122 SWAP2 SWAP1 PUSH2 0xC25 JUMP JUMPDEST PUSH1 0x40 MLOAD DUP1 SWAP2 SUB SWAP1 RETURN JUMPDEST PUSH2 0x133 PUSH2 0x3D0 JUMP JUMPDEST PUSH1 0x40 MLOAD PUSH2 0x140 SWAP2 SWAP1 PUSH2 0xC25 JUMP JUMPDEST PUSH1 0x40 MLOAD DUP1 SWAP2 SUB SWAP1 RETURN JUMPDEST PUSH2 0x163 PUSH1 0x4 DUP1 CALLDATASIZE SUB DUP2 ADD SWAP1 PUSH2 0x15E SWAP2 SWAP1 PUSH2 0xD47 JUMP JUMPDEST PUSH2 0x45F JUMP JUMPDEST STOP JUMPDEST PUSH2 0x16D PUSH2 0x4DA JUMP JUMPDEST PUSH1 0x40 MLOAD PUSH2 0x17A SWAP2 SWAP1 PUSH2 0xDC7 JUMP JUMPDEST PUSH1 0x40 MLOAD DUP1 SWAP2 SUB SWAP1 RETURN JUMPDEST PUSH2 0x19D PUSH1 0x4 DUP1 CALLDATASIZE SUB DUP2 ADD SWAP1 PUSH2 0x198 SWAP2 SWAP1 PUSH2 0xDE0 JUMP JUMPDEST PUSH2 0x4EC JUMP JUMPDEST PUSH1 0x40 MLOAD PUSH2 0x1AA SWAP2 SWAP1 PUSH2 0xF57 JUMP JUMPDEST PUSH1 0x40 MLOAD DUP1 SWAP2 SUB SWAP1 RETURN JUMPDEST PUSH2 0x1CD PUSH1 0x4 DUP1 CALLDATASIZE SUB DUP2 ADD SWAP1 PUSH2 0x1C8 SWAP2 SWAP1 PUSH2 0xFAA JUMP JUMPDEST PUSH2 0x630 JUMP JUMPDEST PUSH1 0x40 MLOAD PUSH2 0x1DB SWAP3 SWAP2 SWAP1 PUSH2 0xFD5 JUMP JUMPDEST PUSH1 0x40 MLOAD DUP1 SWAP2 SUB SWAP1 RETURN JUMPDEST PUSH2 0x1EC PUSH2 0x6F1 JUMP JUMPDEST PUSH1 0x40 MLOAD PUSH2 0x1F9 SWAP2 SWAP1 PUSH2 0xC25 JUMP JUMPDEST PUSH1 0x40 MLOAD DUP1 SWAP2 SUB SWAP1 RETURN JUMPDEST PUSH2 0x21C PUSH1 0x4 DUP1 CALLDATASIZE SUB DUP2 ADD SWAP1 PUSH2 0x217 SWAP2 SWAP1 PUSH2 0x1003 JUMP JUMPDEST PUSH2 0x77D JUMP JUMPDEST STOP JUMPDEST PUSH2 0x226 PUSH2 0x792 JUMP JUMPDEST STOP JUMPDEST PUSH2 0x242 PUSH1 0x4 DUP1 CALLDATASIZE SUB DUP2 ADD SWAP1 PUSH2 0x23D SWAP2 SWAP1 PUSH2 0x104E JUMP JUMPDEST PUSH2 0x7A6 JUMP JUMPDEST STOP JUMPDEST PUSH2 0x25E PUSH1 0x4 DUP1 CALLDATASIZE SUB DUP2 ADD SWAP1 PUSH2 0x259 SWAP2 SWAP1 PUSH2 0x1079 JUMP JUMPDEST PUSH2 0x7C3 JUMP JUMPDEST STOP JUMPDEST PUSH2 0x27A PUSH1 0x4 DUP1 CALLDATASIZE SUB DUP2 ADD SWAP1 PUSH2 0x275 SWAP2 SWAP1 PUSH2 0x10F8 JUMP JUMPDEST PUSH2 0x7FF JUMP JUMPDEST STOP JUMPDEST PUSH2 0x296 PUSH1 0x4 DUP1 CALLDATASIZE SUB DUP2 ADD SWAP1 PUSH2 0x291 SWAP2 SWAP1 PUSH2 0x113F JUMP JUMPDEST PUSH2 0x839 JUMP JUMPDEST STOP JUMPDEST PUSH2 0x2B2 PUSH1 0x4 DUP1 CALLDATASIZE SUB DUP2 ADD SWAP1 PUSH2 0x2AD SWAP2 SWAP1 PUSH2 0x12C1 JUMP JUMPDEST PUSH2 0x8AF JUMP JUMPDEST STOP JUMPDEST PUSH2 0x2CE PUSH1 0x4 DUP1 CALLDATASIZE SUB DUP2 ADD SWAP1 PUSH2 0x2C9 SWAP2 SWAP1 PUSH2 0x1308 JUMP JUMPDEST PUSH2 0x8C1 JUMP JUMPDEST PUSH1 0x40 MLOAD PUSH2 0x2DB SWAP2 SWAP1 PUSH2 0x1380 JUMP JUMPDEST PUSH1 0x40 MLOAD DUP1 SWAP2 SUB SWAP1 RETURN JUMPDEST PUSH2 0x2FE PUSH1 0x4 DUP1 CALLDATASIZE SUB DUP2 ADD SWAP1 PUSH2 0x2F9 SWAP2 SWAP1 PUSH2 0x13A0 JUMP JUMPDEST PUSH2 0x9E5 JUMP JUMPDEST PUSH1 0x40 MLOAD PUSH2 0x30C SWAP3 SWAP2 SWAP1 PUSH2 0xFD5 JUMP JUMPDEST PUSH1 0x40 MLOAD DUP1 SWAP2 SUB SWAP1 RETURN JUMPDEST PUSH2 0x32F PUSH1 0x4 DUP1 CALLDATASIZE SUB DUP2 ADD SWAP1 PUSH2 0x32A SWAP2 SWAP1 PUSH2 0x104E JUMP JUMPDEST PUSH2 0xAB1 JUMP JUMPDEST PUSH1 0x40 MLOAD PUSH2 0x33C SWAP2 SWAP1 PUSH2 0x1380 JUMP JUMPDEST PUSH1 0x40 MLOAD DUP1 SWAP2 SUB SWAP1 RETURN JUMPDEST PUSH0 DUP1 SLOAD PUSH2 0x351 SWAP1 PUSH2 0x140B JUMP JUMPDEST DUP1 PUSH1 0x1F ADD PUSH1 0x20 DUP1 SWAP2 DIV MUL PUSH1 0x20 ADD PUSH1 0x40 MLOAD SWAP1 DUP2 ADD PUSH1 0x40 MSTORE DUP1 SWAP3 SWAP2 SWAP1 DUP2 DUP2 MSTORE PUSH1 0x20 ADD DUP3 DUP1 SLOAD PUSH2 0x37D SWAP1 PUSH2 0x140B JUMP JUMPDEST DUP1 ISZERO PUSH2 0x3C8 JUMPI DUP1 PUSH1 0x1F LT PUSH2 0x39F JUMPI PUSH2 0x100 DUP1 DUP4 SLOAD DIV MUL DUP4 MSTORE SWAP2 PUSH1 0x20 ADD SWAP2 PUSH2 0x3C8 JUMP JUMPDEST DUP3 ADD SWAP2 SWAP1 PUSH0 MSTORE PUSH1 0x20 PUSH0 KECCAK256 SWAP1 JUMPDEST DUP2 SLOAD DUP2 MSTORE SWAP1 PUSH1 0x1 ADD SWAP1 PUSH1 0x20 ADD DUP1 DUP4 GT PUSH2 0x3AB JUMPI DUP3 SWAP1 SUB PUSH1 0x1F AND DUP3 ADD SWAP2 JUMPDEST POP POP POP POP POP DUP2 JUMP JUMPDEST PUSH1 0x60 PUSH0 DUP1 SLOAD PUSH2 0x3DE SWAP1 PUSH2 0x140B JUMP JUMPDEST DUP1 PUSH1 0x1F ADD PUSH1 0x20 DUP1 SWAP2 DIV MUL PUSH1 0x20 ADD PUSH1 0x40 MLOAD SWAP1 DUP2 ADD PUSH1 0x40 MSTORE DUP1 SWAP3 SWAP2 SWAP1 DUP2 DUP2 MSTORE PUSH1 0x20 ADD DUP3 DUP1 SLOAD PUSH2 0x40A SWAP1 PUSH2 0x140B JUMP JUMPDEST DUP1 ISZERO PUSH2 0x455 JUMPI DUP1 PUSH1 0x1F LT PUSH2 0x42C JUMPI PUSH2 0x100 DUP1 DUP4 SLOAD DIV MUL DUP4 MSTORE SWAP2 PUSH1 0x20 ADD SWAP2 PUSH2 0x455 JUMP JUMPDEST DUP3 ADD SWAP2 SWAP1 PUSH0 MSTORE PUSH1 0x20 PUSH0 KECCAK256 SWAP1 JUMPDEST DUP2 SLOAD DUP2 MSTORE SWAP1 PUSH1 0x1 ADD SWAP1 PUSH1 0x20 ADD DUP1 DUP4 GT PUSH2 0x438 JUMPI DUP3 SWAP1 SUB PUSH1 0x1F AND DUP3 ADD SWAP2 JUMPDEST POP POP POP POP POP SWAP1 POP SWAP1 JUMP JUMPDEST PUSH0 PUSH1 0x4 PUSH0 DUP7 PUSH20 0xFFFFFFFFFFFFFFFFFFFFFFFFFFFFFFFFFFFFFFFF AND PUSH20 0xFFFFFFFFFFFFFFFFFFFFFFFFFFFFFFFFFFFFFFFF AND DUP2 MSTORE PUSH1 0x20 ADD SWAP1 DUP2 MSTORE PUSH1 0x20 ADD PUSH0 KECCAK256 DUP3 PUSH1 0xFF AND DUP2 SLOAD DUP2 LT PUSH2 0x4B2 JUMPI PUSH2 0x4B1 PUSH2 0x143B JUMP JUMPDEST JUMPDEST SWAP1 PUSH0 MSTORE PUSH1 0x20 PUSH0 KECCAK256 SWAP1 PUSH1 0x2 MUL ADD SWAP1 POP DUP4 DUP4 DUP3 PUSH0 ADD SWAP2 DUP3 PUSH2 0x4D2 SWAP3 SWAP2 SWAP1 PUSH2 0x160F JUMP JUMPDEST POP POP POP POP POP POP JUMP JUMPDEST PUSH1 0x2 PUSH0 SWAP1 SLOAD SWAP1 PUSH2 0x100 EXP SWAP1 DIV PUSH1 0xFF AND DUP2 JUMP JUMPDEST PUSH1 0x60 PUSH1 0x4 PUSH0 DUP4 PUSH20 0xFFFFFFFFFFFFFFFFFFFFFFFFFFFFFFFFFFFFFFFF AND PUSH20 0xFFFFFFFFFFFFFFFFFFFFFFFFFFFFFFFFFFFFFFFF AND DUP2 MSTORE PUSH1 0x20 ADD SWAP1 DUP2 MSTORE PUSH1 0x20 ADD PUSH0 KECCAK256 DUP1 SLOAD DUP1 PUSH1 0x20 MUL PUSH1 0x20 ADD PUSH1 0x40 MLOAD SWAP1 DUP2 ADD PUSH1 0x40 MSTORE DUP1 SWAP3 SWAP2 SWAP1 DUP2 DUP2 MSTORE PUSH1 0x20 ADD PUSH0 SWAP1 JUMPDEST DUP3 DUP3 LT ISZERO PUSH2 0x625 JUMPI DUP4 DUP3 SWAP1 PUSH0 MSTORE PUSH1 0x20 PUSH0 KECCAK256 SWAP1 PUSH1 0x2 MUL ADD PUSH1 0x40 MLOAD DUP1 PUSH1 0x40 ADD PUSH1 0x40 MSTORE SWAP1 DUP2 PUSH0 DUP3 ADD DUP1 SLOAD PUSH2 0x57A SWAP1 PUSH2 0x140B JUMP JUMPDEST DUP1 PUSH1 0x1F ADD PUSH1 0x20 DUP1 SWAP2 DIV MUL PUSH1 0x20 ADD PUSH1 0x40 MLOAD SWAP1 DUP2 ADD PUSH1 0x40 MSTORE DUP1 SWAP3 SWAP2 SWAP1 DUP2 DUP2 MSTORE PUSH1 0x20 ADD DUP3 DUP1 SLOAD PUSH2 0x5A6 SWAP1 PUSH2 0x140B JUMP JUMPDEST DUP1 ISZERO PUSH2 0x5F1 JUMPI DUP1 PUSH1 0x1F LT PUSH2 0x5C8 JUMPI PUSH2 0x100 DUP1 DUP4 SLOAD DIV MUL DUP4 MSTORE SWAP2 PUSH1 0x20 ADD SWAP2 PUSH2 0x5F1 JUMP JUMPDEST DUP3 ADD SWAP2 SWAP1 PUSH0 MSTORE PUSH1 0x20 PUSH0 KECCAK256 SWAP1 JUMPDEST DUP2 SLOAD DUP2 MSTORE SWAP1 PUSH1 0x1 ADD SWAP1 PUSH1 0x20 ADD DUP1 DUP4 GT PUSH2 0x5D4 JUMPI DUP3 SWAP1 SUB PUSH1 0x1F AND DUP3 ADD SWAP2 JUMPDEST POP POP POP POP POP DUP2 MSTORE PUSH1 0x20 ADD PUSH1 0x1 DUP3 ADD PUSH0 SWAP1 SLOAD SWAP1 PUSH2 0x100 EXP SWAP1 DIV PUSH1 0xFF AND PUSH1 0xFF AND PUSH1 0xFF AND DUP2 MSTORE POP POP DUP2 MSTORE PUSH1 0x20 ADD SWAP1 PUSH1 0x1 ADD SWAP1 PUSH2 0x54A JUMP JUMPDEST POP POP POP POP SWAP1 POP SWAP2 SWAP1 POP JUMP JUMPDEST PUSH1 0x3 DUP2 DUP2 SLOAD DUP2 LT PUSH2 0x63F JUMPI PUSH0 DUP1 REVERT JUMPDEST SWAP1 PUSH0 MSTORE PUSH1 0x20 PUSH0 KECCAK256 SWAP1 PUSH1 0x2 MUL ADD PUSH0 SWAP2 POP SWAP1 POP DUP1 PUSH0 ADD DUP1 SLOAD PUSH2 0x65E SWAP1 PUSH2 0x140B JUMP JUMPDEST DUP1 PUSH1 0x1F ADD PUSH1 0x20 DUP1 SWAP2 DIV MUL PUSH1 0x20 ADD PUSH1 0x40 MLOAD SWAP1 DUP2 ADD PUSH1 0x40 MSTORE DUP1 SWAP3 SWAP2 SWAP1 DUP2 DUP2 MSTORE PUSH1 0x20 ADD DUP3 DUP1 SLOAD PUSH2 0x68A SWAP1 PUSH2 0x140B JUMP JUMPDEST DUP1 ISZERO PUSH2 0x6D5 JUMPI DUP1 PUSH1 0x1F LT PUSH2 0x6AC JUMPI PUSH2 0x100 DUP1 DUP4 SLOAD DIV MUL DUP4 MSTORE SWAP2 PUSH1 0x20 ADD SWAP2 PUSH2 0x6D5 JUMP JUMPDEST DUP3 ADD SWAP2 SWAP1 PUSH0 MSTORE PUSH1 0x20 PUSH0 KECCAK256 SWAP1 JUMPDEST DUP2 SLOAD DUP2 MSTORE SWAP1 PUSH1 0x1 ADD SWAP1 PUSH1 0x20 ADD DUP1 DUP4 GT PUSH2 0x6B8 JUMPI DUP3 SWAP1 SUB PUSH1 0x1F AND DUP3 ADD SWAP2 JUMPDEST POP POP POP POP POP SWAP1 DUP1 PUSH1 0x1 ADD PUSH0 SWAP1 SLOAD SWAP1 PUSH2 0x100 EXP SWAP1 DIV PUSH1 0xFF AND SWAP1 POP DUP3 JUMP JUMPDEST PUSH1 0x1 DUP1 SLOAD PUSH2 0x6FE SWAP1 PUSH2 0x140B JUMP JUMPDEST DUP1 PUSH1 0x1F ADD PUSH1 0x20 DUP1 SWAP2 DIV MUL PUSH1 0x20 ADD PUSH1 0x40 MLOAD SWAP1 DUP2 ADD PUSH1 0x40 MSTORE DUP1 SWAP3 SWAP2 SWAP1 DUP2 DUP2 MSTORE PUSH1 0x20 ADD DUP3 DUP1 SLOAD PUSH2 0x72A SWAP1 PUSH2 0x140B JUMP JUMPDEST DUP1 ISZERO PUSH2 0x775 JUMPI DUP1 PUSH1 0x1F LT PUSH2 0x74C JUMPI PUSH2 0x100 DUP1 DUP4 SLOAD DIV MUL DUP4 MSTORE SWAP2 PUSH1 0x20 ADD SWAP2 PUSH2 0x775 JUMP JUMPDEST DUP3 ADD SWAP2 SWAP1 PUSH0 MSTORE PUSH1 0x20 PUSH0 KECCAK256 SWAP1 JUMPDEST DUP2 SLOAD DUP2 MSTORE SWAP1 PUSH1 0x1 ADD SWAP1 PUSH1 0x20 ADD DUP1 DUP4 GT PUSH2 0x758 JUMPI DUP3 SWAP1 SUB PUSH1 0x1F AND DUP3 ADD SWAP2 JUMPDEST POP POP POP POP POP DUP2 JUMP JUMPDEST DUP2 DUP2 PUSH0 SWAP2 DUP3 PUSH2 0x78D SWAP3 SWAP2 SWAP1 PUSH2 0x160F JUMP JUMPDEST POP POP POP JUMP JUMPDEST PUSH0 DUP1 PUSH1 0x1 SWAP1 DUP2 PUSH2 0x7A2 SWAP2 SWAP1 PUSH2 0x1703 JUMP JUMPDEST POP POP JUMP JUMPDEST DUP1 PUSH1 0x2 PUSH0 PUSH2 0x100 EXP DUP2 SLOAD DUP2 PUSH1 0xFF MUL NOT AND SWAP1 DUP4 PUSH1 0xFF AND MUL OR SWAP1 SSTORE POP POP JUMP JUMPDEST PUSH0 PUSH1 0x3 DUP3 DUP2 SLOAD DUP2 LT PUSH2 0x7D8 JUMPI PUSH2 0x7D7 PUSH2 0x143B JUMP JUMPDEST JUMPDEST SWAP1 PUSH0 MSTORE PUSH1 0x20 PUSH0 KECCAK256 SWAP1 PUSH1 0x2 MUL ADD SWAP1 POP DUP4 DUP4 DUP3 PUSH0 ADD SWAP2 DUP3 PUSH2 0x7F8 SWAP3 SWAP2 SWAP1 PUSH2 0x160F JUMP JUMPDEST POP POP POP POP POP JUMP JUMPDEST PUSH1 0x3 DUP2 SWAP1 DUP1 PUSH1 0x1 DUP2 SLOAD ADD DUP1 DUP3 SSTORE DUP1 SWAP2 POP POP PUSH1 0x1 SWAP1 SUB SWAP1 PUSH0 MSTORE PUSH1 0x20 PUSH0 KECCAK256 SWAP1 PUSH1 0x2 MUL ADD PUSH0 SWAP1 SWAP2 SWAP1 SWAP2 SWAP1 SWAP2 POP DUP2 DUP2 PUSH2 0x834 SWAP2 SWAP1 PUSH2 0x1939 JUMP JUMPDEST POP POP POP JUMP JUMPDEST PUSH1 0x4 PUSH0 DUP4 PUSH20 0xFFFFFFFFFFFFFFFFFFFFFFFFFFFFFFFFFFFFFFFF AND PUSH20 0xFFFFFFFFFFFFFFFFFFFFFFFFFFFFFFFFFFFFFFFF AND DUP2 MSTORE PUSH1 0x20 ADD SWAP1 DUP2 MSTORE PUSH1 0x20 ADD PUSH0 KECCAK256 DUP2 SWAP1 DUP1 PUSH1 0x1 DUP2 SLOAD ADD DUP1 DUP3 SSTORE DUP1 SWAP2 POP POP PUSH1 0x1 SWAP1 SUB SWAP1 PUSH0 MSTORE PUSH1 0x20 PUSH0 KECCAK256 SWAP1 PUSH1 0x2 MUL ADD PUSH0 SWAP1 SWAP2 SWAP1 SWAP2 SWAP1 SWAP2 POP DUP2 DUP2 PUSH2 0x8A9 SWAP2 SWAP1 PUSH2 0x1939 JUMP JUMPDEST POP POP POP POP JUMP JUMPDEST DUP1 PUSH0 SWAP1 DUP2 PUSH2 0x8BD SWAP2 SWAP1 PUSH2 0x1947 JUMP JUMPDEST POP POP JUMP JUMPDEST PUSH2 0x8C9 PUSH2 0xB99 JUMP JUMPDEST PUSH1 0x4 PUSH0 DUP5 PUSH20 0xFFFFFFFFFFFFFFFFFFFFFFFFFFFFFFFFFFFFFFFF AND PUSH20 0xFFFFFFFFFFFFFFFFFFFFFFFFFFFFFFFFFFFFFFFF AND DUP2 MSTORE PUSH1 0x20 ADD SWAP1 DUP2 MSTORE PUSH1 0x20 ADD PUSH0 KECCAK256 DUP3 PUSH1 0xFF AND DUP2 SLOAD DUP2 LT PUSH2 0x91B JUMPI PUSH2 0x91A PUSH2 0x143B JUMP JUMPDEST JUMPDEST SWAP1 PUSH0 MSTORE PUSH1 0x20 PUSH0 KECCAK256 SWAP1 PUSH1 0x2 MUL ADD PUSH1 0x40 MLOAD DUP1 PUSH1 0x40 ADD PUSH1 0x40 MSTORE SWAP1 DUP2 PUSH0 DUP3 ADD DUP1 SLOAD PUSH2 0x941 SWAP1 PUSH2 0x140B JUMP JUMPDEST DUP1 PUSH1 0x1F ADD PUSH1 0x20 DUP1 SWAP2 DIV MUL PUSH1 0x20 ADD PUSH1 0x40 MLOAD SWAP1 DUP2 ADD PUSH1 0x40 MSTORE DUP1 SWAP3 SWAP2 SWAP1 DUP2 DUP2 MSTORE PUSH1 0x20 ADD DUP3 DUP1 SLOAD PUSH2 0x96D SWAP1 PUSH2 0x140B JUMP JUMPDEST DUP1 ISZERO PUSH2 0x9B8 JUMPI DUP1 PUSH1 0x1F LT PUSH2 0x98F JUMPI PUSH2 0x100 DUP1 DUP4 SLOAD DIV MUL DUP4 MSTORE SWAP2 PUSH1 0x20 ADD SWAP2 PUSH2 0x9B8 JUMP JUMPDEST DUP3 ADD SWAP2 SWAP1 PUSH0 MSTORE PUSH1 0x20 PUSH0 KECCAK256 SWAP1 JUMPDEST DUP2 SLOAD DUP2 MSTORE SWAP1 PUSH1 0x1 ADD SWAP1 PUSH1 0x20 ADD DUP1 DUP4 GT PUSH2 0x99B JUMPI DUP3 SWAP1 SUB PUSH1 0x1F AND DUP3 ADD SWAP2 JUMPDEST POP POP POP POP POP DUP2 MSTORE PUSH1 0x20 ADD PUSH1 0x1 DUP3 ADD PUSH0 SWAP1 SLOAD SWAP1 PUSH2 0x100 EXP SWAP1 DIV PUSH1 0xFF AND PUSH1 0xFF AND PUSH1 0xFF AND DUP2 MSTORE POP POP SWAP1 POP SWAP3 SWAP2 POP POP JUMP JUMPDEST PUSH1 0x4 PUSH1 0x20 MSTORE DUP2 PUSH0 MSTORE PUSH1 0x40 PUSH0 KECCAK256 DUP2 DUP2 SLOAD DUP2 LT PUSH2 0x9FE JUMPI PUSH0 DUP1 REVERT JUMPDEST SWAP1 PUSH0 MSTORE PUSH1 0x20 PUSH0 KECCAK256 SWAP1 PUSH1 0x2 MUL ADD PUSH0 SWAP2 POP SWAP2 POP POP DUP1 PUSH0 ADD DUP1 SLOAD PUSH2 0xA1E SWAP1 PUSH2 0x140B JUMP JUMPDEST DUP1 PUSH1 0x1F ADD PUSH1 0x20 DUP1 SWAP2 DIV MUL PUSH1 0x20 ADD PUSH1 0x40 MLOAD SWAP1 DUP2 ADD PUSH1 0x40 MSTORE DUP1 SWAP3 SWAP2 SWAP1 DUP2 DUP2 MSTORE PUSH1 0x20 ADD DUP3 DUP1 SLOAD PUSH2 0xA4A SWAP1 PUSH2 0x140B JUMP JUMPDEST DUP1 ISZERO PUSH2 0xA95 JUMPI DUP1 PUSH1 0x1F LT PUSH2 0xA6C JUMPI PUSH2 0x100 DUP1 DUP4 SLOAD DIV MUL DUP4 MSTORE SWAP2 PUSH1 0x20 ADD SWAP2 PUSH2 0xA95 JUMP JUMPDEST DUP3 ADD SWAP2 SWAP1 PUSH0 MSTORE PUSH1 0x20 PUSH0 KECCAK256 SWAP1 JUMPDEST DUP2 SLOAD DUP2 MSTORE SWAP1 PUSH1 0x1 ADD SWAP1 PUSH1 0x20 ADD DUP1 DUP4 GT PUSH2 0xA78 JUMPI DUP3 SWAP1 SUB PUSH1 0x1F AND DUP3 ADD SWAP2 JUMPDEST POP POP POP POP POP SWAP1 DUP1 PUSH1 0x1 ADD PUSH0 SWAP1 SLOAD SWAP1 PUSH2 0x100 EXP SWAP1 DIV PUSH1 0xFF AND SWAP1 POP DUP3 JUMP JUMPDEST PUSH2 0xAB9 PUSH2 0xB99 JUMP JUMPDEST PUSH1 0x3 DUP3 PUSH1 0xFF AND DUP2 SLOAD DUP2 LT PUSH2 0xAD0 JUMPI PUSH2 0xACF PUSH2 0x143B JUMP JUMPDEST JUMPDEST SWAP1 PUSH0 MSTORE PUSH1 0x20 PUSH0 KECCAK256 SWAP1 PUSH1 0x2 MUL ADD PUSH1 0x40 MLOAD DUP1 PUSH1 0x40 ADD PUSH1 0x40 MSTORE SWAP1 DUP2 PUSH0 DUP3 ADD DUP1 SLOAD PUSH2 0xAF6 SWAP1 PUSH2 0x140B JUMP JUMPDEST DUP1 PUSH1 0x1F ADD PUSH1 0x20 DUP1 SWAP2 DIV MUL PUSH1 0x20 ADD PUSH1 0x40 MLOAD SWAP1 DUP2 ADD PUSH1 0x40 MSTORE DUP1 SWAP3 SWAP2 SWAP1 DUP2 DUP2 MSTORE PUSH1 0x20 ADD DUP3 DUP1 SLOAD PUSH2 0xB22 SWAP1 PUSH2 0x140B JUMP JUMPDEST DUP1 ISZERO PUSH2 0xB6D JUMPI DUP1 PUSH1 0x1F LT PUSH2 0xB44 JUMPI PUSH2 0x100 DUP1 DUP4 SLOAD DIV MUL DUP4 MSTORE SWAP2 PUSH1 0x20 ADD SWAP2 PUSH2 0xB6D JUMP JUMPDEST DUP3 ADD SWAP2 SWAP1 PUSH0 MSTORE PUSH1 0x20 PUSH0 KECCAK256 SWAP1 JUMPDEST DUP2 SLOAD DUP2 MSTORE SWAP1 PUSH1 0x1 ADD SWAP1 PUSH1 0x20 ADD DUP1 DUP4 GT PUSH2 0xB50 JUMPI DUP3 SWAP1 SUB PUSH1 0x1F AND DUP3 ADD SWAP2 JUMPDEST POP POP POP POP POP DUP2 MSTORE PUSH1 0x20 ADD PUSH1 0x1 DUP3 ADD PUSH0 SWAP1 SLOAD SWAP1 PUSH2 0x100 EXP SWAP1 DIV PUSH1 0xFF AND PUSH1 0xFF AND PUSH1 0xFF AND DUP2 MSTORE POP POP SWAP1 POP SWAP2 SWAP1 POP JUMP JUMPDEST PUSH1 0x40 MLOAD DUP1 PUSH1 0x40 ADD PUSH1 0x40 MSTORE DUP1 PUSH1 0x60 DUP2 MSTORE PUSH1 0x20 ADD PUSH0 PUSH1 0xFF AND DUP2 MSTORE POP SWAP1 JUMP JUMPDEST PUSH0 DUP2 MLOAD SWAP1 POP SWAP2 SWAP1 POP JUMP JUMPDEST PUSH0 DUP3 DUP3 MSTORE PUSH1 0x20 DUP3 ADD SWAP1 POP SWAP3 SWAP2 POP POP JUMP JUMPDEST DUP3 DUP2 DUP4 MCOPY PUSH0 DUP4 DUP4 ADD MSTORE POP POP POP JUMP JUMPDEST PUSH0 PUSH1 0x1F NOT PUSH1 0x1F DUP4 ADD AND SWAP1 POP SWAP2 SWAP1 POP JUMP JUMPDEST PUSH0 PUSH2 0xBF7 DUP3 PUSH2 0xBB5 JUMP JUMPDEST PUSH2 0xC01 DUP2 DUP6 PUSH2 0xBBF JUMP JUMPDEST SWAP4 POP PUSH2 0xC11 DUP2 DUP6 PUSH1 0x20 DUP7 ADD PUSH2 0xBCF JUMP JUMPDEST PUSH2 0xC1A DUP2 PUSH2 0xBDD JUMP JUMPDEST DUP5 ADD SWAP2 POP POP SWAP3 SWAP2 POP POP JUMP JUMPDEST PUSH0 PUSH1 0x20 DUP3 ADD SWAP1 POP DUP2 DUP2 SUB PUSH0 DUP4 ADD MSTORE PUSH2 0xC3D DUP2 DUP5 PUSH2 0xBED JUMP JUMPDEST SWAP1 POP SWAP3 SWAP2 POP POP JUMP JUMPDEST PUSH0 PUSH1 0x40 MLOAD SWAP1 POP SWAP1 JUMP JUMPDEST PUSH0 DUP1 REVERT JUMPDEST PUSH0 DUP1 REVERT JUMPDEST PUSH0 PUSH20 0xFFFFFFFFFFFFFFFFFFFFFFFFFFFFFFFFFFFFFFFF DUP3 AND SWAP1 POP SWAP2 SWAP1 POP JUMP JUMPDEST PUSH0 PUSH2 0xC7F DUP3 PUSH2 0xC56 JUMP JUMPDEST SWAP1 POP SWAP2 SWAP1 POP JUMP JUMPDEST PUSH2 0xC8F DUP2 PUSH2 0xC75 JUMP JUMPDEST DUP2 EQ PUSH2 0xC99 JUMPI PUSH0 DUP1 REVERT JUMPDEST POP JUMP JUMPDEST PUSH0 DUP2 CALLDATALOAD SWAP1 POP PUSH2 0xCAA DUP2 PUSH2 0xC86 JUMP JUMPDEST SWAP3 SWAP2 POP POP JUMP JUMPDEST PUSH0 DUP1 REVERT JUMPDEST PUSH0 DUP1 REVERT JUMPDEST PUSH0 DUP1 REVERT JUMPDEST PUSH0 DUP1 DUP4 PUSH1 0x1F DUP5 ADD SLT PUSH2 0xCD1 JUMPI PUSH2 0xCD0 PUSH2 0xCB0 JUMP JUMPDEST JUMPDEST DUP3 CALLDATALOAD SWAP1 POP PUSH8 0xFFFFFFFFFFFFFFFF DUP2 GT ISZERO PUSH2 0xCEE JUMPI PUSH2 0xCED PUSH2 0xCB4 JUMP JUMPDEST JUMPDEST PUSH1 0x20 DUP4 ADD SWAP2 POP DUP4 PUSH1 0x1 DUP3 MUL DUP4 ADD GT ISZERO PUSH2 0xD0A JUMPI PUSH2 0xD09 PUSH2 0xCB8 JUMP JUMPDEST JUMPDEST SWAP3 POP SWAP3 SWAP1 POP JUMP JUMPDEST PUSH0 PUSH1 0xFF DUP3 AND SWAP1 POP SWAP2 SWAP1 POP JUMP JUMPDEST PUSH2 0xD26 DUP2 PUSH2 0xD11 JUMP JUMPDEST DUP2 EQ PUSH2 0xD30 JUMPI PUSH0 DUP1 REVERT JUMPDEST POP JUMP JUMPDEST PUSH0 DUP2 CALLDATALOAD SWAP1 POP PUSH2 0xD41 DUP2 PUSH2 0xD1D JUMP JUMPDEST SWAP3 SWAP2 POP POP JUMP JUMPDEST PUSH0 DUP1 PUSH0 DUP1 PUSH1 0x60 DUP6 DUP8 SUB SLT ISZERO PUSH2 0xD5F JUMPI PUSH2 0xD5E PUSH2 0xC4E JUMP JUMPDEST JUMPDEST PUSH0 PUSH2 0xD6C DUP8 DUP3 DUP9 ADD PUSH2 0xC9C JUMP JUMPDEST SWAP5 POP POP PUSH1 0x20 DUP6 ADD CALLDATALOAD PUSH8 0xFFFFFFFFFFFFFFFF DUP2 GT ISZERO PUSH2 0xD8D JUMPI PUSH2 0xD8C PUSH2 0xC52 JUMP JUMPDEST JUMPDEST PUSH2 0xD99 DUP8 DUP3 DUP9 ADD PUSH2 0xCBC JUMP JUMPDEST SWAP4 POP SWAP4 POP POP PUSH1 0x40 PUSH2 0xDAC DUP8 DUP3 DUP9 ADD PUSH2 0xD33 JUMP JUMPDEST SWAP2 POP POP SWAP3 SWAP6 SWAP2 SWAP5 POP SWAP3 POP JUMP JUMPDEST PUSH2 0xDC1 DUP2 PUSH2 0xD11 JUMP JUMPDEST DUP3 MSTORE POP POP JUMP JUMPDEST PUSH0 PUSH1 0x20 DUP3 ADD SWAP1 POP PUSH2 0xDDA PUSH0 DUP4 ADD DUP5 PUSH2 0xDB8 JUMP JUMPDEST SWAP3 SWAP2 POP POP JUMP JUMPDEST PUSH0 PUSH1 0x20 DUP3 DUP5 SUB SLT ISZERO PUSH2 0xDF5 JUMPI PUSH2 0xDF4 PUSH2 0xC4E JUMP JUMPDEST JUMPDEST PUSH0 PUSH2 0xE02 DUP5 DUP3 DUP6 ADD PUSH2 0xC9C JUMP JUMPDEST SWAP2 POP POP SWAP3 SWAP2 POP POP JUMP JUMPDEST PUSH0 DUP2 MLOAD SWAP1 POP SWAP2 SWAP1 POP JUMP JUMPDEST PUSH0 DUP3 DUP3 MSTORE PUSH1 0x20 DUP3 ADD SWAP1 POP SWAP3 SWAP2 POP POP JUMP JUMPDEST PUSH0 DUP2 SWAP1 POP PUSH1 0x20 DUP3 ADD SWAP1 POP SWAP2 SWAP1 POP JUMP JUMPDEST PUSH0 DUP3 DUP3 MSTORE PUSH1 0x20 DUP3 ADD SWAP1 POP SWAP3 SWAP2 POP POP JUMP JUMPDEST PUSH0 PUSH2 0xE4E DUP3 PUSH2 0xBB5 JUMP JUMPDEST PUSH2 0xE58 DUP2 DUP6 PUSH2 0xE34 JUMP JUMPDEST SWAP4 POP PUSH2 0xE68 DUP2 DUP6 PUSH1 0x20 DUP7 ADD PUSH2 0xBCF JUMP JUMPDEST PUSH2 0xE71 DUP2 PUSH2 0xBDD JUMP JUMPDEST DUP5 ADD SWAP2 POP POP SWAP3 SWAP2 POP POP JUMP JUMPDEST PUSH2 0xE85 DUP2 PUSH2 0xD11 JUMP JUMPDEST DUP3 MSTORE POP POP JUMP JUMPDEST PUSH0 PUSH1 0x40 DUP4 ADD PUSH0 DUP4 ADD MLOAD DUP5 DUP3 SUB PUSH0 DUP7 ADD MSTORE PUSH2 0xEA5 DUP3 DUP3 PUSH2 0xE44 JUMP JUMPDEST SWAP2 POP POP PUSH1 0x20 DUP4 ADD MLOAD PUSH2 0xEBA PUSH1 0x20 DUP7 ADD DUP3 PUSH2 0xE7C JUMP JUMPDEST POP DUP1 SWAP2 POP POP SWAP3 SWAP2 POP POP JUMP JUMPDEST PUSH0 PUSH2 0xED0 DUP4 DUP4 PUSH2 0xE8B JUMP JUMPDEST SWAP1 POP SWAP3 SWAP2 POP POP JUMP JUMPDEST PUSH0 PUSH1 0x20 DUP3 ADD SWAP1 POP SWAP2 SWAP1 POP JUMP JUMPDEST PUSH0 PUSH2 0xEEE DUP3 PUSH2 0xE0B JUMP JUMPDEST PUSH2 0xEF8 DUP2 DUP6 PUSH2 0xE15 JUMP JUMPDEST SWAP4 POP DUP4 PUSH1 0x20 DUP3 MUL DUP6 ADD PUSH2 0xF0A DUP6 PUSH2 0xE25 JUMP JUMPDEST DUP1 PUSH0 JUMPDEST DUP6 DUP2 LT ISZERO PUSH2 0xF45 JUMPI DUP5 DUP5 SUB DUP10 MSTORE DUP2 MLOAD PUSH2 0xF26 DUP6 DUP3 PUSH2 0xEC5 JUMP JUMPDEST SWAP5 POP PUSH2 0xF31 DUP4 PUSH2 0xED8 JUMP JUMPDEST SWAP3 POP PUSH1 0x20 DUP11 ADD SWAP10 POP POP PUSH1 0x1 DUP2 ADD SWAP1 POP PUSH2 0xF0D JUMP JUMPDEST POP DUP3 SWAP8 POP DUP8 SWAP6 POP POP POP POP POP POP SWAP3 SWAP2 POP POP JUMP JUMPDEST PUSH0 PUSH1 0x20 DUP3 ADD SWAP1 POP DUP2 DUP2 SUB PUSH0 DUP4 ADD MSTORE PUSH2 0xF6F DUP2 DUP5 PUSH2 0xEE4 JUMP JUMPDEST SWAP1 POP SWAP3 SWAP2 POP POP JUMP JUMPDEST PUSH0 DUP2 SWAP1 POP SWAP2 SWAP1 POP JUMP JUMPDEST PUSH2 0xF89 DUP2 PUSH2 0xF77 JUMP JUMPDEST DUP2 EQ PUSH2 0xF93 JUMPI PUSH0 DUP1 REVERT JUMPDEST POP JUMP JUMPDEST PUSH0 DUP2 CALLDATALOAD SWAP1 POP PUSH2 0xFA4 DUP2 PUSH2 0xF80 JUMP JUMPDEST SWAP3 SWAP2 POP POP JUMP JUMPDEST PUSH0 PUSH1 0x20 DUP3 DUP5 SUB SLT ISZERO PUSH2 0xFBF JUMPI PUSH2 0xFBE PUSH2 0xC4E JUMP JUMPDEST JUMPDEST PUSH0 PUSH2 0xFCC DUP5 DUP3 DUP6 ADD PUSH2 0xF96 JUMP JUMPDEST SWAP2 POP POP SWAP3 SWAP2 POP POP JUMP JUMPDEST PUSH0 PUSH1 0x40 DUP3 ADD SWAP1 POP DUP2 DUP2 SUB PUSH0 DUP4 ADD MSTORE PUSH2 0xFED DUP2 DUP6 PUSH2 0xBED JUMP JUMPDEST SWAP1 POP PUSH2 0xFFC PUSH1 0x20 DUP4 ADD DUP5 PUSH2 0xDB8 JUMP JUMPDEST SWAP4 SWAP3 POP POP POP JUMP JUMPDEST PUSH0 DUP1 PUSH1 0x20 DUP4 DUP6 SUB SLT ISZERO PUSH2 0x1019 JUMPI PUSH2 0x1018 PUSH2 0xC4E JUMP JUMPDEST JUMPDEST PUSH0 DUP4 ADD CALLDATALOAD PUSH8 0xFFFFFFFFFFFFFFFF DUP2 GT ISZERO PUSH2 0x1036 JUMPI PUSH2 0x1035 PUSH2 0xC52 JUMP JUMPDEST JUMPDEST PUSH2 0x1042 DUP6 DUP3 DUP7 ADD PUSH2 0xCBC JUMP JUMPDEST SWAP3 POP SWAP3 POP POP SWAP3 POP SWAP3 SWAP1 POP JUMP JUMPDEST PUSH0 PUSH1 0x20 DUP3 DUP5 SUB SLT ISZERO PUSH2 0x1063 JUMPI PUSH2 0x1062 PUSH2 0xC4E JUMP JUMPDEST JUMPDEST PUSH0 PUSH2 0x1070 DUP5 DUP3 DUP6 ADD PUSH2 0xD33 JUMP JUMPDEST SWAP2 POP POP SWAP3 SWAP2 POP POP JUMP JUMPDEST PUSH0 DUP1 PUSH0 PUSH1 0x40 DUP5 DUP7 SUB SLT ISZERO PUSH2 0x1090 JUMPI PUSH2 0x108F PUSH2 0xC4E JUMP JUMPDEST JUMPDEST PUSH0 DUP5 ADD CALLDATALOAD PUSH8 0xFFFFFFFFFFFFFFFF DUP2 GT ISZERO PUSH2 0x10AD JUMPI PUSH2 0x10AC PUSH2 0xC52 JUMP JUMPDEST JUMPDEST PUSH2 0x10B9 DUP7 DUP3 DUP8 ADD PUSH2 0xCBC JUMP JUMPDEST SWAP4 POP SWAP4 POP POP PUSH1 0x20 PUSH2 0x10CC DUP7 DUP3 DUP8 ADD PUSH2 0xF96 JUMP JUMPDEST SWAP2 POP POP SWAP3 POP SWAP3 POP SWAP3 JUMP JUMPDEST PUSH0 DUP1 REVERT JUMPDEST PUSH0 PUSH1 0x40 DUP3 DUP5 SUB SLT ISZERO PUSH2 0x10EF JUMPI PUSH2 0x10EE PUSH2 0x10D6 JUMP JUMPDEST JUMPDEST DUP2 SWAP1 POP SWAP3 SWAP2 POP POP JUMP JUMPDEST PUSH0 PUSH1 0x20 DUP3 DUP5 SUB SLT ISZERO PUSH2 0x110D JUMPI PUSH2 0x110C PUSH2 0xC4E JUMP JUMPDEST JUMPDEST PUSH0 DUP3 ADD CALLDATALOAD PUSH8 0xFFFFFFFFFFFFFFFF DUP2 GT ISZERO PUSH2 0x112A JUMPI PUSH2 0x1129 PUSH2 0xC52 JUMP JUMPDEST JUMPDEST PUSH2 0x1136 DUP5 DUP3 DUP6 ADD PUSH2 0x10DA JUMP JUMPDEST SWAP2 POP POP SWAP3 SWAP2 POP POP JUMP JUMPDEST PUSH0 DUP1 PUSH1 0x40 DUP4 DUP6 SUB SLT ISZERO PUSH2 0x1155 JUMPI PUSH2 0x1154 PUSH2 0xC4E JUMP JUMPDEST JUMPDEST PUSH0 PUSH2 0x1162 DUP6 DUP3 DUP7 ADD PUSH2 0xC9C JUMP JUMPDEST SWAP3 POP POP PUSH1 0x20 DUP4 ADD CALLDATALOAD PUSH8 0xFFFFFFFFFFFFFFFF DUP2 GT ISZERO PUSH2 0x1183 JUMPI PUSH2 0x1182 PUSH2 0xC52 JUMP JUMPDEST JUMPDEST PUSH2 0x118F DUP6 DUP3 DUP7 ADD PUSH2 0x10DA JUMP JUMPDEST SWAP2 POP POP SWAP3 POP SWAP3 SWAP1 POP JUMP JUMPDEST PUSH0 DUP1 REVERT JUMPDEST PUSH32 0x4E487B7100000000000000000000000000000000000000000000000000000000 PUSH0 MSTORE PUSH1 0x41 PUSH1 0x4 MSTORE PUSH1 0x24 PUSH0 REVERT JUMPDEST PUSH2 0x11D3 DUP3 PUSH2 0xBDD JUMP JUMPDEST DUP2 ADD DUP2 DUP2 LT PUSH8 0xFFFFFFFFFFFFFFFF DUP3 GT OR ISZERO PUSH2 0x11F2 JUMPI PUSH2 0x11F1 PUSH2 0x119D JUMP JUMPDEST JUMPDEST DUP1 PUSH1 0x40 MSTORE POP POP POP JUMP JUMPDEST PUSH0 PUSH2 0x1204 PUSH2 0xC45 JUMP JUMPDEST SWAP1 POP PUSH2 0x1210 DUP3 DUP3 PUSH2 0x11CA JUMP JUMPDEST SWAP2 SWAP1 POP JUMP JUMPDEST PUSH0 PUSH8 0xFFFFFFFFFFFFFFFF DUP3 GT ISZERO PUSH2 0x122F JUMPI PUSH2 0x122E PUSH2 0x119D JUMP JUMPDEST JUMPDEST PUSH2 0x1238 DUP3 PUSH2 0xBDD JUMP JUMPDEST SWAP1 POP PUSH1 0x20 DUP2 ADD SWAP1 POP SWAP2 SWAP1 POP JUMP JUMPDEST DUP3 DUP2 DUP4 CALLDATACOPY PUSH0 DUP4 DUP4 ADD MSTORE POP POP POP JUMP JUMPDEST PUSH0 PUSH2 0x1265 PUSH2 0x1260 DUP5 PUSH2 0x1215 JUMP JUMPDEST PUSH2 0x11FB JUMP JUMPDEST SWAP1 POP DUP3 DUP2 MSTORE PUSH1 0x20 DUP2 ADD DUP5 DUP5 DUP5 ADD GT ISZERO PUSH2 0x1281 JUMPI PUSH2 0x1280 PUSH2 0x1199 JUMP JUMPDEST JUMPDEST PUSH2 0x128C DUP5 DUP3 DUP6 PUSH2 0x1245 JUMP JUMPDEST POP SWAP4 SWAP3 POP POP POP JUMP JUMPDEST PUSH0 DUP3 PUSH1 0x1F DUP4 ADD SLT PUSH2 0x12A8 JUMPI PUSH2 0x12A7 PUSH2 0xCB0 JUMP JUMPDEST JUMPDEST DUP2 CALLDATALOAD PUSH2 0x12B8 DUP5 DUP3 PUSH1 0x20 DUP7 ADD PUSH2 0x1253 JUMP JUMPDEST SWAP2 POP POP SWAP3 SWAP2 POP POP JUMP JUMPDEST PUSH0 PUSH1 0x20 DUP3 DUP5 SUB SLT ISZERO PUSH2 0x12D6 JUMPI PUSH2 0x12D5 PUSH2 0xC4E JUMP JUMPDEST JUMPDEST PUSH0 DUP3 ADD CALLDATALOAD PUSH8 0xFFFFFFFFFFFFFFFF DUP2 GT ISZERO PUSH2 0x12F3 JUMPI PUSH2 0x12F2 PUSH2 0xC52 JUMP JUMPDEST JUMPDEST PUSH2 0x12FF DUP5 DUP3 DUP6 ADD PUSH2 0x1294 JUMP JUMPDEST SWAP2 POP POP SWAP3 SWAP2 POP POP JUMP JUMPDEST PUSH0 DUP1 PUSH1 0x40 DUP4 DUP6 SUB SLT ISZERO PUSH2 0x131E JUMPI PUSH2 0x131D PUSH2 0xC4E JUMP JUMPDEST JUMPDEST PUSH0 PUSH2 0x132B DUP6 DUP3 DUP7 ADD PUSH2 0xC9C JUMP JUMPDEST SWAP3 POP POP PUSH1 0x20 PUSH2 0x133C DUP6 DUP3 DUP7 ADD PUSH2 0xD33 JUMP JUMPDEST SWAP2 POP POP SWAP3 POP SWAP3 SWAP1 POP JUMP JUMPDEST PUSH0 PUSH1 0x40 DUP4 ADD PUSH0 DUP4 ADD MLOAD DUP5 DUP3 SUB PUSH0 DUP7 ADD MSTORE PUSH2 0x1360 DUP3 DUP3 PUSH2 0xE44 JUMP JUMPDEST SWAP2 POP POP PUSH1 0x20 DUP4 ADD MLOAD PUSH2 0x1375 PUSH1 0x20 DUP7 ADD DUP3 PUSH2 0xE7C JUMP JUMPDEST POP DUP1 SWAP2 POP POP SWAP3 SWAP2 POP POP JUMP JUMPDEST PUSH0 PUSH1 0x20 DUP3 ADD SWAP1 POP DUP2 DUP2 SUB PUSH0 DUP4 ADD MSTORE PUSH2 0x1398 DUP2 DUP5 PUSH2 0x1346 JUMP JUMPDEST SWAP1 POP SWAP3 SWAP2 POP POP JUMP JUMPDEST PUSH0 DUP1 PUSH1 0x40 DUP4 DUP6 SUB SLT ISZERO PUSH2 0x13B6 JUMPI PUSH2 0x13B5 PUSH2 0xC4E JUMP JUMPDEST JUMPDEST PUSH0 PUSH2 0x13C3 DUP6 DUP3 DUP7 ADD PUSH2 0xC9C JUMP JUMPDEST SWAP3 POP POP PUSH1 0x20 PUSH2 0x13D4 DUP6 DUP3 DUP7 ADD PUSH2 0xF96 JUMP JUMPDEST SWAP2 POP POP SWAP3 POP SWAP3 SWAP1 POP JUMP JUMPDEST PUSH32 0x4E487B7100000000000000000000000000000000000000000000000000000000 PUSH0 MSTORE PUSH1 0x22 PUSH1 0x4 MSTORE PUSH1 0x24 PUSH0 REVERT JUMPDEST PUSH0 PUSH1 0x2 DUP3 DIV SWAP1 POP PUSH1 0x1 DUP3 AND DUP1 PUSH2 0x1422 JUMPI PUSH1 0x7F DUP3 AND SWAP2 POP JUMPDEST PUSH1 0x20 DUP3 LT DUP2 SUB PUSH2 0x1435 JUMPI PUSH2 0x1434 PUSH2 0x13DE JUMP JUMPDEST JUMPDEST POP SWAP2 SWAP1 POP JUMP JUMPDEST PUSH32 0x4E487B7100000000000000000000000000000000000000000000000000000000 PUSH0 MSTORE PUSH1 0x32 PUSH1 0x4 MSTORE PUSH1 0x24 PUSH0 REVERT JUMPDEST PUSH0 DUP3 SWAP1 POP SWAP3 SWAP2 POP POP JUMP JUMPDEST PUSH0 DUP2 SWAP1 POP DUP2 PUSH0 MSTORE PUSH1 0x20 PUSH0 KECCAK256 SWAP1 POP SWAP2 SWAP1 POP JUMP JUMPDEST PUSH0 PUSH1 0x20 PUSH1 0x1F DUP4 ADD DIV SWAP1 POP SWAP2 SWAP1 POP JUMP JUMPDEST PUSH0 DUP3 DUP3 SHL SWAP1 POP SWAP3 SWAP2 POP POP JUMP JUMPDEST PUSH0 PUSH1 0x8 DUP4 MUL PUSH2 0x14CE PUSH32 0xFFFFFFFFFFFFFFFFFFFFFFFFFFFFFFFFFFFFFFFFFFFFFFFFFFFFFFFFFFFFFFFF DUP3 PUSH2 0x1493 JUMP JUMPDEST PUSH2 0x14D8 DUP7 DUP4 PUSH2 0x1493 JUMP JUMPDEST SWAP6 POP DUP1 NOT DUP5 AND SWAP4 POP DUP1 DUP7 AND DUP5 OR SWAP3 POP POP POP SWAP4 SWAP3 POP POP POP JUMP JUMPDEST PUSH0 DUP2 SWAP1 POP SWAP2 SWAP1 POP JUMP JUMPDEST PUSH0 PUSH2 0x1513 PUSH2 0x150E PUSH2 0x1509 DUP5 PUSH2 0xF77 JUMP JUMPDEST PUSH2 0x14F0 JUMP JUMPDEST PUSH2 0xF77 JUMP JUMPDEST SWAP1 POP SWAP2 SWAP1 POP JUMP JUMPDEST PUSH0 DUP2 SWAP1 POP SWAP2 SWAP1 POP JUMP JUMPDEST PUSH2 0x152C DUP4 PUSH2 0x14F9 JUMP JUMPDEST PUSH2 0x1540 PUSH2 0x1538 DUP3 PUSH2 0x151A JUMP JUMPDEST DUP5 DUP5 SLOAD PUSH2 0x149F JUMP JUMPDEST DUP3 SSTORE POP POP POP POP JUMP JUMPDEST PUSH0 SWAP1 JUMP JUMPDEST PUSH2 0x1554 PUSH2 0x1548 JUMP JUMPDEST PUSH2 0x155F DUP2 DUP5 DUP5 PUSH2 0x1523 JUMP JUMPDEST POP POP POP JUMP JUMPDEST JUMPDEST DUP2 DUP2 LT ISZERO PUSH2 0x1582 JUMPI PUSH2 0x1577 PUSH0 DUP3 PUSH2 0x154C JUMP JUMPDEST PUSH1 0x1 DUP2 ADD SWAP1 POP PUSH2 0x1565 JUMP JUMPDEST POP POP JUMP JUMPDEST PUSH1 0x1F DUP3 GT ISZERO PUSH2 0x15C7 JUMPI PUSH2 0x1598 DUP2 PUSH2 0x1472 JUMP JUMPDEST PUSH2 0x15A1 DUP5 PUSH2 0x1484 JUMP JUMPDEST DUP2 ADD PUSH1 0x20 DUP6 LT ISZERO PUSH2 0x15B0 JUMPI DUP2 SWAP1 POP JUMPDEST PUSH2 0x15C4 PUSH2 0x15BC DUP6 PUSH2 0x1484 JUMP JUMPDEST DUP4 ADD DUP3 PUSH2 0x1564 JUMP JUMPDEST POP POP JUMPDEST POP POP POP JUMP JUMPDEST PUSH0 DUP3 DUP3 SHR SWAP1 POP SWAP3 SWAP2 POP POP JUMP JUMPDEST PUSH0 PUSH2 0x15E7 PUSH0 NOT DUP5 PUSH1 0x8 MUL PUSH2 0x15CC JUMP JUMPDEST NOT DUP1 DUP4 AND SWAP2 POP POP SWAP3 SWAP2 POP POP JUMP JUMPDEST PUSH0 PUSH2 0x15FF DUP4 DUP4 PUSH2 0x15D8 JUMP JUMPDEST SWAP2 POP DUP3 PUSH1 0x2 MUL DUP3 OR SWAP1 POP SWAP3 SWAP2 POP POP JUMP JUMPDEST PUSH2 0x1619 DUP4 DUP4 PUSH2 0x1468 JUMP JUMPDEST PUSH8 0xFFFFFFFFFFFFFFFF DUP2 GT ISZERO PUSH2 0x1632 JUMPI PUSH2 0x1631 PUSH2 0x119D JUMP JUMPDEST JUMPDEST PUSH2 0x163C DUP3 SLOAD PUSH2 0x140B JUMP JUMPDEST PUSH2 0x1647 DUP3 DUP3 DUP6 PUSH2 0x1586 JUMP JUMPDEST PUSH0 PUSH1 0x1F DUP4 GT PUSH1 0x1 DUP2 EQ PUSH2 0x1674 JUMPI PUSH0 DUP5 ISZERO PUSH2 0x1662 JUMPI DUP3 DUP8 ADD CALLDATALOAD SWAP1 POP JUMPDEST PUSH2 0x166C DUP6 DUP3 PUSH2 0x15F4 JUMP JUMPDEST DUP7 SSTORE POP PUSH2 0x16D3 JUMP JUMPDEST PUSH1 0x1F NOT DUP5 AND PUSH2 0x1682 DUP7 PUSH2 0x1472 JUMP JUMPDEST PUSH0 JUMPDEST DUP3 DUP2 LT ISZERO PUSH2 0x16A9 JUMPI DUP5 DUP10 ADD CALLDATALOAD DUP3 SSTORE PUSH1 0x1 DUP3 ADD SWAP2 POP PUSH1 0x20 DUP6 ADD SWAP5 POP PUSH1 0x20 DUP2 ADD SWAP1 POP PUSH2 0x1684 JUMP JUMPDEST DUP7 DUP4 LT ISZERO PUSH2 0x16C6 JUMPI DUP5 DUP10 ADD CALLDATALOAD PUSH2 0x16C2 PUSH1 0x1F DUP10 AND DUP3 PUSH2 0x15D8 JUMP JUMPDEST DUP4 SSTORE POP JUMPDEST PUSH1 0x1 PUSH1 0x2 DUP9 MUL ADD DUP9 SSTORE POP POP POP JUMPDEST POP POP POP POP POP POP POP JUMP JUMPDEST PUSH0 DUP2 SLOAD SWAP1 POP PUSH2 0x16EA DUP2 PUSH2 0x140B JUMP JUMPDEST SWAP1 POP SWAP2 SWAP1 POP JUMP JUMPDEST PUSH0 DUP2 SWAP1 POP DUP2 PUSH0 MSTORE PUSH1 0x20 PUSH0 KECCAK256 SWAP1 POP SWAP2 SWAP1 POP JUMP JUMPDEST DUP2 DUP2 SUB PUSH2 0x1711 JUMPI POP POP PUSH2 0x17E6 JUMP JUMPDEST PUSH2 0x171A DUP3 PUSH2 0x16DC JUMP JUMPDEST PUSH8 0xFFFFFFFFFFFFFFFF DUP2 GT ISZERO PUSH2 0x1733 JUMPI PUSH2 0x1732 PUSH2 0x119D JUMP JUMPDEST JUMPDEST PUSH2 0x173D DUP3 SLOAD PUSH2 0x140B JUMP JUMPDEST PUSH2 0x1748 DUP3 DUP3 DUP6 PUSH2 0x1586 JUMP JUMPDEST PUSH0 PUSH1 0x1F DUP4 GT PUSH1 0x1 DUP2 EQ PUSH2 0x1775 JUMPI PUSH0 DUP5 ISZERO PUSH2 0x1763 JUMPI DUP3 DUP8 ADD SLOAD SWAP1 POP JUMPDEST PUSH2 0x176D DUP6 DUP3 PUSH2 0x15F4 JUMP JUMPDEST DUP7 SSTORE POP PUSH2 0x17DF JUMP JUMPDEST PUSH1 0x1F NOT DUP5 AND PUSH2 0x1783 DUP8 PUSH2 0x16F1 JUMP JUMPDEST SWAP7 POP PUSH2 0x178E DUP7 PUSH2 0x1472 JUMP JUMPDEST PUSH0 JUMPDEST DUP3 DUP2 LT ISZERO PUSH2 0x17B5 JUMPI DUP5 DUP10 ADD SLOAD DUP3 SSTORE PUSH1 0x1 DUP3 ADD SWAP2 POP PUSH1 0x1 DUP6 ADD SWAP5 POP PUSH1 0x20 DUP2 ADD SWAP1 POP PUSH2 0x1790 JUMP JUMPDEST DUP7 DUP4 LT ISZERO PUSH2 0x17D2 JUMPI DUP5 DUP10 ADD SLOAD PUSH2 0x17CE PUSH1 0x1F DUP10 AND DUP3 PUSH2 0x15D8 JUMP JUMPDEST DUP4 SSTORE POP JUMPDEST PUSH1 0x1 PUSH1 0x2 DUP9 MUL ADD DUP9 SSTORE POP POP POP JUMPDEST POP POP POP POP POP POP JUMPDEST JUMP JUMPDEST PUSH0 DUP1 REVERT JUMPDEST PUSH0 DUP1 REVERT JUMPDEST PUSH0 DUP1 REVERT JUMPDEST PUSH0 DUP1 DUP4 CALLDATALOAD PUSH1 0x1 PUSH1 0x20 SUB DUP5 CALLDATASIZE SUB SUB DUP2 SLT PUSH2 0x1810 JUMPI PUSH2 0x180F PUSH2 0x17E8 JUMP JUMPDEST JUMPDEST DUP1 DUP5 ADD SWAP3 POP DUP3 CALLDATALOAD SWAP2 POP PUSH8 0xFFFFFFFFFFFFFFFF DUP3 GT ISZERO PUSH2 0x1832 JUMPI PUSH2 0x1831 PUSH2 0x17EC JUMP JUMPDEST JUMPDEST PUSH1 0x20 DUP4 ADD SWAP3 POP PUSH1 0x1 DUP3 MUL CALLDATASIZE SUB DUP4 SGT ISZERO PUSH2 0x184E JUMPI PUSH2 0x184D PUSH2 0x17F0 JUMP JUMPDEST JUMPDEST POP SWAP3 POP SWAP3 SWAP1 POP JUMP JUMPDEST PUSH2 0x1861 DUP4 DUP4 DUP4 PUSH2 0x160F JUMP JUMPDEST POP POP POP JUMP JUMPDEST PUSH0 DUP2 CALLDATALOAD PUSH2 0x1872 DUP2 PUSH2 0xD1D JUMP JUMPDEST DUP1 SWAP2 POP POP SWAP2 SWAP1 POP JUMP JUMPDEST PUSH0 DUP2 PUSH0 SHL SWAP1 POP SWAP2 SWAP1 POP JUMP JUMPDEST PUSH0 PUSH1 0xFF PUSH2 0x1892 DUP5 PUSH2 0x187B JUMP JUMPDEST SWAP4 POP DUP1 NOT DUP4 AND SWAP3 POP DUP1 DUP5 AND DUP4 OR SWAP2 POP POP SWAP3 SWAP2 POP POP JUMP JUMPDEST PUSH0 PUSH2 0x18C2 PUSH2 0x18BD PUSH2 0x18B8 DUP5 PUSH2 0xD11 JUMP JUMPDEST PUSH2 0x14F0 JUMP JUMPDEST PUSH2 0xD11 JUMP JUMPDEST SWAP1 POP SWAP2 SWAP1 POP JUMP JUMPDEST PUSH0 DUP2 SWAP1 POP SWAP2 SWAP1 POP JUMP JUMPDEST PUSH2 0x18DB DUP3 PUSH2 0x18A8 JUMP JUMPDEST PUSH2 0x18EE PUSH2 0x18E7 DUP3 PUSH2 0x18C9 JUMP JUMPDEST DUP4 SLOAD PUSH2 0x1886 JUMP JUMPDEST DUP3 SSTORE POP POP POP JUMP JUMPDEST PUSH0 DUP2 ADD PUSH0 DUP4 ADD PUSH2 0x1905 DUP2 DUP6 PUSH2 0x17F4 JUMP JUMPDEST PUSH2 0x1910 DUP2 DUP4 DUP7 PUSH2 0x1856 JUMP JUMPDEST POP POP POP POP PUSH1 0x1 DUP2 ADD PUSH1 0x20 DUP4 ADD DUP1 PUSH2 0x1926 DUP2 PUSH2 0x1866 JUMP JUMPDEST SWAP1 POP PUSH2 0x1932 DUP2 DUP5 PUSH2 0x18D2 JUMP JUMPDEST POP POP POP POP POP JUMP JUMPDEST PUSH2 0x1943 DUP3 DUP3 PUSH2 0x18F5 JUMP JUMPDEST POP POP JUMP JUMPDEST PUSH2 0x1950 DUP3 PUSH2 0xBB5 JUMP JUMPDEST PUSH8 0xFFFFFFFFFFFFFFFF DUP2 GT ISZERO PUSH2 0x1969 JUMPI PUSH2 0x1968 PUSH2 0x119D JUMP JUMPDEST JUMPDEST PUSH2 0x1973 DUP3 SLOAD PUSH2 0x140B JUMP JUMPDEST PUSH2 0x197E DUP3 DUP3 DUP6 PUSH2 0x1586 JUMP JUMPDEST PUSH0 PUSH1 0x20 SWAP1 POP PUSH1 0x1F DUP4 GT PUSH1 0x1 DUP2 EQ PUSH2 0x19AF JUMPI PUSH0 DUP5 ISZERO PUSH2 0x199D JUMPI DUP3 DUP8 ADD MLOAD SWAP1 POP JUMPDEST PUSH2 0x19A7 DUP6 DUP3 PUSH2 0x15F4 JUMP JUMPDEST DUP7 SSTORE POP PUSH2 0x1A0E JUMP JUMPDEST PUSH1 0x1F NOT DUP5 AND PUSH2 0x19BD DUP7 PUSH2 0x1472 JUMP JUMPDEST PUSH0 JUMPDEST DUP3 DUP2 LT ISZERO PUSH2 0x19E4 JUMPI DUP5 DUP10 ADD MLOAD DUP3 SSTORE PUSH1 0x1 DUP3 ADD SWAP2 POP PUSH1 0x20 DUP6 ADD SWAP5 POP PUSH1 0x20 DUP2 ADD SWAP1 POP PUSH2 0x19BF JUMP JUMPDEST DUP7 DUP4 LT ISZERO PUSH2 0x1A01 JUMPI DUP5 DUP10 ADD MLOAD PUSH2 0x19FD PUSH1 0x1F DUP10 AND DUP3 PUSH2 0x15D8 JUMP JUMPDEST DUP4 SSTORE POP JUMPDEST PUSH1 0x1 PUSH1 0x2 DUP9 MUL ADD DUP9 SSTORE POP POP POP JUMPDEST POP POP POP POP POP POP JUMP INVALID LOG2 PUSH5 0x6970667358 0x22 SLT KECCAK256 ADDMOD SUB SLOAD DUP1 COINBASE PUSH18 0xF92E4C5196E4094E6C961D8761DA8A6ECE86 0xBA DUP6 0xB4 EQ 0xD9 0xBE DUP14 0x25 PUSH5 0x736F6C6343 STOP ADDMOD BYTE STOP CALLER "
		},
		"gasEstimates": {
			"creation": {
				"codeDepositCost": "1346400",
				"executionCost": "1401",
				"totalCost": "1347801"
			},
			"external": {
				"age()": "2556",
				"employeeMapping(address,uint256)": "infinite",
				"employees(uint256)": "infinite",
				"getAllEmployeeMapping(address)": "infinite",
				"getEmployeeMapping(address,uint8)": "infinite",
				"getEmployeeName(uint8)": "infinite",
				"getName()": "infinite",
				"name()": "infinite",
				"name2()": "infinite",
				"setAge(uint8)": "24718",
				"setEmployee((string,uint8))": "infinite",
				"setEmployeeMapping(address,(string,uint8))": "infinite",
				"setNameWithCalldata(string)": "infinite",
				"setNameWithMemory(string)": "infinite",
				"setNameWithStorage()": "infinite",
				"updateEmployeeMappingName(address,string,uint8)": "infinite",
				"updateEmployeeName(string,uint256)": "infinite"
			}
		},
		"methodIdentifiers": {
			"age()": "262a9dff",
			"employeeMapping(address,uint256)": "cb78fd85",
			"employees(uint256)": "4739326b",
			"getAllEmployeeMapping(address)": "44067bb6",
			"getEmployeeMapping(address,uint8)": "a1f24968",
			"getEmployeeName(uint8)": "ff1a22cf",
			"getName()": "17d7de7c",
			"name()": "06fdde03",
			"name2()": "4b67f6af",
			"setAge(uint8)": "5b0c8d70",
			"setEmployee((string,uint8))": "7787d30b",
			"setEmployeeMapping(address,(string,uint8))": "85f8230b",
			"setNameWithCalldata(string)": "535bbfb9",
			"setNameWithMemory(string)": "a032a0eb",
			"setNameWithStorage()": "5499fb31",
			"updateEmployeeMappingName(address,string,uint8)": "2431e87e",
			"updateEmployeeName(string,uint256)": "66c74acb"
		}
	},
	"abi": [
		{
			"inputs": [],
			"name": "age",
			"outputs": [
				{
					"internalType": "uint8",
					"name": "",
					"type": "uint8"
				}
			],
			"stateMutability": "view",
			"type": "function"
		},
		{
			"inputs": [
				{
					"internalType": "address",
					"name": "",
					"type": "address"
				},
				{
					"internalType": "uint256",
					"name": "",
					"type": "uint256"
				}
			],
			"name": "employeeMapping",
			"outputs": [
				{
					"internalType": "string",
					"name": "name",
					"type": "string"
				},
				{
					"internalType": "uint8",
					"name": "age",
					"type": "uint8"
				}
			],
			"stateMutability": "view",
			"type": "function"
		},
		{
			"inputs": [
				{
					"internalType": "uint256",
					"name": "",
					"type": "uint256"
				}
			],
			"name": "employees",
			"outputs": [
				{
					"internalType": "string",
					"name": "name",
					"type": "string"
				},
				{
					"internalType": "uint8",
					"name": "age",
					"type": "uint8"
				}
			],
			"stateMutability": "view",
			"type": "function"
		},
		{
			"inputs": [
				{
					"internalType": "address",
					"name": "_address",
					"type": "address"
				}
			],
			"name": "getAllEmployeeMapping",
			"outputs": [
				{
					"components": [
						{
							"internalType": "string",
							"name": "name",
							"type": "string"
						},
						{
							"internalType": "uint8",
							"name": "age",
							"type": "uint8"
						}
					],
					"internalType": "struct StorageCalldataMemory.Employee[]",
					"name": "",
					"type": "tuple[]"
				}
			],
			"stateMutability": "view",
			"type": "function"
		},
		{
			"inputs": [
				{
					"internalType": "address",
					"name": "_address",
					"type": "address"
				},
				{
					"internalType": "uint8",
					"name": "_index",
					"type": "uint8"
				}
			],
			"name": "getEmployeeMapping",
			"outputs": [
				{
					"components": [
						{
							"internalType": "string",
							"name": "name",
							"type": "string"
						},
						{
							"internalType": "uint8",
							"name": "age",
							"type": "uint8"
						}
					],
					"internalType": "struct StorageCalldataMemory.Employee",
					"name": "",
					"type": "tuple"
				}
			],
			"stateMutability": "view",
			"type": "function"
		},
		{
			"inputs": [
				{
					"internalType": "uint8",
					"name": "_index",
					"type": "uint8"
				}
			],
			"name": "getEmployeeName",
			"outputs": [
				{
					"components": [
						{
							"internalType": "string",
							"name": "name",
							"type": "string"
						},
						{
							"internalType": "uint8",
							"name": "age",
							"type": "uint8"
						}
					],
					"internalType": "struct StorageCalldataMemory.Employee",
					"name": "",
					"type": "tuple"
				}
			],
			"stateMutability": "view",
			"type": "function"
		},
		{
			"inputs": [],
			"name": "getName",
			"outputs": [
				{
					"internalType": "string",
					"name": "",
					"type": "string"
				}
			],
			"stateMutability": "view",
			"type": "function"
		},
		{
			"inputs": [],
			"name": "name",
			"outputs": [
				{
					"internalType": "string",
					"name": "",
					"type": "string"
				}
			],
			"stateMutability": "view",
			"type": "function"
		},
		{
			"inputs": [],
			"name": "name2",
			"outputs": [
				{
					"internalType": "string",
					"name": "",
					"type": "string"
				}
			],
			"stateMutability": "view",
			"type": "function"
		},
		{
			"inputs": [
				{
					"internalType": "uint8",
					"name": "_age",
					"type": "uint8"
				}
			],
			"name": "setAge",
			"outputs": [],
			"stateMutability": "nonpayable",
			"type": "function"
		},
		{
			"inputs": [
				{
					"components": [
						{
							"internalType": "string",
							"name": "name",
							"type": "string"
						},
						{
							"internalType": "uint8",
							"name": "age",
							"type": "uint8"
						}
					],
					"internalType": "struct StorageCalldataMemory.Employee",
					"name": "_employee",
					"type": "tuple"
				}
			],
			"name": "setEmployee",
			"outputs": [],
			"stateMutability": "nonpayable",
			"type": "function"
		},
		{
			"inputs": [
				{
					"internalType": "address",
					"name": "_address",
					"type": "address"
				},
				{
					"components": [
						{
							"internalType": "string",
							"name": "name",
							"type": "string"
						},
						{
							"internalType": "uint8",
							"name": "age",
							"type": "uint8"
						}
					],
					"internalType": "struct StorageCalldataMemory.Employee",
					"name": "_employee",
					"type": "tuple"
				}
			],
			"name": "setEmployeeMapping",
			"outputs": [],
			"stateMutability": "nonpayable",
			"type": "function"
		},
		{
			"inputs": [
				{
					"internalType": "string",
					"name": "_name",
					"type": "string"
				}
			],
			"name": "setNameWithCalldata",
			"outputs": [],
			"stateMutability": "nonpayable",
			"type": "function"
		},
		{
			"inputs": [
				{
					"internalType": "string",
					"name": "_name",
					"type": "string"
				}
			],
			"name": "setNameWithMemory",
			"outputs": [],
			"stateMutability": "nonpayable",
			"type": "function"
		},
		{
			"inputs": [],
			"name": "setNameWithStorage",
			"outputs": [],
			"stateMutability": "nonpayable",
			"type": "function"
		},
		{
			"inputs": [
				{
					"internalType": "address",
					"name": "_address",
					"type": "address"
				},
				{
					"internalType": "string",
					"name": "_name",
					"type": "string"
				},
				{
					"internalType": "uint8",
					"name": "_index",
					"type": "uint8"
				}
			],
			"name": "updateEmployeeMappingName",
			"outputs": [],
			"stateMutability": "nonpayable",
			"type": "function"
		},
		{
			"inputs": [
				{
					"internalType": "string",
					"name": "_name",
					"type": "string"
				},
				{
					"internalType": "uint256",
					"name": "_index",
					"type": "uint256"
				}
			],
			"name": "updateEmployeeName",
			"outputs": [],
			"stateMutability": "nonpayable",
			"type": "function"
		}
	]
}