{
	"data": {
		"bytecode": {
			"linkReferences": {},
			"object": "608060405234801561001057600080fd5b506040516138ba3803806138ba8339818101604052810190610032919061041c565b85848481600090816100449190610714565b5080600190816100549190610714565b505050600073ffffffffffffffffffffffffffffffffffffffff168173ffffffffffffffffffffffffffffffffffffffff16036100c95760006040517f1e4fbdf70000000000000000000000000000000000000000000000000000000081526004016100c091906107f5565b60405180910390fd5b6100d88161011560201b60201c565b5080600890816100e89190610714565b508460098190555081600a60006101000a81548160ff021916908315150217905550505050505050610810565b6000600660009054906101000a900473ffffffffffffffffffffffffffffffffffffffff16905081600660006101000a81548173ffffffffffffffffffffffffffffffffffffffff021916908373ffffffffffffffffffffffffffffffffffffffff1602179055508173ffffffffffffffffffffffffffffffffffffffff168173ffffffffffffffffffffffffffffffffffffffff167f8be0079c531659141344cd1fd0a4f28419497f9722a3daafe3b4186f6b6457e060405160405180910390a35050565b6000604051905090565b600080fd5b600080fd5b600073ffffffffffffffffffffffffffffffffffffffff82169050919050565b600061021a826101ef565b9050919050565b61022a8161020f565b811461023557600080fd5b50565b60008151905061024781610221565b92915050565b6000819050919050565b6102608161024d565b811461026b57600080fd5b50565b60008151905061027d81610257565b92915050565b600080fd5b600080fd5b6000601f19601f8301169050919050565b7f4e487b7100000000000000000000000000000000000000000000000000000000600052604160045260246000fd5b6102d68261028d565b810181811067ffffffffffffffff821117156102f5576102f461029e565b5b80604052505050565b60006103086101db565b905061031482826102cd565b919050565b600067ffffffffffffffff8211156103345761033361029e565b5b61033d8261028d565b9050602081019050919050565b60005b8381101561036857808201518184015260208101905061034d565b60008484015250505050565b600061038761038284610319565b6102fe565b9050828152602081018484840111156103a3576103a2610288565b5b6103ae84828561034a565b509392505050565b600082601f8301126103cb576103ca610283565b5b81516103db848260208601610374565b91505092915050565b60008115159050919050565b6103f9816103e4565b811461040457600080fd5b50565b600081519050610416816103f0565b92915050565b60008060008060008060c08789031215610439576104386101e5565b5b600061044789828a01610238565b965050602061045889828a0161026e565b955050604087015167ffffffffffffffff811115610479576104786101ea565b5b61048589828a016103b6565b945050606087015167ffffffffffffffff8111156104a6576104a56101ea565b5b6104b289828a016103b6565b93505060806104c389828a01610407565b92505060a087015167ffffffffffffffff8111156104e4576104e36101ea565b5b6104f089828a016103b6565b9150509295509295509295565b600081519050919050565b7f4e487b7100000000000000000000000000000000000000000000000000000000600052602260045260246000fd5b6000600282049050600182168061054f57607f821691505b60208210810361056257610561610508565b5b50919050565b60008190508160005260206000209050919050565b60006020601f8301049050919050565b600082821b905092915050565b6000600883026105ca7fffffffffffffffffffffffffffffffffffffffffffffffffffffffffffffffff8261058d565b6105d4868361058d565b95508019841693508086168417925050509392505050565b6000819050919050565b600061061161060c6106078461024d565b6105ec565b61024d565b9050919050565b6000819050919050565b61062b836105f6565b61063f61063782610618565b84845461059a565b825550505050565b600090565b610654610647565b61065f818484610622565b505050565b5b818110156106835761067860008261064c565b600181019050610665565b5050565b601f8211156106c85761069981610568565b6106a28461057d565b810160208510156106b1578190505b6106c56106bd8561057d565b830182610664565b50505b505050565b600082821c905092915050565b60006106eb600019846008026106cd565b1980831691505092915050565b600061070483836106da565b9150826002028217905092915050565b61071d826104fd565b67ffffffffffffffff8111156107365761073561029e565b5b6107408254610537565b61074b828285610687565b600060209050601f83116001811461077e576000841561076c578287015190505b61077685826106f8565b8655506107de565b601f19841661078c86610568565b60005b828110156107b45784890151825560018201915060208501945060208101905061078f565b868310156107d157848901516107cd601f8916826106da565b8355505b6001600288020188555050505b505050505050565b6107ef8161020f565b82525050565b600060208201905061080a60008301846107e6565b92915050565b61309b8061081f6000396000f3fe608060405234801561001057600080fd5b50600436106101425760003560e01c806368573107116100b857806395d89b411161007c57806395d89b4114610389578063a22cb465146103a7578063b88d4fde146103c3578063c87b56dd146103df578063e985e9c51461040f578063f2fde38b1461043f57610142565b806368573107146102e35780636aaadb1c1461031357806370a0823114610331578063715018a6146103615780638da5cb5b1461036b57610142565b806323b872dd1161010a57806323b872dd1461021157806332cb6b0c1461022d57806340c10f191461024b57806342842e0e1461027b57806355f804b3146102975780636352211e146102b357610142565b806301ffc9a71461014757806306fdde0314610177578063081812fc14610195578063095ea7b3146101c55780631d1b8647146101e1575b600080fd5b610161600480360381019061015c9190611fb1565b61045b565b60405161016e9190611ff9565b60405180910390f35b61017f61053d565b60405161018c91906120a4565b60405180910390f35b6101af60048036038101906101aa91906120fc565b6105cf565b6040516101bc919061216a565b60405180910390f35b6101df60048036038101906101da91906121b1565b6105eb565b005b6101fb60048036038101906101f691906121f1565b610601565b6040516102089190612376565b60405180910390f35b61022b60048036038101906102269190612398565b610781565b005b610235610883565b60405161024291906123fa565b60405180910390f35b610265600480360381019061026091906121b1565b610889565b60405161027291906123fa565b60405180910390f35b61029560048036038101906102909190612398565b6109d6565b005b6102b160048036038101906102ac919061254a565b6109f6565b005b6102cd60048036038101906102c891906120fc565b610a11565b6040516102da919061216a565b60405180910390f35b6102fd60048036038101906102f8919061271e565b610a23565b60405161030a9190612845565b60405180910390f35b61031b610c95565b6040516103289190611ff9565b60405180910390f35b61034b600480360381019061034691906121f1565b610ca8565b60405161035891906123fa565b60405180910390f35b610369610d62565b005b610373610d76565b604051610380919061216a565b60405180910390f35b610391610da0565b60405161039e91906120a4565b60405180910390f35b6103c160048036038101906103bc9190612893565b610e32565b005b6103dd60048036038101906103d89190612974565b610e48565b005b6103f960048036038101906103f491906120fc565b610e65565b60405161040691906120a4565b60405180910390f35b610429600480360381019061042491906129f7565b610ece565b6040516104369190611ff9565b60405180910390f35b610459600480360381019061045491906121f1565b610f62565b005b60007f80ac58cd000000000000000000000000000000000000000000000000000000007bffffffffffffffffffffffffffffffffffffffffffffffffffffffff1916827bffffffffffffffffffffffffffffffffffffffffffffffffffffffff1916148061052657507f5b5e139f000000000000000000000000000000000000000000000000000000007bffffffffffffffffffffffffffffffffffffffffffffffffffffffff1916827bffffffffffffffffffffffffffffffffffffffffffffffffffffffff1916145b80610536575061053582610fe8565b5b9050919050565b60606000805461054c90612a66565b80601f016020809104026020016040519081016040528092919081815260200182805461057890612a66565b80156105c55780601f1061059a576101008083540402835291602001916105c5565b820191906000526020600020905b8154815290600101906020018083116105a857829003601f168201915b5050505050905090565b60006105da82611052565b506105e4826110da565b9050919050565b6105fd82826105f8611117565b61111f565b5050565b60606000600b60008473ffffffffffffffffffffffffffffffffffffffff1673ffffffffffffffffffffffffffffffffffffffff16815260200190815260200160002080548060200260200160405190810160405280929190818152602001828054801561068e57602002820191906000526020600020905b81548152602001906001019080831161067a575b505050505090506000815167ffffffffffffffff8111156106b2576106b161241f565b5b6040519080825280602002602001820160405280156106eb57816020015b6106d8611f2b565b8152602001906001900390816106d05790505b50905060005b825181101561077657604051806040016040528084838151811061071857610717612a97565b5b6020026020010151815260200161074885848151811061073b5761073a612a97565b5b6020026020010151610e65565b81525082828151811061075e5761075d612a97565b5b602002602001018190525080806001019150506106f1565b508092505050919050565b600073ffffffffffffffffffffffffffffffffffffffff168273ffffffffffffffffffffffffffffffffffffffff16036107f35760006040517f64a0ae920000000000000000000000000000000000000000000000000000000081526004016107ea919061216a565b60405180910390fd5b60006108078383610802611117565b611131565b90508373ffffffffffffffffffffffffffffffffffffffff168173ffffffffffffffffffffffffffffffffffffffff161461087d578382826040517f64283d7b00000000000000000000000000000000000000000000000000000000815260040161087493929190612ac6565b60405180910390fd5b50505050565b60095481565b600061089361134b565b6000600954146108e457600954600754106108e3576040517f08c379a00000000000000000000000000000000000000000000000000000000081526004016108da90612b49565b60405180910390fd5b5b600a60009054906101000a900460ff161561094557600061090484610ca8565b14610944576040517f08c379a000000000000000000000000000000000000000000000000000000000815260040161093b90612bb5565b60405180910390fd5b5b6007600081548092919061095890612c04565b919050555061096783836113d2565b600b60008473ffffffffffffffffffffffffffffffffffffffff1673ffffffffffffffffffffffffffffffffffffffff16815260200190815260200160002082908060018154018082558091505060019003906000526020600020016000909190919091505581905092915050565b6109f183838360405180602001604052806000815250610e48565b505050565b6109fe61134b565b8060089081610a0d9190612df8565b5050565b6000610a1c82611052565b9050919050565b6060610a2d61134b565b6000835167ffffffffffffffff811115610a4a57610a4961241f565b5b604051908082528060200260200182016040528015610a785781602001602082028036833780820191505090505b50905060005b8451811015610c8a57600060095414610ad85760095460075410610ad7576040517f08c379a0000000000000000000000000000000000000000000000000000000008152600401610ace90612b49565b60405180910390fd5b5b600a60009054906101000a900460ff1615610b53576000610b12868381518110610b0557610b04612a97565b5b6020026020010151610ca8565b14610b52576040517f08c379a0000000000000000000000000000000000000000000000000000000008152600401610b4990612bb5565b60405180910390fd5b5b60076000815480929190610b6690612c04565b9190505550610ba9858281518110610b8157610b80612a97565b5b6020026020010151858381518110610b9c57610b9b612a97565b5b60200260200101516113d2565b600b6000868381518110610bc057610bbf612a97565b5b602002602001015173ffffffffffffffffffffffffffffffffffffffff1673ffffffffffffffffffffffffffffffffffffffff168152602001908152602001600020848281518110610c1557610c14612a97565b5b60200260200101519080600181540180825580915050600190039060005260206000200160009091909190915055838181518110610c5657610c55612a97565b5b6020026020010151828281518110610c7157610c70612a97565b5b6020026020010181815250508080600101915050610a7e565b508091505092915050565b600a60009054906101000a900460ff1681565b60008073ffffffffffffffffffffffffffffffffffffffff168273ffffffffffffffffffffffffffffffffffffffff1603610d1b5760006040517f89c62b64000000000000000000000000000000000000000000000000000000008152600401610d12919061216a565b60405180910390fd5b600360008373ffffffffffffffffffffffffffffffffffffffff1673ffffffffffffffffffffffffffffffffffffffff168152602001908152602001600020549050919050565b610d6a61134b565b610d7460006113f0565b565b6000600660009054906101000a900473ffffffffffffffffffffffffffffffffffffffff16905090565b606060018054610daf90612a66565b80601f0160208091040260200160405190810160405280929190818152602001828054610ddb90612a66565b8015610e285780601f10610dfd57610100808354040283529160200191610e28565b820191906000526020600020905b815481529060010190602001808311610e0b57829003601f168201915b5050505050905090565b610e44610e3d611117565b83836114b6565b5050565b610e53848484610781565b610e5f84848484611625565b50505050565b6060610e7082611052565b506000610e7b6117dc565b90506000815111610e9b5760405180602001604052806000815250610ec6565b80610ea58461186e565b604051602001610eb6929190612f06565b6040516020818303038152906040525b915050919050565b6000600560008473ffffffffffffffffffffffffffffffffffffffff1673ffffffffffffffffffffffffffffffffffffffff16815260200190815260200160002060008373ffffffffffffffffffffffffffffffffffffffff1673ffffffffffffffffffffffffffffffffffffffff16815260200190815260200160002060009054906101000a900460ff16905092915050565b610f6a61134b565b600073ffffffffffffffffffffffffffffffffffffffff168173ffffffffffffffffffffffffffffffffffffffff1603610fdc5760006040517f1e4fbdf7000000000000000000000000000000000000000000000000000000008152600401610fd3919061216a565b60405180910390fd5b610fe5816113f0565b50565b60007f01ffc9a7000000000000000000000000000000000000000000000000000000007bffffffffffffffffffffffffffffffffffffffffffffffffffffffff1916827bffffffffffffffffffffffffffffffffffffffffffffffffffffffff1916149050919050565b60008061105e8361193c565b9050600073ffffffffffffffffffffffffffffffffffffffff168173ffffffffffffffffffffffffffffffffffffffff16036110d157826040517f7e2732890000000000000000000000000000000000000000000000000000000081526004016110c891906123fa565b60405180910390fd5b80915050919050565b60006004600083815260200190815260200160002060009054906101000a900473ffffffffffffffffffffffffffffffffffffffff169050919050565b600033905090565b61112c8383836001611979565b505050565b60008061113d8461193c565b9050600073ffffffffffffffffffffffffffffffffffffffff168373ffffffffffffffffffffffffffffffffffffffff161461117f5761117e818486611b3e565b5b600073ffffffffffffffffffffffffffffffffffffffff168173ffffffffffffffffffffffffffffffffffffffff1614611210576111c1600085600080611979565b6001600360008373ffffffffffffffffffffffffffffffffffffffff1673ffffffffffffffffffffffffffffffffffffffff168152602001908152602001600020600082825403925050819055505b600073ffffffffffffffffffffffffffffffffffffffff168573ffffffffffffffffffffffffffffffffffffffff1614611293576001600360008773ffffffffffffffffffffffffffffffffffffffff1673ffffffffffffffffffffffffffffffffffffffff168152602001908152602001600020600082825401925050819055505b846002600086815260200190815260200160002060006101000a81548173ffffffffffffffffffffffffffffffffffffffff021916908373ffffffffffffffffffffffffffffffffffffffff160217905550838573ffffffffffffffffffffffffffffffffffffffff168273ffffffffffffffffffffffffffffffffffffffff167fddf252ad1be2c89b69c2b068fc378daa952ba7f163c4a11628f55a4df523b3ef60405160405180910390a4809150509392505050565b611353611117565b73ffffffffffffffffffffffffffffffffffffffff16611371610d76565b73ffffffffffffffffffffffffffffffffffffffff16146113d057611394611117565b6040517f118cdaa70000000000000000000000000000000000000000000000000000000081526004016113c7919061216a565b60405180910390fd5b565b6113ec828260405180602001604052806000815250611c02565b5050565b6000600660009054906101000a900473ffffffffffffffffffffffffffffffffffffffff16905081600660006101000a81548173ffffffffffffffffffffffffffffffffffffffff021916908373ffffffffffffffffffffffffffffffffffffffff1602179055508173ffffffffffffffffffffffffffffffffffffffff168173ffffffffffffffffffffffffffffffffffffffff167f8be0079c531659141344cd1fd0a4f28419497f9722a3daafe3b4186f6b6457e060405160405180910390a35050565b600073ffffffffffffffffffffffffffffffffffffffff168273ffffffffffffffffffffffffffffffffffffffff160361152757816040517f5b08ba1800000000000000000000000000000000000000000000000000000000815260040161151e919061216a565b60405180910390fd5b80600560008573ffffffffffffffffffffffffffffffffffffffff1673ffffffffffffffffffffffffffffffffffffffff16815260200190815260200160002060008473ffffffffffffffffffffffffffffffffffffffff1673ffffffffffffffffffffffffffffffffffffffff16815260200190815260200160002060006101000a81548160ff0219169083151502179055508173ffffffffffffffffffffffffffffffffffffffff168373ffffffffffffffffffffffffffffffffffffffff167f17307eab39ab6107e8899845ad3d59bd9653f200f220920489ca2b5937696c31836040516116189190611ff9565b60405180910390a3505050565b60008373ffffffffffffffffffffffffffffffffffffffff163b11156117d6578273ffffffffffffffffffffffffffffffffffffffff1663150b7a02611669611117565b8685856040518563ffffffff1660e01b815260040161168b9493929190612f7f565b6020604051808303816000875af19250505080156116c757506040513d601f19601f820116820180604052508101906116c49190612fe0565b60015b61174b573d80600081146116f7576040519150601f19603f3d011682016040523d82523d6000602084013e6116fc565b606091505b50600081510361174357836040517f64a0ae9200000000000000000000000000000000000000000000000000000000815260040161173a919061216a565b60405180910390fd5b805181602001fd5b63150b7a0260e01b7bffffffffffffffffffffffffffffffffffffffffffffffffffffffff1916817bffffffffffffffffffffffffffffffffffffffffffffffffffffffff1916146117d457836040517f64a0ae920000000000000000000000000000000000000000000000000000000081526004016117cb919061216a565b60405180910390fd5b505b50505050565b6060600880546117eb90612a66565b80601f016020809104026020016040519081016040528092919081815260200182805461181790612a66565b80156118645780601f1061183957610100808354040283529160200191611864565b820191906000526020600020905b81548152906001019060200180831161184757829003601f168201915b5050505050905090565b60606000600161187d84611c1e565b01905060008167ffffffffffffffff81111561189c5761189b61241f565b5b6040519080825280601f01601f1916602001820160405280156118ce5781602001600182028036833780820191505090505b509050600082602001820190505b600115611931578080600190039150507f3031323334353637383961626364656600000000000000000000000000000000600a86061a8153600a85816119255761192461300d565b5b049450600085036118dc575b819350505050919050565b60006002600083815260200190815260200160002060009054906101000a900473ffffffffffffffffffffffffffffffffffffffff169050919050565b80806119b25750600073ffffffffffffffffffffffffffffffffffffffff168273ffffffffffffffffffffffffffffffffffffffff1614155b15611ae65760006119c284611052565b9050600073ffffffffffffffffffffffffffffffffffffffff168373ffffffffffffffffffffffffffffffffffffffff1614158015611a2d57508273ffffffffffffffffffffffffffffffffffffffff168173ffffffffffffffffffffffffffffffffffffffff1614155b8015611a405750611a3e8184610ece565b155b15611a8257826040517fa9fbf51f000000000000000000000000000000000000000000000000000000008152600401611a79919061216a565b60405180910390fd5b8115611ae457838573ffffffffffffffffffffffffffffffffffffffff168273ffffffffffffffffffffffffffffffffffffffff167f8c5be1e5ebec7d5bd14f71427d1e84f3dd0314c0f7b2291e5b200ac8c7c3b92560405160405180910390a45b505b836004600085815260200190815260200160002060006101000a81548173ffffffffffffffffffffffffffffffffffffffff021916908373ffffffffffffffffffffffffffffffffffffffff16021790555050505050565b611b49838383611d71565b611bfd57600073ffffffffffffffffffffffffffffffffffffffff168373ffffffffffffffffffffffffffffffffffffffff1603611bbe57806040517f7e273289000000000000000000000000000000000000000000000000000000008152600401611bb591906123fa565b60405180910390fd5b81816040517f177e802f000000000000000000000000000000000000000000000000000000008152600401611bf492919061303c565b60405180910390fd5b505050565b611c0c8383611e32565b611c196000848484611625565b505050565b600080600090507a184f03e93ff9f4daa797ed6e38ed64bf6a1f0100000000000000008310611c7c577a184f03e93ff9f4daa797ed6e38ed64bf6a1f0100000000000000008381611c7257611c7161300d565b5b0492506040810190505b6d04ee2d6d415b85acef81000000008310611cb9576d04ee2d6d415b85acef81000000008381611caf57611cae61300d565b5b0492506020810190505b662386f26fc100008310611ce857662386f26fc100008381611cde57611cdd61300d565b5b0492506010810190505b6305f5e1008310611d11576305f5e1008381611d0757611d0661300d565b5b0492506008810190505b6127108310611d36576127108381611d2c57611d2b61300d565b5b0492506004810190505b60648310611d595760648381611d4f57611d4e61300d565b5b0492506002810190505b600a8310611d68576001810190505b80915050919050565b60008073ffffffffffffffffffffffffffffffffffffffff168373ffffffffffffffffffffffffffffffffffffffff1614158015611e2957508273ffffffffffffffffffffffffffffffffffffffff168473ffffffffffffffffffffffffffffffffffffffff161480611dea5750611de98484610ece565b5b80611e2857508273ffffffffffffffffffffffffffffffffffffffff16611e10836110da565b73ffffffffffffffffffffffffffffffffffffffff16145b5b90509392505050565b600073ffffffffffffffffffffffffffffffffffffffff168273ffffffffffffffffffffffffffffffffffffffff1603611ea45760006040517f64a0ae92000000000000000000000000000000000000000000000000000000008152600401611e9b919061216a565b60405180910390fd5b6000611eb283836000611131565b9050600073ffffffffffffffffffffffffffffffffffffffff168173ffffffffffffffffffffffffffffffffffffffff1614611f265760006040517f73c6ac6e000000000000000000000000000000000000000000000000000000008152600401611f1d919061216a565b60405180910390fd5b505050565b604051806040016040528060008152602001606081525090565b6000604051905090565b600080fd5b600080fd5b60007fffffffff0000000000000000000000000000000000000000000000000000000082169050919050565b611f8e81611f59565b8114611f9957600080fd5b50565b600081359050611fab81611f85565b92915050565b600060208284031215611fc757611fc6611f4f565b5b6000611fd584828501611f9c565b91505092915050565b60008115159050919050565b611ff381611fde565b82525050565b600060208201905061200e6000830184611fea565b92915050565b600081519050919050565b600082825260208201905092915050565b60005b8381101561204e578082015181840152602081019050612033565b60008484015250505050565b6000601f19601f8301169050919050565b600061207682612014565b612080818561201f565b9350612090818560208601612030565b6120998161205a565b840191505092915050565b600060208201905081810360008301526120be818461206b565b905092915050565b6000819050919050565b6120d9816120c6565b81146120e457600080fd5b50565b6000813590506120f6816120d0565b92915050565b60006020828403121561211257612111611f4f565b5b6000612120848285016120e7565b91505092915050565b600073ffffffffffffffffffffffffffffffffffffffff82169050919050565b600061215482612129565b9050919050565b61216481612149565b82525050565b600060208201905061217f600083018461215b565b92915050565b61218e81612149565b811461219957600080fd5b50565b6000813590506121ab81612185565b92915050565b600080604083850312156121c8576121c7611f4f565b5b60006121d68582860161219c565b92505060206121e7858286016120e7565b9150509250929050565b60006020828403121561220757612206611f4f565b5b60006122158482850161219c565b91505092915050565b600081519050919050565b600082825260208201905092915050565b6000819050602082019050919050565b612253816120c6565b82525050565b600082825260208201905092915050565b600061227582612014565b61227f8185612259565b935061228f818560208601612030565b6122988161205a565b840191505092915050565b60006040830160008301516122bb600086018261224a565b50602083015184820360208601526122d3828261226a565b9150508091505092915050565b60006122ec83836122a3565b905092915050565b6000602082019050919050565b600061230c8261221e565b6123168185612229565b9350836020820285016123288561223a565b8060005b85811015612364578484038952815161234585826122e0565b9450612350836122f4565b925060208a0199505060018101905061232c565b50829750879550505050505092915050565b600060208201905081810360008301526123908184612301565b905092915050565b6000806000606084860312156123b1576123b0611f4f565b5b60006123bf8682870161219c565b93505060206123d08682870161219c565b92505060406123e1868287016120e7565b9150509250925092565b6123f4816120c6565b82525050565b600060208201905061240f60008301846123eb565b92915050565b600080fd5b600080fd5b7f4e487b7100000000000000000000000000000000000000000000000000000000600052604160045260246000fd5b6124578261205a565b810181811067ffffffffffffffff821117156124765761247561241f565b5b80604052505050565b6000612489611f45565b9050612495828261244e565b919050565b600067ffffffffffffffff8211156124b5576124b461241f565b5b6124be8261205a565b9050602081019050919050565b82818337600083830152505050565b60006124ed6124e88461249a565b61247f565b9050828152602081018484840111156125095761250861241a565b5b6125148482856124cb565b509392505050565b600082601f83011261253157612530612415565b5b81356125418482602086016124da565b91505092915050565b6000602082840312156125605761255f611f4f565b5b600082013567ffffffffffffffff81111561257e5761257d611f54565b5b61258a8482850161251c565b91505092915050565b600067ffffffffffffffff8211156125ae576125ad61241f565b5b602082029050602081019050919050565b600080fd5b60006125d76125d284612593565b61247f565b905080838252602082019050602084028301858111156125fa576125f96125bf565b5b835b81811015612623578061260f888261219c565b8452602084019350506020810190506125fc565b5050509392505050565b600082601f83011261264257612641612415565b5b81356126528482602086016125c4565b91505092915050565b600067ffffffffffffffff8211156126765761267561241f565b5b602082029050602081019050919050565b600061269a6126958461265b565b61247f565b905080838252602082019050602084028301858111156126bd576126bc6125bf565b5b835b818110156126e657806126d288826120e7565b8452602084019350506020810190506126bf565b5050509392505050565b600082601f83011261270557612704612415565b5b8135612715848260208601612687565b91505092915050565b6000806040838503121561273557612734611f4f565b5b600083013567ffffffffffffffff81111561275357612752611f54565b5b61275f8582860161262d565b925050602083013567ffffffffffffffff8111156127805761277f611f54565b5b61278c858286016126f0565b9150509250929050565b600081519050919050565b600082825260208201905092915050565b6000819050602082019050919050565b60006127ce838361224a565b60208301905092915050565b6000602082019050919050565b60006127f282612796565b6127fc81856127a1565b9350612807836127b2565b8060005b8381101561283857815161281f88826127c2565b975061282a836127da565b92505060018101905061280b565b5085935050505092915050565b6000602082019050818103600083015261285f81846127e7565b905092915050565b61287081611fde565b811461287b57600080fd5b50565b60008135905061288d81612867565b92915050565b600080604083850312156128aa576128a9611f4f565b5b60006128b88582860161219c565b92505060206128c98582860161287e565b9150509250929050565b600067ffffffffffffffff8211156128ee576128ed61241f565b5b6128f78261205a565b9050602081019050919050565b6000612917612912846128d3565b61247f565b9050828152602081018484840111156129335761293261241a565b5b61293e8482856124cb565b509392505050565b600082601f83011261295b5761295a612415565b5b813561296b848260208601612904565b91505092915050565b6000806000806080858703121561298e5761298d611f4f565b5b600061299c8782880161219c565b94505060206129ad8782880161219c565b93505060406129be878288016120e7565b925050606085013567ffffffffffffffff8111156129df576129de611f54565b5b6129eb87828801612946565b91505092959194509250565b60008060408385031215612a0e57612a0d611f4f565b5b6000612a1c8582860161219c565b9250506020612a2d8582860161219c565b9150509250929050565b7f4e487b7100000000000000000000000000000000000000000000000000000000600052602260045260246000fd5b60006002820490506001821680612a7e57607f821691505b602082108103612a9157612a90612a37565b5b50919050565b7f4e487b7100000000000000000000000000000000000000000000000000000000600052603260045260246000fd5b6000606082019050612adb600083018661215b565b612ae860208301856123eb565b612af5604083018461215b565b949350505050565b7f4d617820737570706c7920726561636865640000000000000000000000000000600082015250565b6000612b3360128361201f565b9150612b3e82612afd565b602082019050919050565b60006020820190508181036000830152612b6281612b26565b9050919050565b7f4d6178204d696e74207065722077616c6c657420726561636865640000000000600082015250565b6000612b9f601b8361201f565b9150612baa82612b69565b602082019050919050565b60006020820190508181036000830152612bce81612b92565b9050919050565b7f4e487b7100000000000000000000000000000000000000000000000000000000600052601160045260246000fd5b6000612c0f826120c6565b91507fffffffffffffffffffffffffffffffffffffffffffffffffffffffffffffffff8203612c4157612c40612bd5565b5b600182019050919050565b60008190508160005260206000209050919050565b60006020601f8301049050919050565b600082821b905092915050565b600060088302612cae7fffffffffffffffffffffffffffffffffffffffffffffffffffffffffffffffff82612c71565b612cb88683612c71565b95508019841693508086168417925050509392505050565b6000819050919050565b6000612cf5612cf0612ceb846120c6565b612cd0565b6120c6565b9050919050565b6000819050919050565b612d0f83612cda565b612d23612d1b82612cfc565b848454612c7e565b825550505050565b600090565b612d38612d2b565b612d43818484612d06565b505050565b5b81811015612d6757612d5c600082612d30565b600181019050612d49565b5050565b601f821115612dac57612d7d81612c4c565b612d8684612c61565b81016020851015612d95578190505b612da9612da185612c61565b830182612d48565b50505b505050565b600082821c905092915050565b6000612dcf60001984600802612db1565b1980831691505092915050565b6000612de88383612dbe565b9150826002028217905092915050565b612e0182612014565b67ffffffffffffffff811115612e1a57612e1961241f565b5b612e248254612a66565b612e2f828285612d6b565b600060209050601f831160018114612e625760008415612e50578287015190505b612e5a8582612ddc565b865550612ec2565b601f198416612e7086612c4c565b60005b82811015612e9857848901518255600182019150602085019450602081019050612e73565b86831015612eb55784890151612eb1601f891682612dbe565b8355505b6001600288020188555050505b505050505050565b600081905092915050565b6000612ee082612014565b612eea8185612eca565b9350612efa818560208601612030565b80840191505092915050565b6000612f128285612ed5565b9150612f1e8284612ed5565b91508190509392505050565b600081519050919050565b600082825260208201905092915050565b6000612f5182612f2a565b612f5b8185612f35565b9350612f6b818560208601612030565b612f748161205a565b840191505092915050565b6000608082019050612f94600083018761215b565b612fa1602083018661215b565b612fae60408301856123eb565b8181036060830152612fc08184612f46565b905095945050505050565b600081519050612fda81611f85565b92915050565b600060208284031215612ff657612ff5611f4f565b5b600061300484828501612fcb565b91505092915050565b7f4e487b7100000000000000000000000000000000000000000000000000000000600052601260045260246000fd5b6000604082019050613051600083018561215b565b61305e60208301846123eb565b939250505056fea2646970667358221220931732cfe7bbbddcc8ceb3347101c4dbd9162ec4922383decd82b2dae0dedf6b64736f6c634300081a0033",
			"opcodes": "PUSH1 0x80 PUSH1 0x40 MSTORE CALLVALUE DUP1 ISZERO PUSH2 0x10 JUMPI PUSH1 0x0 DUP1 REVERT JUMPDEST POP PUSH1 0x40 MLOAD PUSH2 0x38BA CODESIZE SUB DUP1 PUSH2 0x38BA DUP4 CODECOPY DUP2 DUP2 ADD PUSH1 0x40 MSTORE DUP2 ADD SWAP1 PUSH2 0x32 SWAP2 SWAP1 PUSH2 0x41C JUMP JUMPDEST DUP6 DUP5 DUP5 DUP2 PUSH1 0x0 SWAP1 DUP2 PUSH2 0x44 SWAP2 SWAP1 PUSH2 0x714 JUMP JUMPDEST POP DUP1 PUSH1 0x1 SWAP1 DUP2 PUSH2 0x54 SWAP2 SWAP1 PUSH2 0x714 JUMP JUMPDEST POP POP POP PUSH1 0x0 PUSH20 0xFFFFFFFFFFFFFFFFFFFFFFFFFFFFFFFFFFFFFFFF AND DUP2 PUSH20 0xFFFFFFFFFFFFFFFFFFFFFFFFFFFFFFFFFFFFFFFF AND SUB PUSH2 0xC9 JUMPI PUSH1 0x0 PUSH1 0x40 MLOAD PUSH32 0x1E4FBDF700000000000000000000000000000000000000000000000000000000 DUP2 MSTORE PUSH1 0x4 ADD PUSH2 0xC0 SWAP2 SWAP1 PUSH2 0x7F5 JUMP JUMPDEST PUSH1 0x40 MLOAD DUP1 SWAP2 SUB SWAP1 REVERT JUMPDEST PUSH2 0xD8 DUP2 PUSH2 0x115 PUSH1 0x20 SHL PUSH1 0x20 SHR JUMP JUMPDEST POP DUP1 PUSH1 0x8 SWAP1 DUP2 PUSH2 0xE8 SWAP2 SWAP1 PUSH2 0x714 JUMP JUMPDEST POP DUP5 PUSH1 0x9 DUP2 SWAP1 SSTORE POP DUP2 PUSH1 0xA PUSH1 0x0 PUSH2 0x100 EXP DUP2 SLOAD DUP2 PUSH1 0xFF MUL NOT AND SWAP1 DUP4 ISZERO ISZERO MUL OR SWAP1 SSTORE POP POP POP POP POP POP POP PUSH2 0x810 JUMP JUMPDEST PUSH1 0x0 PUSH1 0x6 PUSH1 0x0 SWAP1 SLOAD SWAP1 PUSH2 0x100 EXP SWAP1 DIV PUSH20 0xFFFFFFFFFFFFFFFFFFFFFFFFFFFFFFFFFFFFFFFF AND SWAP1 POP DUP2 PUSH1 0x6 PUSH1 0x0 PUSH2 0x100 EXP DUP2 SLOAD DUP2 PUSH20 0xFFFFFFFFFFFFFFFFFFFFFFFFFFFFFFFFFFFFFFFF MUL NOT AND SWAP1 DUP4 PUSH20 0xFFFFFFFFFFFFFFFFFFFFFFFFFFFFFFFFFFFFFFFF AND MUL OR SWAP1 SSTORE POP DUP2 PUSH20 0xFFFFFFFFFFFFFFFFFFFFFFFFFFFFFFFFFFFFFFFF AND DUP2 PUSH20 0xFFFFFFFFFFFFFFFFFFFFFFFFFFFFFFFFFFFFFFFF AND PUSH32 0x8BE0079C531659141344CD1FD0A4F28419497F9722A3DAAFE3B4186F6B6457E0 PUSH1 0x40 MLOAD PUSH1 0x40 MLOAD DUP1 SWAP2 SUB SWAP1 LOG3 POP POP JUMP JUMPDEST PUSH1 0x0 PUSH1 0x40 MLOAD SWAP1 POP SWAP1 JUMP JUMPDEST PUSH1 0x0 DUP1 REVERT JUMPDEST PUSH1 0x0 DUP1 REVERT JUMPDEST PUSH1 0x0 PUSH20 0xFFFFFFFFFFFFFFFFFFFFFFFFFFFFFFFFFFFFFFFF DUP3 AND SWAP1 POP SWAP2 SWAP1 POP JUMP JUMPDEST PUSH1 0x0 PUSH2 0x21A DUP3 PUSH2 0x1EF JUMP JUMPDEST SWAP1 POP SWAP2 SWAP1 POP JUMP JUMPDEST PUSH2 0x22A DUP2 PUSH2 0x20F JUMP JUMPDEST DUP2 EQ PUSH2 0x235 JUMPI PUSH1 0x0 DUP1 REVERT JUMPDEST POP JUMP JUMPDEST PUSH1 0x0 DUP2 MLOAD SWAP1 POP PUSH2 0x247 DUP2 PUSH2 0x221 JUMP JUMPDEST SWAP3 SWAP2 POP POP JUMP JUMPDEST PUSH1 0x0 DUP2 SWAP1 POP SWAP2 SWAP1 POP JUMP JUMPDEST PUSH2 0x260 DUP2 PUSH2 0x24D JUMP JUMPDEST DUP2 EQ PUSH2 0x26B JUMPI PUSH1 0x0 DUP1 REVERT JUMPDEST POP JUMP JUMPDEST PUSH1 0x0 DUP2 MLOAD SWAP1 POP PUSH2 0x27D DUP2 PUSH2 0x257 JUMP JUMPDEST SWAP3 SWAP2 POP POP JUMP JUMPDEST PUSH1 0x0 DUP1 REVERT JUMPDEST PUSH1 0x0 DUP1 REVERT JUMPDEST PUSH1 0x0 PUSH1 0x1F NOT PUSH1 0x1F DUP4 ADD AND SWAP1 POP SWAP2 SWAP1 POP JUMP JUMPDEST PUSH32 0x4E487B7100000000000000000000000000000000000000000000000000000000 PUSH1 0x0 MSTORE PUSH1 0x41 PUSH1 0x4 MSTORE PUSH1 0x24 PUSH1 0x0 REVERT JUMPDEST PUSH2 0x2D6 DUP3 PUSH2 0x28D JUMP JUMPDEST DUP2 ADD DUP2 DUP2 LT PUSH8 0xFFFFFFFFFFFFFFFF DUP3 GT OR ISZERO PUSH2 0x2F5 JUMPI PUSH2 0x2F4 PUSH2 0x29E JUMP JUMPDEST JUMPDEST DUP1 PUSH1 0x40 MSTORE POP POP POP JUMP JUMPDEST PUSH1 0x0 PUSH2 0x308 PUSH2 0x1DB JUMP JUMPDEST SWAP1 POP PUSH2 0x314 DUP3 DUP3 PUSH2 0x2CD JUMP JUMPDEST SWAP2 SWAP1 POP JUMP JUMPDEST PUSH1 0x0 PUSH8 0xFFFFFFFFFFFFFFFF DUP3 GT ISZERO PUSH2 0x334 JUMPI PUSH2 0x333 PUSH2 0x29E JUMP JUMPDEST JUMPDEST PUSH2 0x33D DUP3 PUSH2 0x28D JUMP JUMPDEST SWAP1 POP PUSH1 0x20 DUP2 ADD SWAP1 POP SWAP2 SWAP1 POP JUMP JUMPDEST PUSH1 0x0 JUMPDEST DUP4 DUP2 LT ISZERO PUSH2 0x368 JUMPI DUP1 DUP3 ADD MLOAD DUP2 DUP5 ADD MSTORE PUSH1 0x20 DUP2 ADD SWAP1 POP PUSH2 0x34D JUMP JUMPDEST PUSH1 0x0 DUP5 DUP5 ADD MSTORE POP POP POP POP JUMP JUMPDEST PUSH1 0x0 PUSH2 0x387 PUSH2 0x382 DUP5 PUSH2 0x319 JUMP JUMPDEST PUSH2 0x2FE JUMP JUMPDEST SWAP1 POP DUP3 DUP2 MSTORE PUSH1 0x20 DUP2 ADD DUP5 DUP5 DUP5 ADD GT ISZERO PUSH2 0x3A3 JUMPI PUSH2 0x3A2 PUSH2 0x288 JUMP JUMPDEST JUMPDEST PUSH2 0x3AE DUP5 DUP3 DUP6 PUSH2 0x34A JUMP JUMPDEST POP SWAP4 SWAP3 POP POP POP JUMP JUMPDEST PUSH1 0x0 DUP3 PUSH1 0x1F DUP4 ADD SLT PUSH2 0x3CB JUMPI PUSH2 0x3CA PUSH2 0x283 JUMP JUMPDEST JUMPDEST DUP2 MLOAD PUSH2 0x3DB DUP5 DUP3 PUSH1 0x20 DUP7 ADD PUSH2 0x374 JUMP JUMPDEST SWAP2 POP POP SWAP3 SWAP2 POP POP JUMP JUMPDEST PUSH1 0x0 DUP2 ISZERO ISZERO SWAP1 POP SWAP2 SWAP1 POP JUMP JUMPDEST PUSH2 0x3F9 DUP2 PUSH2 0x3E4 JUMP JUMPDEST DUP2 EQ PUSH2 0x404 JUMPI PUSH1 0x0 DUP1 REVERT JUMPDEST POP JUMP JUMPDEST PUSH1 0x0 DUP2 MLOAD SWAP1 POP PUSH2 0x416 DUP2 PUSH2 0x3F0 JUMP JUMPDEST SWAP3 SWAP2 POP POP JUMP JUMPDEST PUSH1 0x0 DUP1 PUSH1 0x0 DUP1 PUSH1 0x0 DUP1 PUSH1 0xC0 DUP8 DUP10 SUB SLT ISZERO PUSH2 0x439 JUMPI PUSH2 0x438 PUSH2 0x1E5 JUMP JUMPDEST JUMPDEST PUSH1 0x0 PUSH2 0x447 DUP10 DUP3 DUP11 ADD PUSH2 0x238 JUMP JUMPDEST SWAP7 POP POP PUSH1 0x20 PUSH2 0x458 DUP10 DUP3 DUP11 ADD PUSH2 0x26E JUMP JUMPDEST SWAP6 POP POP PUSH1 0x40 DUP8 ADD MLOAD PUSH8 0xFFFFFFFFFFFFFFFF DUP2 GT ISZERO PUSH2 0x479 JUMPI PUSH2 0x478 PUSH2 0x1EA JUMP JUMPDEST JUMPDEST PUSH2 0x485 DUP10 DUP3 DUP11 ADD PUSH2 0x3B6 JUMP JUMPDEST SWAP5 POP POP PUSH1 0x60 DUP8 ADD MLOAD PUSH8 0xFFFFFFFFFFFFFFFF DUP2 GT ISZERO PUSH2 0x4A6 JUMPI PUSH2 0x4A5 PUSH2 0x1EA JUMP JUMPDEST JUMPDEST PUSH2 0x4B2 DUP10 DUP3 DUP11 ADD PUSH2 0x3B6 JUMP JUMPDEST SWAP4 POP POP PUSH1 0x80 PUSH2 0x4C3 DUP10 DUP3 DUP11 ADD PUSH2 0x407 JUMP JUMPDEST SWAP3 POP POP PUSH1 0xA0 DUP8 ADD MLOAD PUSH8 0xFFFFFFFFFFFFFFFF DUP2 GT ISZERO PUSH2 0x4E4 JUMPI PUSH2 0x4E3 PUSH2 0x1EA JUMP JUMPDEST JUMPDEST PUSH2 0x4F0 DUP10 DUP3 DUP11 ADD PUSH2 0x3B6 JUMP JUMPDEST SWAP2 POP POP SWAP3 SWAP6 POP SWAP3 SWAP6 POP SWAP3 SWAP6 JUMP JUMPDEST PUSH1 0x0 DUP2 MLOAD SWAP1 POP SWAP2 SWAP1 POP JUMP JUMPDEST PUSH32 0x4E487B7100000000000000000000000000000000000000000000000000000000 PUSH1 0x0 MSTORE PUSH1 0x22 PUSH1 0x4 MSTORE PUSH1 0x24 PUSH1 0x0 REVERT JUMPDEST PUSH1 0x0 PUSH1 0x2 DUP3 DIV SWAP1 POP PUSH1 0x1 DUP3 AND DUP1 PUSH2 0x54F JUMPI PUSH1 0x7F DUP3 AND SWAP2 POP JUMPDEST PUSH1 0x20 DUP3 LT DUP2 SUB PUSH2 0x562 JUMPI PUSH2 0x561 PUSH2 0x508 JUMP JUMPDEST JUMPDEST POP SWAP2 SWAP1 POP JUMP JUMPDEST PUSH1 0x0 DUP2 SWAP1 POP DUP2 PUSH1 0x0 MSTORE PUSH1 0x20 PUSH1 0x0 KECCAK256 SWAP1 POP SWAP2 SWAP1 POP JUMP JUMPDEST PUSH1 0x0 PUSH1 0x20 PUSH1 0x1F DUP4 ADD DIV SWAP1 POP SWAP2 SWAP1 POP JUMP JUMPDEST PUSH1 0x0 DUP3 DUP3 SHL SWAP1 POP SWAP3 SWAP2 POP POP JUMP JUMPDEST PUSH1 0x0 PUSH1 0x8 DUP4 MUL PUSH2 0x5CA PUSH32 0xFFFFFFFFFFFFFFFFFFFFFFFFFFFFFFFFFFFFFFFFFFFFFFFFFFFFFFFFFFFFFFFF DUP3 PUSH2 0x58D JUMP JUMPDEST PUSH2 0x5D4 DUP7 DUP4 PUSH2 0x58D JUMP JUMPDEST SWAP6 POP DUP1 NOT DUP5 AND SWAP4 POP DUP1 DUP7 AND DUP5 OR SWAP3 POP POP POP SWAP4 SWAP3 POP POP POP JUMP JUMPDEST PUSH1 0x0 DUP2 SWAP1 POP SWAP2 SWAP1 POP JUMP JUMPDEST PUSH1 0x0 PUSH2 0x611 PUSH2 0x60C PUSH2 0x607 DUP5 PUSH2 0x24D JUMP JUMPDEST PUSH2 0x5EC JUMP JUMPDEST PUSH2 0x24D JUMP JUMPDEST SWAP1 POP SWAP2 SWAP1 POP JUMP JUMPDEST PUSH1 0x0 DUP2 SWAP1 POP SWAP2 SWAP1 POP JUMP JUMPDEST PUSH2 0x62B DUP4 PUSH2 0x5F6 JUMP JUMPDEST PUSH2 0x63F PUSH2 0x637 DUP3 PUSH2 0x618 JUMP JUMPDEST DUP5 DUP5 SLOAD PUSH2 0x59A JUMP JUMPDEST DUP3 SSTORE POP POP POP POP JUMP JUMPDEST PUSH1 0x0 SWAP1 JUMP JUMPDEST PUSH2 0x654 PUSH2 0x647 JUMP JUMPDEST PUSH2 0x65F DUP2 DUP5 DUP5 PUSH2 0x622 JUMP JUMPDEST POP POP POP JUMP JUMPDEST JUMPDEST DUP2 DUP2 LT ISZERO PUSH2 0x683 JUMPI PUSH2 0x678 PUSH1 0x0 DUP3 PUSH2 0x64C JUMP JUMPDEST PUSH1 0x1 DUP2 ADD SWAP1 POP PUSH2 0x665 JUMP JUMPDEST POP POP JUMP JUMPDEST PUSH1 0x1F DUP3 GT ISZERO PUSH2 0x6C8 JUMPI PUSH2 0x699 DUP2 PUSH2 0x568 JUMP JUMPDEST PUSH2 0x6A2 DUP5 PUSH2 0x57D JUMP JUMPDEST DUP2 ADD PUSH1 0x20 DUP6 LT ISZERO PUSH2 0x6B1 JUMPI DUP2 SWAP1 POP JUMPDEST PUSH2 0x6C5 PUSH2 0x6BD DUP6 PUSH2 0x57D JUMP JUMPDEST DUP4 ADD DUP3 PUSH2 0x664 JUMP JUMPDEST POP POP JUMPDEST POP POP POP JUMP JUMPDEST PUSH1 0x0 DUP3 DUP3 SHR SWAP1 POP SWAP3 SWAP2 POP POP JUMP JUMPDEST PUSH1 0x0 PUSH2 0x6EB PUSH1 0x0 NOT DUP5 PUSH1 0x8 MUL PUSH2 0x6CD JUMP JUMPDEST NOT DUP1 DUP4 AND SWAP2 POP POP SWAP3 SWAP2 POP POP JUMP JUMPDEST PUSH1 0x0 PUSH2 0x704 DUP4 DUP4 PUSH2 0x6DA JUMP JUMPDEST SWAP2 POP DUP3 PUSH1 0x2 MUL DUP3 OR SWAP1 POP SWAP3 SWAP2 POP POP JUMP JUMPDEST PUSH2 0x71D DUP3 PUSH2 0x4FD JUMP JUMPDEST PUSH8 0xFFFFFFFFFFFFFFFF DUP2 GT ISZERO PUSH2 0x736 JUMPI PUSH2 0x735 PUSH2 0x29E JUMP JUMPDEST JUMPDEST PUSH2 0x740 DUP3 SLOAD PUSH2 0x537 JUMP JUMPDEST PUSH2 0x74B DUP3 DUP3 DUP6 PUSH2 0x687 JUMP JUMPDEST PUSH1 0x0 PUSH1 0x20 SWAP1 POP PUSH1 0x1F DUP4 GT PUSH1 0x1 DUP2 EQ PUSH2 0x77E JUMPI PUSH1 0x0 DUP5 ISZERO PUSH2 0x76C JUMPI DUP3 DUP8 ADD MLOAD SWAP1 POP JUMPDEST PUSH2 0x776 DUP6 DUP3 PUSH2 0x6F8 JUMP JUMPDEST DUP7 SSTORE POP PUSH2 0x7DE JUMP JUMPDEST PUSH1 0x1F NOT DUP5 AND PUSH2 0x78C DUP7 PUSH2 0x568 JUMP JUMPDEST PUSH1 0x0 JUMPDEST DUP3 DUP2 LT ISZERO PUSH2 0x7B4 JUMPI DUP5 DUP10 ADD MLOAD DUP3 SSTORE PUSH1 0x1 DUP3 ADD SWAP2 POP PUSH1 0x20 DUP6 ADD SWAP5 POP PUSH1 0x20 DUP2 ADD SWAP1 POP PUSH2 0x78F JUMP JUMPDEST DUP7 DUP4 LT ISZERO PUSH2 0x7D1 JUMPI DUP5 DUP10 ADD MLOAD PUSH2 0x7CD PUSH1 0x1F DUP10 AND DUP3 PUSH2 0x6DA JUMP JUMPDEST DUP4 SSTORE POP JUMPDEST PUSH1 0x1 PUSH1 0x2 DUP9 MUL ADD DUP9 SSTORE POP POP POP JUMPDEST POP POP POP POP POP POP JUMP JUMPDEST PUSH2 0x7EF DUP2 PUSH2 0x20F JUMP JUMPDEST DUP3 MSTORE POP POP JUMP JUMPDEST PUSH1 0x0 PUSH1 0x20 DUP3 ADD SWAP1 POP PUSH2 0x80A PUSH1 0x0 DUP4 ADD DUP5 PUSH2 0x7E6 JUMP JUMPDEST SWAP3 SWAP2 POP POP JUMP JUMPDEST PUSH2 0x309B DUP1 PUSH2 0x81F PUSH1 0x0 CODECOPY PUSH1 0x0 RETURN INVALID PUSH1 0x80 PUSH1 0x40 MSTORE CALLVALUE DUP1 ISZERO PUSH2 0x10 JUMPI PUSH1 0x0 DUP1 REVERT JUMPDEST POP PUSH1 0x4 CALLDATASIZE LT PUSH2 0x142 JUMPI PUSH1 0x0 CALLDATALOAD PUSH1 0xE0 SHR DUP1 PUSH4 0x68573107 GT PUSH2 0xB8 JUMPI DUP1 PUSH4 0x95D89B41 GT PUSH2 0x7C JUMPI DUP1 PUSH4 0x95D89B41 EQ PUSH2 0x389 JUMPI DUP1 PUSH4 0xA22CB465 EQ PUSH2 0x3A7 JUMPI DUP1 PUSH4 0xB88D4FDE EQ PUSH2 0x3C3 JUMPI DUP1 PUSH4 0xC87B56DD EQ PUSH2 0x3DF JUMPI DUP1 PUSH4 0xE985E9C5 EQ PUSH2 0x40F JUMPI DUP1 PUSH4 0xF2FDE38B EQ PUSH2 0x43F JUMPI PUSH2 0x142 JUMP JUMPDEST DUP1 PUSH4 0x68573107 EQ PUSH2 0x2E3 JUMPI DUP1 PUSH4 0x6AAADB1C EQ PUSH2 0x313 JUMPI DUP1 PUSH4 0x70A08231 EQ PUSH2 0x331 JUMPI DUP1 PUSH4 0x715018A6 EQ PUSH2 0x361 JUMPI DUP1 PUSH4 0x8DA5CB5B EQ PUSH2 0x36B JUMPI PUSH2 0x142 JUMP JUMPDEST DUP1 PUSH4 0x23B872DD GT PUSH2 0x10A JUMPI DUP1 PUSH4 0x23B872DD EQ PUSH2 0x211 JUMPI DUP1 PUSH4 0x32CB6B0C EQ PUSH2 0x22D JUMPI DUP1 PUSH4 0x40C10F19 EQ PUSH2 0x24B JUMPI DUP1 PUSH4 0x42842E0E EQ PUSH2 0x27B JUMPI DUP1 PUSH4 0x55F804B3 EQ PUSH2 0x297 JUMPI DUP1 PUSH4 0x6352211E EQ PUSH2 0x2B3 JUMPI PUSH2 0x142 JUMP JUMPDEST DUP1 PUSH4 0x1FFC9A7 EQ PUSH2 0x147 JUMPI DUP1 PUSH4 0x6FDDE03 EQ PUSH2 0x177 JUMPI DUP1 PUSH4 0x81812FC EQ PUSH2 0x195 JUMPI DUP1 PUSH4 0x95EA7B3 EQ PUSH2 0x1C5 JUMPI DUP1 PUSH4 0x1D1B8647 EQ PUSH2 0x1E1 JUMPI JUMPDEST PUSH1 0x0 DUP1 REVERT JUMPDEST PUSH2 0x161 PUSH1 0x4 DUP1 CALLDATASIZE SUB DUP2 ADD SWAP1 PUSH2 0x15C SWAP2 SWAP1 PUSH2 0x1FB1 JUMP JUMPDEST PUSH2 0x45B JUMP JUMPDEST PUSH1 0x40 MLOAD PUSH2 0x16E SWAP2 SWAP1 PUSH2 0x1FF9 JUMP JUMPDEST PUSH1 0x40 MLOAD DUP1 SWAP2 SUB SWAP1 RETURN JUMPDEST PUSH2 0x17F PUSH2 0x53D JUMP JUMPDEST PUSH1 0x40 MLOAD PUSH2 0x18C SWAP2 SWAP1 PUSH2 0x20A4 JUMP JUMPDEST PUSH1 0x40 MLOAD DUP1 SWAP2 SUB SWAP1 RETURN JUMPDEST PUSH2 0x1AF PUSH1 0x4 DUP1 CALLDATASIZE SUB DUP2 ADD SWAP1 PUSH2 0x1AA SWAP2 SWAP1 PUSH2 0x20FC JUMP JUMPDEST PUSH2 0x5CF JUMP JUMPDEST PUSH1 0x40 MLOAD PUSH2 0x1BC SWAP2 SWAP1 PUSH2 0x216A JUMP JUMPDEST PUSH1 0x40 MLOAD DUP1 SWAP2 SUB SWAP1 RETURN JUMPDEST PUSH2 0x1DF PUSH1 0x4 DUP1 CALLDATASIZE SUB DUP2 ADD SWAP1 PUSH2 0x1DA SWAP2 SWAP1 PUSH2 0x21B1 JUMP JUMPDEST PUSH2 0x5EB JUMP JUMPDEST STOP JUMPDEST PUSH2 0x1FB PUSH1 0x4 DUP1 CALLDATASIZE SUB DUP2 ADD SWAP1 PUSH2 0x1F6 SWAP2 SWAP1 PUSH2 0x21F1 JUMP JUMPDEST PUSH2 0x601 JUMP JUMPDEST PUSH1 0x40 MLOAD PUSH2 0x208 SWAP2 SWAP1 PUSH2 0x2376 JUMP JUMPDEST PUSH1 0x40 MLOAD DUP1 SWAP2 SUB SWAP1 RETURN JUMPDEST PUSH2 0x22B PUSH1 0x4 DUP1 CALLDATASIZE SUB DUP2 ADD SWAP1 PUSH2 0x226 SWAP2 SWAP1 PUSH2 0x2398 JUMP JUMPDEST PUSH2 0x781 JUMP JUMPDEST STOP JUMPDEST PUSH2 0x235 PUSH2 0x883 JUMP JUMPDEST PUSH1 0x40 MLOAD PUSH2 0x242 SWAP2 SWAP1 PUSH2 0x23FA JUMP JUMPDEST PUSH1 0x40 MLOAD DUP1 SWAP2 SUB SWAP1 RETURN JUMPDEST PUSH2 0x265 PUSH1 0x4 DUP1 CALLDATASIZE SUB DUP2 ADD SWAP1 PUSH2 0x260 SWAP2 SWAP1 PUSH2 0x21B1 JUMP JUMPDEST PUSH2 0x889 JUMP JUMPDEST PUSH1 0x40 MLOAD PUSH2 0x272 SWAP2 SWAP1 PUSH2 0x23FA JUMP JUMPDEST PUSH1 0x40 MLOAD DUP1 SWAP2 SUB SWAP1 RETURN JUMPDEST PUSH2 0x295 PUSH1 0x4 DUP1 CALLDATASIZE SUB DUP2 ADD SWAP1 PUSH2 0x290 SWAP2 SWAP1 PUSH2 0x2398 JUMP JUMPDEST PUSH2 0x9D6 JUMP JUMPDEST STOP JUMPDEST PUSH2 0x2B1 PUSH1 0x4 DUP1 CALLDATASIZE SUB DUP2 ADD SWAP1 PUSH2 0x2AC SWAP2 SWAP1 PUSH2 0x254A JUMP JUMPDEST PUSH2 0x9F6 JUMP JUMPDEST STOP JUMPDEST PUSH2 0x2CD PUSH1 0x4 DUP1 CALLDATASIZE SUB DUP2 ADD SWAP1 PUSH2 0x2C8 SWAP2 SWAP1 PUSH2 0x20FC JUMP JUMPDEST PUSH2 0xA11 JUMP JUMPDEST PUSH1 0x40 MLOAD PUSH2 0x2DA SWAP2 SWAP1 PUSH2 0x216A JUMP JUMPDEST PUSH1 0x40 MLOAD DUP1 SWAP2 SUB SWAP1 RETURN JUMPDEST PUSH2 0x2FD PUSH1 0x4 DUP1 CALLDATASIZE SUB DUP2 ADD SWAP1 PUSH2 0x2F8 SWAP2 SWAP1 PUSH2 0x271E JUMP JUMPDEST PUSH2 0xA23 JUMP JUMPDEST PUSH1 0x40 MLOAD PUSH2 0x30A SWAP2 SWAP1 PUSH2 0x2845 JUMP JUMPDEST PUSH1 0x40 MLOAD DUP1 SWAP2 SUB SWAP1 RETURN JUMPDEST PUSH2 0x31B PUSH2 0xC95 JUMP JUMPDEST PUSH1 0x40 MLOAD PUSH2 0x328 SWAP2 SWAP1 PUSH2 0x1FF9 JUMP JUMPDEST PUSH1 0x40 MLOAD DUP1 SWAP2 SUB SWAP1 RETURN JUMPDEST PUSH2 0x34B PUSH1 0x4 DUP1 CALLDATASIZE SUB DUP2 ADD SWAP1 PUSH2 0x346 SWAP2 SWAP1 PUSH2 0x21F1 JUMP JUMPDEST PUSH2 0xCA8 JUMP JUMPDEST PUSH1 0x40 MLOAD PUSH2 0x358 SWAP2 SWAP1 PUSH2 0x23FA JUMP JUMPDEST PUSH1 0x40 MLOAD DUP1 SWAP2 SUB SWAP1 RETURN JUMPDEST PUSH2 0x369 PUSH2 0xD62 JUMP JUMPDEST STOP JUMPDEST PUSH2 0x373 PUSH2 0xD76 JUMP JUMPDEST PUSH1 0x40 MLOAD PUSH2 0x380 SWAP2 SWAP1 PUSH2 0x216A JUMP JUMPDEST PUSH1 0x40 MLOAD DUP1 SWAP2 SUB SWAP1 RETURN JUMPDEST PUSH2 0x391 PUSH2 0xDA0 JUMP JUMPDEST PUSH1 0x40 MLOAD PUSH2 0x39E SWAP2 SWAP1 PUSH2 0x20A4 JUMP JUMPDEST PUSH1 0x40 MLOAD DUP1 SWAP2 SUB SWAP1 RETURN JUMPDEST PUSH2 0x3C1 PUSH1 0x4 DUP1 CALLDATASIZE SUB DUP2 ADD SWAP1 PUSH2 0x3BC SWAP2 SWAP1 PUSH2 0x2893 JUMP JUMPDEST PUSH2 0xE32 JUMP JUMPDEST STOP JUMPDEST PUSH2 0x3DD PUSH1 0x4 DUP1 CALLDATASIZE SUB DUP2 ADD SWAP1 PUSH2 0x3D8 SWAP2 SWAP1 PUSH2 0x2974 JUMP JUMPDEST PUSH2 0xE48 JUMP JUMPDEST STOP JUMPDEST PUSH2 0x3F9 PUSH1 0x4 DUP1 CALLDATASIZE SUB DUP2 ADD SWAP1 PUSH2 0x3F4 SWAP2 SWAP1 PUSH2 0x20FC JUMP JUMPDEST PUSH2 0xE65 JUMP JUMPDEST PUSH1 0x40 MLOAD PUSH2 0x406 SWAP2 SWAP1 PUSH2 0x20A4 JUMP JUMPDEST PUSH1 0x40 MLOAD DUP1 SWAP2 SUB SWAP1 RETURN JUMPDEST PUSH2 0x429 PUSH1 0x4 DUP1 CALLDATASIZE SUB DUP2 ADD SWAP1 PUSH2 0x424 SWAP2 SWAP1 PUSH2 0x29F7 JUMP JUMPDEST PUSH2 0xECE JUMP JUMPDEST PUSH1 0x40 MLOAD PUSH2 0x436 SWAP2 SWAP1 PUSH2 0x1FF9 JUMP JUMPDEST PUSH1 0x40 MLOAD DUP1 SWAP2 SUB SWAP1 RETURN JUMPDEST PUSH2 0x459 PUSH1 0x4 DUP1 CALLDATASIZE SUB DUP2 ADD SWAP1 PUSH2 0x454 SWAP2 SWAP1 PUSH2 0x21F1 JUMP JUMPDEST PUSH2 0xF62 JUMP JUMPDEST STOP JUMPDEST PUSH1 0x0 PUSH32 0x80AC58CD00000000000000000000000000000000000000000000000000000000 PUSH28 0xFFFFFFFFFFFFFFFFFFFFFFFFFFFFFFFFFFFFFFFFFFFFFFFFFFFFFFFF NOT AND DUP3 PUSH28 0xFFFFFFFFFFFFFFFFFFFFFFFFFFFFFFFFFFFFFFFFFFFFFFFFFFFFFFFF NOT AND EQ DUP1 PUSH2 0x526 JUMPI POP PUSH32 0x5B5E139F00000000000000000000000000000000000000000000000000000000 PUSH28 0xFFFFFFFFFFFFFFFFFFFFFFFFFFFFFFFFFFFFFFFFFFFFFFFFFFFFFFFF NOT AND DUP3 PUSH28 0xFFFFFFFFFFFFFFFFFFFFFFFFFFFFFFFFFFFFFFFFFFFFFFFFFFFFFFFF NOT AND EQ JUMPDEST DUP1 PUSH2 0x536 JUMPI POP PUSH2 0x535 DUP3 PUSH2 0xFE8 JUMP JUMPDEST JUMPDEST SWAP1 POP SWAP2 SWAP1 POP JUMP JUMPDEST PUSH1 0x60 PUSH1 0x0 DUP1 SLOAD PUSH2 0x54C SWAP1 PUSH2 0x2A66 JUMP JUMPDEST DUP1 PUSH1 0x1F ADD PUSH1 0x20 DUP1 SWAP2 DIV MUL PUSH1 0x20 ADD PUSH1 0x40 MLOAD SWAP1 DUP2 ADD PUSH1 0x40 MSTORE DUP1 SWAP3 SWAP2 SWAP1 DUP2 DUP2 MSTORE PUSH1 0x20 ADD DUP3 DUP1 SLOAD PUSH2 0x578 SWAP1 PUSH2 0x2A66 JUMP JUMPDEST DUP1 ISZERO PUSH2 0x5C5 JUMPI DUP1 PUSH1 0x1F LT PUSH2 0x59A JUMPI PUSH2 0x100 DUP1 DUP4 SLOAD DIV MUL DUP4 MSTORE SWAP2 PUSH1 0x20 ADD SWAP2 PUSH2 0x5C5 JUMP JUMPDEST DUP3 ADD SWAP2 SWAP1 PUSH1 0x0 MSTORE PUSH1 0x20 PUSH1 0x0 KECCAK256 SWAP1 JUMPDEST DUP2 SLOAD DUP2 MSTORE SWAP1 PUSH1 0x1 ADD SWAP1 PUSH1 0x20 ADD DUP1 DUP4 GT PUSH2 0x5A8 JUMPI DUP3 SWAP1 SUB PUSH1 0x1F AND DUP3 ADD SWAP2 JUMPDEST POP POP POP POP POP SWAP1 POP SWAP1 JUMP JUMPDEST PUSH1 0x0 PUSH2 0x5DA DUP3 PUSH2 0x1052 JUMP JUMPDEST POP PUSH2 0x5E4 DUP3 PUSH2 0x10DA JUMP JUMPDEST SWAP1 POP SWAP2 SWAP1 POP JUMP JUMPDEST PUSH2 0x5FD DUP3 DUP3 PUSH2 0x5F8 PUSH2 0x1117 JUMP JUMPDEST PUSH2 0x111F JUMP JUMPDEST POP POP JUMP JUMPDEST PUSH1 0x60 PUSH1 0x0 PUSH1 0xB PUSH1 0x0 DUP5 PUSH20 0xFFFFFFFFFFFFFFFFFFFFFFFFFFFFFFFFFFFFFFFF AND PUSH20 0xFFFFFFFFFFFFFFFFFFFFFFFFFFFFFFFFFFFFFFFF AND DUP2 MSTORE PUSH1 0x20 ADD SWAP1 DUP2 MSTORE PUSH1 0x20 ADD PUSH1 0x0 KECCAK256 DUP1 SLOAD DUP1 PUSH1 0x20 MUL PUSH1 0x20 ADD PUSH1 0x40 MLOAD SWAP1 DUP2 ADD PUSH1 0x40 MSTORE DUP1 SWAP3 SWAP2 SWAP1 DUP2 DUP2 MSTORE PUSH1 0x20 ADD DUP3 DUP1 SLOAD DUP1 ISZERO PUSH2 0x68E JUMPI PUSH1 0x20 MUL DUP3 ADD SWAP2 SWAP1 PUSH1 0x0 MSTORE PUSH1 0x20 PUSH1 0x0 KECCAK256 SWAP1 JUMPDEST DUP2 SLOAD DUP2 MSTORE PUSH1 0x20 ADD SWAP1 PUSH1 0x1 ADD SWAP1 DUP1 DUP4 GT PUSH2 0x67A JUMPI JUMPDEST POP POP POP POP POP SWAP1 POP PUSH1 0x0 DUP2 MLOAD PUSH8 0xFFFFFFFFFFFFFFFF DUP2 GT ISZERO PUSH2 0x6B2 JUMPI PUSH2 0x6B1 PUSH2 0x241F JUMP JUMPDEST JUMPDEST PUSH1 0x40 MLOAD SWAP1 DUP1 DUP3 MSTORE DUP1 PUSH1 0x20 MUL PUSH1 0x20 ADD DUP3 ADD PUSH1 0x40 MSTORE DUP1 ISZERO PUSH2 0x6EB JUMPI DUP2 PUSH1 0x20 ADD JUMPDEST PUSH2 0x6D8 PUSH2 0x1F2B JUMP JUMPDEST DUP2 MSTORE PUSH1 0x20 ADD SWAP1 PUSH1 0x1 SWAP1 SUB SWAP1 DUP2 PUSH2 0x6D0 JUMPI SWAP1 POP JUMPDEST POP SWAP1 POP PUSH1 0x0 JUMPDEST DUP3 MLOAD DUP2 LT ISZERO PUSH2 0x776 JUMPI PUSH1 0x40 MLOAD DUP1 PUSH1 0x40 ADD PUSH1 0x40 MSTORE DUP1 DUP5 DUP4 DUP2 MLOAD DUP2 LT PUSH2 0x718 JUMPI PUSH2 0x717 PUSH2 0x2A97 JUMP JUMPDEST JUMPDEST PUSH1 0x20 MUL PUSH1 0x20 ADD ADD MLOAD DUP2 MSTORE PUSH1 0x20 ADD PUSH2 0x748 DUP6 DUP5 DUP2 MLOAD DUP2 LT PUSH2 0x73B JUMPI PUSH2 0x73A PUSH2 0x2A97 JUMP JUMPDEST JUMPDEST PUSH1 0x20 MUL PUSH1 0x20 ADD ADD MLOAD PUSH2 0xE65 JUMP JUMPDEST DUP2 MSTORE POP DUP3 DUP3 DUP2 MLOAD DUP2 LT PUSH2 0x75E JUMPI PUSH2 0x75D PUSH2 0x2A97 JUMP JUMPDEST JUMPDEST PUSH1 0x20 MUL PUSH1 0x20 ADD ADD DUP2 SWAP1 MSTORE POP DUP1 DUP1 PUSH1 0x1 ADD SWAP2 POP POP PUSH2 0x6F1 JUMP JUMPDEST POP DUP1 SWAP3 POP POP POP SWAP2 SWAP1 POP JUMP JUMPDEST PUSH1 0x0 PUSH20 0xFFFFFFFFFFFFFFFFFFFFFFFFFFFFFFFFFFFFFFFF AND DUP3 PUSH20 0xFFFFFFFFFFFFFFFFFFFFFFFFFFFFFFFFFFFFFFFF AND SUB PUSH2 0x7F3 JUMPI PUSH1 0x0 PUSH1 0x40 MLOAD PUSH32 0x64A0AE9200000000000000000000000000000000000000000000000000000000 DUP2 MSTORE PUSH1 0x4 ADD PUSH2 0x7EA SWAP2 SWAP1 PUSH2 0x216A JUMP JUMPDEST PUSH1 0x40 MLOAD DUP1 SWAP2 SUB SWAP1 REVERT JUMPDEST PUSH1 0x0 PUSH2 0x807 DUP4 DUP4 PUSH2 0x802 PUSH2 0x1117 JUMP JUMPDEST PUSH2 0x1131 JUMP JUMPDEST SWAP1 POP DUP4 PUSH20 0xFFFFFFFFFFFFFFFFFFFFFFFFFFFFFFFFFFFFFFFF AND DUP2 PUSH20 0xFFFFFFFFFFFFFFFFFFFFFFFFFFFFFFFFFFFFFFFF AND EQ PUSH2 0x87D JUMPI DUP4 DUP3 DUP3 PUSH1 0x40 MLOAD PUSH32 0x64283D7B00000000000000000000000000000000000000000000000000000000 DUP2 MSTORE PUSH1 0x4 ADD PUSH2 0x874 SWAP4 SWAP3 SWAP2 SWAP1 PUSH2 0x2AC6 JUMP JUMPDEST PUSH1 0x40 MLOAD DUP1 SWAP2 SUB SWAP1 REVERT JUMPDEST POP POP POP POP JUMP JUMPDEST PUSH1 0x9 SLOAD DUP2 JUMP JUMPDEST PUSH1 0x0 PUSH2 0x893 PUSH2 0x134B JUMP JUMPDEST PUSH1 0x0 PUSH1 0x9 SLOAD EQ PUSH2 0x8E4 JUMPI PUSH1 0x9 SLOAD PUSH1 0x7 SLOAD LT PUSH2 0x8E3 JUMPI PUSH1 0x40 MLOAD PUSH32 0x8C379A000000000000000000000000000000000000000000000000000000000 DUP2 MSTORE PUSH1 0x4 ADD PUSH2 0x8DA SWAP1 PUSH2 0x2B49 JUMP JUMPDEST PUSH1 0x40 MLOAD DUP1 SWAP2 SUB SWAP1 REVERT JUMPDEST JUMPDEST PUSH1 0xA PUSH1 0x0 SWAP1 SLOAD SWAP1 PUSH2 0x100 EXP SWAP1 DIV PUSH1 0xFF AND ISZERO PUSH2 0x945 JUMPI PUSH1 0x0 PUSH2 0x904 DUP5 PUSH2 0xCA8 JUMP JUMPDEST EQ PUSH2 0x944 JUMPI PUSH1 0x40 MLOAD PUSH32 0x8C379A000000000000000000000000000000000000000000000000000000000 DUP2 MSTORE PUSH1 0x4 ADD PUSH2 0x93B SWAP1 PUSH2 0x2BB5 JUMP JUMPDEST PUSH1 0x40 MLOAD DUP1 SWAP2 SUB SWAP1 REVERT JUMPDEST JUMPDEST PUSH1 0x7 PUSH1 0x0 DUP2 SLOAD DUP1 SWAP3 SWAP2 SWAP1 PUSH2 0x958 SWAP1 PUSH2 0x2C04 JUMP JUMPDEST SWAP2 SWAP1 POP SSTORE POP PUSH2 0x967 DUP4 DUP4 PUSH2 0x13D2 JUMP JUMPDEST PUSH1 0xB PUSH1 0x0 DUP5 PUSH20 0xFFFFFFFFFFFFFFFFFFFFFFFFFFFFFFFFFFFFFFFF AND PUSH20 0xFFFFFFFFFFFFFFFFFFFFFFFFFFFFFFFFFFFFFFFF AND DUP2 MSTORE PUSH1 0x20 ADD SWAP1 DUP2 MSTORE PUSH1 0x20 ADD PUSH1 0x0 KECCAK256 DUP3 SWAP1 DUP1 PUSH1 0x1 DUP2 SLOAD ADD DUP1 DUP3 SSTORE DUP1 SWAP2 POP POP PUSH1 0x1 SWAP1 SUB SWAP1 PUSH1 0x0 MSTORE PUSH1 0x20 PUSH1 0x0 KECCAK256 ADD PUSH1 0x0 SWAP1 SWAP2 SWAP1 SWAP2 SWAP1 SWAP2 POP SSTORE DUP2 SWAP1 POP SWAP3 SWAP2 POP POP JUMP JUMPDEST PUSH2 0x9F1 DUP4 DUP4 DUP4 PUSH1 0x40 MLOAD DUP1 PUSH1 0x20 ADD PUSH1 0x40 MSTORE DUP1 PUSH1 0x0 DUP2 MSTORE POP PUSH2 0xE48 JUMP JUMPDEST POP POP POP JUMP JUMPDEST PUSH2 0x9FE PUSH2 0x134B JUMP JUMPDEST DUP1 PUSH1 0x8 SWAP1 DUP2 PUSH2 0xA0D SWAP2 SWAP1 PUSH2 0x2DF8 JUMP JUMPDEST POP POP JUMP JUMPDEST PUSH1 0x0 PUSH2 0xA1C DUP3 PUSH2 0x1052 JUMP JUMPDEST SWAP1 POP SWAP2 SWAP1 POP JUMP JUMPDEST PUSH1 0x60 PUSH2 0xA2D PUSH2 0x134B JUMP JUMPDEST PUSH1 0x0 DUP4 MLOAD PUSH8 0xFFFFFFFFFFFFFFFF DUP2 GT ISZERO PUSH2 0xA4A JUMPI PUSH2 0xA49 PUSH2 0x241F JUMP JUMPDEST JUMPDEST PUSH1 0x40 MLOAD SWAP1 DUP1 DUP3 MSTORE DUP1 PUSH1 0x20 MUL PUSH1 0x20 ADD DUP3 ADD PUSH1 0x40 MSTORE DUP1 ISZERO PUSH2 0xA78 JUMPI DUP2 PUSH1 0x20 ADD PUSH1 0x20 DUP3 MUL DUP1 CALLDATASIZE DUP4 CALLDATACOPY DUP1 DUP3 ADD SWAP2 POP POP SWAP1 POP JUMPDEST POP SWAP1 POP PUSH1 0x0 JUMPDEST DUP5 MLOAD DUP2 LT ISZERO PUSH2 0xC8A JUMPI PUSH1 0x0 PUSH1 0x9 SLOAD EQ PUSH2 0xAD8 JUMPI PUSH1 0x9 SLOAD PUSH1 0x7 SLOAD LT PUSH2 0xAD7 JUMPI PUSH1 0x40 MLOAD PUSH32 0x8C379A000000000000000000000000000000000000000000000000000000000 DUP2 MSTORE PUSH1 0x4 ADD PUSH2 0xACE SWAP1 PUSH2 0x2B49 JUMP JUMPDEST PUSH1 0x40 MLOAD DUP1 SWAP2 SUB SWAP1 REVERT JUMPDEST JUMPDEST PUSH1 0xA PUSH1 0x0 SWAP1 SLOAD SWAP1 PUSH2 0x100 EXP SWAP1 DIV PUSH1 0xFF AND ISZERO PUSH2 0xB53 JUMPI PUSH1 0x0 PUSH2 0xB12 DUP7 DUP4 DUP2 MLOAD DUP2 LT PUSH2 0xB05 JUMPI PUSH2 0xB04 PUSH2 0x2A97 JUMP JUMPDEST JUMPDEST PUSH1 0x20 MUL PUSH1 0x20 ADD ADD MLOAD PUSH2 0xCA8 JUMP JUMPDEST EQ PUSH2 0xB52 JUMPI PUSH1 0x40 MLOAD PUSH32 0x8C379A000000000000000000000000000000000000000000000000000000000 DUP2 MSTORE PUSH1 0x4 ADD PUSH2 0xB49 SWAP1 PUSH2 0x2BB5 JUMP JUMPDEST PUSH1 0x40 MLOAD DUP1 SWAP2 SUB SWAP1 REVERT JUMPDEST JUMPDEST PUSH1 0x7 PUSH1 0x0 DUP2 SLOAD DUP1 SWAP3 SWAP2 SWAP1 PUSH2 0xB66 SWAP1 PUSH2 0x2C04 JUMP JUMPDEST SWAP2 SWAP1 POP SSTORE POP PUSH2 0xBA9 DUP6 DUP3 DUP2 MLOAD DUP2 LT PUSH2 0xB81 JUMPI PUSH2 0xB80 PUSH2 0x2A97 JUMP JUMPDEST JUMPDEST PUSH1 0x20 MUL PUSH1 0x20 ADD ADD MLOAD DUP6 DUP4 DUP2 MLOAD DUP2 LT PUSH2 0xB9C JUMPI PUSH2 0xB9B PUSH2 0x2A97 JUMP JUMPDEST JUMPDEST PUSH1 0x20 MUL PUSH1 0x20 ADD ADD MLOAD PUSH2 0x13D2 JUMP JUMPDEST PUSH1 0xB PUSH1 0x0 DUP7 DUP4 DUP2 MLOAD DUP2 LT PUSH2 0xBC0 JUMPI PUSH2 0xBBF PUSH2 0x2A97 JUMP JUMPDEST JUMPDEST PUSH1 0x20 MUL PUSH1 0x20 ADD ADD MLOAD PUSH20 0xFFFFFFFFFFFFFFFFFFFFFFFFFFFFFFFFFFFFFFFF AND PUSH20 0xFFFFFFFFFFFFFFFFFFFFFFFFFFFFFFFFFFFFFFFF AND DUP2 MSTORE PUSH1 0x20 ADD SWAP1 DUP2 MSTORE PUSH1 0x20 ADD PUSH1 0x0 KECCAK256 DUP5 DUP3 DUP2 MLOAD DUP2 LT PUSH2 0xC15 JUMPI PUSH2 0xC14 PUSH2 0x2A97 JUMP JUMPDEST JUMPDEST PUSH1 0x20 MUL PUSH1 0x20 ADD ADD MLOAD SWAP1 DUP1 PUSH1 0x1 DUP2 SLOAD ADD DUP1 DUP3 SSTORE DUP1 SWAP2 POP POP PUSH1 0x1 SWAP1 SUB SWAP1 PUSH1 0x0 MSTORE PUSH1 0x20 PUSH1 0x0 KECCAK256 ADD PUSH1 0x0 SWAP1 SWAP2 SWAP1 SWAP2 SWAP1 SWAP2 POP SSTORE DUP4 DUP2 DUP2 MLOAD DUP2 LT PUSH2 0xC56 JUMPI PUSH2 0xC55 PUSH2 0x2A97 JUMP JUMPDEST JUMPDEST PUSH1 0x20 MUL PUSH1 0x20 ADD ADD MLOAD DUP3 DUP3 DUP2 MLOAD DUP2 LT PUSH2 0xC71 JUMPI PUSH2 0xC70 PUSH2 0x2A97 JUMP JUMPDEST JUMPDEST PUSH1 0x20 MUL PUSH1 0x20 ADD ADD DUP2 DUP2 MSTORE POP POP DUP1 DUP1 PUSH1 0x1 ADD SWAP2 POP POP PUSH2 0xA7E JUMP JUMPDEST POP DUP1 SWAP2 POP POP SWAP3 SWAP2 POP POP JUMP JUMPDEST PUSH1 0xA PUSH1 0x0 SWAP1 SLOAD SWAP1 PUSH2 0x100 EXP SWAP1 DIV PUSH1 0xFF AND DUP2 JUMP JUMPDEST PUSH1 0x0 DUP1 PUSH20 0xFFFFFFFFFFFFFFFFFFFFFFFFFFFFFFFFFFFFFFFF AND DUP3 PUSH20 0xFFFFFFFFFFFFFFFFFFFFFFFFFFFFFFFFFFFFFFFF AND SUB PUSH2 0xD1B JUMPI PUSH1 0x0 PUSH1 0x40 MLOAD PUSH32 0x89C62B6400000000000000000000000000000000000000000000000000000000 DUP2 MSTORE PUSH1 0x4 ADD PUSH2 0xD12 SWAP2 SWAP1 PUSH2 0x216A JUMP JUMPDEST PUSH1 0x40 MLOAD DUP1 SWAP2 SUB SWAP1 REVERT JUMPDEST PUSH1 0x3 PUSH1 0x0 DUP4 PUSH20 0xFFFFFFFFFFFFFFFFFFFFFFFFFFFFFFFFFFFFFFFF AND PUSH20 0xFFFFFFFFFFFFFFFFFFFFFFFFFFFFFFFFFFFFFFFF AND DUP2 MSTORE PUSH1 0x20 ADD SWAP1 DUP2 MSTORE PUSH1 0x20 ADD PUSH1 0x0 KECCAK256 SLOAD SWAP1 POP SWAP2 SWAP1 POP JUMP JUMPDEST PUSH2 0xD6A PUSH2 0x134B JUMP JUMPDEST PUSH2 0xD74 PUSH1 0x0 PUSH2 0x13F0 JUMP JUMPDEST JUMP JUMPDEST PUSH1 0x0 PUSH1 0x6 PUSH1 0x0 SWAP1 SLOAD SWAP1 PUSH2 0x100 EXP SWAP1 DIV PUSH20 0xFFFFFFFFFFFFFFFFFFFFFFFFFFFFFFFFFFFFFFFF AND SWAP1 POP SWAP1 JUMP JUMPDEST PUSH1 0x60 PUSH1 0x1 DUP1 SLOAD PUSH2 0xDAF SWAP1 PUSH2 0x2A66 JUMP JUMPDEST DUP1 PUSH1 0x1F ADD PUSH1 0x20 DUP1 SWAP2 DIV MUL PUSH1 0x20 ADD PUSH1 0x40 MLOAD SWAP1 DUP2 ADD PUSH1 0x40 MSTORE DUP1 SWAP3 SWAP2 SWAP1 DUP2 DUP2 MSTORE PUSH1 0x20 ADD DUP3 DUP1 SLOAD PUSH2 0xDDB SWAP1 PUSH2 0x2A66 JUMP JUMPDEST DUP1 ISZERO PUSH2 0xE28 JUMPI DUP1 PUSH1 0x1F LT PUSH2 0xDFD JUMPI PUSH2 0x100 DUP1 DUP4 SLOAD DIV MUL DUP4 MSTORE SWAP2 PUSH1 0x20 ADD SWAP2 PUSH2 0xE28 JUMP JUMPDEST DUP3 ADD SWAP2 SWAP1 PUSH1 0x0 MSTORE PUSH1 0x20 PUSH1 0x0 KECCAK256 SWAP1 JUMPDEST DUP2 SLOAD DUP2 MSTORE SWAP1 PUSH1 0x1 ADD SWAP1 PUSH1 0x20 ADD DUP1 DUP4 GT PUSH2 0xE0B JUMPI DUP3 SWAP1 SUB PUSH1 0x1F AND DUP3 ADD SWAP2 JUMPDEST POP POP POP POP POP SWAP1 POP SWAP1 JUMP JUMPDEST PUSH2 0xE44 PUSH2 0xE3D PUSH2 0x1117 JUMP JUMPDEST DUP4 DUP4 PUSH2 0x14B6 JUMP JUMPDEST POP POP JUMP JUMPDEST PUSH2 0xE53 DUP5 DUP5 DUP5 PUSH2 0x781 JUMP JUMPDEST PUSH2 0xE5F DUP5 DUP5 DUP5 DUP5 PUSH2 0x1625 JUMP JUMPDEST POP POP POP POP JUMP JUMPDEST PUSH1 0x60 PUSH2 0xE70 DUP3 PUSH2 0x1052 JUMP JUMPDEST POP PUSH1 0x0 PUSH2 0xE7B PUSH2 0x17DC JUMP JUMPDEST SWAP1 POP PUSH1 0x0 DUP2 MLOAD GT PUSH2 0xE9B JUMPI PUSH1 0x40 MLOAD DUP1 PUSH1 0x20 ADD PUSH1 0x40 MSTORE DUP1 PUSH1 0x0 DUP2 MSTORE POP PUSH2 0xEC6 JUMP JUMPDEST DUP1 PUSH2 0xEA5 DUP5 PUSH2 0x186E JUMP JUMPDEST PUSH1 0x40 MLOAD PUSH1 0x20 ADD PUSH2 0xEB6 SWAP3 SWAP2 SWAP1 PUSH2 0x2F06 JUMP JUMPDEST PUSH1 0x40 MLOAD PUSH1 0x20 DUP2 DUP4 SUB SUB DUP2 MSTORE SWAP1 PUSH1 0x40 MSTORE JUMPDEST SWAP2 POP POP SWAP2 SWAP1 POP JUMP JUMPDEST PUSH1 0x0 PUSH1 0x5 PUSH1 0x0 DUP5 PUSH20 0xFFFFFFFFFFFFFFFFFFFFFFFFFFFFFFFFFFFFFFFF AND PUSH20 0xFFFFFFFFFFFFFFFFFFFFFFFFFFFFFFFFFFFFFFFF AND DUP2 MSTORE PUSH1 0x20 ADD SWAP1 DUP2 MSTORE PUSH1 0x20 ADD PUSH1 0x0 KECCAK256 PUSH1 0x0 DUP4 PUSH20 0xFFFFFFFFFFFFFFFFFFFFFFFFFFFFFFFFFFFFFFFF AND PUSH20 0xFFFFFFFFFFFFFFFFFFFFFFFFFFFFFFFFFFFFFFFF AND DUP2 MSTORE PUSH1 0x20 ADD SWAP1 DUP2 MSTORE PUSH1 0x20 ADD PUSH1 0x0 KECCAK256 PUSH1 0x0 SWAP1 SLOAD SWAP1 PUSH2 0x100 EXP SWAP1 DIV PUSH1 0xFF AND SWAP1 POP SWAP3 SWAP2 POP POP JUMP JUMPDEST PUSH2 0xF6A PUSH2 0x134B JUMP JUMPDEST PUSH1 0x0 PUSH20 0xFFFFFFFFFFFFFFFFFFFFFFFFFFFFFFFFFFFFFFFF AND DUP2 PUSH20 0xFFFFFFFFFFFFFFFFFFFFFFFFFFFFFFFFFFFFFFFF AND SUB PUSH2 0xFDC JUMPI PUSH1 0x0 PUSH1 0x40 MLOAD PUSH32 0x1E4FBDF700000000000000000000000000000000000000000000000000000000 DUP2 MSTORE PUSH1 0x4 ADD PUSH2 0xFD3 SWAP2 SWAP1 PUSH2 0x216A JUMP JUMPDEST PUSH1 0x40 MLOAD DUP1 SWAP2 SUB SWAP1 REVERT JUMPDEST PUSH2 0xFE5 DUP2 PUSH2 0x13F0 JUMP JUMPDEST POP JUMP JUMPDEST PUSH1 0x0 PUSH32 0x1FFC9A700000000000000000000000000000000000000000000000000000000 PUSH28 0xFFFFFFFFFFFFFFFFFFFFFFFFFFFFFFFFFFFFFFFFFFFFFFFFFFFFFFFF NOT AND DUP3 PUSH28 0xFFFFFFFFFFFFFFFFFFFFFFFFFFFFFFFFFFFFFFFFFFFFFFFFFFFFFFFF NOT AND EQ SWAP1 POP SWAP2 SWAP1 POP JUMP JUMPDEST PUSH1 0x0 DUP1 PUSH2 0x105E DUP4 PUSH2 0x193C JUMP JUMPDEST SWAP1 POP PUSH1 0x0 PUSH20 0xFFFFFFFFFFFFFFFFFFFFFFFFFFFFFFFFFFFFFFFF AND DUP2 PUSH20 0xFFFFFFFFFFFFFFFFFFFFFFFFFFFFFFFFFFFFFFFF AND SUB PUSH2 0x10D1 JUMPI DUP3 PUSH1 0x40 MLOAD PUSH32 0x7E27328900000000000000000000000000000000000000000000000000000000 DUP2 MSTORE PUSH1 0x4 ADD PUSH2 0x10C8 SWAP2 SWAP1 PUSH2 0x23FA JUMP JUMPDEST PUSH1 0x40 MLOAD DUP1 SWAP2 SUB SWAP1 REVERT JUMPDEST DUP1 SWAP2 POP POP SWAP2 SWAP1 POP JUMP JUMPDEST PUSH1 0x0 PUSH1 0x4 PUSH1 0x0 DUP4 DUP2 MSTORE PUSH1 0x20 ADD SWAP1 DUP2 MSTORE PUSH1 0x20 ADD PUSH1 0x0 KECCAK256 PUSH1 0x0 SWAP1 SLOAD SWAP1 PUSH2 0x100 EXP SWAP1 DIV PUSH20 0xFFFFFFFFFFFFFFFFFFFFFFFFFFFFFFFFFFFFFFFF AND SWAP1 POP SWAP2 SWAP1 POP JUMP JUMPDEST PUSH1 0x0 CALLER SWAP1 POP SWAP1 JUMP JUMPDEST PUSH2 0x112C DUP4 DUP4 DUP4 PUSH1 0x1 PUSH2 0x1979 JUMP JUMPDEST POP POP POP JUMP JUMPDEST PUSH1 0x0 DUP1 PUSH2 0x113D DUP5 PUSH2 0x193C JUMP JUMPDEST SWAP1 POP PUSH1 0x0 PUSH20 0xFFFFFFFFFFFFFFFFFFFFFFFFFFFFFFFFFFFFFFFF AND DUP4 PUSH20 0xFFFFFFFFFFFFFFFFFFFFFFFFFFFFFFFFFFFFFFFF AND EQ PUSH2 0x117F JUMPI PUSH2 0x117E DUP2 DUP5 DUP7 PUSH2 0x1B3E JUMP JUMPDEST JUMPDEST PUSH1 0x0 PUSH20 0xFFFFFFFFFFFFFFFFFFFFFFFFFFFFFFFFFFFFFFFF AND DUP2 PUSH20 0xFFFFFFFFFFFFFFFFFFFFFFFFFFFFFFFFFFFFFFFF AND EQ PUSH2 0x1210 JUMPI PUSH2 0x11C1 PUSH1 0x0 DUP6 PUSH1 0x0 DUP1 PUSH2 0x1979 JUMP JUMPDEST PUSH1 0x1 PUSH1 0x3 PUSH1 0x0 DUP4 PUSH20 0xFFFFFFFFFFFFFFFFFFFFFFFFFFFFFFFFFFFFFFFF AND PUSH20 0xFFFFFFFFFFFFFFFFFFFFFFFFFFFFFFFFFFFFFFFF AND DUP2 MSTORE PUSH1 0x20 ADD SWAP1 DUP2 MSTORE PUSH1 0x20 ADD PUSH1 0x0 KECCAK256 PUSH1 0x0 DUP3 DUP3 SLOAD SUB SWAP3 POP POP DUP2 SWAP1 SSTORE POP JUMPDEST PUSH1 0x0 PUSH20 0xFFFFFFFFFFFFFFFFFFFFFFFFFFFFFFFFFFFFFFFF AND DUP6 PUSH20 0xFFFFFFFFFFFFFFFFFFFFFFFFFFFFFFFFFFFFFFFF AND EQ PUSH2 0x1293 JUMPI PUSH1 0x1 PUSH1 0x3 PUSH1 0x0 DUP8 PUSH20 0xFFFFFFFFFFFFFFFFFFFFFFFFFFFFFFFFFFFFFFFF AND PUSH20 0xFFFFFFFFFFFFFFFFFFFFFFFFFFFFFFFFFFFFFFFF AND DUP2 MSTORE PUSH1 0x20 ADD SWAP1 DUP2 MSTORE PUSH1 0x20 ADD PUSH1 0x0 KECCAK256 PUSH1 0x0 DUP3 DUP3 SLOAD ADD SWAP3 POP POP DUP2 SWAP1 SSTORE POP JUMPDEST DUP5 PUSH1 0x2 PUSH1 0x0 DUP7 DUP2 MSTORE PUSH1 0x20 ADD SWAP1 DUP2 MSTORE PUSH1 0x20 ADD PUSH1 0x0 KECCAK256 PUSH1 0x0 PUSH2 0x100 EXP DUP2 SLOAD DUP2 PUSH20 0xFFFFFFFFFFFFFFFFFFFFFFFFFFFFFFFFFFFFFFFF MUL NOT AND SWAP1 DUP4 PUSH20 0xFFFFFFFFFFFFFFFFFFFFFFFFFFFFFFFFFFFFFFFF AND MUL OR SWAP1 SSTORE POP DUP4 DUP6 PUSH20 0xFFFFFFFFFFFFFFFFFFFFFFFFFFFFFFFFFFFFFFFF AND DUP3 PUSH20 0xFFFFFFFFFFFFFFFFFFFFFFFFFFFFFFFFFFFFFFFF AND PUSH32 0xDDF252AD1BE2C89B69C2B068FC378DAA952BA7F163C4A11628F55A4DF523B3EF PUSH1 0x40 MLOAD PUSH1 0x40 MLOAD DUP1 SWAP2 SUB SWAP1 LOG4 DUP1 SWAP2 POP POP SWAP4 SWAP3 POP POP POP JUMP JUMPDEST PUSH2 0x1353 PUSH2 0x1117 JUMP JUMPDEST PUSH20 0xFFFFFFFFFFFFFFFFFFFFFFFFFFFFFFFFFFFFFFFF AND PUSH2 0x1371 PUSH2 0xD76 JUMP JUMPDEST PUSH20 0xFFFFFFFFFFFFFFFFFFFFFFFFFFFFFFFFFFFFFFFF AND EQ PUSH2 0x13D0 JUMPI PUSH2 0x1394 PUSH2 0x1117 JUMP JUMPDEST PUSH1 0x40 MLOAD PUSH32 0x118CDAA700000000000000000000000000000000000000000000000000000000 DUP2 MSTORE PUSH1 0x4 ADD PUSH2 0x13C7 SWAP2 SWAP1 PUSH2 0x216A JUMP JUMPDEST PUSH1 0x40 MLOAD DUP1 SWAP2 SUB SWAP1 REVERT JUMPDEST JUMP JUMPDEST PUSH2 0x13EC DUP3 DUP3 PUSH1 0x40 MLOAD DUP1 PUSH1 0x20 ADD PUSH1 0x40 MSTORE DUP1 PUSH1 0x0 DUP2 MSTORE POP PUSH2 0x1C02 JUMP JUMPDEST POP POP JUMP JUMPDEST PUSH1 0x0 PUSH1 0x6 PUSH1 0x0 SWAP1 SLOAD SWAP1 PUSH2 0x100 EXP SWAP1 DIV PUSH20 0xFFFFFFFFFFFFFFFFFFFFFFFFFFFFFFFFFFFFFFFF AND SWAP1 POP DUP2 PUSH1 0x6 PUSH1 0x0 PUSH2 0x100 EXP DUP2 SLOAD DUP2 PUSH20 0xFFFFFFFFFFFFFFFFFFFFFFFFFFFFFFFFFFFFFFFF MUL NOT AND SWAP1 DUP4 PUSH20 0xFFFFFFFFFFFFFFFFFFFFFFFFFFFFFFFFFFFFFFFF AND MUL OR SWAP1 SSTORE POP DUP2 PUSH20 0xFFFFFFFFFFFFFFFFFFFFFFFFFFFFFFFFFFFFFFFF AND DUP2 PUSH20 0xFFFFFFFFFFFFFFFFFFFFFFFFFFFFFFFFFFFFFFFF AND PUSH32 0x8BE0079C531659141344CD1FD0A4F28419497F9722A3DAAFE3B4186F6B6457E0 PUSH1 0x40 MLOAD PUSH1 0x40 MLOAD DUP1 SWAP2 SUB SWAP1 LOG3 POP POP JUMP JUMPDEST PUSH1 0x0 PUSH20 0xFFFFFFFFFFFFFFFFFFFFFFFFFFFFFFFFFFFFFFFF AND DUP3 PUSH20 0xFFFFFFFFFFFFFFFFFFFFFFFFFFFFFFFFFFFFFFFF AND SUB PUSH2 0x1527 JUMPI DUP2 PUSH1 0x40 MLOAD PUSH32 0x5B08BA1800000000000000000000000000000000000000000000000000000000 DUP2 MSTORE PUSH1 0x4 ADD PUSH2 0x151E SWAP2 SWAP1 PUSH2 0x216A JUMP JUMPDEST PUSH1 0x40 MLOAD DUP1 SWAP2 SUB SWAP1 REVERT JUMPDEST DUP1 PUSH1 0x5 PUSH1 0x0 DUP6 PUSH20 0xFFFFFFFFFFFFFFFFFFFFFFFFFFFFFFFFFFFFFFFF AND PUSH20 0xFFFFFFFFFFFFFFFFFFFFFFFFFFFFFFFFFFFFFFFF AND DUP2 MSTORE PUSH1 0x20 ADD SWAP1 DUP2 MSTORE PUSH1 0x20 ADD PUSH1 0x0 KECCAK256 PUSH1 0x0 DUP5 PUSH20 0xFFFFFFFFFFFFFFFFFFFFFFFFFFFFFFFFFFFFFFFF AND PUSH20 0xFFFFFFFFFFFFFFFFFFFFFFFFFFFFFFFFFFFFFFFF AND DUP2 MSTORE PUSH1 0x20 ADD SWAP1 DUP2 MSTORE PUSH1 0x20 ADD PUSH1 0x0 KECCAK256 PUSH1 0x0 PUSH2 0x100 EXP DUP2 SLOAD DUP2 PUSH1 0xFF MUL NOT AND SWAP1 DUP4 ISZERO ISZERO MUL OR SWAP1 SSTORE POP DUP2 PUSH20 0xFFFFFFFFFFFFFFFFFFFFFFFFFFFFFFFFFFFFFFFF AND DUP4 PUSH20 0xFFFFFFFFFFFFFFFFFFFFFFFFFFFFFFFFFFFFFFFF AND PUSH32 0x17307EAB39AB6107E8899845AD3D59BD9653F200F220920489CA2B5937696C31 DUP4 PUSH1 0x40 MLOAD PUSH2 0x1618 SWAP2 SWAP1 PUSH2 0x1FF9 JUMP JUMPDEST PUSH1 0x40 MLOAD DUP1 SWAP2 SUB SWAP1 LOG3 POP POP POP JUMP JUMPDEST PUSH1 0x0 DUP4 PUSH20 0xFFFFFFFFFFFFFFFFFFFFFFFFFFFFFFFFFFFFFFFF AND EXTCODESIZE GT ISZERO PUSH2 0x17D6 JUMPI DUP3 PUSH20 0xFFFFFFFFFFFFFFFFFFFFFFFFFFFFFFFFFFFFFFFF AND PUSH4 0x150B7A02 PUSH2 0x1669 PUSH2 0x1117 JUMP JUMPDEST DUP7 DUP6 DUP6 PUSH1 0x40 MLOAD DUP6 PUSH4 0xFFFFFFFF AND PUSH1 0xE0 SHL DUP2 MSTORE PUSH1 0x4 ADD PUSH2 0x168B SWAP5 SWAP4 SWAP3 SWAP2 SWAP1 PUSH2 0x2F7F JUMP JUMPDEST PUSH1 0x20 PUSH1 0x40 MLOAD DUP1 DUP4 SUB DUP2 PUSH1 0x0 DUP8 GAS CALL SWAP3 POP POP POP DUP1 ISZERO PUSH2 0x16C7 JUMPI POP PUSH1 0x40 MLOAD RETURNDATASIZE PUSH1 0x1F NOT PUSH1 0x1F DUP3 ADD AND DUP3 ADD DUP1 PUSH1 0x40 MSTORE POP DUP2 ADD SWAP1 PUSH2 0x16C4 SWAP2 SWAP1 PUSH2 0x2FE0 JUMP JUMPDEST PUSH1 0x1 JUMPDEST PUSH2 0x174B JUMPI RETURNDATASIZE DUP1 PUSH1 0x0 DUP2 EQ PUSH2 0x16F7 JUMPI PUSH1 0x40 MLOAD SWAP2 POP PUSH1 0x1F NOT PUSH1 0x3F RETURNDATASIZE ADD AND DUP3 ADD PUSH1 0x40 MSTORE RETURNDATASIZE DUP3 MSTORE RETURNDATASIZE PUSH1 0x0 PUSH1 0x20 DUP5 ADD RETURNDATACOPY PUSH2 0x16FC JUMP JUMPDEST PUSH1 0x60 SWAP2 POP JUMPDEST POP PUSH1 0x0 DUP2 MLOAD SUB PUSH2 0x1743 JUMPI DUP4 PUSH1 0x40 MLOAD PUSH32 0x64A0AE9200000000000000000000000000000000000000000000000000000000 DUP2 MSTORE PUSH1 0x4 ADD PUSH2 0x173A SWAP2 SWAP1 PUSH2 0x216A JUMP JUMPDEST PUSH1 0x40 MLOAD DUP1 SWAP2 SUB SWAP1 REVERT JUMPDEST DUP1 MLOAD DUP2 PUSH1 0x20 ADD REVERT JUMPDEST PUSH4 0x150B7A02 PUSH1 0xE0 SHL PUSH28 0xFFFFFFFFFFFFFFFFFFFFFFFFFFFFFFFFFFFFFFFFFFFFFFFFFFFFFFFF NOT AND DUP2 PUSH28 0xFFFFFFFFFFFFFFFFFFFFFFFFFFFFFFFFFFFFFFFFFFFFFFFFFFFFFFFF NOT AND EQ PUSH2 0x17D4 JUMPI DUP4 PUSH1 0x40 MLOAD PUSH32 0x64A0AE9200000000000000000000000000000000000000000000000000000000 DUP2 MSTORE PUSH1 0x4 ADD PUSH2 0x17CB SWAP2 SWAP1 PUSH2 0x216A JUMP JUMPDEST PUSH1 0x40 MLOAD DUP1 SWAP2 SUB SWAP1 REVERT JUMPDEST POP JUMPDEST POP POP POP POP JUMP JUMPDEST PUSH1 0x60 PUSH1 0x8 DUP1 SLOAD PUSH2 0x17EB SWAP1 PUSH2 0x2A66 JUMP JUMPDEST DUP1 PUSH1 0x1F ADD PUSH1 0x20 DUP1 SWAP2 DIV MUL PUSH1 0x20 ADD PUSH1 0x40 MLOAD SWAP1 DUP2 ADD PUSH1 0x40 MSTORE DUP1 SWAP3 SWAP2 SWAP1 DUP2 DUP2 MSTORE PUSH1 0x20 ADD DUP3 DUP1 SLOAD PUSH2 0x1817 SWAP1 PUSH2 0x2A66 JUMP JUMPDEST DUP1 ISZERO PUSH2 0x1864 JUMPI DUP1 PUSH1 0x1F LT PUSH2 0x1839 JUMPI PUSH2 0x100 DUP1 DUP4 SLOAD DIV MUL DUP4 MSTORE SWAP2 PUSH1 0x20 ADD SWAP2 PUSH2 0x1864 JUMP JUMPDEST DUP3 ADD SWAP2 SWAP1 PUSH1 0x0 MSTORE PUSH1 0x20 PUSH1 0x0 KECCAK256 SWAP1 JUMPDEST DUP2 SLOAD DUP2 MSTORE SWAP1 PUSH1 0x1 ADD SWAP1 PUSH1 0x20 ADD DUP1 DUP4 GT PUSH2 0x1847 JUMPI DUP3 SWAP1 SUB PUSH1 0x1F AND DUP3 ADD SWAP2 JUMPDEST POP POP POP POP POP SWAP1 POP SWAP1 JUMP JUMPDEST PUSH1 0x60 PUSH1 0x0 PUSH1 0x1 PUSH2 0x187D DUP5 PUSH2 0x1C1E JUMP JUMPDEST ADD SWAP1 POP PUSH1 0x0 DUP2 PUSH8 0xFFFFFFFFFFFFFFFF DUP2 GT ISZERO PUSH2 0x189C JUMPI PUSH2 0x189B PUSH2 0x241F JUMP JUMPDEST JUMPDEST PUSH1 0x40 MLOAD SWAP1 DUP1 DUP3 MSTORE DUP1 PUSH1 0x1F ADD PUSH1 0x1F NOT AND PUSH1 0x20 ADD DUP3 ADD PUSH1 0x40 MSTORE DUP1 ISZERO PUSH2 0x18CE JUMPI DUP2 PUSH1 0x20 ADD PUSH1 0x1 DUP3 MUL DUP1 CALLDATASIZE DUP4 CALLDATACOPY DUP1 DUP3 ADD SWAP2 POP POP SWAP1 POP JUMPDEST POP SWAP1 POP PUSH1 0x0 DUP3 PUSH1 0x20 ADD DUP3 ADD SWAP1 POP JUMPDEST PUSH1 0x1 ISZERO PUSH2 0x1931 JUMPI DUP1 DUP1 PUSH1 0x1 SWAP1 SUB SWAP2 POP POP PUSH32 0x3031323334353637383961626364656600000000000000000000000000000000 PUSH1 0xA DUP7 MOD BYTE DUP2 MSTORE8 PUSH1 0xA DUP6 DUP2 PUSH2 0x1925 JUMPI PUSH2 0x1924 PUSH2 0x300D JUMP JUMPDEST JUMPDEST DIV SWAP5 POP PUSH1 0x0 DUP6 SUB PUSH2 0x18DC JUMPI JUMPDEST DUP2 SWAP4 POP POP POP POP SWAP2 SWAP1 POP JUMP JUMPDEST PUSH1 0x0 PUSH1 0x2 PUSH1 0x0 DUP4 DUP2 MSTORE PUSH1 0x20 ADD SWAP1 DUP2 MSTORE PUSH1 0x20 ADD PUSH1 0x0 KECCAK256 PUSH1 0x0 SWAP1 SLOAD SWAP1 PUSH2 0x100 EXP SWAP1 DIV PUSH20 0xFFFFFFFFFFFFFFFFFFFFFFFFFFFFFFFFFFFFFFFF AND SWAP1 POP SWAP2 SWAP1 POP JUMP JUMPDEST DUP1 DUP1 PUSH2 0x19B2 JUMPI POP PUSH1 0x0 PUSH20 0xFFFFFFFFFFFFFFFFFFFFFFFFFFFFFFFFFFFFFFFF AND DUP3 PUSH20 0xFFFFFFFFFFFFFFFFFFFFFFFFFFFFFFFFFFFFFFFF AND EQ ISZERO JUMPDEST ISZERO PUSH2 0x1AE6 JUMPI PUSH1 0x0 PUSH2 0x19C2 DUP5 PUSH2 0x1052 JUMP JUMPDEST SWAP1 POP PUSH1 0x0 PUSH20 0xFFFFFFFFFFFFFFFFFFFFFFFFFFFFFFFFFFFFFFFF AND DUP4 PUSH20 0xFFFFFFFFFFFFFFFFFFFFFFFFFFFFFFFFFFFFFFFF AND EQ ISZERO DUP1 ISZERO PUSH2 0x1A2D JUMPI POP DUP3 PUSH20 0xFFFFFFFFFFFFFFFFFFFFFFFFFFFFFFFFFFFFFFFF AND DUP2 PUSH20 0xFFFFFFFFFFFFFFFFFFFFFFFFFFFFFFFFFFFFFFFF AND EQ ISZERO JUMPDEST DUP1 ISZERO PUSH2 0x1A40 JUMPI POP PUSH2 0x1A3E DUP2 DUP5 PUSH2 0xECE JUMP JUMPDEST ISZERO JUMPDEST ISZERO PUSH2 0x1A82 JUMPI DUP3 PUSH1 0x40 MLOAD PUSH32 0xA9FBF51F00000000000000000000000000000000000000000000000000000000 DUP2 MSTORE PUSH1 0x4 ADD PUSH2 0x1A79 SWAP2 SWAP1 PUSH2 0x216A JUMP JUMPDEST PUSH1 0x40 MLOAD DUP1 SWAP2 SUB SWAP1 REVERT JUMPDEST DUP2 ISZERO PUSH2 0x1AE4 JUMPI DUP4 DUP6 PUSH20 0xFFFFFFFFFFFFFFFFFFFFFFFFFFFFFFFFFFFFFFFF AND DUP3 PUSH20 0xFFFFFFFFFFFFFFFFFFFFFFFFFFFFFFFFFFFFFFFF AND PUSH32 0x8C5BE1E5EBEC7D5BD14F71427D1E84F3DD0314C0F7B2291E5B200AC8C7C3B925 PUSH1 0x40 MLOAD PUSH1 0x40 MLOAD DUP1 SWAP2 SUB SWAP1 LOG4 JUMPDEST POP JUMPDEST DUP4 PUSH1 0x4 PUSH1 0x0 DUP6 DUP2 MSTORE PUSH1 0x20 ADD SWAP1 DUP2 MSTORE PUSH1 0x20 ADD PUSH1 0x0 KECCAK256 PUSH1 0x0 PUSH2 0x100 EXP DUP2 SLOAD DUP2 PUSH20 0xFFFFFFFFFFFFFFFFFFFFFFFFFFFFFFFFFFFFFFFF MUL NOT AND SWAP1 DUP4 PUSH20 0xFFFFFFFFFFFFFFFFFFFFFFFFFFFFFFFFFFFFFFFF AND MUL OR SWAP1 SSTORE POP POP POP POP POP JUMP JUMPDEST PUSH2 0x1B49 DUP4 DUP4 DUP4 PUSH2 0x1D71 JUMP JUMPDEST PUSH2 0x1BFD JUMPI PUSH1 0x0 PUSH20 0xFFFFFFFFFFFFFFFFFFFFFFFFFFFFFFFFFFFFFFFF AND DUP4 PUSH20 0xFFFFFFFFFFFFFFFFFFFFFFFFFFFFFFFFFFFFFFFF AND SUB PUSH2 0x1BBE JUMPI DUP1 PUSH1 0x40 MLOAD PUSH32 0x7E27328900000000000000000000000000000000000000000000000000000000 DUP2 MSTORE PUSH1 0x4 ADD PUSH2 0x1BB5 SWAP2 SWAP1 PUSH2 0x23FA JUMP JUMPDEST PUSH1 0x40 MLOAD DUP1 SWAP2 SUB SWAP1 REVERT JUMPDEST DUP2 DUP2 PUSH1 0x40 MLOAD PUSH32 0x177E802F00000000000000000000000000000000000000000000000000000000 DUP2 MSTORE PUSH1 0x4 ADD PUSH2 0x1BF4 SWAP3 SWAP2 SWAP1 PUSH2 0x303C JUMP JUMPDEST PUSH1 0x40 MLOAD DUP1 SWAP2 SUB SWAP1 REVERT JUMPDEST POP POP POP JUMP JUMPDEST PUSH2 0x1C0C DUP4 DUP4 PUSH2 0x1E32 JUMP JUMPDEST PUSH2 0x1C19 PUSH1 0x0 DUP5 DUP5 DUP5 PUSH2 0x1625 JUMP JUMPDEST POP POP POP JUMP JUMPDEST PUSH1 0x0 DUP1 PUSH1 0x0 SWAP1 POP PUSH27 0x184F03E93FF9F4DAA797ED6E38ED64BF6A1F010000000000000000 DUP4 LT PUSH2 0x1C7C JUMPI PUSH27 0x184F03E93FF9F4DAA797ED6E38ED64BF6A1F010000000000000000 DUP4 DUP2 PUSH2 0x1C72 JUMPI PUSH2 0x1C71 PUSH2 0x300D JUMP JUMPDEST JUMPDEST DIV SWAP3 POP PUSH1 0x40 DUP2 ADD SWAP1 POP JUMPDEST PUSH14 0x4EE2D6D415B85ACEF8100000000 DUP4 LT PUSH2 0x1CB9 JUMPI PUSH14 0x4EE2D6D415B85ACEF8100000000 DUP4 DUP2 PUSH2 0x1CAF JUMPI PUSH2 0x1CAE PUSH2 0x300D JUMP JUMPDEST JUMPDEST DIV SWAP3 POP PUSH1 0x20 DUP2 ADD SWAP1 POP JUMPDEST PUSH7 0x2386F26FC10000 DUP4 LT PUSH2 0x1CE8 JUMPI PUSH7 0x2386F26FC10000 DUP4 DUP2 PUSH2 0x1CDE JUMPI PUSH2 0x1CDD PUSH2 0x300D JUMP JUMPDEST JUMPDEST DIV SWAP3 POP PUSH1 0x10 DUP2 ADD SWAP1 POP JUMPDEST PUSH4 0x5F5E100 DUP4 LT PUSH2 0x1D11 JUMPI PUSH4 0x5F5E100 DUP4 DUP2 PUSH2 0x1D07 JUMPI PUSH2 0x1D06 PUSH2 0x300D JUMP JUMPDEST JUMPDEST DIV SWAP3 POP PUSH1 0x8 DUP2 ADD SWAP1 POP JUMPDEST PUSH2 0x2710 DUP4 LT PUSH2 0x1D36 JUMPI PUSH2 0x2710 DUP4 DUP2 PUSH2 0x1D2C JUMPI PUSH2 0x1D2B PUSH2 0x300D JUMP JUMPDEST JUMPDEST DIV SWAP3 POP PUSH1 0x4 DUP2 ADD SWAP1 POP JUMPDEST PUSH1 0x64 DUP4 LT PUSH2 0x1D59 JUMPI PUSH1 0x64 DUP4 DUP2 PUSH2 0x1D4F JUMPI PUSH2 0x1D4E PUSH2 0x300D JUMP JUMPDEST JUMPDEST DIV SWAP3 POP PUSH1 0x2 DUP2 ADD SWAP1 POP JUMPDEST PUSH1 0xA DUP4 LT PUSH2 0x1D68 JUMPI PUSH1 0x1 DUP2 ADD SWAP1 POP JUMPDEST DUP1 SWAP2 POP POP SWAP2 SWAP1 POP JUMP JUMPDEST PUSH1 0x0 DUP1 PUSH20 0xFFFFFFFFFFFFFFFFFFFFFFFFFFFFFFFFFFFFFFFF AND DUP4 PUSH20 0xFFFFFFFFFFFFFFFFFFFFFFFFFFFFFFFFFFFFFFFF AND EQ ISZERO DUP1 ISZERO PUSH2 0x1E29 JUMPI POP DUP3 PUSH20 0xFFFFFFFFFFFFFFFFFFFFFFFFFFFFFFFFFFFFFFFF AND DUP5 PUSH20 0xFFFFFFFFFFFFFFFFFFFFFFFFFFFFFFFFFFFFFFFF AND EQ DUP1 PUSH2 0x1DEA JUMPI POP PUSH2 0x1DE9 DUP5 DUP5 PUSH2 0xECE JUMP JUMPDEST JUMPDEST DUP1 PUSH2 0x1E28 JUMPI POP DUP3 PUSH20 0xFFFFFFFFFFFFFFFFFFFFFFFFFFFFFFFFFFFFFFFF AND PUSH2 0x1E10 DUP4 PUSH2 0x10DA JUMP JUMPDEST PUSH20 0xFFFFFFFFFFFFFFFFFFFFFFFFFFFFFFFFFFFFFFFF AND EQ JUMPDEST JUMPDEST SWAP1 POP SWAP4 SWAP3 POP POP POP JUMP JUMPDEST PUSH1 0x0 PUSH20 0xFFFFFFFFFFFFFFFFFFFFFFFFFFFFFFFFFFFFFFFF AND DUP3 PUSH20 0xFFFFFFFFFFFFFFFFFFFFFFFFFFFFFFFFFFFFFFFF AND SUB PUSH2 0x1EA4 JUMPI PUSH1 0x0 PUSH1 0x40 MLOAD PUSH32 0x64A0AE9200000000000000000000000000000000000000000000000000000000 DUP2 MSTORE PUSH1 0x4 ADD PUSH2 0x1E9B SWAP2 SWAP1 PUSH2 0x216A JUMP JUMPDEST PUSH1 0x40 MLOAD DUP1 SWAP2 SUB SWAP1 REVERT JUMPDEST PUSH1 0x0 PUSH2 0x1EB2 DUP4 DUP4 PUSH1 0x0 PUSH2 0x1131 JUMP JUMPDEST SWAP1 POP PUSH1 0x0 PUSH20 0xFFFFFFFFFFFFFFFFFFFFFFFFFFFFFFFFFFFFFFFF AND DUP2 PUSH20 0xFFFFFFFFFFFFFFFFFFFFFFFFFFFFFFFFFFFFFFFF AND EQ PUSH2 0x1F26 JUMPI PUSH1 0x0 PUSH1 0x40 MLOAD PUSH32 0x73C6AC6E00000000000000000000000000000000000000000000000000000000 DUP2 MSTORE PUSH1 0x4 ADD PUSH2 0x1F1D SWAP2 SWAP1 PUSH2 0x216A JUMP JUMPDEST PUSH1 0x40 MLOAD DUP1 SWAP2 SUB SWAP1 REVERT JUMPDEST POP POP POP JUMP JUMPDEST PUSH1 0x40 MLOAD DUP1 PUSH1 0x40 ADD PUSH1 0x40 MSTORE DUP1 PUSH1 0x0 DUP2 MSTORE PUSH1 0x20 ADD PUSH1 0x60 DUP2 MSTORE POP SWAP1 JUMP JUMPDEST PUSH1 0x0 PUSH1 0x40 MLOAD SWAP1 POP SWAP1 JUMP JUMPDEST PUSH1 0x0 DUP1 REVERT JUMPDEST PUSH1 0x0 DUP1 REVERT JUMPDEST PUSH1 0x0 PUSH32 0xFFFFFFFF00000000000000000000000000000000000000000000000000000000 DUP3 AND SWAP1 POP SWAP2 SWAP1 POP JUMP JUMPDEST PUSH2 0x1F8E DUP2 PUSH2 0x1F59 JUMP JUMPDEST DUP2 EQ PUSH2 0x1F99 JUMPI PUSH1 0x0 DUP1 REVERT JUMPDEST POP JUMP JUMPDEST PUSH1 0x0 DUP2 CALLDATALOAD SWAP1 POP PUSH2 0x1FAB DUP2 PUSH2 0x1F85 JUMP JUMPDEST SWAP3 SWAP2 POP POP JUMP JUMPDEST PUSH1 0x0 PUSH1 0x20 DUP3 DUP5 SUB SLT ISZERO PUSH2 0x1FC7 JUMPI PUSH2 0x1FC6 PUSH2 0x1F4F JUMP JUMPDEST JUMPDEST PUSH1 0x0 PUSH2 0x1FD5 DUP5 DUP3 DUP6 ADD PUSH2 0x1F9C JUMP JUMPDEST SWAP2 POP POP SWAP3 SWAP2 POP POP JUMP JUMPDEST PUSH1 0x0 DUP2 ISZERO ISZERO SWAP1 POP SWAP2 SWAP1 POP JUMP JUMPDEST PUSH2 0x1FF3 DUP2 PUSH2 0x1FDE JUMP JUMPDEST DUP3 MSTORE POP POP JUMP JUMPDEST PUSH1 0x0 PUSH1 0x20 DUP3 ADD SWAP1 POP PUSH2 0x200E PUSH1 0x0 DUP4 ADD DUP5 PUSH2 0x1FEA JUMP JUMPDEST SWAP3 SWAP2 POP POP JUMP JUMPDEST PUSH1 0x0 DUP2 MLOAD SWAP1 POP SWAP2 SWAP1 POP JUMP JUMPDEST PUSH1 0x0 DUP3 DUP3 MSTORE PUSH1 0x20 DUP3 ADD SWAP1 POP SWAP3 SWAP2 POP POP JUMP JUMPDEST PUSH1 0x0 JUMPDEST DUP4 DUP2 LT ISZERO PUSH2 0x204E JUMPI DUP1 DUP3 ADD MLOAD DUP2 DUP5 ADD MSTORE PUSH1 0x20 DUP2 ADD SWAP1 POP PUSH2 0x2033 JUMP JUMPDEST PUSH1 0x0 DUP5 DUP5 ADD MSTORE POP POP POP POP JUMP JUMPDEST PUSH1 0x0 PUSH1 0x1F NOT PUSH1 0x1F DUP4 ADD AND SWAP1 POP SWAP2 SWAP1 POP JUMP JUMPDEST PUSH1 0x0 PUSH2 0x2076 DUP3 PUSH2 0x2014 JUMP JUMPDEST PUSH2 0x2080 DUP2 DUP6 PUSH2 0x201F JUMP JUMPDEST SWAP4 POP PUSH2 0x2090 DUP2 DUP6 PUSH1 0x20 DUP7 ADD PUSH2 0x2030 JUMP JUMPDEST PUSH2 0x2099 DUP2 PUSH2 0x205A JUMP JUMPDEST DUP5 ADD SWAP2 POP POP SWAP3 SWAP2 POP POP JUMP JUMPDEST PUSH1 0x0 PUSH1 0x20 DUP3 ADD SWAP1 POP DUP2 DUP2 SUB PUSH1 0x0 DUP4 ADD MSTORE PUSH2 0x20BE DUP2 DUP5 PUSH2 0x206B JUMP JUMPDEST SWAP1 POP SWAP3 SWAP2 POP POP JUMP JUMPDEST PUSH1 0x0 DUP2 SWAP1 POP SWAP2 SWAP1 POP JUMP JUMPDEST PUSH2 0x20D9 DUP2 PUSH2 0x20C6 JUMP JUMPDEST DUP2 EQ PUSH2 0x20E4 JUMPI PUSH1 0x0 DUP1 REVERT JUMPDEST POP JUMP JUMPDEST PUSH1 0x0 DUP2 CALLDATALOAD SWAP1 POP PUSH2 0x20F6 DUP2 PUSH2 0x20D0 JUMP JUMPDEST SWAP3 SWAP2 POP POP JUMP JUMPDEST PUSH1 0x0 PUSH1 0x20 DUP3 DUP5 SUB SLT ISZERO PUSH2 0x2112 JUMPI PUSH2 0x2111 PUSH2 0x1F4F JUMP JUMPDEST JUMPDEST PUSH1 0x0 PUSH2 0x2120 DUP5 DUP3 DUP6 ADD PUSH2 0x20E7 JUMP JUMPDEST SWAP2 POP POP SWAP3 SWAP2 POP POP JUMP JUMPDEST PUSH1 0x0 PUSH20 0xFFFFFFFFFFFFFFFFFFFFFFFFFFFFFFFFFFFFFFFF DUP3 AND SWAP1 POP SWAP2 SWAP1 POP JUMP JUMPDEST PUSH1 0x0 PUSH2 0x2154 DUP3 PUSH2 0x2129 JUMP JUMPDEST SWAP1 POP SWAP2 SWAP1 POP JUMP JUMPDEST PUSH2 0x2164 DUP2 PUSH2 0x2149 JUMP JUMPDEST DUP3 MSTORE POP POP JUMP JUMPDEST PUSH1 0x0 PUSH1 0x20 DUP3 ADD SWAP1 POP PUSH2 0x217F PUSH1 0x0 DUP4 ADD DUP5 PUSH2 0x215B JUMP JUMPDEST SWAP3 SWAP2 POP POP JUMP JUMPDEST PUSH2 0x218E DUP2 PUSH2 0x2149 JUMP JUMPDEST DUP2 EQ PUSH2 0x2199 JUMPI PUSH1 0x0 DUP1 REVERT JUMPDEST POP JUMP JUMPDEST PUSH1 0x0 DUP2 CALLDATALOAD SWAP1 POP PUSH2 0x21AB DUP2 PUSH2 0x2185 JUMP JUMPDEST SWAP3 SWAP2 POP POP JUMP JUMPDEST PUSH1 0x0 DUP1 PUSH1 0x40 DUP4 DUP6 SUB SLT ISZERO PUSH2 0x21C8 JUMPI PUSH2 0x21C7 PUSH2 0x1F4F JUMP JUMPDEST JUMPDEST PUSH1 0x0 PUSH2 0x21D6 DUP6 DUP3 DUP7 ADD PUSH2 0x219C JUMP JUMPDEST SWAP3 POP POP PUSH1 0x20 PUSH2 0x21E7 DUP6 DUP3 DUP7 ADD PUSH2 0x20E7 JUMP JUMPDEST SWAP2 POP POP SWAP3 POP SWAP3 SWAP1 POP JUMP JUMPDEST PUSH1 0x0 PUSH1 0x20 DUP3 DUP5 SUB SLT ISZERO PUSH2 0x2207 JUMPI PUSH2 0x2206 PUSH2 0x1F4F JUMP JUMPDEST JUMPDEST PUSH1 0x0 PUSH2 0x2215 DUP5 DUP3 DUP6 ADD PUSH2 0x219C JUMP JUMPDEST SWAP2 POP POP SWAP3 SWAP2 POP POP JUMP JUMPDEST PUSH1 0x0 DUP2 MLOAD SWAP1 POP SWAP2 SWAP1 POP JUMP JUMPDEST PUSH1 0x0 DUP3 DUP3 MSTORE PUSH1 0x20 DUP3 ADD SWAP1 POP SWAP3 SWAP2 POP POP JUMP JUMPDEST PUSH1 0x0 DUP2 SWAP1 POP PUSH1 0x20 DUP3 ADD SWAP1 POP SWAP2 SWAP1 POP JUMP JUMPDEST PUSH2 0x2253 DUP2 PUSH2 0x20C6 JUMP JUMPDEST DUP3 MSTORE POP POP JUMP JUMPDEST PUSH1 0x0 DUP3 DUP3 MSTORE PUSH1 0x20 DUP3 ADD SWAP1 POP SWAP3 SWAP2 POP POP JUMP JUMPDEST PUSH1 0x0 PUSH2 0x2275 DUP3 PUSH2 0x2014 JUMP JUMPDEST PUSH2 0x227F DUP2 DUP6 PUSH2 0x2259 JUMP JUMPDEST SWAP4 POP PUSH2 0x228F DUP2 DUP6 PUSH1 0x20 DUP7 ADD PUSH2 0x2030 JUMP JUMPDEST PUSH2 0x2298 DUP2 PUSH2 0x205A JUMP JUMPDEST DUP5 ADD SWAP2 POP POP SWAP3 SWAP2 POP POP JUMP JUMPDEST PUSH1 0x0 PUSH1 0x40 DUP4 ADD PUSH1 0x0 DUP4 ADD MLOAD PUSH2 0x22BB PUSH1 0x0 DUP7 ADD DUP3 PUSH2 0x224A JUMP JUMPDEST POP PUSH1 0x20 DUP4 ADD MLOAD DUP5 DUP3 SUB PUSH1 0x20 DUP7 ADD MSTORE PUSH2 0x22D3 DUP3 DUP3 PUSH2 0x226A JUMP JUMPDEST SWAP2 POP POP DUP1 SWAP2 POP POP SWAP3 SWAP2 POP POP JUMP JUMPDEST PUSH1 0x0 PUSH2 0x22EC DUP4 DUP4 PUSH2 0x22A3 JUMP JUMPDEST SWAP1 POP SWAP3 SWAP2 POP POP JUMP JUMPDEST PUSH1 0x0 PUSH1 0x20 DUP3 ADD SWAP1 POP SWAP2 SWAP1 POP JUMP JUMPDEST PUSH1 0x0 PUSH2 0x230C DUP3 PUSH2 0x221E JUMP JUMPDEST PUSH2 0x2316 DUP2 DUP6 PUSH2 0x2229 JUMP JUMPDEST SWAP4 POP DUP4 PUSH1 0x20 DUP3 MUL DUP6 ADD PUSH2 0x2328 DUP6 PUSH2 0x223A JUMP JUMPDEST DUP1 PUSH1 0x0 JUMPDEST DUP6 DUP2 LT ISZERO PUSH2 0x2364 JUMPI DUP5 DUP5 SUB DUP10 MSTORE DUP2 MLOAD PUSH2 0x2345 DUP6 DUP3 PUSH2 0x22E0 JUMP JUMPDEST SWAP5 POP PUSH2 0x2350 DUP4 PUSH2 0x22F4 JUMP JUMPDEST SWAP3 POP PUSH1 0x20 DUP11 ADD SWAP10 POP POP PUSH1 0x1 DUP2 ADD SWAP1 POP PUSH2 0x232C JUMP JUMPDEST POP DUP3 SWAP8 POP DUP8 SWAP6 POP POP POP POP POP POP SWAP3 SWAP2 POP POP JUMP JUMPDEST PUSH1 0x0 PUSH1 0x20 DUP3 ADD SWAP1 POP DUP2 DUP2 SUB PUSH1 0x0 DUP4 ADD MSTORE PUSH2 0x2390 DUP2 DUP5 PUSH2 0x2301 JUMP JUMPDEST SWAP1 POP SWAP3 SWAP2 POP POP JUMP JUMPDEST PUSH1 0x0 DUP1 PUSH1 0x0 PUSH1 0x60 DUP5 DUP7 SUB SLT ISZERO PUSH2 0x23B1 JUMPI PUSH2 0x23B0 PUSH2 0x1F4F JUMP JUMPDEST JUMPDEST PUSH1 0x0 PUSH2 0x23BF DUP7 DUP3 DUP8 ADD PUSH2 0x219C JUMP JUMPDEST SWAP4 POP POP PUSH1 0x20 PUSH2 0x23D0 DUP7 DUP3 DUP8 ADD PUSH2 0x219C JUMP JUMPDEST SWAP3 POP POP PUSH1 0x40 PUSH2 0x23E1 DUP7 DUP3 DUP8 ADD PUSH2 0x20E7 JUMP JUMPDEST SWAP2 POP POP SWAP3 POP SWAP3 POP SWAP3 JUMP JUMPDEST PUSH2 0x23F4 DUP2 PUSH2 0x20C6 JUMP JUMPDEST DUP3 MSTORE POP POP JUMP JUMPDEST PUSH1 0x0 PUSH1 0x20 DUP3 ADD SWAP1 POP PUSH2 0x240F PUSH1 0x0 DUP4 ADD DUP5 PUSH2 0x23EB JUMP JUMPDEST SWAP3 SWAP2 POP POP JUMP JUMPDEST PUSH1 0x0 DUP1 REVERT JUMPDEST PUSH1 0x0 DUP1 REVERT JUMPDEST PUSH32 0x4E487B7100000000000000000000000000000000000000000000000000000000 PUSH1 0x0 MSTORE PUSH1 0x41 PUSH1 0x4 MSTORE PUSH1 0x24 PUSH1 0x0 REVERT JUMPDEST PUSH2 0x2457 DUP3 PUSH2 0x205A JUMP JUMPDEST DUP2 ADD DUP2 DUP2 LT PUSH8 0xFFFFFFFFFFFFFFFF DUP3 GT OR ISZERO PUSH2 0x2476 JUMPI PUSH2 0x2475 PUSH2 0x241F JUMP JUMPDEST JUMPDEST DUP1 PUSH1 0x40 MSTORE POP POP POP JUMP JUMPDEST PUSH1 0x0 PUSH2 0x2489 PUSH2 0x1F45 JUMP JUMPDEST SWAP1 POP PUSH2 0x2495 DUP3 DUP3 PUSH2 0x244E JUMP JUMPDEST SWAP2 SWAP1 POP JUMP JUMPDEST PUSH1 0x0 PUSH8 0xFFFFFFFFFFFFFFFF DUP3 GT ISZERO PUSH2 0x24B5 JUMPI PUSH2 0x24B4 PUSH2 0x241F JUMP JUMPDEST JUMPDEST PUSH2 0x24BE DUP3 PUSH2 0x205A JUMP JUMPDEST SWAP1 POP PUSH1 0x20 DUP2 ADD SWAP1 POP SWAP2 SWAP1 POP JUMP JUMPDEST DUP3 DUP2 DUP4 CALLDATACOPY PUSH1 0x0 DUP4 DUP4 ADD MSTORE POP POP POP JUMP JUMPDEST PUSH1 0x0 PUSH2 0x24ED PUSH2 0x24E8 DUP5 PUSH2 0x249A JUMP JUMPDEST PUSH2 0x247F JUMP JUMPDEST SWAP1 POP DUP3 DUP2 MSTORE PUSH1 0x20 DUP2 ADD DUP5 DUP5 DUP5 ADD GT ISZERO PUSH2 0x2509 JUMPI PUSH2 0x2508 PUSH2 0x241A JUMP JUMPDEST JUMPDEST PUSH2 0x2514 DUP5 DUP3 DUP6 PUSH2 0x24CB JUMP JUMPDEST POP SWAP4 SWAP3 POP POP POP JUMP JUMPDEST PUSH1 0x0 DUP3 PUSH1 0x1F DUP4 ADD SLT PUSH2 0x2531 JUMPI PUSH2 0x2530 PUSH2 0x2415 JUMP JUMPDEST JUMPDEST DUP2 CALLDATALOAD PUSH2 0x2541 DUP5 DUP3 PUSH1 0x20 DUP7 ADD PUSH2 0x24DA JUMP JUMPDEST SWAP2 POP POP SWAP3 SWAP2 POP POP JUMP JUMPDEST PUSH1 0x0 PUSH1 0x20 DUP3 DUP5 SUB SLT ISZERO PUSH2 0x2560 JUMPI PUSH2 0x255F PUSH2 0x1F4F JUMP JUMPDEST JUMPDEST PUSH1 0x0 DUP3 ADD CALLDATALOAD PUSH8 0xFFFFFFFFFFFFFFFF DUP2 GT ISZERO PUSH2 0x257E JUMPI PUSH2 0x257D PUSH2 0x1F54 JUMP JUMPDEST JUMPDEST PUSH2 0x258A DUP5 DUP3 DUP6 ADD PUSH2 0x251C JUMP JUMPDEST SWAP2 POP POP SWAP3 SWAP2 POP POP JUMP JUMPDEST PUSH1 0x0 PUSH8 0xFFFFFFFFFFFFFFFF DUP3 GT ISZERO PUSH2 0x25AE JUMPI PUSH2 0x25AD PUSH2 0x241F JUMP JUMPDEST JUMPDEST PUSH1 0x20 DUP3 MUL SWAP1 POP PUSH1 0x20 DUP2 ADD SWAP1 POP SWAP2 SWAP1 POP JUMP JUMPDEST PUSH1 0x0 DUP1 REVERT JUMPDEST PUSH1 0x0 PUSH2 0x25D7 PUSH2 0x25D2 DUP5 PUSH2 0x2593 JUMP JUMPDEST PUSH2 0x247F JUMP JUMPDEST SWAP1 POP DUP1 DUP4 DUP3 MSTORE PUSH1 0x20 DUP3 ADD SWAP1 POP PUSH1 0x20 DUP5 MUL DUP4 ADD DUP6 DUP2 GT ISZERO PUSH2 0x25FA JUMPI PUSH2 0x25F9 PUSH2 0x25BF JUMP JUMPDEST JUMPDEST DUP4 JUMPDEST DUP2 DUP2 LT ISZERO PUSH2 0x2623 JUMPI DUP1 PUSH2 0x260F DUP9 DUP3 PUSH2 0x219C JUMP JUMPDEST DUP5 MSTORE PUSH1 0x20 DUP5 ADD SWAP4 POP POP PUSH1 0x20 DUP2 ADD SWAP1 POP PUSH2 0x25FC JUMP JUMPDEST POP POP POP SWAP4 SWAP3 POP POP POP JUMP JUMPDEST PUSH1 0x0 DUP3 PUSH1 0x1F DUP4 ADD SLT PUSH2 0x2642 JUMPI PUSH2 0x2641 PUSH2 0x2415 JUMP JUMPDEST JUMPDEST DUP2 CALLDATALOAD PUSH2 0x2652 DUP5 DUP3 PUSH1 0x20 DUP7 ADD PUSH2 0x25C4 JUMP JUMPDEST SWAP2 POP POP SWAP3 SWAP2 POP POP JUMP JUMPDEST PUSH1 0x0 PUSH8 0xFFFFFFFFFFFFFFFF DUP3 GT ISZERO PUSH2 0x2676 JUMPI PUSH2 0x2675 PUSH2 0x241F JUMP JUMPDEST JUMPDEST PUSH1 0x20 DUP3 MUL SWAP1 POP PUSH1 0x20 DUP2 ADD SWAP1 POP SWAP2 SWAP1 POP JUMP JUMPDEST PUSH1 0x0 PUSH2 0x269A PUSH2 0x2695 DUP5 PUSH2 0x265B JUMP JUMPDEST PUSH2 0x247F JUMP JUMPDEST SWAP1 POP DUP1 DUP4 DUP3 MSTORE PUSH1 0x20 DUP3 ADD SWAP1 POP PUSH1 0x20 DUP5 MUL DUP4 ADD DUP6 DUP2 GT ISZERO PUSH2 0x26BD JUMPI PUSH2 0x26BC PUSH2 0x25BF JUMP JUMPDEST JUMPDEST DUP4 JUMPDEST DUP2 DUP2 LT ISZERO PUSH2 0x26E6 JUMPI DUP1 PUSH2 0x26D2 DUP9 DUP3 PUSH2 0x20E7 JUMP JUMPDEST DUP5 MSTORE PUSH1 0x20 DUP5 ADD SWAP4 POP POP PUSH1 0x20 DUP2 ADD SWAP1 POP PUSH2 0x26BF JUMP JUMPDEST POP POP POP SWAP4 SWAP3 POP POP POP JUMP JUMPDEST PUSH1 0x0 DUP3 PUSH1 0x1F DUP4 ADD SLT PUSH2 0x2705 JUMPI PUSH2 0x2704 PUSH2 0x2415 JUMP JUMPDEST JUMPDEST DUP2 CALLDATALOAD PUSH2 0x2715 DUP5 DUP3 PUSH1 0x20 DUP7 ADD PUSH2 0x2687 JUMP JUMPDEST SWAP2 POP POP SWAP3 SWAP2 POP POP JUMP JUMPDEST PUSH1 0x0 DUP1 PUSH1 0x40 DUP4 DUP6 SUB SLT ISZERO PUSH2 0x2735 JUMPI PUSH2 0x2734 PUSH2 0x1F4F JUMP JUMPDEST JUMPDEST PUSH1 0x0 DUP4 ADD CALLDATALOAD PUSH8 0xFFFFFFFFFFFFFFFF DUP2 GT ISZERO PUSH2 0x2753 JUMPI PUSH2 0x2752 PUSH2 0x1F54 JUMP JUMPDEST JUMPDEST PUSH2 0x275F DUP6 DUP3 DUP7 ADD PUSH2 0x262D JUMP JUMPDEST SWAP3 POP POP PUSH1 0x20 DUP4 ADD CALLDATALOAD PUSH8 0xFFFFFFFFFFFFFFFF DUP2 GT ISZERO PUSH2 0x2780 JUMPI PUSH2 0x277F PUSH2 0x1F54 JUMP JUMPDEST JUMPDEST PUSH2 0x278C DUP6 DUP3 DUP7 ADD PUSH2 0x26F0 JUMP JUMPDEST SWAP2 POP POP SWAP3 POP SWAP3 SWAP1 POP JUMP JUMPDEST PUSH1 0x0 DUP2 MLOAD SWAP1 POP SWAP2 SWAP1 POP JUMP JUMPDEST PUSH1 0x0 DUP3 DUP3 MSTORE PUSH1 0x20 DUP3 ADD SWAP1 POP SWAP3 SWAP2 POP POP JUMP JUMPDEST PUSH1 0x0 DUP2 SWAP1 POP PUSH1 0x20 DUP3 ADD SWAP1 POP SWAP2 SWAP1 POP JUMP JUMPDEST PUSH1 0x0 PUSH2 0x27CE DUP4 DUP4 PUSH2 0x224A JUMP JUMPDEST PUSH1 0x20 DUP4 ADD SWAP1 POP SWAP3 SWAP2 POP POP JUMP JUMPDEST PUSH1 0x0 PUSH1 0x20 DUP3 ADD SWAP1 POP SWAP2 SWAP1 POP JUMP JUMPDEST PUSH1 0x0 PUSH2 0x27F2 DUP3 PUSH2 0x2796 JUMP JUMPDEST PUSH2 0x27FC DUP2 DUP6 PUSH2 0x27A1 JUMP JUMPDEST SWAP4 POP PUSH2 0x2807 DUP4 PUSH2 0x27B2 JUMP JUMPDEST DUP1 PUSH1 0x0 JUMPDEST DUP4 DUP2 LT ISZERO PUSH2 0x2838 JUMPI DUP2 MLOAD PUSH2 0x281F DUP9 DUP3 PUSH2 0x27C2 JUMP JUMPDEST SWAP8 POP PUSH2 0x282A DUP4 PUSH2 0x27DA JUMP JUMPDEST SWAP3 POP POP PUSH1 0x1 DUP2 ADD SWAP1 POP PUSH2 0x280B JUMP JUMPDEST POP DUP6 SWAP4 POP POP POP POP SWAP3 SWAP2 POP POP JUMP JUMPDEST PUSH1 0x0 PUSH1 0x20 DUP3 ADD SWAP1 POP DUP2 DUP2 SUB PUSH1 0x0 DUP4 ADD MSTORE PUSH2 0x285F DUP2 DUP5 PUSH2 0x27E7 JUMP JUMPDEST SWAP1 POP SWAP3 SWAP2 POP POP JUMP JUMPDEST PUSH2 0x2870 DUP2 PUSH2 0x1FDE JUMP JUMPDEST DUP2 EQ PUSH2 0x287B JUMPI PUSH1 0x0 DUP1 REVERT JUMPDEST POP JUMP JUMPDEST PUSH1 0x0 DUP2 CALLDATALOAD SWAP1 POP PUSH2 0x288D DUP2 PUSH2 0x2867 JUMP JUMPDEST SWAP3 SWAP2 POP POP JUMP JUMPDEST PUSH1 0x0 DUP1 PUSH1 0x40 DUP4 DUP6 SUB SLT ISZERO PUSH2 0x28AA JUMPI PUSH2 0x28A9 PUSH2 0x1F4F JUMP JUMPDEST JUMPDEST PUSH1 0x0 PUSH2 0x28B8 DUP6 DUP3 DUP7 ADD PUSH2 0x219C JUMP JUMPDEST SWAP3 POP POP PUSH1 0x20 PUSH2 0x28C9 DUP6 DUP3 DUP7 ADD PUSH2 0x287E JUMP JUMPDEST SWAP2 POP POP SWAP3 POP SWAP3 SWAP1 POP JUMP JUMPDEST PUSH1 0x0 PUSH8 0xFFFFFFFFFFFFFFFF DUP3 GT ISZERO PUSH2 0x28EE JUMPI PUSH2 0x28ED PUSH2 0x241F JUMP JUMPDEST JUMPDEST PUSH2 0x28F7 DUP3 PUSH2 0x205A JUMP JUMPDEST SWAP1 POP PUSH1 0x20 DUP2 ADD SWAP1 POP SWAP2 SWAP1 POP JUMP JUMPDEST PUSH1 0x0 PUSH2 0x2917 PUSH2 0x2912 DUP5 PUSH2 0x28D3 JUMP JUMPDEST PUSH2 0x247F JUMP JUMPDEST SWAP1 POP DUP3 DUP2 MSTORE PUSH1 0x20 DUP2 ADD DUP5 DUP5 DUP5 ADD GT ISZERO PUSH2 0x2933 JUMPI PUSH2 0x2932 PUSH2 0x241A JUMP JUMPDEST JUMPDEST PUSH2 0x293E DUP5 DUP3 DUP6 PUSH2 0x24CB JUMP JUMPDEST POP SWAP4 SWAP3 POP POP POP JUMP JUMPDEST PUSH1 0x0 DUP3 PUSH1 0x1F DUP4 ADD SLT PUSH2 0x295B JUMPI PUSH2 0x295A PUSH2 0x2415 JUMP JUMPDEST JUMPDEST DUP2 CALLDATALOAD PUSH2 0x296B DUP5 DUP3 PUSH1 0x20 DUP7 ADD PUSH2 0x2904 JUMP JUMPDEST SWAP2 POP POP SWAP3 SWAP2 POP POP JUMP JUMPDEST PUSH1 0x0 DUP1 PUSH1 0x0 DUP1 PUSH1 0x80 DUP6 DUP8 SUB SLT ISZERO PUSH2 0x298E JUMPI PUSH2 0x298D PUSH2 0x1F4F JUMP JUMPDEST JUMPDEST PUSH1 0x0 PUSH2 0x299C DUP8 DUP3 DUP9 ADD PUSH2 0x219C JUMP JUMPDEST SWAP5 POP POP PUSH1 0x20 PUSH2 0x29AD DUP8 DUP3 DUP9 ADD PUSH2 0x219C JUMP JUMPDEST SWAP4 POP POP PUSH1 0x40 PUSH2 0x29BE DUP8 DUP3 DUP9 ADD PUSH2 0x20E7 JUMP JUMPDEST SWAP3 POP POP PUSH1 0x60 DUP6 ADD CALLDATALOAD PUSH8 0xFFFFFFFFFFFFFFFF DUP2 GT ISZERO PUSH2 0x29DF JUMPI PUSH2 0x29DE PUSH2 0x1F54 JUMP JUMPDEST JUMPDEST PUSH2 0x29EB DUP8 DUP3 DUP9 ADD PUSH2 0x2946 JUMP JUMPDEST SWAP2 POP POP SWAP3 SWAP6 SWAP2 SWAP5 POP SWAP3 POP JUMP JUMPDEST PUSH1 0x0 DUP1 PUSH1 0x40 DUP4 DUP6 SUB SLT ISZERO PUSH2 0x2A0E JUMPI PUSH2 0x2A0D PUSH2 0x1F4F JUMP JUMPDEST JUMPDEST PUSH1 0x0 PUSH2 0x2A1C DUP6 DUP3 DUP7 ADD PUSH2 0x219C JUMP JUMPDEST SWAP3 POP POP PUSH1 0x20 PUSH2 0x2A2D DUP6 DUP3 DUP7 ADD PUSH2 0x219C JUMP JUMPDEST SWAP2 POP POP SWAP3 POP SWAP3 SWAP1 POP JUMP JUMPDEST PUSH32 0x4E487B7100000000000000000000000000000000000000000000000000000000 PUSH1 0x0 MSTORE PUSH1 0x22 PUSH1 0x4 MSTORE PUSH1 0x24 PUSH1 0x0 REVERT JUMPDEST PUSH1 0x0 PUSH1 0x2 DUP3 DIV SWAP1 POP PUSH1 0x1 DUP3 AND DUP1 PUSH2 0x2A7E JUMPI PUSH1 0x7F DUP3 AND SWAP2 POP JUMPDEST PUSH1 0x20 DUP3 LT DUP2 SUB PUSH2 0x2A91 JUMPI PUSH2 0x2A90 PUSH2 0x2A37 JUMP JUMPDEST JUMPDEST POP SWAP2 SWAP1 POP JUMP JUMPDEST PUSH32 0x4E487B7100000000000000000000000000000000000000000000000000000000 PUSH1 0x0 MSTORE PUSH1 0x32 PUSH1 0x4 MSTORE PUSH1 0x24 PUSH1 0x0 REVERT JUMPDEST PUSH1 0x0 PUSH1 0x60 DUP3 ADD SWAP1 POP PUSH2 0x2ADB PUSH1 0x0 DUP4 ADD DUP7 PUSH2 0x215B JUMP JUMPDEST PUSH2 0x2AE8 PUSH1 0x20 DUP4 ADD DUP6 PUSH2 0x23EB JUMP JUMPDEST PUSH2 0x2AF5 PUSH1 0x40 DUP4 ADD DUP5 PUSH2 0x215B JUMP JUMPDEST SWAP5 SWAP4 POP POP POP POP JUMP JUMPDEST PUSH32 0x4D617820737570706C7920726561636865640000000000000000000000000000 PUSH1 0x0 DUP3 ADD MSTORE POP JUMP JUMPDEST PUSH1 0x0 PUSH2 0x2B33 PUSH1 0x12 DUP4 PUSH2 0x201F JUMP JUMPDEST SWAP2 POP PUSH2 0x2B3E DUP3 PUSH2 0x2AFD JUMP JUMPDEST PUSH1 0x20 DUP3 ADD SWAP1 POP SWAP2 SWAP1 POP JUMP JUMPDEST PUSH1 0x0 PUSH1 0x20 DUP3 ADD SWAP1 POP DUP2 DUP2 SUB PUSH1 0x0 DUP4 ADD MSTORE PUSH2 0x2B62 DUP2 PUSH2 0x2B26 JUMP JUMPDEST SWAP1 POP SWAP2 SWAP1 POP JUMP JUMPDEST PUSH32 0x4D6178204D696E74207065722077616C6C657420726561636865640000000000 PUSH1 0x0 DUP3 ADD MSTORE POP JUMP JUMPDEST PUSH1 0x0 PUSH2 0x2B9F PUSH1 0x1B DUP4 PUSH2 0x201F JUMP JUMPDEST SWAP2 POP PUSH2 0x2BAA DUP3 PUSH2 0x2B69 JUMP JUMPDEST PUSH1 0x20 DUP3 ADD SWAP1 POP SWAP2 SWAP1 POP JUMP JUMPDEST PUSH1 0x0 PUSH1 0x20 DUP3 ADD SWAP1 POP DUP2 DUP2 SUB PUSH1 0x0 DUP4 ADD MSTORE PUSH2 0x2BCE DUP2 PUSH2 0x2B92 JUMP JUMPDEST SWAP1 POP SWAP2 SWAP1 POP JUMP JUMPDEST PUSH32 0x4E487B7100000000000000000000000000000000000000000000000000000000 PUSH1 0x0 MSTORE PUSH1 0x11 PUSH1 0x4 MSTORE PUSH1 0x24 PUSH1 0x0 REVERT JUMPDEST PUSH1 0x0 PUSH2 0x2C0F DUP3 PUSH2 0x20C6 JUMP JUMPDEST SWAP2 POP PUSH32 0xFFFFFFFFFFFFFFFFFFFFFFFFFFFFFFFFFFFFFFFFFFFFFFFFFFFFFFFFFFFFFFFF DUP3 SUB PUSH2 0x2C41 JUMPI PUSH2 0x2C40 PUSH2 0x2BD5 JUMP JUMPDEST JUMPDEST PUSH1 0x1 DUP3 ADD SWAP1 POP SWAP2 SWAP1 POP JUMP JUMPDEST PUSH1 0x0 DUP2 SWAP1 POP DUP2 PUSH1 0x0 MSTORE PUSH1 0x20 PUSH1 0x0 KECCAK256 SWAP1 POP SWAP2 SWAP1 POP JUMP JUMPDEST PUSH1 0x0 PUSH1 0x20 PUSH1 0x1F DUP4 ADD DIV SWAP1 POP SWAP2 SWAP1 POP JUMP JUMPDEST PUSH1 0x0 DUP3 DUP3 SHL SWAP1 POP SWAP3 SWAP2 POP POP JUMP JUMPDEST PUSH1 0x0 PUSH1 0x8 DUP4 MUL PUSH2 0x2CAE PUSH32 0xFFFFFFFFFFFFFFFFFFFFFFFFFFFFFFFFFFFFFFFFFFFFFFFFFFFFFFFFFFFFFFFF DUP3 PUSH2 0x2C71 JUMP JUMPDEST PUSH2 0x2CB8 DUP7 DUP4 PUSH2 0x2C71 JUMP JUMPDEST SWAP6 POP DUP1 NOT DUP5 AND SWAP4 POP DUP1 DUP7 AND DUP5 OR SWAP3 POP POP POP SWAP4 SWAP3 POP POP POP JUMP JUMPDEST PUSH1 0x0 DUP2 SWAP1 POP SWAP2 SWAP1 POP JUMP JUMPDEST PUSH1 0x0 PUSH2 0x2CF5 PUSH2 0x2CF0 PUSH2 0x2CEB DUP5 PUSH2 0x20C6 JUMP JUMPDEST PUSH2 0x2CD0 JUMP JUMPDEST PUSH2 0x20C6 JUMP JUMPDEST SWAP1 POP SWAP2 SWAP1 POP JUMP JUMPDEST PUSH1 0x0 DUP2 SWAP1 POP SWAP2 SWAP1 POP JUMP JUMPDEST PUSH2 0x2D0F DUP4 PUSH2 0x2CDA JUMP JUMPDEST PUSH2 0x2D23 PUSH2 0x2D1B DUP3 PUSH2 0x2CFC JUMP JUMPDEST DUP5 DUP5 SLOAD PUSH2 0x2C7E JUMP JUMPDEST DUP3 SSTORE POP POP POP POP JUMP JUMPDEST PUSH1 0x0 SWAP1 JUMP JUMPDEST PUSH2 0x2D38 PUSH2 0x2D2B JUMP JUMPDEST PUSH2 0x2D43 DUP2 DUP5 DUP5 PUSH2 0x2D06 JUMP JUMPDEST POP POP POP JUMP JUMPDEST JUMPDEST DUP2 DUP2 LT ISZERO PUSH2 0x2D67 JUMPI PUSH2 0x2D5C PUSH1 0x0 DUP3 PUSH2 0x2D30 JUMP JUMPDEST PUSH1 0x1 DUP2 ADD SWAP1 POP PUSH2 0x2D49 JUMP JUMPDEST POP POP JUMP JUMPDEST PUSH1 0x1F DUP3 GT ISZERO PUSH2 0x2DAC JUMPI PUSH2 0x2D7D DUP2 PUSH2 0x2C4C JUMP JUMPDEST PUSH2 0x2D86 DUP5 PUSH2 0x2C61 JUMP JUMPDEST DUP2 ADD PUSH1 0x20 DUP6 LT ISZERO PUSH2 0x2D95 JUMPI DUP2 SWAP1 POP JUMPDEST PUSH2 0x2DA9 PUSH2 0x2DA1 DUP6 PUSH2 0x2C61 JUMP JUMPDEST DUP4 ADD DUP3 PUSH2 0x2D48 JUMP JUMPDEST POP POP JUMPDEST POP POP POP JUMP JUMPDEST PUSH1 0x0 DUP3 DUP3 SHR SWAP1 POP SWAP3 SWAP2 POP POP JUMP JUMPDEST PUSH1 0x0 PUSH2 0x2DCF PUSH1 0x0 NOT DUP5 PUSH1 0x8 MUL PUSH2 0x2DB1 JUMP JUMPDEST NOT DUP1 DUP4 AND SWAP2 POP POP SWAP3 SWAP2 POP POP JUMP JUMPDEST PUSH1 0x0 PUSH2 0x2DE8 DUP4 DUP4 PUSH2 0x2DBE JUMP JUMPDEST SWAP2 POP DUP3 PUSH1 0x2 MUL DUP3 OR SWAP1 POP SWAP3 SWAP2 POP POP JUMP JUMPDEST PUSH2 0x2E01 DUP3 PUSH2 0x2014 JUMP JUMPDEST PUSH8 0xFFFFFFFFFFFFFFFF DUP2 GT ISZERO PUSH2 0x2E1A JUMPI PUSH2 0x2E19 PUSH2 0x241F JUMP JUMPDEST JUMPDEST PUSH2 0x2E24 DUP3 SLOAD PUSH2 0x2A66 JUMP JUMPDEST PUSH2 0x2E2F DUP3 DUP3 DUP6 PUSH2 0x2D6B JUMP JUMPDEST PUSH1 0x0 PUSH1 0x20 SWAP1 POP PUSH1 0x1F DUP4 GT PUSH1 0x1 DUP2 EQ PUSH2 0x2E62 JUMPI PUSH1 0x0 DUP5 ISZERO PUSH2 0x2E50 JUMPI DUP3 DUP8 ADD MLOAD SWAP1 POP JUMPDEST PUSH2 0x2E5A DUP6 DUP3 PUSH2 0x2DDC JUMP JUMPDEST DUP7 SSTORE POP PUSH2 0x2EC2 JUMP JUMPDEST PUSH1 0x1F NOT DUP5 AND PUSH2 0x2E70 DUP7 PUSH2 0x2C4C JUMP JUMPDEST PUSH1 0x0 JUMPDEST DUP3 DUP2 LT ISZERO PUSH2 0x2E98 JUMPI DUP5 DUP10 ADD MLOAD DUP3 SSTORE PUSH1 0x1 DUP3 ADD SWAP2 POP PUSH1 0x20 DUP6 ADD SWAP5 POP PUSH1 0x20 DUP2 ADD SWAP1 POP PUSH2 0x2E73 JUMP JUMPDEST DUP7 DUP4 LT ISZERO PUSH2 0x2EB5 JUMPI DUP5 DUP10 ADD MLOAD PUSH2 0x2EB1 PUSH1 0x1F DUP10 AND DUP3 PUSH2 0x2DBE JUMP JUMPDEST DUP4 SSTORE POP JUMPDEST PUSH1 0x1 PUSH1 0x2 DUP9 MUL ADD DUP9 SSTORE POP POP POP JUMPDEST POP POP POP POP POP POP JUMP JUMPDEST PUSH1 0x0 DUP2 SWAP1 POP SWAP3 SWAP2 POP POP JUMP JUMPDEST PUSH1 0x0 PUSH2 0x2EE0 DUP3 PUSH2 0x2014 JUMP JUMPDEST PUSH2 0x2EEA DUP2 DUP6 PUSH2 0x2ECA JUMP JUMPDEST SWAP4 POP PUSH2 0x2EFA DUP2 DUP6 PUSH1 0x20 DUP7 ADD PUSH2 0x2030 JUMP JUMPDEST DUP1 DUP5 ADD SWAP2 POP POP SWAP3 SWAP2 POP POP JUMP JUMPDEST PUSH1 0x0 PUSH2 0x2F12 DUP3 DUP6 PUSH2 0x2ED5 JUMP JUMPDEST SWAP2 POP PUSH2 0x2F1E DUP3 DUP5 PUSH2 0x2ED5 JUMP JUMPDEST SWAP2 POP DUP2 SWAP1 POP SWAP4 SWAP3 POP POP POP JUMP JUMPDEST PUSH1 0x0 DUP2 MLOAD SWAP1 POP SWAP2 SWAP1 POP JUMP JUMPDEST PUSH1 0x0 DUP3 DUP3 MSTORE PUSH1 0x20 DUP3 ADD SWAP1 POP SWAP3 SWAP2 POP POP JUMP JUMPDEST PUSH1 0x0 PUSH2 0x2F51 DUP3 PUSH2 0x2F2A JUMP JUMPDEST PUSH2 0x2F5B DUP2 DUP6 PUSH2 0x2F35 JUMP JUMPDEST SWAP4 POP PUSH2 0x2F6B DUP2 DUP6 PUSH1 0x20 DUP7 ADD PUSH2 0x2030 JUMP JUMPDEST PUSH2 0x2F74 DUP2 PUSH2 0x205A JUMP JUMPDEST DUP5 ADD SWAP2 POP POP SWAP3 SWAP2 POP POP JUMP JUMPDEST PUSH1 0x0 PUSH1 0x80 DUP3 ADD SWAP1 POP PUSH2 0x2F94 PUSH1 0x0 DUP4 ADD DUP8 PUSH2 0x215B JUMP JUMPDEST PUSH2 0x2FA1 PUSH1 0x20 DUP4 ADD DUP7 PUSH2 0x215B JUMP JUMPDEST PUSH2 0x2FAE PUSH1 0x40 DUP4 ADD DUP6 PUSH2 0x23EB JUMP JUMPDEST DUP2 DUP2 SUB PUSH1 0x60 DUP4 ADD MSTORE PUSH2 0x2FC0 DUP2 DUP5 PUSH2 0x2F46 JUMP JUMPDEST SWAP1 POP SWAP6 SWAP5 POP POP POP POP POP JUMP JUMPDEST PUSH1 0x0 DUP2 MLOAD SWAP1 POP PUSH2 0x2FDA DUP2 PUSH2 0x1F85 JUMP JUMPDEST SWAP3 SWAP2 POP POP JUMP JUMPDEST PUSH1 0x0 PUSH1 0x20 DUP3 DUP5 SUB SLT ISZERO PUSH2 0x2FF6 JUMPI PUSH2 0x2FF5 PUSH2 0x1F4F JUMP JUMPDEST JUMPDEST PUSH1 0x0 PUSH2 0x3004 DUP5 DUP3 DUP6 ADD PUSH2 0x2FCB JUMP JUMPDEST SWAP2 POP POP SWAP3 SWAP2 POP POP JUMP JUMPDEST PUSH32 0x4E487B7100000000000000000000000000000000000000000000000000000000 PUSH1 0x0 MSTORE PUSH1 0x12 PUSH1 0x4 MSTORE PUSH1 0x24 PUSH1 0x0 REVERT JUMPDEST PUSH1 0x0 PUSH1 0x40 DUP3 ADD SWAP1 POP PUSH2 0x3051 PUSH1 0x0 DUP4 ADD DUP6 PUSH2 0x215B JUMP JUMPDEST PUSH2 0x305E PUSH1 0x20 DUP4 ADD DUP5 PUSH2 0x23EB JUMP JUMPDEST SWAP4 SWAP3 POP POP POP JUMP INVALID LOG2 PUSH5 0x6970667358 0x22 SLT KECCAK256 SWAP4 OR ORIGIN 0xCF 0xE7 0xBB 0xBD 0xDC 0xC8 0xCE 0xB3 CALLVALUE PUSH18 0x1C4DBD9162EC4922383DECD82B2DAE0DEDF PUSH12 0x64736F6C634300081A003300 "
		},
		"gasEstimates": {
			"creation": {
				"codeDepositCost": "2488600",
				"executionCost": "infinite",
				"totalCost": "infinite"
			},
			"external": {
				"MAX_SUPPLY()": "2474",
				"PaxLimit()": "2516",
				"approve(address,uint256)": "infinite",
				"balanceOf(address)": "infinite",
				"batchMint(address[],uint256[])": "infinite",
				"getApproved(uint256)": "infinite",
				"getNFTid(address)": "infinite",
				"isApprovedForAll(address,address)": "infinite",
				"mint(address,uint256)": "infinite",
				"name()": "infinite",
				"owner()": "2633",
				"ownerOf(uint256)": "infinite",
				"renounceOwnership()": "infinite",
				"safeTransferFrom(address,address,uint256)": "infinite",
				"safeTransferFrom(address,address,uint256,bytes)": "infinite",
				"setApprovalForAll(address,bool)": "infinite",
				"setBaseURI(string)": "infinite",
				"supportsInterface(bytes4)": "797",
				"symbol()": "infinite",
				"tokenURI(uint256)": "infinite",
				"transferFrom(address,address,uint256)": "infinite",
				"transferOwnership(address)": "infinite"
			},
			"internal": {
				"_baseURI()": "infinite"
			}
		},
		"methodIdentifiers": {
			"MAX_SUPPLY()": "32cb6b0c",
			"PaxLimit()": "6aaadb1c",
			"approve(address,uint256)": "095ea7b3",
			"balanceOf(address)": "70a08231",
			"batchMint(address[],uint256[])": "68573107",
			"getApproved(uint256)": "081812fc",
			"getNFTid(address)": "1d1b8647",
			"isApprovedForAll(address,address)": "e985e9c5",
			"mint(address,uint256)": "40c10f19",
			"name()": "06fdde03",
			"owner()": "8da5cb5b",
			"ownerOf(uint256)": "6352211e",
			"renounceOwnership()": "715018a6",
			"safeTransferFrom(address,address,uint256)": "42842e0e",
			"safeTransferFrom(address,address,uint256,bytes)": "b88d4fde",
			"setApprovalForAll(address,bool)": "a22cb465",
			"setBaseURI(string)": "55f804b3",
			"supportsInterface(bytes4)": "01ffc9a7",
			"symbol()": "95d89b41",
			"tokenURI(uint256)": "c87b56dd",
			"transferFrom(address,address,uint256)": "23b872dd",
			"transferOwnership(address)": "f2fde38b"
		}
	},
	"abi": [
		{
			"inputs": [
				{
					"internalType": "address",
					"name": "initialOwner",
					"type": "address"
				},
				{
					"internalType": "uint256",
					"name": "maxSupply",
					"type": "uint256"
				},
				{
					"internalType": "string",
					"name": "name",
					"type": "string"
				},
				{
					"internalType": "string",
					"name": "symbol",
					"type": "string"
				},
				{
					"internalType": "bool",
					"name": "limit",
					"type": "bool"
				},
				{
					"internalType": "string",
					"name": "baseURI",
					"type": "string"
				}
			],
			"stateMutability": "nonpayable",
			"type": "constructor"
		},
		{
			"inputs": [
				{
					"internalType": "address",
					"name": "sender",
					"type": "address"
				},
				{
					"internalType": "uint256",
					"name": "tokenId",
					"type": "uint256"
				},
				{
					"internalType": "address",
					"name": "owner",
					"type": "address"
				}
			],
			"name": "ERC721IncorrectOwner",
			"type": "error"
		},
		{
			"inputs": [
				{
					"internalType": "address",
					"name": "operator",
					"type": "address"
				},
				{
					"internalType": "uint256",
					"name": "tokenId",
					"type": "uint256"
				}
			],
			"name": "ERC721InsufficientApproval",
			"type": "error"
		},
		{
			"inputs": [
				{
					"internalType": "address",
					"name": "approver",
					"type": "address"
				}
			],
			"name": "ERC721InvalidApprover",
			"type": "error"
		},
		{
			"inputs": [
				{
					"internalType": "address",
					"name": "operator",
					"type": "address"
				}
			],
			"name": "ERC721InvalidOperator",
			"type": "error"
		},
		{
			"inputs": [
				{
					"internalType": "address",
					"name": "owner",
					"type": "address"
				}
			],
			"name": "ERC721InvalidOwner",
			"type": "error"
		},
		{
			"inputs": [
				{
					"internalType": "address",
					"name": "receiver",
					"type": "address"
				}
			],
			"name": "ERC721InvalidReceiver",
			"type": "error"
		},
		{
			"inputs": [
				{
					"internalType": "address",
					"name": "sender",
					"type": "address"
				}
			],
			"name": "ERC721InvalidSender",
			"type": "error"
		},
		{
			"inputs": [
				{
					"internalType": "uint256",
					"name": "tokenId",
					"type": "uint256"
				}
			],
			"name": "ERC721NonexistentToken",
			"type": "error"
		},
		{
			"inputs": [
				{
					"internalType": "address",
					"name": "owner",
					"type": "address"
				}
			],
			"name": "OwnableInvalidOwner",
			"type": "error"
		},
		{
			"inputs": [
				{
					"internalType": "address",
					"name": "account",
					"type": "address"
				}
			],
			"name": "OwnableUnauthorizedAccount",
			"type": "error"
		},
		{
			"anonymous": false,
			"inputs": [
				{
					"indexed": true,
					"internalType": "address",
					"name": "owner",
					"type": "address"
				},
				{
					"indexed": true,
					"internalType": "address",
					"name": "approved",
					"type": "address"
				},
				{
					"indexed": true,
					"internalType": "uint256",
					"name": "tokenId",
					"type": "uint256"
				}
			],
			"name": "Approval",
			"type": "event"
		},
		{
			"anonymous": false,
			"inputs": [
				{
					"indexed": true,
					"internalType": "address",
					"name": "owner",
					"type": "address"
				},
				{
					"indexed": true,
					"internalType": "address",
					"name": "operator",
					"type": "address"
				},
				{
					"indexed": false,
					"internalType": "bool",
					"name": "approved",
					"type": "bool"
				}
			],
			"name": "ApprovalForAll",
			"type": "event"
		},
		{
			"anonymous": false,
			"inputs": [
				{
					"indexed": true,
					"internalType": "address",
					"name": "previousOwner",
					"type": "address"
				},
				{
					"indexed": true,
					"internalType": "address",
					"name": "newOwner",
					"type": "address"
				}
			],
			"name": "OwnershipTransferred",
			"type": "event"
		},
		{
			"anonymous": false,
			"inputs": [
				{
					"indexed": true,
					"internalType": "address",
					"name": "from",
					"type": "address"
				},
				{
					"indexed": true,
					"internalType": "address",
					"name": "to",
					"type": "address"
				},
				{
					"indexed": true,
					"internalType": "uint256",
					"name": "tokenId",
					"type": "uint256"
				}
			],
			"name": "Transfer",
			"type": "event"
		},
		{
			"inputs": [],
			"name": "MAX_SUPPLY",
			"outputs": [
				{
					"internalType": "uint256",
					"name": "",
					"type": "uint256"
				}
			],
			"stateMutability": "view",
			"type": "function"
		},
		{
			"inputs": [],
			"name": "PaxLimit",
			"outputs": [
				{
					"internalType": "bool",
					"name": "",
					"type": "bool"
				}
			],
			"stateMutability": "view",
			"type": "function"
		},
		{
			"inputs": [
				{
					"internalType": "address",
					"name": "to",
					"type": "address"
				},
				{
					"internalType": "uint256",
					"name": "tokenId",
					"type": "uint256"
				}
			],
			"name": "approve",
			"outputs": [],
			"stateMutability": "nonpayable",
			"type": "function"
		},
		{
			"inputs": [
				{
					"internalType": "address",
					"name": "owner",
					"type": "address"
				}
			],
			"name": "balanceOf",
			"outputs": [
				{
					"internalType": "uint256",
					"name": "",
					"type": "uint256"
				}
			],
			"stateMutability": "view",
			"type": "function"
		},
		{
			"inputs": [
				{
					"internalType": "address[]",
					"name": "to",
					"type": "address[]"
				},
				{
					"internalType": "uint256[]",
					"name": "id",
					"type": "uint256[]"
				}
			],
			"name": "batchMint",
			"outputs": [
				{
					"internalType": "uint256[]",
					"name": "",
					"type": "uint256[]"
				}
			],
			"stateMutability": "nonpayable",
			"type": "function"
		},
		{
			"inputs": [
				{
					"internalType": "uint256",
					"name": "tokenId",
					"type": "uint256"
				}
			],
			"name": "getApproved",
			"outputs": [
				{
					"internalType": "address",
					"name": "",
					"type": "address"
				}
			],
			"stateMutability": "view",
			"type": "function"
		},
		{
			"inputs": [
				{
					"internalType": "address",
					"name": "owner",
					"type": "address"
				}
			],
			"name": "getNFTid",
			"outputs": [
				{
					"components": [
						{
							"internalType": "uint256",
							"name": "tokenId",
							"type": "uint256"
						},
						{
							"internalType": "string",
							"name": "tokenURI",
							"type": "string"
						}
					],
					"internalType": "struct NFT.TokenInfo[]",
					"name": "",
					"type": "tuple[]"
				}
			],
			"stateMutability": "view",
			"type": "function"
		},
		{
			"inputs": [
				{
					"internalType": "address",
					"name": "owner",
					"type": "address"
				},
				{
					"internalType": "address",
					"name": "operator",
					"type": "address"
				}
			],
			"name": "isApprovedForAll",
			"outputs": [
				{
					"internalType": "bool",
					"name": "",
					"type": "bool"
				}
			],
			"stateMutability": "view",
			"type": "function"
		},
		{
			"inputs": [
				{
					"internalType": "address",
					"name": "to",
					"type": "address"
				},
				{
					"internalType": "uint256",
					"name": "id",
					"type": "uint256"
				}
			],
			"name": "mint",
			"outputs": [
				{
					"internalType": "uint256",
					"name": "",
					"type": "uint256"
				}
			],
			"stateMutability": "nonpayable",
			"type": "function"
		},
		{
			"inputs": [],
			"name": "name",
			"outputs": [
				{
					"internalType": "string",
					"name": "",
					"type": "string"
				}
			],
			"stateMutability": "view",
			"type": "function"
		},
		{
			"inputs": [],
			"name": "owner",
			"outputs": [
				{
					"internalType": "address",
					"name": "",
					"type": "address"
				}
			],
			"stateMutability": "view",
			"type": "function"
		},
		{
			"inputs": [
				{
					"internalType": "uint256",
					"name": "tokenId",
					"type": "uint256"
				}
			],
			"name": "ownerOf",
			"outputs": [
				{
					"internalType": "address",
					"name": "",
					"type": "address"
				}
			],
			"stateMutability": "view",
			"type": "function"
		},
		{
			"inputs": [],
			"name": "renounceOwnership",
			"outputs": [],
			"stateMutability": "nonpayable",
			"type": "function"
		},
		{
			"inputs": [
				{
					"internalType": "address",
					"name": "from",
					"type": "address"
				},
				{
					"internalType": "address",
					"name": "to",
					"type": "address"
				},
				{
					"internalType": "uint256",
					"name": "tokenId",
					"type": "uint256"
				}
			],
			"name": "safeTransferFrom",
			"outputs": [],
			"stateMutability": "nonpayable",
			"type": "function"
		},
		{
			"inputs": [
				{
					"internalType": "address",
					"name": "from",
					"type": "address"
				},
				{
					"internalType": "address",
					"name": "to",
					"type": "address"
				},
				{
					"internalType": "uint256",
					"name": "tokenId",
					"type": "uint256"
				},
				{
					"internalType": "bytes",
					"name": "data",
					"type": "bytes"
				}
			],
			"name": "safeTransferFrom",
			"outputs": [],
			"stateMutability": "nonpayable",
			"type": "function"
		},
		{
			"inputs": [
				{
					"internalType": "address",
					"name": "operator",
					"type": "address"
				},
				{
					"internalType": "bool",
					"name": "approved",
					"type": "bool"
				}
			],
			"name": "setApprovalForAll",
			"outputs": [],
			"stateMutability": "nonpayable",
			"type": "function"
		},
		{
			"inputs": [
				{
					"internalType": "string",
					"name": "baseURI",
					"type": "string"
				}
			],
			"name": "setBaseURI",
			"outputs": [],
			"stateMutability": "nonpayable",
			"type": "function"
		},
		{
			"inputs": [
				{
					"internalType": "bytes4",
					"name": "interfaceId",
					"type": "bytes4"
				}
			],
			"name": "supportsInterface",
			"outputs": [
				{
					"internalType": "bool",
					"name": "",
					"type": "bool"
				}
			],
			"stateMutability": "view",
			"type": "function"
		},
		{
			"inputs": [],
			"name": "symbol",
			"outputs": [
				{
					"internalType": "string",
					"name": "",
					"type": "string"
				}
			],
			"stateMutability": "view",
			"type": "function"
		},
		{
			"inputs": [
				{
					"internalType": "uint256",
					"name": "tokenId",
					"type": "uint256"
				}
			],
			"name": "tokenURI",
			"outputs": [
				{
					"internalType": "string",
					"name": "",
					"type": "string"
				}
			],
			"stateMutability": "view",
			"type": "function"
		},
		{
			"inputs": [
				{
					"internalType": "address",
					"name": "from",
					"type": "address"
				},
				{
					"internalType": "address",
					"name": "to",
					"type": "address"
				},
				{
					"internalType": "uint256",
					"name": "tokenId",
					"type": "uint256"
				}
			],
			"name": "transferFrom",
			"outputs": [],
			"stateMutability": "nonpayable",
			"type": "function"
		},
		{
			"inputs": [
				{
					"internalType": "address",
					"name": "newOwner",
					"type": "address"
				}
			],
			"name": "transferOwnership",
			"outputs": [],
			"stateMutability": "nonpayable",
			"type": "function"
		}
	]
}