{
	"data": {
		"bytecode": {
			"linkReferences": {},
			"object": "608060405234801561000f575f80fd5b50604051613869380380613869833981810160405281019061003191906103e2565b858484815f908161004291906106c3565b50806001908161005291906106c3565b5050505f73ffffffffffffffffffffffffffffffffffffffff168173ffffffffffffffffffffffffffffffffffffffff16036100c5575f6040517f1e4fbdf70000000000000000000000000000000000000000000000000000000081526004016100bc91906107a1565b60405180910390fd5b6100d48161011060201b60201c565b5080600890816100e491906106c3565b508460098190555081600a5f6101000a81548160ff0219169083151502179055505050505050506107ba565b5f60065f9054906101000a900473ffffffffffffffffffffffffffffffffffffffff1690508160065f6101000a81548173ffffffffffffffffffffffffffffffffffffffff021916908373ffffffffffffffffffffffffffffffffffffffff1602179055508173ffffffffffffffffffffffffffffffffffffffff168173ffffffffffffffffffffffffffffffffffffffff167f8be0079c531659141344cd1fd0a4f28419497f9722a3daafe3b4186f6b6457e060405160405180910390a35050565b5f604051905090565b5f80fd5b5f80fd5b5f73ffffffffffffffffffffffffffffffffffffffff82169050919050565b5f61020d826101e4565b9050919050565b61021d81610203565b8114610227575f80fd5b50565b5f8151905061023881610214565b92915050565b5f819050919050565b6102508161023e565b811461025a575f80fd5b50565b5f8151905061026b81610247565b92915050565b5f80fd5b5f80fd5b5f601f19601f8301169050919050565b7f4e487b71000000000000000000000000000000000000000000000000000000005f52604160045260245ffd5b6102bf82610279565b810181811067ffffffffffffffff821117156102de576102dd610289565b5b80604052505050565b5f6102f06101d3565b90506102fc82826102b6565b919050565b5f67ffffffffffffffff82111561031b5761031a610289565b5b61032482610279565b9050602081019050919050565b8281835e5f83830152505050565b5f61035161034c84610301565b6102e7565b90508281526020810184848401111561036d5761036c610275565b5b610378848285610331565b509392505050565b5f82601f83011261039457610393610271565b5b81516103a484826020860161033f565b91505092915050565b5f8115159050919050565b6103c1816103ad565b81146103cb575f80fd5b50565b5f815190506103dc816103b8565b92915050565b5f805f805f8060c087890312156103fc576103fb6101dc565b5b5f61040989828a0161022a565b965050602061041a89828a0161025d565b955050604087015167ffffffffffffffff81111561043b5761043a6101e0565b5b61044789828a01610380565b945050606087015167ffffffffffffffff811115610468576104676101e0565b5b61047489828a01610380565b935050608061048589828a016103ce565b92505060a087015167ffffffffffffffff8111156104a6576104a56101e0565b5b6104b289828a01610380565b9150509295509295509295565b5f81519050919050565b7f4e487b71000000000000000000000000000000000000000000000000000000005f52602260045260245ffd5b5f600282049050600182168061050d57607f821691505b6020821081036105205761051f6104c9565b5b50919050565b5f819050815f5260205f209050919050565b5f6020601f8301049050919050565b5f82821b905092915050565b5f600883026105827fffffffffffffffffffffffffffffffffffffffffffffffffffffffffffffffff82610547565b61058c8683610547565b95508019841693508086168417925050509392505050565b5f819050919050565b5f6105c76105c26105bd8461023e565b6105a4565b61023e565b9050919050565b5f819050919050565b6105e0836105ad565b6105f46105ec826105ce565b848454610553565b825550505050565b5f90565b6106086105fc565b6106138184846105d7565b505050565b5b818110156106365761062b5f82610600565b600181019050610619565b5050565b601f82111561067b5761064c81610526565b61065584610538565b81016020851015610664578190505b61067861067085610538565b830182610618565b50505b505050565b5f82821c905092915050565b5f61069b5f1984600802610680565b1980831691505092915050565b5f6106b3838361068c565b9150826002028217905092915050565b6106cc826104bf565b67ffffffffffffffff8111156106e5576106e4610289565b5b6106ef82546104f6565b6106fa82828561063a565b5f60209050601f83116001811461072b575f8415610719578287015190505b61072385826106a8565b86555061078a565b601f19841661073986610526565b5f5b828110156107605784890151825560018201915060208501945060208101905061073b565b8683101561077d5784890151610779601f89168261068c565b8355505b6001600288020188555050505b505050505050565b61079b81610203565b82525050565b5f6020820190506107b45f830184610792565b92915050565b6130a2806107c75f395ff3fe608060405234801561000f575f80fd5b5060043610610140575f3560e01c806368573107116100b657806395d89b411161007a57806395d89b4114610386578063a22cb465146103a4578063b88d4fde146103c0578063c87b56dd146103dc578063e985e9c51461040c578063f2fde38b1461043c57610140565b806368573107146102e05780636aaadb1c1461031057806370a082311461032e578063715018a61461035e5780638da5cb5b1461036857610140565b806323b872dd1161010857806323b872dd1461020e57806332cb6b0c1461022a57806340c10f191461024857806342842e0e1461027857806355f804b3146102945780636352211e146102b057610140565b806301ffc9a71461014457806306fdde0314610174578063081812fc14610192578063095ea7b3146101c25780631d1b8647146101de575b5f80fd5b61015e60048036038101906101599190611ff5565b610458565b60405161016b919061203a565b60405180910390f35b61017c610539565b60405161018991906120c3565b60405180910390f35b6101ac60048036038101906101a79190612116565b6105c8565b6040516101b99190612180565b60405180910390f35b6101dc60048036038101906101d791906121c3565b6105e3565b005b6101f860048036038101906101f39190612201565b6105f9565b6040516102059190612378565b60405180910390f35b61022860048036038101906102239190612398565b610772565b005b610232610871565b60405161023f91906123f7565b60405180910390f35b610262600480360381019061025d91906121c3565b610877565b60405161026f91906123f7565b60405180910390f35b610292600480360381019061028d9190612398565b6109ba565b005b6102ae60048036038101906102a9919061253c565b6109d9565b005b6102ca60048036038101906102c59190612116565b6109f4565b6040516102d79190612180565b60405180910390f35b6102fa60048036038101906102f59190612707565b610a05565b6040516103079190612825565b60405180910390f35b610318610c6c565b604051610325919061203a565b60405180910390f35b61034860048036038101906103439190612201565b610c7e565b60405161035591906123f7565b60405180910390f35b610366610d34565b005b610370610d47565b60405161037d9190612180565b60405180910390f35b61038e610d6f565b60405161039b91906120c3565b60405180910390f35b6103be60048036038101906103b9919061286f565b610dff565b005b6103da60048036038101906103d5919061294b565b610e15565b005b6103f660048036038101906103f19190612116565b610e32565b60405161040391906120c3565b60405180910390f35b610426600480360381019061042191906129cb565b610e98565b604051610433919061203a565b60405180910390f35b61045660048036038101906104519190612201565b610f26565b005b5f7f80ac58cd000000000000000000000000000000000000000000000000000000007bffffffffffffffffffffffffffffffffffffffffffffffffffffffff1916827bffffffffffffffffffffffffffffffffffffffffffffffffffffffff1916148061052257507f5b5e139f000000000000000000000000000000000000000000000000000000007bffffffffffffffffffffffffffffffffffffffffffffffffffffffff1916827bffffffffffffffffffffffffffffffffffffffffffffffffffffffff1916145b80610532575061053182610faa565b5b9050919050565b60605f805461054790612a36565b80601f016020809104026020016040519081016040528092919081815260200182805461057390612a36565b80156105be5780601f10610595576101008083540402835291602001916105be565b820191905f5260205f20905b8154815290600101906020018083116105a157829003601f168201915b5050505050905090565b5f6105d282611013565b506105dc82611099565b9050919050565b6105f582826105f06110d2565b6110d9565b5050565b60605f600b5f8473ffffffffffffffffffffffffffffffffffffffff1673ffffffffffffffffffffffffffffffffffffffff1681526020019081526020015f2080548060200260200160405190810160405280929190818152602001828054801561068157602002820191905f5260205f20905b81548152602001906001019080831161066d575b505050505090505f815167ffffffffffffffff8111156106a4576106a3612418565b5b6040519080825280602002602001820160405280156106dd57816020015b6106ca611f76565b8152602001906001900390816106c25790505b5090505f5b825181101561076757604051806040016040528084838151811061070957610708612a66565b5b6020026020010151815260200161073985848151811061072c5761072b612a66565b5b6020026020010151610e32565b81525082828151811061074f5761074e612a66565b5b602002602001018190525080806001019150506106e2565b508092505050919050565b5f73ffffffffffffffffffffffffffffffffffffffff168273ffffffffffffffffffffffffffffffffffffffff16036107e2575f6040517f64a0ae920000000000000000000000000000000000000000000000000000000081526004016107d99190612180565b60405180910390fd5b5f6107f583836107f06110d2565b6110eb565b90508373ffffffffffffffffffffffffffffffffffffffff168173ffffffffffffffffffffffffffffffffffffffff161461086b578382826040517f64283d7b00000000000000000000000000000000000000000000000000000000815260040161086293929190612a93565b60405180910390fd5b50505050565b60095481565b5f6108806111b5565b5f600954146108d057600954600754106108cf576040517f08c379a00000000000000000000000000000000000000000000000000000000081526004016108c690612b12565b60405180910390fd5b5b600a5f9054906101000a900460ff161561092f575f6108ee84610c7e565b1461092e576040517f08c379a000000000000000000000000000000000000000000000000000000000815260040161092590612b7a565b60405180910390fd5b5b60075f81548092919061094190612bc5565b9190505550610950838361123c565b600b5f8473ffffffffffffffffffffffffffffffffffffffff1673ffffffffffffffffffffffffffffffffffffffff1681526020019081526020015f2082908060018154018082558091505060019003905f5260205f20015f909190919091505581905092915050565b6109d483838360405180602001604052805f815250610e15565b505050565b6109e16111b5565b80600890816109f09190612da9565b5050565b5f6109fe82611013565b9050919050565b6060610a0f6111b5565b5f835167ffffffffffffffff811115610a2b57610a2a612418565b5b604051908082528060200260200182016040528015610a595781602001602082028036833780820191505090505b5090505f5b8451811015610c61575f60095414610ab75760095460075410610ab6576040517f08c379a0000000000000000000000000000000000000000000000000000000008152600401610aad90612b12565b60405180910390fd5b5b600a5f9054906101000a900460ff1615610b30575f610aef868381518110610ae257610ae1612a66565b5b6020026020010151610c7e565b14610b2f576040517f08c379a0000000000000000000000000000000000000000000000000000000008152600401610b2690612b7a565b60405180910390fd5b5b60075f815480929190610b4290612bc5565b9190505550610b85858281518110610b5d57610b5c612a66565b5b6020026020010151858381518110610b7857610b77612a66565b5b602002602001015161123c565b600b5f868381518110610b9b57610b9a612a66565b5b602002602001015173ffffffffffffffffffffffffffffffffffffffff1673ffffffffffffffffffffffffffffffffffffffff1681526020019081526020015f20848281518110610bef57610bee612a66565b5b6020026020010151908060018154018082558091505060019003905f5260205f20015f9091909190915055838181518110610c2d57610c2c612a66565b5b6020026020010151828281518110610c4857610c47612a66565b5b6020026020010181815250508080600101915050610a5e565b508091505092915050565b600a5f9054906101000a900460ff1681565b5f8073ffffffffffffffffffffffffffffffffffffffff168273ffffffffffffffffffffffffffffffffffffffff1603610cef575f6040517f89c62b64000000000000000000000000000000000000000000000000000000008152600401610ce69190612180565b60405180910390fd5b60035f8373ffffffffffffffffffffffffffffffffffffffff1673ffffffffffffffffffffffffffffffffffffffff1681526020019081526020015f20549050919050565b610d3c6111b5565b610d455f611259565b565b5f60065f9054906101000a900473ffffffffffffffffffffffffffffffffffffffff16905090565b606060018054610d7e90612a36565b80601f0160208091040260200160405190810160405280929190818152602001828054610daa90612a36565b8015610df55780601f10610dcc57610100808354040283529160200191610df5565b820191905f5260205f20905b815481529060010190602001808311610dd857829003601f168201915b5050505050905090565b610e11610e0a6110d2565b838361131c565b5050565b610e20848484610772565b610e2c84848484611485565b50505050565b6060610e3d82611013565b505f610e47611637565b90505f815111610e655760405180602001604052805f815250610e90565b80610e6f846116c7565b604051602001610e80929190612eb2565b6040516020818303038152906040525b915050919050565b5f60055f8473ffffffffffffffffffffffffffffffffffffffff1673ffffffffffffffffffffffffffffffffffffffff1681526020019081526020015f205f8373ffffffffffffffffffffffffffffffffffffffff1673ffffffffffffffffffffffffffffffffffffffff1681526020019081526020015f205f9054906101000a900460ff16905092915050565b610f2e6111b5565b5f73ffffffffffffffffffffffffffffffffffffffff168173ffffffffffffffffffffffffffffffffffffffff1603610f9e575f6040517f1e4fbdf7000000000000000000000000000000000000000000000000000000008152600401610f959190612180565b60405180910390fd5b610fa781611259565b50565b5f7f01ffc9a7000000000000000000000000000000000000000000000000000000007bffffffffffffffffffffffffffffffffffffffffffffffffffffffff1916827bffffffffffffffffffffffffffffffffffffffffffffffffffffffff1916149050919050565b5f8061101e83611791565b90505f73ffffffffffffffffffffffffffffffffffffffff168173ffffffffffffffffffffffffffffffffffffffff160361109057826040517f7e27328900000000000000000000000000000000000000000000000000000000815260040161108791906123f7565b60405180910390fd5b80915050919050565b5f60045f8381526020019081526020015f205f9054906101000a900473ffffffffffffffffffffffffffffffffffffffff169050919050565b5f33905090565b6110e683838360016117ca565b505050565b5f806110f684611791565b90505f73ffffffffffffffffffffffffffffffffffffffff168173ffffffffffffffffffffffffffffffffffffffff161415801561116057505f73ffffffffffffffffffffffffffffffffffffffff168573ffffffffffffffffffffffffffffffffffffffff1614155b156111a0576040517f08c379a000000000000000000000000000000000000000000000000000000000815260040161119790612f1f565b60405180910390fd5b6111ab858585611989565b9150509392505050565b6111bd6110d2565b73ffffffffffffffffffffffffffffffffffffffff166111db610d47565b73ffffffffffffffffffffffffffffffffffffffff161461123a576111fe6110d2565b6040517f118cdaa70000000000000000000000000000000000000000000000000000000081526004016112319190612180565b60405180910390fd5b565b611255828260405180602001604052805f815250611b94565b5050565b5f60065f9054906101000a900473ffffffffffffffffffffffffffffffffffffffff1690508160065f6101000a81548173ffffffffffffffffffffffffffffffffffffffff021916908373ffffffffffffffffffffffffffffffffffffffff1602179055508173ffffffffffffffffffffffffffffffffffffffff168173ffffffffffffffffffffffffffffffffffffffff167f8be0079c531659141344cd1fd0a4f28419497f9722a3daafe3b4186f6b6457e060405160405180910390a35050565b5f73ffffffffffffffffffffffffffffffffffffffff168273ffffffffffffffffffffffffffffffffffffffff160361138c57816040517f5b08ba180000000000000000000000000000000000000000000000000000000081526004016113839190612180565b60405180910390fd5b8060055f8573ffffffffffffffffffffffffffffffffffffffff1673ffffffffffffffffffffffffffffffffffffffff1681526020019081526020015f205f8473ffffffffffffffffffffffffffffffffffffffff1673ffffffffffffffffffffffffffffffffffffffff1681526020019081526020015f205f6101000a81548160ff0219169083151502179055508173ffffffffffffffffffffffffffffffffffffffff168373ffffffffffffffffffffffffffffffffffffffff167f17307eab39ab6107e8899845ad3d59bd9653f200f220920489ca2b5937696c3183604051611478919061203a565b60405180910390a3505050565b5f8373ffffffffffffffffffffffffffffffffffffffff163b1115611631578273ffffffffffffffffffffffffffffffffffffffff1663150b7a026114c86110d2565b8685856040518563ffffffff1660e01b81526004016114ea9493929190612f8f565b6020604051808303815f875af192505050801561152557506040513d601f19601f820116820180604052508101906115229190612fed565b60015b6115a6573d805f8114611553576040519150601f19603f3d011682016040523d82523d5f602084013e611558565b606091505b505f81510361159e57836040517f64a0ae920000000000000000000000000000000000000000000000000000000081526004016115959190612180565b60405180910390fd5b805181602001fd5b63150b7a0260e01b7bffffffffffffffffffffffffffffffffffffffffffffffffffffffff1916817bffffffffffffffffffffffffffffffffffffffffffffffffffffffff19161461162f57836040517f64a0ae920000000000000000000000000000000000000000000000000000000081526004016116269190612180565b60405180910390fd5b505b50505050565b60606008805461164690612a36565b80601f016020809104026020016040519081016040528092919081815260200182805461167290612a36565b80156116bd5780601f10611694576101008083540402835291602001916116bd565b820191905f5260205f20905b8154815290600101906020018083116116a057829003601f168201915b5050505050905090565b60605f60016116d584611baf565b0190505f8167ffffffffffffffff8111156116f3576116f2612418565b5b6040519080825280601f01601f1916602001820160405280156117255781602001600182028036833780820191505090505b5090505f82602001820190505b600115611786578080600190039150507f3031323334353637383961626364656600000000000000000000000000000000600a86061a8153600a858161177b5761177a613018565b5b0494505f8503611732575b819350505050919050565b5f60025f8381526020019081526020015f205f9054906101000a900473ffffffffffffffffffffffffffffffffffffffff169050919050565b808061180257505f73ffffffffffffffffffffffffffffffffffffffff168273ffffffffffffffffffffffffffffffffffffffff1614155b15611934575f61181184611013565b90505f73ffffffffffffffffffffffffffffffffffffffff168373ffffffffffffffffffffffffffffffffffffffff161415801561187b57508273ffffffffffffffffffffffffffffffffffffffff168173ffffffffffffffffffffffffffffffffffffffff1614155b801561188e575061188c8184610e98565b155b156118d057826040517fa9fbf51f0000000000000000000000000000000000000000000000000000000081526004016118c79190612180565b60405180910390fd5b811561193257838573ffffffffffffffffffffffffffffffffffffffff168273ffffffffffffffffffffffffffffffffffffffff167f8c5be1e5ebec7d5bd14f71427d1e84f3dd0314c0f7b2291e5b200ac8c7c3b92560405160405180910390a45b505b8360045f8581526020019081526020015f205f6101000a81548173ffffffffffffffffffffffffffffffffffffffff021916908373ffffffffffffffffffffffffffffffffffffffff16021790555050505050565b5f8061199484611791565b90505f73ffffffffffffffffffffffffffffffffffffffff168373ffffffffffffffffffffffffffffffffffffffff16146119d5576119d4818486611d00565b5b5f73ffffffffffffffffffffffffffffffffffffffff168173ffffffffffffffffffffffffffffffffffffffff1614611a6057611a145f855f806117ca565b600160035f8373ffffffffffffffffffffffffffffffffffffffff1673ffffffffffffffffffffffffffffffffffffffff1681526020019081526020015f205f82825403925050819055505b5f73ffffffffffffffffffffffffffffffffffffffff168573ffffffffffffffffffffffffffffffffffffffff1614611adf57600160035f8773ffffffffffffffffffffffffffffffffffffffff1673ffffffffffffffffffffffffffffffffffffffff1681526020019081526020015f205f82825401925050819055505b8460025f8681526020019081526020015f205f6101000a81548173ffffffffffffffffffffffffffffffffffffffff021916908373ffffffffffffffffffffffffffffffffffffffff160217905550838573ffffffffffffffffffffffffffffffffffffffff168273ffffffffffffffffffffffffffffffffffffffff167fddf252ad1be2c89b69c2b068fc378daa952ba7f163c4a11628f55a4df523b3ef60405160405180910390a4809150509392505050565b611b9e8383611dc3565b611baa5f848484611485565b505050565b5f805f90507a184f03e93ff9f4daa797ed6e38ed64bf6a1f0100000000000000008310611c0b577a184f03e93ff9f4daa797ed6e38ed64bf6a1f0100000000000000008381611c0157611c00613018565b5b0492506040810190505b6d04ee2d6d415b85acef81000000008310611c48576d04ee2d6d415b85acef81000000008381611c3e57611c3d613018565b5b0492506020810190505b662386f26fc100008310611c7757662386f26fc100008381611c6d57611c6c613018565b5b0492506010810190505b6305f5e1008310611ca0576305f5e1008381611c9657611c95613018565b5b0492506008810190505b6127108310611cc5576127108381611cbb57611cba613018565b5b0492506004810190505b60648310611ce85760648381611cde57611cdd613018565b5b0492506002810190505b600a8310611cf7576001810190505b80915050919050565b611d0b838383611eb6565b611dbe575f73ffffffffffffffffffffffffffffffffffffffff168373ffffffffffffffffffffffffffffffffffffffff1603611d7f57806040517f7e273289000000000000000000000000000000000000000000000000000000008152600401611d7691906123f7565b60405180910390fd5b81816040517f177e802f000000000000000000000000000000000000000000000000000000008152600401611db5929190613045565b60405180910390fd5b505050565b5f73ffffffffffffffffffffffffffffffffffffffff168273ffffffffffffffffffffffffffffffffffffffff1603611e33575f6040517f64a0ae92000000000000000000000000000000000000000000000000000000008152600401611e2a9190612180565b60405180910390fd5b5f611e3f83835f6110eb565b90505f73ffffffffffffffffffffffffffffffffffffffff168173ffffffffffffffffffffffffffffffffffffffff1614611eb1575f6040517f73c6ac6e000000000000000000000000000000000000000000000000000000008152600401611ea89190612180565b60405180910390fd5b505050565b5f8073ffffffffffffffffffffffffffffffffffffffff168373ffffffffffffffffffffffffffffffffffffffff1614158015611f6d57508273ffffffffffffffffffffffffffffffffffffffff168473ffffffffffffffffffffffffffffffffffffffff161480611f2e5750611f2d8484610e98565b5b80611f6c57508273ffffffffffffffffffffffffffffffffffffffff16611f5483611099565b73ffffffffffffffffffffffffffffffffffffffff16145b5b90509392505050565b60405180604001604052805f8152602001606081525090565b5f604051905090565b5f80fd5b5f80fd5b5f7fffffffff0000000000000000000000000000000000000000000000000000000082169050919050565b611fd481611fa0565b8114611fde575f80fd5b50565b5f81359050611fef81611fcb565b92915050565b5f6020828403121561200a57612009611f98565b5b5f61201784828501611fe1565b91505092915050565b5f8115159050919050565b61203481612020565b82525050565b5f60208201905061204d5f83018461202b565b92915050565b5f81519050919050565b5f82825260208201905092915050565b8281835e5f83830152505050565b5f601f19601f8301169050919050565b5f61209582612053565b61209f818561205d565b93506120af81856020860161206d565b6120b88161207b565b840191505092915050565b5f6020820190508181035f8301526120db818461208b565b905092915050565b5f819050919050565b6120f5816120e3565b81146120ff575f80fd5b50565b5f81359050612110816120ec565b92915050565b5f6020828403121561212b5761212a611f98565b5b5f61213884828501612102565b91505092915050565b5f73ffffffffffffffffffffffffffffffffffffffff82169050919050565b5f61216a82612141565b9050919050565b61217a81612160565b82525050565b5f6020820190506121935f830184612171565b92915050565b6121a281612160565b81146121ac575f80fd5b50565b5f813590506121bd81612199565b92915050565b5f80604083850312156121d9576121d8611f98565b5b5f6121e6858286016121af565b92505060206121f785828601612102565b9150509250929050565b5f6020828403121561221657612215611f98565b5b5f612223848285016121af565b91505092915050565b5f81519050919050565b5f82825260208201905092915050565b5f819050602082019050919050565b61225e816120e3565b82525050565b5f82825260208201905092915050565b5f61227e82612053565b6122888185612264565b935061229881856020860161206d565b6122a18161207b565b840191505092915050565b5f604083015f8301516122c15f860182612255565b50602083015184820360208601526122d98282612274565b9150508091505092915050565b5f6122f183836122ac565b905092915050565b5f602082019050919050565b5f61230f8261222c565b6123198185612236565b93508360208202850161232b85612246565b805f5b85811015612366578484038952815161234785826122e6565b9450612352836122f9565b925060208a0199505060018101905061232e565b50829750879550505050505092915050565b5f6020820190508181035f8301526123908184612305565b905092915050565b5f805f606084860312156123af576123ae611f98565b5b5f6123bc868287016121af565b93505060206123cd868287016121af565b92505060406123de86828701612102565b9150509250925092565b6123f1816120e3565b82525050565b5f60208201905061240a5f8301846123e8565b92915050565b5f80fd5b5f80fd5b7f4e487b71000000000000000000000000000000000000000000000000000000005f52604160045260245ffd5b61244e8261207b565b810181811067ffffffffffffffff8211171561246d5761246c612418565b5b80604052505050565b5f61247f611f8f565b905061248b8282612445565b919050565b5f67ffffffffffffffff8211156124aa576124a9612418565b5b6124b38261207b565b9050602081019050919050565b828183375f83830152505050565b5f6124e06124db84612490565b612476565b9050828152602081018484840111156124fc576124fb612414565b5b6125078482856124c0565b509392505050565b5f82601f83011261252357612522612410565b5b81356125338482602086016124ce565b91505092915050565b5f6020828403121561255157612550611f98565b5b5f82013567ffffffffffffffff81111561256e5761256d611f9c565b5b61257a8482850161250f565b91505092915050565b5f67ffffffffffffffff82111561259d5761259c612418565b5b602082029050602081019050919050565b5f80fd5b5f6125c46125bf84612583565b612476565b905080838252602082019050602084028301858111156125e7576125e66125ae565b5b835b8181101561261057806125fc88826121af565b8452602084019350506020810190506125e9565b5050509392505050565b5f82601f83011261262e5761262d612410565b5b813561263e8482602086016125b2565b91505092915050565b5f67ffffffffffffffff82111561266157612660612418565b5b602082029050602081019050919050565b5f61268461267f84612647565b612476565b905080838252602082019050602084028301858111156126a7576126a66125ae565b5b835b818110156126d057806126bc8882612102565b8452602084019350506020810190506126a9565b5050509392505050565b5f82601f8301126126ee576126ed612410565b5b81356126fe848260208601612672565b91505092915050565b5f806040838503121561271d5761271c611f98565b5b5f83013567ffffffffffffffff81111561273a57612739611f9c565b5b6127468582860161261a565b925050602083013567ffffffffffffffff81111561276757612766611f9c565b5b612773858286016126da565b9150509250929050565b5f81519050919050565b5f82825260208201905092915050565b5f819050602082019050919050565b5f6127b18383612255565b60208301905092915050565b5f602082019050919050565b5f6127d38261277d565b6127dd8185612787565b93506127e883612797565b805f5b838110156128185781516127ff88826127a6565b975061280a836127bd565b9250506001810190506127eb565b5085935050505092915050565b5f6020820190508181035f83015261283d81846127c9565b905092915050565b61284e81612020565b8114612858575f80fd5b50565b5f8135905061286981612845565b92915050565b5f806040838503121561288557612884611f98565b5b5f612892858286016121af565b92505060206128a38582860161285b565b9150509250929050565b5f67ffffffffffffffff8211156128c7576128c6612418565b5b6128d08261207b565b9050602081019050919050565b5f6128ef6128ea846128ad565b612476565b90508281526020810184848401111561290b5761290a612414565b5b6129168482856124c0565b509392505050565b5f82601f83011261293257612931612410565b5b81356129428482602086016128dd565b91505092915050565b5f805f806080858703121561296357612962611f98565b5b5f612970878288016121af565b9450506020612981878288016121af565b935050604061299287828801612102565b925050606085013567ffffffffffffffff8111156129b3576129b2611f9c565b5b6129bf8782880161291e565b91505092959194509250565b5f80604083850312156129e1576129e0611f98565b5b5f6129ee858286016121af565b92505060206129ff858286016121af565b9150509250929050565b7f4e487b71000000000000000000000000000000000000000000000000000000005f52602260045260245ffd5b5f6002820490506001821680612a4d57607f821691505b602082108103612a6057612a5f612a09565b5b50919050565b7f4e487b71000000000000000000000000000000000000000000000000000000005f52603260045260245ffd5b5f606082019050612aa65f830186612171565b612ab360208301856123e8565b612ac06040830184612171565b949350505050565b7f4d617820737570706c79207265616368656400000000000000000000000000005f82015250565b5f612afc60128361205d565b9150612b0782612ac8565b602082019050919050565b5f6020820190508181035f830152612b2981612af0565b9050919050565b7f4d6178204d696e74207065722077616c6c6574207265616368656400000000005f82015250565b5f612b64601b8361205d565b9150612b6f82612b30565b602082019050919050565b5f6020820190508181035f830152612b9181612b58565b9050919050565b7f4e487b71000000000000000000000000000000000000000000000000000000005f52601160045260245ffd5b5f612bcf826120e3565b91507fffffffffffffffffffffffffffffffffffffffffffffffffffffffffffffffff8203612c0157612c00612b98565b5b600182019050919050565b5f819050815f5260205f209050919050565b5f6020601f8301049050919050565b5f82821b905092915050565b5f60088302612c687fffffffffffffffffffffffffffffffffffffffffffffffffffffffffffffffff82612c2d565b612c728683612c2d565b95508019841693508086168417925050509392505050565b5f819050919050565b5f612cad612ca8612ca3846120e3565b612c8a565b6120e3565b9050919050565b5f819050919050565b612cc683612c93565b612cda612cd282612cb4565b848454612c39565b825550505050565b5f90565b612cee612ce2565b612cf9818484612cbd565b505050565b5b81811015612d1c57612d115f82612ce6565b600181019050612cff565b5050565b601f821115612d6157612d3281612c0c565b612d3b84612c1e565b81016020851015612d4a578190505b612d5e612d5685612c1e565b830182612cfe565b50505b505050565b5f82821c905092915050565b5f612d815f1984600802612d66565b1980831691505092915050565b5f612d998383612d72565b9150826002028217905092915050565b612db282612053565b67ffffffffffffffff811115612dcb57612dca612418565b5b612dd58254612a36565b612de0828285612d20565b5f60209050601f831160018114612e11575f8415612dff578287015190505b612e098582612d8e565b865550612e70565b601f198416612e1f86612c0c565b5f5b82811015612e4657848901518255600182019150602085019450602081019050612e21565b86831015612e635784890151612e5f601f891682612d72565b8355505b6001600288020188555050505b505050505050565b5f81905092915050565b5f612e8c82612053565b612e968185612e78565b9350612ea681856020860161206d565b80840191505092915050565b5f612ebd8285612e82565b9150612ec98284612e82565b91508190509392505050565b7f536f756c626f756e643a205472616e73666572206661696c65640000000000005f82015250565b5f612f09601a8361205d565b9150612f1482612ed5565b602082019050919050565b5f6020820190508181035f830152612f3681612efd565b9050919050565b5f81519050919050565b5f82825260208201905092915050565b5f612f6182612f3d565b612f6b8185612f47565b9350612f7b81856020860161206d565b612f848161207b565b840191505092915050565b5f608082019050612fa25f830187612171565b612faf6020830186612171565b612fbc60408301856123e8565b8181036060830152612fce8184612f57565b905095945050505050565b5f81519050612fe781611fcb565b92915050565b5f6020828403121561300257613001611f98565b5b5f61300f84828501612fd9565b91505092915050565b7f4e487b71000000000000000000000000000000000000000000000000000000005f52601260045260245ffd5b5f6040820190506130585f830185612171565b61306560208301846123e8565b939250505056fea26469706673582212207c4d13bb229d68595856abe90b5a8a1bbf94c213a88bc54f9d86619697fbf85564736f6c634300081a0033",
			"opcodes": "PUSH1 0x80 PUSH1 0x40 MSTORE CALLVALUE DUP1 ISZERO PUSH2 0xF JUMPI PUSH0 DUP1 REVERT JUMPDEST POP PUSH1 0x40 MLOAD PUSH2 0x3869 CODESIZE SUB DUP1 PUSH2 0x3869 DUP4 CODECOPY DUP2 DUP2 ADD PUSH1 0x40 MSTORE DUP2 ADD SWAP1 PUSH2 0x31 SWAP2 SWAP1 PUSH2 0x3E2 JUMP JUMPDEST DUP6 DUP5 DUP5 DUP2 PUSH0 SWAP1 DUP2 PUSH2 0x42 SWAP2 SWAP1 PUSH2 0x6C3 JUMP JUMPDEST POP DUP1 PUSH1 0x1 SWAP1 DUP2 PUSH2 0x52 SWAP2 SWAP1 PUSH2 0x6C3 JUMP JUMPDEST POP POP POP PUSH0 PUSH20 0xFFFFFFFFFFFFFFFFFFFFFFFFFFFFFFFFFFFFFFFF AND DUP2 PUSH20 0xFFFFFFFFFFFFFFFFFFFFFFFFFFFFFFFFFFFFFFFF AND SUB PUSH2 0xC5 JUMPI PUSH0 PUSH1 0x40 MLOAD PUSH32 0x1E4FBDF700000000000000000000000000000000000000000000000000000000 DUP2 MSTORE PUSH1 0x4 ADD PUSH2 0xBC SWAP2 SWAP1 PUSH2 0x7A1 JUMP JUMPDEST PUSH1 0x40 MLOAD DUP1 SWAP2 SUB SWAP1 REVERT JUMPDEST PUSH2 0xD4 DUP2 PUSH2 0x110 PUSH1 0x20 SHL PUSH1 0x20 SHR JUMP JUMPDEST POP DUP1 PUSH1 0x8 SWAP1 DUP2 PUSH2 0xE4 SWAP2 SWAP1 PUSH2 0x6C3 JUMP JUMPDEST POP DUP5 PUSH1 0x9 DUP2 SWAP1 SSTORE POP DUP2 PUSH1 0xA PUSH0 PUSH2 0x100 EXP DUP2 SLOAD DUP2 PUSH1 0xFF MUL NOT AND SWAP1 DUP4 ISZERO ISZERO MUL OR SWAP1 SSTORE POP POP POP POP POP POP POP PUSH2 0x7BA JUMP JUMPDEST PUSH0 PUSH1 0x6 PUSH0 SWAP1 SLOAD SWAP1 PUSH2 0x100 EXP SWAP1 DIV PUSH20 0xFFFFFFFFFFFFFFFFFFFFFFFFFFFFFFFFFFFFFFFF AND SWAP1 POP DUP2 PUSH1 0x6 PUSH0 PUSH2 0x100 EXP DUP2 SLOAD DUP2 PUSH20 0xFFFFFFFFFFFFFFFFFFFFFFFFFFFFFFFFFFFFFFFF MUL NOT AND SWAP1 DUP4 PUSH20 0xFFFFFFFFFFFFFFFFFFFFFFFFFFFFFFFFFFFFFFFF AND MUL OR SWAP1 SSTORE POP DUP2 PUSH20 0xFFFFFFFFFFFFFFFFFFFFFFFFFFFFFFFFFFFFFFFF AND DUP2 PUSH20 0xFFFFFFFFFFFFFFFFFFFFFFFFFFFFFFFFFFFFFFFF AND PUSH32 0x8BE0079C531659141344CD1FD0A4F28419497F9722A3DAAFE3B4186F6B6457E0 PUSH1 0x40 MLOAD PUSH1 0x40 MLOAD DUP1 SWAP2 SUB SWAP1 LOG3 POP POP JUMP JUMPDEST PUSH0 PUSH1 0x40 MLOAD SWAP1 POP SWAP1 JUMP JUMPDEST PUSH0 DUP1 REVERT JUMPDEST PUSH0 DUP1 REVERT JUMPDEST PUSH0 PUSH20 0xFFFFFFFFFFFFFFFFFFFFFFFFFFFFFFFFFFFFFFFF DUP3 AND SWAP1 POP SWAP2 SWAP1 POP JUMP JUMPDEST PUSH0 PUSH2 0x20D DUP3 PUSH2 0x1E4 JUMP JUMPDEST SWAP1 POP SWAP2 SWAP1 POP JUMP JUMPDEST PUSH2 0x21D DUP2 PUSH2 0x203 JUMP JUMPDEST DUP2 EQ PUSH2 0x227 JUMPI PUSH0 DUP1 REVERT JUMPDEST POP JUMP JUMPDEST PUSH0 DUP2 MLOAD SWAP1 POP PUSH2 0x238 DUP2 PUSH2 0x214 JUMP JUMPDEST SWAP3 SWAP2 POP POP JUMP JUMPDEST PUSH0 DUP2 SWAP1 POP SWAP2 SWAP1 POP JUMP JUMPDEST PUSH2 0x250 DUP2 PUSH2 0x23E JUMP JUMPDEST DUP2 EQ PUSH2 0x25A JUMPI PUSH0 DUP1 REVERT JUMPDEST POP JUMP JUMPDEST PUSH0 DUP2 MLOAD SWAP1 POP PUSH2 0x26B DUP2 PUSH2 0x247 JUMP JUMPDEST SWAP3 SWAP2 POP POP JUMP JUMPDEST PUSH0 DUP1 REVERT JUMPDEST PUSH0 DUP1 REVERT JUMPDEST PUSH0 PUSH1 0x1F NOT PUSH1 0x1F DUP4 ADD AND SWAP1 POP SWAP2 SWAP1 POP JUMP JUMPDEST PUSH32 0x4E487B7100000000000000000000000000000000000000000000000000000000 PUSH0 MSTORE PUSH1 0x41 PUSH1 0x4 MSTORE PUSH1 0x24 PUSH0 REVERT JUMPDEST PUSH2 0x2BF DUP3 PUSH2 0x279 JUMP JUMPDEST DUP2 ADD DUP2 DUP2 LT PUSH8 0xFFFFFFFFFFFFFFFF DUP3 GT OR ISZERO PUSH2 0x2DE JUMPI PUSH2 0x2DD PUSH2 0x289 JUMP JUMPDEST JUMPDEST DUP1 PUSH1 0x40 MSTORE POP POP POP JUMP JUMPDEST PUSH0 PUSH2 0x2F0 PUSH2 0x1D3 JUMP JUMPDEST SWAP1 POP PUSH2 0x2FC DUP3 DUP3 PUSH2 0x2B6 JUMP JUMPDEST SWAP2 SWAP1 POP JUMP JUMPDEST PUSH0 PUSH8 0xFFFFFFFFFFFFFFFF DUP3 GT ISZERO PUSH2 0x31B JUMPI PUSH2 0x31A PUSH2 0x289 JUMP JUMPDEST JUMPDEST PUSH2 0x324 DUP3 PUSH2 0x279 JUMP JUMPDEST SWAP1 POP PUSH1 0x20 DUP2 ADD SWAP1 POP SWAP2 SWAP1 POP JUMP JUMPDEST DUP3 DUP2 DUP4 MCOPY PUSH0 DUP4 DUP4 ADD MSTORE POP POP POP JUMP JUMPDEST PUSH0 PUSH2 0x351 PUSH2 0x34C DUP5 PUSH2 0x301 JUMP JUMPDEST PUSH2 0x2E7 JUMP JUMPDEST SWAP1 POP DUP3 DUP2 MSTORE PUSH1 0x20 DUP2 ADD DUP5 DUP5 DUP5 ADD GT ISZERO PUSH2 0x36D JUMPI PUSH2 0x36C PUSH2 0x275 JUMP JUMPDEST JUMPDEST PUSH2 0x378 DUP5 DUP3 DUP6 PUSH2 0x331 JUMP JUMPDEST POP SWAP4 SWAP3 POP POP POP JUMP JUMPDEST PUSH0 DUP3 PUSH1 0x1F DUP4 ADD SLT PUSH2 0x394 JUMPI PUSH2 0x393 PUSH2 0x271 JUMP JUMPDEST JUMPDEST DUP2 MLOAD PUSH2 0x3A4 DUP5 DUP3 PUSH1 0x20 DUP7 ADD PUSH2 0x33F JUMP JUMPDEST SWAP2 POP POP SWAP3 SWAP2 POP POP JUMP JUMPDEST PUSH0 DUP2 ISZERO ISZERO SWAP1 POP SWAP2 SWAP1 POP JUMP JUMPDEST PUSH2 0x3C1 DUP2 PUSH2 0x3AD JUMP JUMPDEST DUP2 EQ PUSH2 0x3CB JUMPI PUSH0 DUP1 REVERT JUMPDEST POP JUMP JUMPDEST PUSH0 DUP2 MLOAD SWAP1 POP PUSH2 0x3DC DUP2 PUSH2 0x3B8 JUMP JUMPDEST SWAP3 SWAP2 POP POP JUMP JUMPDEST PUSH0 DUP1 PUSH0 DUP1 PUSH0 DUP1 PUSH1 0xC0 DUP8 DUP10 SUB SLT ISZERO PUSH2 0x3FC JUMPI PUSH2 0x3FB PUSH2 0x1DC JUMP JUMPDEST JUMPDEST PUSH0 PUSH2 0x409 DUP10 DUP3 DUP11 ADD PUSH2 0x22A JUMP JUMPDEST SWAP7 POP POP PUSH1 0x20 PUSH2 0x41A DUP10 DUP3 DUP11 ADD PUSH2 0x25D JUMP JUMPDEST SWAP6 POP POP PUSH1 0x40 DUP8 ADD MLOAD PUSH8 0xFFFFFFFFFFFFFFFF DUP2 GT ISZERO PUSH2 0x43B JUMPI PUSH2 0x43A PUSH2 0x1E0 JUMP JUMPDEST JUMPDEST PUSH2 0x447 DUP10 DUP3 DUP11 ADD PUSH2 0x380 JUMP JUMPDEST SWAP5 POP POP PUSH1 0x60 DUP8 ADD MLOAD PUSH8 0xFFFFFFFFFFFFFFFF DUP2 GT ISZERO PUSH2 0x468 JUMPI PUSH2 0x467 PUSH2 0x1E0 JUMP JUMPDEST JUMPDEST PUSH2 0x474 DUP10 DUP3 DUP11 ADD PUSH2 0x380 JUMP JUMPDEST SWAP4 POP POP PUSH1 0x80 PUSH2 0x485 DUP10 DUP3 DUP11 ADD PUSH2 0x3CE JUMP JUMPDEST SWAP3 POP POP PUSH1 0xA0 DUP8 ADD MLOAD PUSH8 0xFFFFFFFFFFFFFFFF DUP2 GT ISZERO PUSH2 0x4A6 JUMPI PUSH2 0x4A5 PUSH2 0x1E0 JUMP JUMPDEST JUMPDEST PUSH2 0x4B2 DUP10 DUP3 DUP11 ADD PUSH2 0x380 JUMP JUMPDEST SWAP2 POP POP SWAP3 SWAP6 POP SWAP3 SWAP6 POP SWAP3 SWAP6 JUMP JUMPDEST PUSH0 DUP2 MLOAD SWAP1 POP SWAP2 SWAP1 POP JUMP JUMPDEST PUSH32 0x4E487B7100000000000000000000000000000000000000000000000000000000 PUSH0 MSTORE PUSH1 0x22 PUSH1 0x4 MSTORE PUSH1 0x24 PUSH0 REVERT JUMPDEST PUSH0 PUSH1 0x2 DUP3 DIV SWAP1 POP PUSH1 0x1 DUP3 AND DUP1 PUSH2 0x50D JUMPI PUSH1 0x7F DUP3 AND SWAP2 POP JUMPDEST PUSH1 0x20 DUP3 LT DUP2 SUB PUSH2 0x520 JUMPI PUSH2 0x51F PUSH2 0x4C9 JUMP JUMPDEST JUMPDEST POP SWAP2 SWAP1 POP JUMP JUMPDEST PUSH0 DUP2 SWAP1 POP DUP2 PUSH0 MSTORE PUSH1 0x20 PUSH0 KECCAK256 SWAP1 POP SWAP2 SWAP1 POP JUMP JUMPDEST PUSH0 PUSH1 0x20 PUSH1 0x1F DUP4 ADD DIV SWAP1 POP SWAP2 SWAP1 POP JUMP JUMPDEST PUSH0 DUP3 DUP3 SHL SWAP1 POP SWAP3 SWAP2 POP POP JUMP JUMPDEST PUSH0 PUSH1 0x8 DUP4 MUL PUSH2 0x582 PUSH32 0xFFFFFFFFFFFFFFFFFFFFFFFFFFFFFFFFFFFFFFFFFFFFFFFFFFFFFFFFFFFFFFFF DUP3 PUSH2 0x547 JUMP JUMPDEST PUSH2 0x58C DUP7 DUP4 PUSH2 0x547 JUMP JUMPDEST SWAP6 POP DUP1 NOT DUP5 AND SWAP4 POP DUP1 DUP7 AND DUP5 OR SWAP3 POP POP POP SWAP4 SWAP3 POP POP POP JUMP JUMPDEST PUSH0 DUP2 SWAP1 POP SWAP2 SWAP1 POP JUMP JUMPDEST PUSH0 PUSH2 0x5C7 PUSH2 0x5C2 PUSH2 0x5BD DUP5 PUSH2 0x23E JUMP JUMPDEST PUSH2 0x5A4 JUMP JUMPDEST PUSH2 0x23E JUMP JUMPDEST SWAP1 POP SWAP2 SWAP1 POP JUMP JUMPDEST PUSH0 DUP2 SWAP1 POP SWAP2 SWAP1 POP JUMP JUMPDEST PUSH2 0x5E0 DUP4 PUSH2 0x5AD JUMP JUMPDEST PUSH2 0x5F4 PUSH2 0x5EC DUP3 PUSH2 0x5CE JUMP JUMPDEST DUP5 DUP5 SLOAD PUSH2 0x553 JUMP JUMPDEST DUP3 SSTORE POP POP POP POP JUMP JUMPDEST PUSH0 SWAP1 JUMP JUMPDEST PUSH2 0x608 PUSH2 0x5FC JUMP JUMPDEST PUSH2 0x613 DUP2 DUP5 DUP5 PUSH2 0x5D7 JUMP JUMPDEST POP POP POP JUMP JUMPDEST JUMPDEST DUP2 DUP2 LT ISZERO PUSH2 0x636 JUMPI PUSH2 0x62B PUSH0 DUP3 PUSH2 0x600 JUMP JUMPDEST PUSH1 0x1 DUP2 ADD SWAP1 POP PUSH2 0x619 JUMP JUMPDEST POP POP JUMP JUMPDEST PUSH1 0x1F DUP3 GT ISZERO PUSH2 0x67B JUMPI PUSH2 0x64C DUP2 PUSH2 0x526 JUMP JUMPDEST PUSH2 0x655 DUP5 PUSH2 0x538 JUMP JUMPDEST DUP2 ADD PUSH1 0x20 DUP6 LT ISZERO PUSH2 0x664 JUMPI DUP2 SWAP1 POP JUMPDEST PUSH2 0x678 PUSH2 0x670 DUP6 PUSH2 0x538 JUMP JUMPDEST DUP4 ADD DUP3 PUSH2 0x618 JUMP JUMPDEST POP POP JUMPDEST POP POP POP JUMP JUMPDEST PUSH0 DUP3 DUP3 SHR SWAP1 POP SWAP3 SWAP2 POP POP JUMP JUMPDEST PUSH0 PUSH2 0x69B PUSH0 NOT DUP5 PUSH1 0x8 MUL PUSH2 0x680 JUMP JUMPDEST NOT DUP1 DUP4 AND SWAP2 POP POP SWAP3 SWAP2 POP POP JUMP JUMPDEST PUSH0 PUSH2 0x6B3 DUP4 DUP4 PUSH2 0x68C JUMP JUMPDEST SWAP2 POP DUP3 PUSH1 0x2 MUL DUP3 OR SWAP1 POP SWAP3 SWAP2 POP POP JUMP JUMPDEST PUSH2 0x6CC DUP3 PUSH2 0x4BF JUMP JUMPDEST PUSH8 0xFFFFFFFFFFFFFFFF DUP2 GT ISZERO PUSH2 0x6E5 JUMPI PUSH2 0x6E4 PUSH2 0x289 JUMP JUMPDEST JUMPDEST PUSH2 0x6EF DUP3 SLOAD PUSH2 0x4F6 JUMP JUMPDEST PUSH2 0x6FA DUP3 DUP3 DUP6 PUSH2 0x63A JUMP JUMPDEST PUSH0 PUSH1 0x20 SWAP1 POP PUSH1 0x1F DUP4 GT PUSH1 0x1 DUP2 EQ PUSH2 0x72B JUMPI PUSH0 DUP5 ISZERO PUSH2 0x719 JUMPI DUP3 DUP8 ADD MLOAD SWAP1 POP JUMPDEST PUSH2 0x723 DUP6 DUP3 PUSH2 0x6A8 JUMP JUMPDEST DUP7 SSTORE POP PUSH2 0x78A JUMP JUMPDEST PUSH1 0x1F NOT DUP5 AND PUSH2 0x739 DUP7 PUSH2 0x526 JUMP JUMPDEST PUSH0 JUMPDEST DUP3 DUP2 LT ISZERO PUSH2 0x760 JUMPI DUP5 DUP10 ADD MLOAD DUP3 SSTORE PUSH1 0x1 DUP3 ADD SWAP2 POP PUSH1 0x20 DUP6 ADD SWAP5 POP PUSH1 0x20 DUP2 ADD SWAP1 POP PUSH2 0x73B JUMP JUMPDEST DUP7 DUP4 LT ISZERO PUSH2 0x77D JUMPI DUP5 DUP10 ADD MLOAD PUSH2 0x779 PUSH1 0x1F DUP10 AND DUP3 PUSH2 0x68C JUMP JUMPDEST DUP4 SSTORE POP JUMPDEST PUSH1 0x1 PUSH1 0x2 DUP9 MUL ADD DUP9 SSTORE POP POP POP JUMPDEST POP POP POP POP POP POP JUMP JUMPDEST PUSH2 0x79B DUP2 PUSH2 0x203 JUMP JUMPDEST DUP3 MSTORE POP POP JUMP JUMPDEST PUSH0 PUSH1 0x20 DUP3 ADD SWAP1 POP PUSH2 0x7B4 PUSH0 DUP4 ADD DUP5 PUSH2 0x792 JUMP JUMPDEST SWAP3 SWAP2 POP POP JUMP JUMPDEST PUSH2 0x30A2 DUP1 PUSH2 0x7C7 PUSH0 CODECOPY PUSH0 RETURN INVALID PUSH1 0x80 PUSH1 0x40 MSTORE CALLVALUE DUP1 ISZERO PUSH2 0xF JUMPI PUSH0 DUP1 REVERT JUMPDEST POP PUSH1 0x4 CALLDATASIZE LT PUSH2 0x140 JUMPI PUSH0 CALLDATALOAD PUSH1 0xE0 SHR DUP1 PUSH4 0x68573107 GT PUSH2 0xB6 JUMPI DUP1 PUSH4 0x95D89B41 GT PUSH2 0x7A JUMPI DUP1 PUSH4 0x95D89B41 EQ PUSH2 0x386 JUMPI DUP1 PUSH4 0xA22CB465 EQ PUSH2 0x3A4 JUMPI DUP1 PUSH4 0xB88D4FDE EQ PUSH2 0x3C0 JUMPI DUP1 PUSH4 0xC87B56DD EQ PUSH2 0x3DC JUMPI DUP1 PUSH4 0xE985E9C5 EQ PUSH2 0x40C JUMPI DUP1 PUSH4 0xF2FDE38B EQ PUSH2 0x43C JUMPI PUSH2 0x140 JUMP JUMPDEST DUP1 PUSH4 0x68573107 EQ PUSH2 0x2E0 JUMPI DUP1 PUSH4 0x6AAADB1C EQ PUSH2 0x310 JUMPI DUP1 PUSH4 0x70A08231 EQ PUSH2 0x32E JUMPI DUP1 PUSH4 0x715018A6 EQ PUSH2 0x35E JUMPI DUP1 PUSH4 0x8DA5CB5B EQ PUSH2 0x368 JUMPI PUSH2 0x140 JUMP JUMPDEST DUP1 PUSH4 0x23B872DD GT PUSH2 0x108 JUMPI DUP1 PUSH4 0x23B872DD EQ PUSH2 0x20E JUMPI DUP1 PUSH4 0x32CB6B0C EQ PUSH2 0x22A JUMPI DUP1 PUSH4 0x40C10F19 EQ PUSH2 0x248 JUMPI DUP1 PUSH4 0x42842E0E EQ PUSH2 0x278 JUMPI DUP1 PUSH4 0x55F804B3 EQ PUSH2 0x294 JUMPI DUP1 PUSH4 0x6352211E EQ PUSH2 0x2B0 JUMPI PUSH2 0x140 JUMP JUMPDEST DUP1 PUSH4 0x1FFC9A7 EQ PUSH2 0x144 JUMPI DUP1 PUSH4 0x6FDDE03 EQ PUSH2 0x174 JUMPI DUP1 PUSH4 0x81812FC EQ PUSH2 0x192 JUMPI DUP1 PUSH4 0x95EA7B3 EQ PUSH2 0x1C2 JUMPI DUP1 PUSH4 0x1D1B8647 EQ PUSH2 0x1DE JUMPI JUMPDEST PUSH0 DUP1 REVERT JUMPDEST PUSH2 0x15E PUSH1 0x4 DUP1 CALLDATASIZE SUB DUP2 ADD SWAP1 PUSH2 0x159 SWAP2 SWAP1 PUSH2 0x1FF5 JUMP JUMPDEST PUSH2 0x458 JUMP JUMPDEST PUSH1 0x40 MLOAD PUSH2 0x16B SWAP2 SWAP1 PUSH2 0x203A JUMP JUMPDEST PUSH1 0x40 MLOAD DUP1 SWAP2 SUB SWAP1 RETURN JUMPDEST PUSH2 0x17C PUSH2 0x539 JUMP JUMPDEST PUSH1 0x40 MLOAD PUSH2 0x189 SWAP2 SWAP1 PUSH2 0x20C3 JUMP JUMPDEST PUSH1 0x40 MLOAD DUP1 SWAP2 SUB SWAP1 RETURN JUMPDEST PUSH2 0x1AC PUSH1 0x4 DUP1 CALLDATASIZE SUB DUP2 ADD SWAP1 PUSH2 0x1A7 SWAP2 SWAP1 PUSH2 0x2116 JUMP JUMPDEST PUSH2 0x5C8 JUMP JUMPDEST PUSH1 0x40 MLOAD PUSH2 0x1B9 SWAP2 SWAP1 PUSH2 0x2180 JUMP JUMPDEST PUSH1 0x40 MLOAD DUP1 SWAP2 SUB SWAP1 RETURN JUMPDEST PUSH2 0x1DC PUSH1 0x4 DUP1 CALLDATASIZE SUB DUP2 ADD SWAP1 PUSH2 0x1D7 SWAP2 SWAP1 PUSH2 0x21C3 JUMP JUMPDEST PUSH2 0x5E3 JUMP JUMPDEST STOP JUMPDEST PUSH2 0x1F8 PUSH1 0x4 DUP1 CALLDATASIZE SUB DUP2 ADD SWAP1 PUSH2 0x1F3 SWAP2 SWAP1 PUSH2 0x2201 JUMP JUMPDEST PUSH2 0x5F9 JUMP JUMPDEST PUSH1 0x40 MLOAD PUSH2 0x205 SWAP2 SWAP1 PUSH2 0x2378 JUMP JUMPDEST PUSH1 0x40 MLOAD DUP1 SWAP2 SUB SWAP1 RETURN JUMPDEST PUSH2 0x228 PUSH1 0x4 DUP1 CALLDATASIZE SUB DUP2 ADD SWAP1 PUSH2 0x223 SWAP2 SWAP1 PUSH2 0x2398 JUMP JUMPDEST PUSH2 0x772 JUMP JUMPDEST STOP JUMPDEST PUSH2 0x232 PUSH2 0x871 JUMP JUMPDEST PUSH1 0x40 MLOAD PUSH2 0x23F SWAP2 SWAP1 PUSH2 0x23F7 JUMP JUMPDEST PUSH1 0x40 MLOAD DUP1 SWAP2 SUB SWAP1 RETURN JUMPDEST PUSH2 0x262 PUSH1 0x4 DUP1 CALLDATASIZE SUB DUP2 ADD SWAP1 PUSH2 0x25D SWAP2 SWAP1 PUSH2 0x21C3 JUMP JUMPDEST PUSH2 0x877 JUMP JUMPDEST PUSH1 0x40 MLOAD PUSH2 0x26F SWAP2 SWAP1 PUSH2 0x23F7 JUMP JUMPDEST PUSH1 0x40 MLOAD DUP1 SWAP2 SUB SWAP1 RETURN JUMPDEST PUSH2 0x292 PUSH1 0x4 DUP1 CALLDATASIZE SUB DUP2 ADD SWAP1 PUSH2 0x28D SWAP2 SWAP1 PUSH2 0x2398 JUMP JUMPDEST PUSH2 0x9BA JUMP JUMPDEST STOP JUMPDEST PUSH2 0x2AE PUSH1 0x4 DUP1 CALLDATASIZE SUB DUP2 ADD SWAP1 PUSH2 0x2A9 SWAP2 SWAP1 PUSH2 0x253C JUMP JUMPDEST PUSH2 0x9D9 JUMP JUMPDEST STOP JUMPDEST PUSH2 0x2CA PUSH1 0x4 DUP1 CALLDATASIZE SUB DUP2 ADD SWAP1 PUSH2 0x2C5 SWAP2 SWAP1 PUSH2 0x2116 JUMP JUMPDEST PUSH2 0x9F4 JUMP JUMPDEST PUSH1 0x40 MLOAD PUSH2 0x2D7 SWAP2 SWAP1 PUSH2 0x2180 JUMP JUMPDEST PUSH1 0x40 MLOAD DUP1 SWAP2 SUB SWAP1 RETURN JUMPDEST PUSH2 0x2FA PUSH1 0x4 DUP1 CALLDATASIZE SUB DUP2 ADD SWAP1 PUSH2 0x2F5 SWAP2 SWAP1 PUSH2 0x2707 JUMP JUMPDEST PUSH2 0xA05 JUMP JUMPDEST PUSH1 0x40 MLOAD PUSH2 0x307 SWAP2 SWAP1 PUSH2 0x2825 JUMP JUMPDEST PUSH1 0x40 MLOAD DUP1 SWAP2 SUB SWAP1 RETURN JUMPDEST PUSH2 0x318 PUSH2 0xC6C JUMP JUMPDEST PUSH1 0x40 MLOAD PUSH2 0x325 SWAP2 SWAP1 PUSH2 0x203A JUMP JUMPDEST PUSH1 0x40 MLOAD DUP1 SWAP2 SUB SWAP1 RETURN JUMPDEST PUSH2 0x348 PUSH1 0x4 DUP1 CALLDATASIZE SUB DUP2 ADD SWAP1 PUSH2 0x343 SWAP2 SWAP1 PUSH2 0x2201 JUMP JUMPDEST PUSH2 0xC7E JUMP JUMPDEST PUSH1 0x40 MLOAD PUSH2 0x355 SWAP2 SWAP1 PUSH2 0x23F7 JUMP JUMPDEST PUSH1 0x40 MLOAD DUP1 SWAP2 SUB SWAP1 RETURN JUMPDEST PUSH2 0x366 PUSH2 0xD34 JUMP JUMPDEST STOP JUMPDEST PUSH2 0x370 PUSH2 0xD47 JUMP JUMPDEST PUSH1 0x40 MLOAD PUSH2 0x37D SWAP2 SWAP1 PUSH2 0x2180 JUMP JUMPDEST PUSH1 0x40 MLOAD DUP1 SWAP2 SUB SWAP1 RETURN JUMPDEST PUSH2 0x38E PUSH2 0xD6F JUMP JUMPDEST PUSH1 0x40 MLOAD PUSH2 0x39B SWAP2 SWAP1 PUSH2 0x20C3 JUMP JUMPDEST PUSH1 0x40 MLOAD DUP1 SWAP2 SUB SWAP1 RETURN JUMPDEST PUSH2 0x3BE PUSH1 0x4 DUP1 CALLDATASIZE SUB DUP2 ADD SWAP1 PUSH2 0x3B9 SWAP2 SWAP1 PUSH2 0x286F JUMP JUMPDEST PUSH2 0xDFF JUMP JUMPDEST STOP JUMPDEST PUSH2 0x3DA PUSH1 0x4 DUP1 CALLDATASIZE SUB DUP2 ADD SWAP1 PUSH2 0x3D5 SWAP2 SWAP1 PUSH2 0x294B JUMP JUMPDEST PUSH2 0xE15 JUMP JUMPDEST STOP JUMPDEST PUSH2 0x3F6 PUSH1 0x4 DUP1 CALLDATASIZE SUB DUP2 ADD SWAP1 PUSH2 0x3F1 SWAP2 SWAP1 PUSH2 0x2116 JUMP JUMPDEST PUSH2 0xE32 JUMP JUMPDEST PUSH1 0x40 MLOAD PUSH2 0x403 SWAP2 SWAP1 PUSH2 0x20C3 JUMP JUMPDEST PUSH1 0x40 MLOAD DUP1 SWAP2 SUB SWAP1 RETURN JUMPDEST PUSH2 0x426 PUSH1 0x4 DUP1 CALLDATASIZE SUB DUP2 ADD SWAP1 PUSH2 0x421 SWAP2 SWAP1 PUSH2 0x29CB JUMP JUMPDEST PUSH2 0xE98 JUMP JUMPDEST PUSH1 0x40 MLOAD PUSH2 0x433 SWAP2 SWAP1 PUSH2 0x203A JUMP JUMPDEST PUSH1 0x40 MLOAD DUP1 SWAP2 SUB SWAP1 RETURN JUMPDEST PUSH2 0x456 PUSH1 0x4 DUP1 CALLDATASIZE SUB DUP2 ADD SWAP1 PUSH2 0x451 SWAP2 SWAP1 PUSH2 0x2201 JUMP JUMPDEST PUSH2 0xF26 JUMP JUMPDEST STOP JUMPDEST PUSH0 PUSH32 0x80AC58CD00000000000000000000000000000000000000000000000000000000 PUSH28 0xFFFFFFFFFFFFFFFFFFFFFFFFFFFFFFFFFFFFFFFFFFFFFFFFFFFFFFFF NOT AND DUP3 PUSH28 0xFFFFFFFFFFFFFFFFFFFFFFFFFFFFFFFFFFFFFFFFFFFFFFFFFFFFFFFF NOT AND EQ DUP1 PUSH2 0x522 JUMPI POP PUSH32 0x5B5E139F00000000000000000000000000000000000000000000000000000000 PUSH28 0xFFFFFFFFFFFFFFFFFFFFFFFFFFFFFFFFFFFFFFFFFFFFFFFFFFFFFFFF NOT AND DUP3 PUSH28 0xFFFFFFFFFFFFFFFFFFFFFFFFFFFFFFFFFFFFFFFFFFFFFFFFFFFFFFFF NOT AND EQ JUMPDEST DUP1 PUSH2 0x532 JUMPI POP PUSH2 0x531 DUP3 PUSH2 0xFAA JUMP JUMPDEST JUMPDEST SWAP1 POP SWAP2 SWAP1 POP JUMP JUMPDEST PUSH1 0x60 PUSH0 DUP1 SLOAD PUSH2 0x547 SWAP1 PUSH2 0x2A36 JUMP JUMPDEST DUP1 PUSH1 0x1F ADD PUSH1 0x20 DUP1 SWAP2 DIV MUL PUSH1 0x20 ADD PUSH1 0x40 MLOAD SWAP1 DUP2 ADD PUSH1 0x40 MSTORE DUP1 SWAP3 SWAP2 SWAP1 DUP2 DUP2 MSTORE PUSH1 0x20 ADD DUP3 DUP1 SLOAD PUSH2 0x573 SWAP1 PUSH2 0x2A36 JUMP JUMPDEST DUP1 ISZERO PUSH2 0x5BE JUMPI DUP1 PUSH1 0x1F LT PUSH2 0x595 JUMPI PUSH2 0x100 DUP1 DUP4 SLOAD DIV MUL DUP4 MSTORE SWAP2 PUSH1 0x20 ADD SWAP2 PUSH2 0x5BE JUMP JUMPDEST DUP3 ADD SWAP2 SWAP1 PUSH0 MSTORE PUSH1 0x20 PUSH0 KECCAK256 SWAP1 JUMPDEST DUP2 SLOAD DUP2 MSTORE SWAP1 PUSH1 0x1 ADD SWAP1 PUSH1 0x20 ADD DUP1 DUP4 GT PUSH2 0x5A1 JUMPI DUP3 SWAP1 SUB PUSH1 0x1F AND DUP3 ADD SWAP2 JUMPDEST POP POP POP POP POP SWAP1 POP SWAP1 JUMP JUMPDEST PUSH0 PUSH2 0x5D2 DUP3 PUSH2 0x1013 JUMP JUMPDEST POP PUSH2 0x5DC DUP3 PUSH2 0x1099 JUMP JUMPDEST SWAP1 POP SWAP2 SWAP1 POP JUMP JUMPDEST PUSH2 0x5F5 DUP3 DUP3 PUSH2 0x5F0 PUSH2 0x10D2 JUMP JUMPDEST PUSH2 0x10D9 JUMP JUMPDEST POP POP JUMP JUMPDEST PUSH1 0x60 PUSH0 PUSH1 0xB PUSH0 DUP5 PUSH20 0xFFFFFFFFFFFFFFFFFFFFFFFFFFFFFFFFFFFFFFFF AND PUSH20 0xFFFFFFFFFFFFFFFFFFFFFFFFFFFFFFFFFFFFFFFF AND DUP2 MSTORE PUSH1 0x20 ADD SWAP1 DUP2 MSTORE PUSH1 0x20 ADD PUSH0 KECCAK256 DUP1 SLOAD DUP1 PUSH1 0x20 MUL PUSH1 0x20 ADD PUSH1 0x40 MLOAD SWAP1 DUP2 ADD PUSH1 0x40 MSTORE DUP1 SWAP3 SWAP2 SWAP1 DUP2 DUP2 MSTORE PUSH1 0x20 ADD DUP3 DUP1 SLOAD DUP1 ISZERO PUSH2 0x681 JUMPI PUSH1 0x20 MUL DUP3 ADD SWAP2 SWAP1 PUSH0 MSTORE PUSH1 0x20 PUSH0 KECCAK256 SWAP1 JUMPDEST DUP2 SLOAD DUP2 MSTORE PUSH1 0x20 ADD SWAP1 PUSH1 0x1 ADD SWAP1 DUP1 DUP4 GT PUSH2 0x66D JUMPI JUMPDEST POP POP POP POP POP SWAP1 POP PUSH0 DUP2 MLOAD PUSH8 0xFFFFFFFFFFFFFFFF DUP2 GT ISZERO PUSH2 0x6A4 JUMPI PUSH2 0x6A3 PUSH2 0x2418 JUMP JUMPDEST JUMPDEST PUSH1 0x40 MLOAD SWAP1 DUP1 DUP3 MSTORE DUP1 PUSH1 0x20 MUL PUSH1 0x20 ADD DUP3 ADD PUSH1 0x40 MSTORE DUP1 ISZERO PUSH2 0x6DD JUMPI DUP2 PUSH1 0x20 ADD JUMPDEST PUSH2 0x6CA PUSH2 0x1F76 JUMP JUMPDEST DUP2 MSTORE PUSH1 0x20 ADD SWAP1 PUSH1 0x1 SWAP1 SUB SWAP1 DUP2 PUSH2 0x6C2 JUMPI SWAP1 POP JUMPDEST POP SWAP1 POP PUSH0 JUMPDEST DUP3 MLOAD DUP2 LT ISZERO PUSH2 0x767 JUMPI PUSH1 0x40 MLOAD DUP1 PUSH1 0x40 ADD PUSH1 0x40 MSTORE DUP1 DUP5 DUP4 DUP2 MLOAD DUP2 LT PUSH2 0x709 JUMPI PUSH2 0x708 PUSH2 0x2A66 JUMP JUMPDEST JUMPDEST PUSH1 0x20 MUL PUSH1 0x20 ADD ADD MLOAD DUP2 MSTORE PUSH1 0x20 ADD PUSH2 0x739 DUP6 DUP5 DUP2 MLOAD DUP2 LT PUSH2 0x72C JUMPI PUSH2 0x72B PUSH2 0x2A66 JUMP JUMPDEST JUMPDEST PUSH1 0x20 MUL PUSH1 0x20 ADD ADD MLOAD PUSH2 0xE32 JUMP JUMPDEST DUP2 MSTORE POP DUP3 DUP3 DUP2 MLOAD DUP2 LT PUSH2 0x74F JUMPI PUSH2 0x74E PUSH2 0x2A66 JUMP JUMPDEST JUMPDEST PUSH1 0x20 MUL PUSH1 0x20 ADD ADD DUP2 SWAP1 MSTORE POP DUP1 DUP1 PUSH1 0x1 ADD SWAP2 POP POP PUSH2 0x6E2 JUMP JUMPDEST POP DUP1 SWAP3 POP POP POP SWAP2 SWAP1 POP JUMP JUMPDEST PUSH0 PUSH20 0xFFFFFFFFFFFFFFFFFFFFFFFFFFFFFFFFFFFFFFFF AND DUP3 PUSH20 0xFFFFFFFFFFFFFFFFFFFFFFFFFFFFFFFFFFFFFFFF AND SUB PUSH2 0x7E2 JUMPI PUSH0 PUSH1 0x40 MLOAD PUSH32 0x64A0AE9200000000000000000000000000000000000000000000000000000000 DUP2 MSTORE PUSH1 0x4 ADD PUSH2 0x7D9 SWAP2 SWAP1 PUSH2 0x2180 JUMP JUMPDEST PUSH1 0x40 MLOAD DUP1 SWAP2 SUB SWAP1 REVERT JUMPDEST PUSH0 PUSH2 0x7F5 DUP4 DUP4 PUSH2 0x7F0 PUSH2 0x10D2 JUMP JUMPDEST PUSH2 0x10EB JUMP JUMPDEST SWAP1 POP DUP4 PUSH20 0xFFFFFFFFFFFFFFFFFFFFFFFFFFFFFFFFFFFFFFFF AND DUP2 PUSH20 0xFFFFFFFFFFFFFFFFFFFFFFFFFFFFFFFFFFFFFFFF AND EQ PUSH2 0x86B JUMPI DUP4 DUP3 DUP3 PUSH1 0x40 MLOAD PUSH32 0x64283D7B00000000000000000000000000000000000000000000000000000000 DUP2 MSTORE PUSH1 0x4 ADD PUSH2 0x862 SWAP4 SWAP3 SWAP2 SWAP1 PUSH2 0x2A93 JUMP JUMPDEST PUSH1 0x40 MLOAD DUP1 SWAP2 SUB SWAP1 REVERT JUMPDEST POP POP POP POP JUMP JUMPDEST PUSH1 0x9 SLOAD DUP2 JUMP JUMPDEST PUSH0 PUSH2 0x880 PUSH2 0x11B5 JUMP JUMPDEST PUSH0 PUSH1 0x9 SLOAD EQ PUSH2 0x8D0 JUMPI PUSH1 0x9 SLOAD PUSH1 0x7 SLOAD LT PUSH2 0x8CF JUMPI PUSH1 0x40 MLOAD PUSH32 0x8C379A000000000000000000000000000000000000000000000000000000000 DUP2 MSTORE PUSH1 0x4 ADD PUSH2 0x8C6 SWAP1 PUSH2 0x2B12 JUMP JUMPDEST PUSH1 0x40 MLOAD DUP1 SWAP2 SUB SWAP1 REVERT JUMPDEST JUMPDEST PUSH1 0xA PUSH0 SWAP1 SLOAD SWAP1 PUSH2 0x100 EXP SWAP1 DIV PUSH1 0xFF AND ISZERO PUSH2 0x92F JUMPI PUSH0 PUSH2 0x8EE DUP5 PUSH2 0xC7E JUMP JUMPDEST EQ PUSH2 0x92E JUMPI PUSH1 0x40 MLOAD PUSH32 0x8C379A000000000000000000000000000000000000000000000000000000000 DUP2 MSTORE PUSH1 0x4 ADD PUSH2 0x925 SWAP1 PUSH2 0x2B7A JUMP JUMPDEST PUSH1 0x40 MLOAD DUP1 SWAP2 SUB SWAP1 REVERT JUMPDEST JUMPDEST PUSH1 0x7 PUSH0 DUP2 SLOAD DUP1 SWAP3 SWAP2 SWAP1 PUSH2 0x941 SWAP1 PUSH2 0x2BC5 JUMP JUMPDEST SWAP2 SWAP1 POP SSTORE POP PUSH2 0x950 DUP4 DUP4 PUSH2 0x123C JUMP JUMPDEST PUSH1 0xB PUSH0 DUP5 PUSH20 0xFFFFFFFFFFFFFFFFFFFFFFFFFFFFFFFFFFFFFFFF AND PUSH20 0xFFFFFFFFFFFFFFFFFFFFFFFFFFFFFFFFFFFFFFFF AND DUP2 MSTORE PUSH1 0x20 ADD SWAP1 DUP2 MSTORE PUSH1 0x20 ADD PUSH0 KECCAK256 DUP3 SWAP1 DUP1 PUSH1 0x1 DUP2 SLOAD ADD DUP1 DUP3 SSTORE DUP1 SWAP2 POP POP PUSH1 0x1 SWAP1 SUB SWAP1 PUSH0 MSTORE PUSH1 0x20 PUSH0 KECCAK256 ADD PUSH0 SWAP1 SWAP2 SWAP1 SWAP2 SWAP1 SWAP2 POP SSTORE DUP2 SWAP1 POP SWAP3 SWAP2 POP POP JUMP JUMPDEST PUSH2 0x9D4 DUP4 DUP4 DUP4 PUSH1 0x40 MLOAD DUP1 PUSH1 0x20 ADD PUSH1 0x40 MSTORE DUP1 PUSH0 DUP2 MSTORE POP PUSH2 0xE15 JUMP JUMPDEST POP POP POP JUMP JUMPDEST PUSH2 0x9E1 PUSH2 0x11B5 JUMP JUMPDEST DUP1 PUSH1 0x8 SWAP1 DUP2 PUSH2 0x9F0 SWAP2 SWAP1 PUSH2 0x2DA9 JUMP JUMPDEST POP POP JUMP JUMPDEST PUSH0 PUSH2 0x9FE DUP3 PUSH2 0x1013 JUMP JUMPDEST SWAP1 POP SWAP2 SWAP1 POP JUMP JUMPDEST PUSH1 0x60 PUSH2 0xA0F PUSH2 0x11B5 JUMP JUMPDEST PUSH0 DUP4 MLOAD PUSH8 0xFFFFFFFFFFFFFFFF DUP2 GT ISZERO PUSH2 0xA2B JUMPI PUSH2 0xA2A PUSH2 0x2418 JUMP JUMPDEST JUMPDEST PUSH1 0x40 MLOAD SWAP1 DUP1 DUP3 MSTORE DUP1 PUSH1 0x20 MUL PUSH1 0x20 ADD DUP3 ADD PUSH1 0x40 MSTORE DUP1 ISZERO PUSH2 0xA59 JUMPI DUP2 PUSH1 0x20 ADD PUSH1 0x20 DUP3 MUL DUP1 CALLDATASIZE DUP4 CALLDATACOPY DUP1 DUP3 ADD SWAP2 POP POP SWAP1 POP JUMPDEST POP SWAP1 POP PUSH0 JUMPDEST DUP5 MLOAD DUP2 LT ISZERO PUSH2 0xC61 JUMPI PUSH0 PUSH1 0x9 SLOAD EQ PUSH2 0xAB7 JUMPI PUSH1 0x9 SLOAD PUSH1 0x7 SLOAD LT PUSH2 0xAB6 JUMPI PUSH1 0x40 MLOAD PUSH32 0x8C379A000000000000000000000000000000000000000000000000000000000 DUP2 MSTORE PUSH1 0x4 ADD PUSH2 0xAAD SWAP1 PUSH2 0x2B12 JUMP JUMPDEST PUSH1 0x40 MLOAD DUP1 SWAP2 SUB SWAP1 REVERT JUMPDEST JUMPDEST PUSH1 0xA PUSH0 SWAP1 SLOAD SWAP1 PUSH2 0x100 EXP SWAP1 DIV PUSH1 0xFF AND ISZERO PUSH2 0xB30 JUMPI PUSH0 PUSH2 0xAEF DUP7 DUP4 DUP2 MLOAD DUP2 LT PUSH2 0xAE2 JUMPI PUSH2 0xAE1 PUSH2 0x2A66 JUMP JUMPDEST JUMPDEST PUSH1 0x20 MUL PUSH1 0x20 ADD ADD MLOAD PUSH2 0xC7E JUMP JUMPDEST EQ PUSH2 0xB2F JUMPI PUSH1 0x40 MLOAD PUSH32 0x8C379A000000000000000000000000000000000000000000000000000000000 DUP2 MSTORE PUSH1 0x4 ADD PUSH2 0xB26 SWAP1 PUSH2 0x2B7A JUMP JUMPDEST PUSH1 0x40 MLOAD DUP1 SWAP2 SUB SWAP1 REVERT JUMPDEST JUMPDEST PUSH1 0x7 PUSH0 DUP2 SLOAD DUP1 SWAP3 SWAP2 SWAP1 PUSH2 0xB42 SWAP1 PUSH2 0x2BC5 JUMP JUMPDEST SWAP2 SWAP1 POP SSTORE POP PUSH2 0xB85 DUP6 DUP3 DUP2 MLOAD DUP2 LT PUSH2 0xB5D JUMPI PUSH2 0xB5C PUSH2 0x2A66 JUMP JUMPDEST JUMPDEST PUSH1 0x20 MUL PUSH1 0x20 ADD ADD MLOAD DUP6 DUP4 DUP2 MLOAD DUP2 LT PUSH2 0xB78 JUMPI PUSH2 0xB77 PUSH2 0x2A66 JUMP JUMPDEST JUMPDEST PUSH1 0x20 MUL PUSH1 0x20 ADD ADD MLOAD PUSH2 0x123C JUMP JUMPDEST PUSH1 0xB PUSH0 DUP7 DUP4 DUP2 MLOAD DUP2 LT PUSH2 0xB9B JUMPI PUSH2 0xB9A PUSH2 0x2A66 JUMP JUMPDEST JUMPDEST PUSH1 0x20 MUL PUSH1 0x20 ADD ADD MLOAD PUSH20 0xFFFFFFFFFFFFFFFFFFFFFFFFFFFFFFFFFFFFFFFF AND PUSH20 0xFFFFFFFFFFFFFFFFFFFFFFFFFFFFFFFFFFFFFFFF AND DUP2 MSTORE PUSH1 0x20 ADD SWAP1 DUP2 MSTORE PUSH1 0x20 ADD PUSH0 KECCAK256 DUP5 DUP3 DUP2 MLOAD DUP2 LT PUSH2 0xBEF JUMPI PUSH2 0xBEE PUSH2 0x2A66 JUMP JUMPDEST JUMPDEST PUSH1 0x20 MUL PUSH1 0x20 ADD ADD MLOAD SWAP1 DUP1 PUSH1 0x1 DUP2 SLOAD ADD DUP1 DUP3 SSTORE DUP1 SWAP2 POP POP PUSH1 0x1 SWAP1 SUB SWAP1 PUSH0 MSTORE PUSH1 0x20 PUSH0 KECCAK256 ADD PUSH0 SWAP1 SWAP2 SWAP1 SWAP2 SWAP1 SWAP2 POP SSTORE DUP4 DUP2 DUP2 MLOAD DUP2 LT PUSH2 0xC2D JUMPI PUSH2 0xC2C PUSH2 0x2A66 JUMP JUMPDEST JUMPDEST PUSH1 0x20 MUL PUSH1 0x20 ADD ADD MLOAD DUP3 DUP3 DUP2 MLOAD DUP2 LT PUSH2 0xC48 JUMPI PUSH2 0xC47 PUSH2 0x2A66 JUMP JUMPDEST JUMPDEST PUSH1 0x20 MUL PUSH1 0x20 ADD ADD DUP2 DUP2 MSTORE POP POP DUP1 DUP1 PUSH1 0x1 ADD SWAP2 POP POP PUSH2 0xA5E JUMP JUMPDEST POP DUP1 SWAP2 POP POP SWAP3 SWAP2 POP POP JUMP JUMPDEST PUSH1 0xA PUSH0 SWAP1 SLOAD SWAP1 PUSH2 0x100 EXP SWAP1 DIV PUSH1 0xFF AND DUP2 JUMP JUMPDEST PUSH0 DUP1 PUSH20 0xFFFFFFFFFFFFFFFFFFFFFFFFFFFFFFFFFFFFFFFF AND DUP3 PUSH20 0xFFFFFFFFFFFFFFFFFFFFFFFFFFFFFFFFFFFFFFFF AND SUB PUSH2 0xCEF JUMPI PUSH0 PUSH1 0x40 MLOAD PUSH32 0x89C62B6400000000000000000000000000000000000000000000000000000000 DUP2 MSTORE PUSH1 0x4 ADD PUSH2 0xCE6 SWAP2 SWAP1 PUSH2 0x2180 JUMP JUMPDEST PUSH1 0x40 MLOAD DUP1 SWAP2 SUB SWAP1 REVERT JUMPDEST PUSH1 0x3 PUSH0 DUP4 PUSH20 0xFFFFFFFFFFFFFFFFFFFFFFFFFFFFFFFFFFFFFFFF AND PUSH20 0xFFFFFFFFFFFFFFFFFFFFFFFFFFFFFFFFFFFFFFFF AND DUP2 MSTORE PUSH1 0x20 ADD SWAP1 DUP2 MSTORE PUSH1 0x20 ADD PUSH0 KECCAK256 SLOAD SWAP1 POP SWAP2 SWAP1 POP JUMP JUMPDEST PUSH2 0xD3C PUSH2 0x11B5 JUMP JUMPDEST PUSH2 0xD45 PUSH0 PUSH2 0x1259 JUMP JUMPDEST JUMP JUMPDEST PUSH0 PUSH1 0x6 PUSH0 SWAP1 SLOAD SWAP1 PUSH2 0x100 EXP SWAP1 DIV PUSH20 0xFFFFFFFFFFFFFFFFFFFFFFFFFFFFFFFFFFFFFFFF AND SWAP1 POP SWAP1 JUMP JUMPDEST PUSH1 0x60 PUSH1 0x1 DUP1 SLOAD PUSH2 0xD7E SWAP1 PUSH2 0x2A36 JUMP JUMPDEST DUP1 PUSH1 0x1F ADD PUSH1 0x20 DUP1 SWAP2 DIV MUL PUSH1 0x20 ADD PUSH1 0x40 MLOAD SWAP1 DUP2 ADD PUSH1 0x40 MSTORE DUP1 SWAP3 SWAP2 SWAP1 DUP2 DUP2 MSTORE PUSH1 0x20 ADD DUP3 DUP1 SLOAD PUSH2 0xDAA SWAP1 PUSH2 0x2A36 JUMP JUMPDEST DUP1 ISZERO PUSH2 0xDF5 JUMPI DUP1 PUSH1 0x1F LT PUSH2 0xDCC JUMPI PUSH2 0x100 DUP1 DUP4 SLOAD DIV MUL DUP4 MSTORE SWAP2 PUSH1 0x20 ADD SWAP2 PUSH2 0xDF5 JUMP JUMPDEST DUP3 ADD SWAP2 SWAP1 PUSH0 MSTORE PUSH1 0x20 PUSH0 KECCAK256 SWAP1 JUMPDEST DUP2 SLOAD DUP2 MSTORE SWAP1 PUSH1 0x1 ADD SWAP1 PUSH1 0x20 ADD DUP1 DUP4 GT PUSH2 0xDD8 JUMPI DUP3 SWAP1 SUB PUSH1 0x1F AND DUP3 ADD SWAP2 JUMPDEST POP POP POP POP POP SWAP1 POP SWAP1 JUMP JUMPDEST PUSH2 0xE11 PUSH2 0xE0A PUSH2 0x10D2 JUMP JUMPDEST DUP4 DUP4 PUSH2 0x131C JUMP JUMPDEST POP POP JUMP JUMPDEST PUSH2 0xE20 DUP5 DUP5 DUP5 PUSH2 0x772 JUMP JUMPDEST PUSH2 0xE2C DUP5 DUP5 DUP5 DUP5 PUSH2 0x1485 JUMP JUMPDEST POP POP POP POP JUMP JUMPDEST PUSH1 0x60 PUSH2 0xE3D DUP3 PUSH2 0x1013 JUMP JUMPDEST POP PUSH0 PUSH2 0xE47 PUSH2 0x1637 JUMP JUMPDEST SWAP1 POP PUSH0 DUP2 MLOAD GT PUSH2 0xE65 JUMPI PUSH1 0x40 MLOAD DUP1 PUSH1 0x20 ADD PUSH1 0x40 MSTORE DUP1 PUSH0 DUP2 MSTORE POP PUSH2 0xE90 JUMP JUMPDEST DUP1 PUSH2 0xE6F DUP5 PUSH2 0x16C7 JUMP JUMPDEST PUSH1 0x40 MLOAD PUSH1 0x20 ADD PUSH2 0xE80 SWAP3 SWAP2 SWAP1 PUSH2 0x2EB2 JUMP JUMPDEST PUSH1 0x40 MLOAD PUSH1 0x20 DUP2 DUP4 SUB SUB DUP2 MSTORE SWAP1 PUSH1 0x40 MSTORE JUMPDEST SWAP2 POP POP SWAP2 SWAP1 POP JUMP JUMPDEST PUSH0 PUSH1 0x5 PUSH0 DUP5 PUSH20 0xFFFFFFFFFFFFFFFFFFFFFFFFFFFFFFFFFFFFFFFF AND PUSH20 0xFFFFFFFFFFFFFFFFFFFFFFFFFFFFFFFFFFFFFFFF AND DUP2 MSTORE PUSH1 0x20 ADD SWAP1 DUP2 MSTORE PUSH1 0x20 ADD PUSH0 KECCAK256 PUSH0 DUP4 PUSH20 0xFFFFFFFFFFFFFFFFFFFFFFFFFFFFFFFFFFFFFFFF AND PUSH20 0xFFFFFFFFFFFFFFFFFFFFFFFFFFFFFFFFFFFFFFFF AND DUP2 MSTORE PUSH1 0x20 ADD SWAP1 DUP2 MSTORE PUSH1 0x20 ADD PUSH0 KECCAK256 PUSH0 SWAP1 SLOAD SWAP1 PUSH2 0x100 EXP SWAP1 DIV PUSH1 0xFF AND SWAP1 POP SWAP3 SWAP2 POP POP JUMP JUMPDEST PUSH2 0xF2E PUSH2 0x11B5 JUMP JUMPDEST PUSH0 PUSH20 0xFFFFFFFFFFFFFFFFFFFFFFFFFFFFFFFFFFFFFFFF AND DUP2 PUSH20 0xFFFFFFFFFFFFFFFFFFFFFFFFFFFFFFFFFFFFFFFF AND SUB PUSH2 0xF9E JUMPI PUSH0 PUSH1 0x40 MLOAD PUSH32 0x1E4FBDF700000000000000000000000000000000000000000000000000000000 DUP2 MSTORE PUSH1 0x4 ADD PUSH2 0xF95 SWAP2 SWAP1 PUSH2 0x2180 JUMP JUMPDEST PUSH1 0x40 MLOAD DUP1 SWAP2 SUB SWAP1 REVERT JUMPDEST PUSH2 0xFA7 DUP2 PUSH2 0x1259 JUMP JUMPDEST POP JUMP JUMPDEST PUSH0 PUSH32 0x1FFC9A700000000000000000000000000000000000000000000000000000000 PUSH28 0xFFFFFFFFFFFFFFFFFFFFFFFFFFFFFFFFFFFFFFFFFFFFFFFFFFFFFFFF NOT AND DUP3 PUSH28 0xFFFFFFFFFFFFFFFFFFFFFFFFFFFFFFFFFFFFFFFFFFFFFFFFFFFFFFFF NOT AND EQ SWAP1 POP SWAP2 SWAP1 POP JUMP JUMPDEST PUSH0 DUP1 PUSH2 0x101E DUP4 PUSH2 0x1791 JUMP JUMPDEST SWAP1 POP PUSH0 PUSH20 0xFFFFFFFFFFFFFFFFFFFFFFFFFFFFFFFFFFFFFFFF AND DUP2 PUSH20 0xFFFFFFFFFFFFFFFFFFFFFFFFFFFFFFFFFFFFFFFF AND SUB PUSH2 0x1090 JUMPI DUP3 PUSH1 0x40 MLOAD PUSH32 0x7E27328900000000000000000000000000000000000000000000000000000000 DUP2 MSTORE PUSH1 0x4 ADD PUSH2 0x1087 SWAP2 SWAP1 PUSH2 0x23F7 JUMP JUMPDEST PUSH1 0x40 MLOAD DUP1 SWAP2 SUB SWAP1 REVERT JUMPDEST DUP1 SWAP2 POP POP SWAP2 SWAP1 POP JUMP JUMPDEST PUSH0 PUSH1 0x4 PUSH0 DUP4 DUP2 MSTORE PUSH1 0x20 ADD SWAP1 DUP2 MSTORE PUSH1 0x20 ADD PUSH0 KECCAK256 PUSH0 SWAP1 SLOAD SWAP1 PUSH2 0x100 EXP SWAP1 DIV PUSH20 0xFFFFFFFFFFFFFFFFFFFFFFFFFFFFFFFFFFFFFFFF AND SWAP1 POP SWAP2 SWAP1 POP JUMP JUMPDEST PUSH0 CALLER SWAP1 POP SWAP1 JUMP JUMPDEST PUSH2 0x10E6 DUP4 DUP4 DUP4 PUSH1 0x1 PUSH2 0x17CA JUMP JUMPDEST POP POP POP JUMP JUMPDEST PUSH0 DUP1 PUSH2 0x10F6 DUP5 PUSH2 0x1791 JUMP JUMPDEST SWAP1 POP PUSH0 PUSH20 0xFFFFFFFFFFFFFFFFFFFFFFFFFFFFFFFFFFFFFFFF AND DUP2 PUSH20 0xFFFFFFFFFFFFFFFFFFFFFFFFFFFFFFFFFFFFFFFF AND EQ ISZERO DUP1 ISZERO PUSH2 0x1160 JUMPI POP PUSH0 PUSH20 0xFFFFFFFFFFFFFFFFFFFFFFFFFFFFFFFFFFFFFFFF AND DUP6 PUSH20 0xFFFFFFFFFFFFFFFFFFFFFFFFFFFFFFFFFFFFFFFF AND EQ ISZERO JUMPDEST ISZERO PUSH2 0x11A0 JUMPI PUSH1 0x40 MLOAD PUSH32 0x8C379A000000000000000000000000000000000000000000000000000000000 DUP2 MSTORE PUSH1 0x4 ADD PUSH2 0x1197 SWAP1 PUSH2 0x2F1F JUMP JUMPDEST PUSH1 0x40 MLOAD DUP1 SWAP2 SUB SWAP1 REVERT JUMPDEST PUSH2 0x11AB DUP6 DUP6 DUP6 PUSH2 0x1989 JUMP JUMPDEST SWAP2 POP POP SWAP4 SWAP3 POP POP POP JUMP JUMPDEST PUSH2 0x11BD PUSH2 0x10D2 JUMP JUMPDEST PUSH20 0xFFFFFFFFFFFFFFFFFFFFFFFFFFFFFFFFFFFFFFFF AND PUSH2 0x11DB PUSH2 0xD47 JUMP JUMPDEST PUSH20 0xFFFFFFFFFFFFFFFFFFFFFFFFFFFFFFFFFFFFFFFF AND EQ PUSH2 0x123A JUMPI PUSH2 0x11FE PUSH2 0x10D2 JUMP JUMPDEST PUSH1 0x40 MLOAD PUSH32 0x118CDAA700000000000000000000000000000000000000000000000000000000 DUP2 MSTORE PUSH1 0x4 ADD PUSH2 0x1231 SWAP2 SWAP1 PUSH2 0x2180 JUMP JUMPDEST PUSH1 0x40 MLOAD DUP1 SWAP2 SUB SWAP1 REVERT JUMPDEST JUMP JUMPDEST PUSH2 0x1255 DUP3 DUP3 PUSH1 0x40 MLOAD DUP1 PUSH1 0x20 ADD PUSH1 0x40 MSTORE DUP1 PUSH0 DUP2 MSTORE POP PUSH2 0x1B94 JUMP JUMPDEST POP POP JUMP JUMPDEST PUSH0 PUSH1 0x6 PUSH0 SWAP1 SLOAD SWAP1 PUSH2 0x100 EXP SWAP1 DIV PUSH20 0xFFFFFFFFFFFFFFFFFFFFFFFFFFFFFFFFFFFFFFFF AND SWAP1 POP DUP2 PUSH1 0x6 PUSH0 PUSH2 0x100 EXP DUP2 SLOAD DUP2 PUSH20 0xFFFFFFFFFFFFFFFFFFFFFFFFFFFFFFFFFFFFFFFF MUL NOT AND SWAP1 DUP4 PUSH20 0xFFFFFFFFFFFFFFFFFFFFFFFFFFFFFFFFFFFFFFFF AND MUL OR SWAP1 SSTORE POP DUP2 PUSH20 0xFFFFFFFFFFFFFFFFFFFFFFFFFFFFFFFFFFFFFFFF AND DUP2 PUSH20 0xFFFFFFFFFFFFFFFFFFFFFFFFFFFFFFFFFFFFFFFF AND PUSH32 0x8BE0079C531659141344CD1FD0A4F28419497F9722A3DAAFE3B4186F6B6457E0 PUSH1 0x40 MLOAD PUSH1 0x40 MLOAD DUP1 SWAP2 SUB SWAP1 LOG3 POP POP JUMP JUMPDEST PUSH0 PUSH20 0xFFFFFFFFFFFFFFFFFFFFFFFFFFFFFFFFFFFFFFFF AND DUP3 PUSH20 0xFFFFFFFFFFFFFFFFFFFFFFFFFFFFFFFFFFFFFFFF AND SUB PUSH2 0x138C JUMPI DUP2 PUSH1 0x40 MLOAD PUSH32 0x5B08BA1800000000000000000000000000000000000000000000000000000000 DUP2 MSTORE PUSH1 0x4 ADD PUSH2 0x1383 SWAP2 SWAP1 PUSH2 0x2180 JUMP JUMPDEST PUSH1 0x40 MLOAD DUP1 SWAP2 SUB SWAP1 REVERT JUMPDEST DUP1 PUSH1 0x5 PUSH0 DUP6 PUSH20 0xFFFFFFFFFFFFFFFFFFFFFFFFFFFFFFFFFFFFFFFF AND PUSH20 0xFFFFFFFFFFFFFFFFFFFFFFFFFFFFFFFFFFFFFFFF AND DUP2 MSTORE PUSH1 0x20 ADD SWAP1 DUP2 MSTORE PUSH1 0x20 ADD PUSH0 KECCAK256 PUSH0 DUP5 PUSH20 0xFFFFFFFFFFFFFFFFFFFFFFFFFFFFFFFFFFFFFFFF AND PUSH20 0xFFFFFFFFFFFFFFFFFFFFFFFFFFFFFFFFFFFFFFFF AND DUP2 MSTORE PUSH1 0x20 ADD SWAP1 DUP2 MSTORE PUSH1 0x20 ADD PUSH0 KECCAK256 PUSH0 PUSH2 0x100 EXP DUP2 SLOAD DUP2 PUSH1 0xFF MUL NOT AND SWAP1 DUP4 ISZERO ISZERO MUL OR SWAP1 SSTORE POP DUP2 PUSH20 0xFFFFFFFFFFFFFFFFFFFFFFFFFFFFFFFFFFFFFFFF AND DUP4 PUSH20 0xFFFFFFFFFFFFFFFFFFFFFFFFFFFFFFFFFFFFFFFF AND PUSH32 0x17307EAB39AB6107E8899845AD3D59BD9653F200F220920489CA2B5937696C31 DUP4 PUSH1 0x40 MLOAD PUSH2 0x1478 SWAP2 SWAP1 PUSH2 0x203A JUMP JUMPDEST PUSH1 0x40 MLOAD DUP1 SWAP2 SUB SWAP1 LOG3 POP POP POP JUMP JUMPDEST PUSH0 DUP4 PUSH20 0xFFFFFFFFFFFFFFFFFFFFFFFFFFFFFFFFFFFFFFFF AND EXTCODESIZE GT ISZERO PUSH2 0x1631 JUMPI DUP3 PUSH20 0xFFFFFFFFFFFFFFFFFFFFFFFFFFFFFFFFFFFFFFFF AND PUSH4 0x150B7A02 PUSH2 0x14C8 PUSH2 0x10D2 JUMP JUMPDEST DUP7 DUP6 DUP6 PUSH1 0x40 MLOAD DUP6 PUSH4 0xFFFFFFFF AND PUSH1 0xE0 SHL DUP2 MSTORE PUSH1 0x4 ADD PUSH2 0x14EA SWAP5 SWAP4 SWAP3 SWAP2 SWAP1 PUSH2 0x2F8F JUMP JUMPDEST PUSH1 0x20 PUSH1 0x40 MLOAD DUP1 DUP4 SUB DUP2 PUSH0 DUP8 GAS CALL SWAP3 POP POP POP DUP1 ISZERO PUSH2 0x1525 JUMPI POP PUSH1 0x40 MLOAD RETURNDATASIZE PUSH1 0x1F NOT PUSH1 0x1F DUP3 ADD AND DUP3 ADD DUP1 PUSH1 0x40 MSTORE POP DUP2 ADD SWAP1 PUSH2 0x1522 SWAP2 SWAP1 PUSH2 0x2FED JUMP JUMPDEST PUSH1 0x1 JUMPDEST PUSH2 0x15A6 JUMPI RETURNDATASIZE DUP1 PUSH0 DUP2 EQ PUSH2 0x1553 JUMPI PUSH1 0x40 MLOAD SWAP2 POP PUSH1 0x1F NOT PUSH1 0x3F RETURNDATASIZE ADD AND DUP3 ADD PUSH1 0x40 MSTORE RETURNDATASIZE DUP3 MSTORE RETURNDATASIZE PUSH0 PUSH1 0x20 DUP5 ADD RETURNDATACOPY PUSH2 0x1558 JUMP JUMPDEST PUSH1 0x60 SWAP2 POP JUMPDEST POP PUSH0 DUP2 MLOAD SUB PUSH2 0x159E JUMPI DUP4 PUSH1 0x40 MLOAD PUSH32 0x64A0AE9200000000000000000000000000000000000000000000000000000000 DUP2 MSTORE PUSH1 0x4 ADD PUSH2 0x1595 SWAP2 SWAP1 PUSH2 0x2180 JUMP JUMPDEST PUSH1 0x40 MLOAD DUP1 SWAP2 SUB SWAP1 REVERT JUMPDEST DUP1 MLOAD DUP2 PUSH1 0x20 ADD REVERT JUMPDEST PUSH4 0x150B7A02 PUSH1 0xE0 SHL PUSH28 0xFFFFFFFFFFFFFFFFFFFFFFFFFFFFFFFFFFFFFFFFFFFFFFFFFFFFFFFF NOT AND DUP2 PUSH28 0xFFFFFFFFFFFFFFFFFFFFFFFFFFFFFFFFFFFFFFFFFFFFFFFFFFFFFFFF NOT AND EQ PUSH2 0x162F JUMPI DUP4 PUSH1 0x40 MLOAD PUSH32 0x64A0AE9200000000000000000000000000000000000000000000000000000000 DUP2 MSTORE PUSH1 0x4 ADD PUSH2 0x1626 SWAP2 SWAP1 PUSH2 0x2180 JUMP JUMPDEST PUSH1 0x40 MLOAD DUP1 SWAP2 SUB SWAP1 REVERT JUMPDEST POP JUMPDEST POP POP POP POP JUMP JUMPDEST PUSH1 0x60 PUSH1 0x8 DUP1 SLOAD PUSH2 0x1646 SWAP1 PUSH2 0x2A36 JUMP JUMPDEST DUP1 PUSH1 0x1F ADD PUSH1 0x20 DUP1 SWAP2 DIV MUL PUSH1 0x20 ADD PUSH1 0x40 MLOAD SWAP1 DUP2 ADD PUSH1 0x40 MSTORE DUP1 SWAP3 SWAP2 SWAP1 DUP2 DUP2 MSTORE PUSH1 0x20 ADD DUP3 DUP1 SLOAD PUSH2 0x1672 SWAP1 PUSH2 0x2A36 JUMP JUMPDEST DUP1 ISZERO PUSH2 0x16BD JUMPI DUP1 PUSH1 0x1F LT PUSH2 0x1694 JUMPI PUSH2 0x100 DUP1 DUP4 SLOAD DIV MUL DUP4 MSTORE SWAP2 PUSH1 0x20 ADD SWAP2 PUSH2 0x16BD JUMP JUMPDEST DUP3 ADD SWAP2 SWAP1 PUSH0 MSTORE PUSH1 0x20 PUSH0 KECCAK256 SWAP1 JUMPDEST DUP2 SLOAD DUP2 MSTORE SWAP1 PUSH1 0x1 ADD SWAP1 PUSH1 0x20 ADD DUP1 DUP4 GT PUSH2 0x16A0 JUMPI DUP3 SWAP1 SUB PUSH1 0x1F AND DUP3 ADD SWAP2 JUMPDEST POP POP POP POP POP SWAP1 POP SWAP1 JUMP JUMPDEST PUSH1 0x60 PUSH0 PUSH1 0x1 PUSH2 0x16D5 DUP5 PUSH2 0x1BAF JUMP JUMPDEST ADD SWAP1 POP PUSH0 DUP2 PUSH8 0xFFFFFFFFFFFFFFFF DUP2 GT ISZERO PUSH2 0x16F3 JUMPI PUSH2 0x16F2 PUSH2 0x2418 JUMP JUMPDEST JUMPDEST PUSH1 0x40 MLOAD SWAP1 DUP1 DUP3 MSTORE DUP1 PUSH1 0x1F ADD PUSH1 0x1F NOT AND PUSH1 0x20 ADD DUP3 ADD PUSH1 0x40 MSTORE DUP1 ISZERO PUSH2 0x1725 JUMPI DUP2 PUSH1 0x20 ADD PUSH1 0x1 DUP3 MUL DUP1 CALLDATASIZE DUP4 CALLDATACOPY DUP1 DUP3 ADD SWAP2 POP POP SWAP1 POP JUMPDEST POP SWAP1 POP PUSH0 DUP3 PUSH1 0x20 ADD DUP3 ADD SWAP1 POP JUMPDEST PUSH1 0x1 ISZERO PUSH2 0x1786 JUMPI DUP1 DUP1 PUSH1 0x1 SWAP1 SUB SWAP2 POP POP PUSH32 0x3031323334353637383961626364656600000000000000000000000000000000 PUSH1 0xA DUP7 MOD BYTE DUP2 MSTORE8 PUSH1 0xA DUP6 DUP2 PUSH2 0x177B JUMPI PUSH2 0x177A PUSH2 0x3018 JUMP JUMPDEST JUMPDEST DIV SWAP5 POP PUSH0 DUP6 SUB PUSH2 0x1732 JUMPI JUMPDEST DUP2 SWAP4 POP POP POP POP SWAP2 SWAP1 POP JUMP JUMPDEST PUSH0 PUSH1 0x2 PUSH0 DUP4 DUP2 MSTORE PUSH1 0x20 ADD SWAP1 DUP2 MSTORE PUSH1 0x20 ADD PUSH0 KECCAK256 PUSH0 SWAP1 SLOAD SWAP1 PUSH2 0x100 EXP SWAP1 DIV PUSH20 0xFFFFFFFFFFFFFFFFFFFFFFFFFFFFFFFFFFFFFFFF AND SWAP1 POP SWAP2 SWAP1 POP JUMP JUMPDEST DUP1 DUP1 PUSH2 0x1802 JUMPI POP PUSH0 PUSH20 0xFFFFFFFFFFFFFFFFFFFFFFFFFFFFFFFFFFFFFFFF AND DUP3 PUSH20 0xFFFFFFFFFFFFFFFFFFFFFFFFFFFFFFFFFFFFFFFF AND EQ ISZERO JUMPDEST ISZERO PUSH2 0x1934 JUMPI PUSH0 PUSH2 0x1811 DUP5 PUSH2 0x1013 JUMP JUMPDEST SWAP1 POP PUSH0 PUSH20 0xFFFFFFFFFFFFFFFFFFFFFFFFFFFFFFFFFFFFFFFF AND DUP4 PUSH20 0xFFFFFFFFFFFFFFFFFFFFFFFFFFFFFFFFFFFFFFFF AND EQ ISZERO DUP1 ISZERO PUSH2 0x187B JUMPI POP DUP3 PUSH20 0xFFFFFFFFFFFFFFFFFFFFFFFFFFFFFFFFFFFFFFFF AND DUP2 PUSH20 0xFFFFFFFFFFFFFFFFFFFFFFFFFFFFFFFFFFFFFFFF AND EQ ISZERO JUMPDEST DUP1 ISZERO PUSH2 0x188E JUMPI POP PUSH2 0x188C DUP2 DUP5 PUSH2 0xE98 JUMP JUMPDEST ISZERO JUMPDEST ISZERO PUSH2 0x18D0 JUMPI DUP3 PUSH1 0x40 MLOAD PUSH32 0xA9FBF51F00000000000000000000000000000000000000000000000000000000 DUP2 MSTORE PUSH1 0x4 ADD PUSH2 0x18C7 SWAP2 SWAP1 PUSH2 0x2180 JUMP JUMPDEST PUSH1 0x40 MLOAD DUP1 SWAP2 SUB SWAP1 REVERT JUMPDEST DUP2 ISZERO PUSH2 0x1932 JUMPI DUP4 DUP6 PUSH20 0xFFFFFFFFFFFFFFFFFFFFFFFFFFFFFFFFFFFFFFFF AND DUP3 PUSH20 0xFFFFFFFFFFFFFFFFFFFFFFFFFFFFFFFFFFFFFFFF AND PUSH32 0x8C5BE1E5EBEC7D5BD14F71427D1E84F3DD0314C0F7B2291E5B200AC8C7C3B925 PUSH1 0x40 MLOAD PUSH1 0x40 MLOAD DUP1 SWAP2 SUB SWAP1 LOG4 JUMPDEST POP JUMPDEST DUP4 PUSH1 0x4 PUSH0 DUP6 DUP2 MSTORE PUSH1 0x20 ADD SWAP1 DUP2 MSTORE PUSH1 0x20 ADD PUSH0 KECCAK256 PUSH0 PUSH2 0x100 EXP DUP2 SLOAD DUP2 PUSH20 0xFFFFFFFFFFFFFFFFFFFFFFFFFFFFFFFFFFFFFFFF MUL NOT AND SWAP1 DUP4 PUSH20 0xFFFFFFFFFFFFFFFFFFFFFFFFFFFFFFFFFFFFFFFF AND MUL OR SWAP1 SSTORE POP POP POP POP POP JUMP JUMPDEST PUSH0 DUP1 PUSH2 0x1994 DUP5 PUSH2 0x1791 JUMP JUMPDEST SWAP1 POP PUSH0 PUSH20 0xFFFFFFFFFFFFFFFFFFFFFFFFFFFFFFFFFFFFFFFF AND DUP4 PUSH20 0xFFFFFFFFFFFFFFFFFFFFFFFFFFFFFFFFFFFFFFFF AND EQ PUSH2 0x19D5 JUMPI PUSH2 0x19D4 DUP2 DUP5 DUP7 PUSH2 0x1D00 JUMP JUMPDEST JUMPDEST PUSH0 PUSH20 0xFFFFFFFFFFFFFFFFFFFFFFFFFFFFFFFFFFFFFFFF AND DUP2 PUSH20 0xFFFFFFFFFFFFFFFFFFFFFFFFFFFFFFFFFFFFFFFF AND EQ PUSH2 0x1A60 JUMPI PUSH2 0x1A14 PUSH0 DUP6 PUSH0 DUP1 PUSH2 0x17CA JUMP JUMPDEST PUSH1 0x1 PUSH1 0x3 PUSH0 DUP4 PUSH20 0xFFFFFFFFFFFFFFFFFFFFFFFFFFFFFFFFFFFFFFFF AND PUSH20 0xFFFFFFFFFFFFFFFFFFFFFFFFFFFFFFFFFFFFFFFF AND DUP2 MSTORE PUSH1 0x20 ADD SWAP1 DUP2 MSTORE PUSH1 0x20 ADD PUSH0 KECCAK256 PUSH0 DUP3 DUP3 SLOAD SUB SWAP3 POP POP DUP2 SWAP1 SSTORE POP JUMPDEST PUSH0 PUSH20 0xFFFFFFFFFFFFFFFFFFFFFFFFFFFFFFFFFFFFFFFF AND DUP6 PUSH20 0xFFFFFFFFFFFFFFFFFFFFFFFFFFFFFFFFFFFFFFFF AND EQ PUSH2 0x1ADF JUMPI PUSH1 0x1 PUSH1 0x3 PUSH0 DUP8 PUSH20 0xFFFFFFFFFFFFFFFFFFFFFFFFFFFFFFFFFFFFFFFF AND PUSH20 0xFFFFFFFFFFFFFFFFFFFFFFFFFFFFFFFFFFFFFFFF AND DUP2 MSTORE PUSH1 0x20 ADD SWAP1 DUP2 MSTORE PUSH1 0x20 ADD PUSH0 KECCAK256 PUSH0 DUP3 DUP3 SLOAD ADD SWAP3 POP POP DUP2 SWAP1 SSTORE POP JUMPDEST DUP5 PUSH1 0x2 PUSH0 DUP7 DUP2 MSTORE PUSH1 0x20 ADD SWAP1 DUP2 MSTORE PUSH1 0x20 ADD PUSH0 KECCAK256 PUSH0 PUSH2 0x100 EXP DUP2 SLOAD DUP2 PUSH20 0xFFFFFFFFFFFFFFFFFFFFFFFFFFFFFFFFFFFFFFFF MUL NOT AND SWAP1 DUP4 PUSH20 0xFFFFFFFFFFFFFFFFFFFFFFFFFFFFFFFFFFFFFFFF AND MUL OR SWAP1 SSTORE POP DUP4 DUP6 PUSH20 0xFFFFFFFFFFFFFFFFFFFFFFFFFFFFFFFFFFFFFFFF AND DUP3 PUSH20 0xFFFFFFFFFFFFFFFFFFFFFFFFFFFFFFFFFFFFFFFF AND PUSH32 0xDDF252AD1BE2C89B69C2B068FC378DAA952BA7F163C4A11628F55A4DF523B3EF PUSH1 0x40 MLOAD PUSH1 0x40 MLOAD DUP1 SWAP2 SUB SWAP1 LOG4 DUP1 SWAP2 POP POP SWAP4 SWAP3 POP POP POP JUMP JUMPDEST PUSH2 0x1B9E DUP4 DUP4 PUSH2 0x1DC3 JUMP JUMPDEST PUSH2 0x1BAA PUSH0 DUP5 DUP5 DUP5 PUSH2 0x1485 JUMP JUMPDEST POP POP POP JUMP JUMPDEST PUSH0 DUP1 PUSH0 SWAP1 POP PUSH27 0x184F03E93FF9F4DAA797ED6E38ED64BF6A1F010000000000000000 DUP4 LT PUSH2 0x1C0B JUMPI PUSH27 0x184F03E93FF9F4DAA797ED6E38ED64BF6A1F010000000000000000 DUP4 DUP2 PUSH2 0x1C01 JUMPI PUSH2 0x1C00 PUSH2 0x3018 JUMP JUMPDEST JUMPDEST DIV SWAP3 POP PUSH1 0x40 DUP2 ADD SWAP1 POP JUMPDEST PUSH14 0x4EE2D6D415B85ACEF8100000000 DUP4 LT PUSH2 0x1C48 JUMPI PUSH14 0x4EE2D6D415B85ACEF8100000000 DUP4 DUP2 PUSH2 0x1C3E JUMPI PUSH2 0x1C3D PUSH2 0x3018 JUMP JUMPDEST JUMPDEST DIV SWAP3 POP PUSH1 0x20 DUP2 ADD SWAP1 POP JUMPDEST PUSH7 0x2386F26FC10000 DUP4 LT PUSH2 0x1C77 JUMPI PUSH7 0x2386F26FC10000 DUP4 DUP2 PUSH2 0x1C6D JUMPI PUSH2 0x1C6C PUSH2 0x3018 JUMP JUMPDEST JUMPDEST DIV SWAP3 POP PUSH1 0x10 DUP2 ADD SWAP1 POP JUMPDEST PUSH4 0x5F5E100 DUP4 LT PUSH2 0x1CA0 JUMPI PUSH4 0x5F5E100 DUP4 DUP2 PUSH2 0x1C96 JUMPI PUSH2 0x1C95 PUSH2 0x3018 JUMP JUMPDEST JUMPDEST DIV SWAP3 POP PUSH1 0x8 DUP2 ADD SWAP1 POP JUMPDEST PUSH2 0x2710 DUP4 LT PUSH2 0x1CC5 JUMPI PUSH2 0x2710 DUP4 DUP2 PUSH2 0x1CBB JUMPI PUSH2 0x1CBA PUSH2 0x3018 JUMP JUMPDEST JUMPDEST DIV SWAP3 POP PUSH1 0x4 DUP2 ADD SWAP1 POP JUMPDEST PUSH1 0x64 DUP4 LT PUSH2 0x1CE8 JUMPI PUSH1 0x64 DUP4 DUP2 PUSH2 0x1CDE JUMPI PUSH2 0x1CDD PUSH2 0x3018 JUMP JUMPDEST JUMPDEST DIV SWAP3 POP PUSH1 0x2 DUP2 ADD SWAP1 POP JUMPDEST PUSH1 0xA DUP4 LT PUSH2 0x1CF7 JUMPI PUSH1 0x1 DUP2 ADD SWAP1 POP JUMPDEST DUP1 SWAP2 POP POP SWAP2 SWAP1 POP JUMP JUMPDEST PUSH2 0x1D0B DUP4 DUP4 DUP4 PUSH2 0x1EB6 JUMP JUMPDEST PUSH2 0x1DBE JUMPI PUSH0 PUSH20 0xFFFFFFFFFFFFFFFFFFFFFFFFFFFFFFFFFFFFFFFF AND DUP4 PUSH20 0xFFFFFFFFFFFFFFFFFFFFFFFFFFFFFFFFFFFFFFFF AND SUB PUSH2 0x1D7F JUMPI DUP1 PUSH1 0x40 MLOAD PUSH32 0x7E27328900000000000000000000000000000000000000000000000000000000 DUP2 MSTORE PUSH1 0x4 ADD PUSH2 0x1D76 SWAP2 SWAP1 PUSH2 0x23F7 JUMP JUMPDEST PUSH1 0x40 MLOAD DUP1 SWAP2 SUB SWAP1 REVERT JUMPDEST DUP2 DUP2 PUSH1 0x40 MLOAD PUSH32 0x177E802F00000000000000000000000000000000000000000000000000000000 DUP2 MSTORE PUSH1 0x4 ADD PUSH2 0x1DB5 SWAP3 SWAP2 SWAP1 PUSH2 0x3045 JUMP JUMPDEST PUSH1 0x40 MLOAD DUP1 SWAP2 SUB SWAP1 REVERT JUMPDEST POP POP POP JUMP JUMPDEST PUSH0 PUSH20 0xFFFFFFFFFFFFFFFFFFFFFFFFFFFFFFFFFFFFFFFF AND DUP3 PUSH20 0xFFFFFFFFFFFFFFFFFFFFFFFFFFFFFFFFFFFFFFFF AND SUB PUSH2 0x1E33 JUMPI PUSH0 PUSH1 0x40 MLOAD PUSH32 0x64A0AE9200000000000000000000000000000000000000000000000000000000 DUP2 MSTORE PUSH1 0x4 ADD PUSH2 0x1E2A SWAP2 SWAP1 PUSH2 0x2180 JUMP JUMPDEST PUSH1 0x40 MLOAD DUP1 SWAP2 SUB SWAP1 REVERT JUMPDEST PUSH0 PUSH2 0x1E3F DUP4 DUP4 PUSH0 PUSH2 0x10EB JUMP JUMPDEST SWAP1 POP PUSH0 PUSH20 0xFFFFFFFFFFFFFFFFFFFFFFFFFFFFFFFFFFFFFFFF AND DUP2 PUSH20 0xFFFFFFFFFFFFFFFFFFFFFFFFFFFFFFFFFFFFFFFF AND EQ PUSH2 0x1EB1 JUMPI PUSH0 PUSH1 0x40 MLOAD PUSH32 0x73C6AC6E00000000000000000000000000000000000000000000000000000000 DUP2 MSTORE PUSH1 0x4 ADD PUSH2 0x1EA8 SWAP2 SWAP1 PUSH2 0x2180 JUMP JUMPDEST PUSH1 0x40 MLOAD DUP1 SWAP2 SUB SWAP1 REVERT JUMPDEST POP POP POP JUMP JUMPDEST PUSH0 DUP1 PUSH20 0xFFFFFFFFFFFFFFFFFFFFFFFFFFFFFFFFFFFFFFFF AND DUP4 PUSH20 0xFFFFFFFFFFFFFFFFFFFFFFFFFFFFFFFFFFFFFFFF AND EQ ISZERO DUP1 ISZERO PUSH2 0x1F6D JUMPI POP DUP3 PUSH20 0xFFFFFFFFFFFFFFFFFFFFFFFFFFFFFFFFFFFFFFFF AND DUP5 PUSH20 0xFFFFFFFFFFFFFFFFFFFFFFFFFFFFFFFFFFFFFFFF AND EQ DUP1 PUSH2 0x1F2E JUMPI POP PUSH2 0x1F2D DUP5 DUP5 PUSH2 0xE98 JUMP JUMPDEST JUMPDEST DUP1 PUSH2 0x1F6C JUMPI POP DUP3 PUSH20 0xFFFFFFFFFFFFFFFFFFFFFFFFFFFFFFFFFFFFFFFF AND PUSH2 0x1F54 DUP4 PUSH2 0x1099 JUMP JUMPDEST PUSH20 0xFFFFFFFFFFFFFFFFFFFFFFFFFFFFFFFFFFFFFFFF AND EQ JUMPDEST JUMPDEST SWAP1 POP SWAP4 SWAP3 POP POP POP JUMP JUMPDEST PUSH1 0x40 MLOAD DUP1 PUSH1 0x40 ADD PUSH1 0x40 MSTORE DUP1 PUSH0 DUP2 MSTORE PUSH1 0x20 ADD PUSH1 0x60 DUP2 MSTORE POP SWAP1 JUMP JUMPDEST PUSH0 PUSH1 0x40 MLOAD SWAP1 POP SWAP1 JUMP JUMPDEST PUSH0 DUP1 REVERT JUMPDEST PUSH0 DUP1 REVERT JUMPDEST PUSH0 PUSH32 0xFFFFFFFF00000000000000000000000000000000000000000000000000000000 DUP3 AND SWAP1 POP SWAP2 SWAP1 POP JUMP JUMPDEST PUSH2 0x1FD4 DUP2 PUSH2 0x1FA0 JUMP JUMPDEST DUP2 EQ PUSH2 0x1FDE JUMPI PUSH0 DUP1 REVERT JUMPDEST POP JUMP JUMPDEST PUSH0 DUP2 CALLDATALOAD SWAP1 POP PUSH2 0x1FEF DUP2 PUSH2 0x1FCB JUMP JUMPDEST SWAP3 SWAP2 POP POP JUMP JUMPDEST PUSH0 PUSH1 0x20 DUP3 DUP5 SUB SLT ISZERO PUSH2 0x200A JUMPI PUSH2 0x2009 PUSH2 0x1F98 JUMP JUMPDEST JUMPDEST PUSH0 PUSH2 0x2017 DUP5 DUP3 DUP6 ADD PUSH2 0x1FE1 JUMP JUMPDEST SWAP2 POP POP SWAP3 SWAP2 POP POP JUMP JUMPDEST PUSH0 DUP2 ISZERO ISZERO SWAP1 POP SWAP2 SWAP1 POP JUMP JUMPDEST PUSH2 0x2034 DUP2 PUSH2 0x2020 JUMP JUMPDEST DUP3 MSTORE POP POP JUMP JUMPDEST PUSH0 PUSH1 0x20 DUP3 ADD SWAP1 POP PUSH2 0x204D PUSH0 DUP4 ADD DUP5 PUSH2 0x202B JUMP JUMPDEST SWAP3 SWAP2 POP POP JUMP JUMPDEST PUSH0 DUP2 MLOAD SWAP1 POP SWAP2 SWAP1 POP JUMP JUMPDEST PUSH0 DUP3 DUP3 MSTORE PUSH1 0x20 DUP3 ADD SWAP1 POP SWAP3 SWAP2 POP POP JUMP JUMPDEST DUP3 DUP2 DUP4 MCOPY PUSH0 DUP4 DUP4 ADD MSTORE POP POP POP JUMP JUMPDEST PUSH0 PUSH1 0x1F NOT PUSH1 0x1F DUP4 ADD AND SWAP1 POP SWAP2 SWAP1 POP JUMP JUMPDEST PUSH0 PUSH2 0x2095 DUP3 PUSH2 0x2053 JUMP JUMPDEST PUSH2 0x209F DUP2 DUP6 PUSH2 0x205D JUMP JUMPDEST SWAP4 POP PUSH2 0x20AF DUP2 DUP6 PUSH1 0x20 DUP7 ADD PUSH2 0x206D JUMP JUMPDEST PUSH2 0x20B8 DUP2 PUSH2 0x207B JUMP JUMPDEST DUP5 ADD SWAP2 POP POP SWAP3 SWAP2 POP POP JUMP JUMPDEST PUSH0 PUSH1 0x20 DUP3 ADD SWAP1 POP DUP2 DUP2 SUB PUSH0 DUP4 ADD MSTORE PUSH2 0x20DB DUP2 DUP5 PUSH2 0x208B JUMP JUMPDEST SWAP1 POP SWAP3 SWAP2 POP POP JUMP JUMPDEST PUSH0 DUP2 SWAP1 POP SWAP2 SWAP1 POP JUMP JUMPDEST PUSH2 0x20F5 DUP2 PUSH2 0x20E3 JUMP JUMPDEST DUP2 EQ PUSH2 0x20FF JUMPI PUSH0 DUP1 REVERT JUMPDEST POP JUMP JUMPDEST PUSH0 DUP2 CALLDATALOAD SWAP1 POP PUSH2 0x2110 DUP2 PUSH2 0x20EC JUMP JUMPDEST SWAP3 SWAP2 POP POP JUMP JUMPDEST PUSH0 PUSH1 0x20 DUP3 DUP5 SUB SLT ISZERO PUSH2 0x212B JUMPI PUSH2 0x212A PUSH2 0x1F98 JUMP JUMPDEST JUMPDEST PUSH0 PUSH2 0x2138 DUP5 DUP3 DUP6 ADD PUSH2 0x2102 JUMP JUMPDEST SWAP2 POP POP SWAP3 SWAP2 POP POP JUMP JUMPDEST PUSH0 PUSH20 0xFFFFFFFFFFFFFFFFFFFFFFFFFFFFFFFFFFFFFFFF DUP3 AND SWAP1 POP SWAP2 SWAP1 POP JUMP JUMPDEST PUSH0 PUSH2 0x216A DUP3 PUSH2 0x2141 JUMP JUMPDEST SWAP1 POP SWAP2 SWAP1 POP JUMP JUMPDEST PUSH2 0x217A DUP2 PUSH2 0x2160 JUMP JUMPDEST DUP3 MSTORE POP POP JUMP JUMPDEST PUSH0 PUSH1 0x20 DUP3 ADD SWAP1 POP PUSH2 0x2193 PUSH0 DUP4 ADD DUP5 PUSH2 0x2171 JUMP JUMPDEST SWAP3 SWAP2 POP POP JUMP JUMPDEST PUSH2 0x21A2 DUP2 PUSH2 0x2160 JUMP JUMPDEST DUP2 EQ PUSH2 0x21AC JUMPI PUSH0 DUP1 REVERT JUMPDEST POP JUMP JUMPDEST PUSH0 DUP2 CALLDATALOAD SWAP1 POP PUSH2 0x21BD DUP2 PUSH2 0x2199 JUMP JUMPDEST SWAP3 SWAP2 POP POP JUMP JUMPDEST PUSH0 DUP1 PUSH1 0x40 DUP4 DUP6 SUB SLT ISZERO PUSH2 0x21D9 JUMPI PUSH2 0x21D8 PUSH2 0x1F98 JUMP JUMPDEST JUMPDEST PUSH0 PUSH2 0x21E6 DUP6 DUP3 DUP7 ADD PUSH2 0x21AF JUMP JUMPDEST SWAP3 POP POP PUSH1 0x20 PUSH2 0x21F7 DUP6 DUP3 DUP7 ADD PUSH2 0x2102 JUMP JUMPDEST SWAP2 POP POP SWAP3 POP SWAP3 SWAP1 POP JUMP JUMPDEST PUSH0 PUSH1 0x20 DUP3 DUP5 SUB SLT ISZERO PUSH2 0x2216 JUMPI PUSH2 0x2215 PUSH2 0x1F98 JUMP JUMPDEST JUMPDEST PUSH0 PUSH2 0x2223 DUP5 DUP3 DUP6 ADD PUSH2 0x21AF JUMP JUMPDEST SWAP2 POP POP SWAP3 SWAP2 POP POP JUMP JUMPDEST PUSH0 DUP2 MLOAD SWAP1 POP SWAP2 SWAP1 POP JUMP JUMPDEST PUSH0 DUP3 DUP3 MSTORE PUSH1 0x20 DUP3 ADD SWAP1 POP SWAP3 SWAP2 POP POP JUMP JUMPDEST PUSH0 DUP2 SWAP1 POP PUSH1 0x20 DUP3 ADD SWAP1 POP SWAP2 SWAP1 POP JUMP JUMPDEST PUSH2 0x225E DUP2 PUSH2 0x20E3 JUMP JUMPDEST DUP3 MSTORE POP POP JUMP JUMPDEST PUSH0 DUP3 DUP3 MSTORE PUSH1 0x20 DUP3 ADD SWAP1 POP SWAP3 SWAP2 POP POP JUMP JUMPDEST PUSH0 PUSH2 0x227E DUP3 PUSH2 0x2053 JUMP JUMPDEST PUSH2 0x2288 DUP2 DUP6 PUSH2 0x2264 JUMP JUMPDEST SWAP4 POP PUSH2 0x2298 DUP2 DUP6 PUSH1 0x20 DUP7 ADD PUSH2 0x206D JUMP JUMPDEST PUSH2 0x22A1 DUP2 PUSH2 0x207B JUMP JUMPDEST DUP5 ADD SWAP2 POP POP SWAP3 SWAP2 POP POP JUMP JUMPDEST PUSH0 PUSH1 0x40 DUP4 ADD PUSH0 DUP4 ADD MLOAD PUSH2 0x22C1 PUSH0 DUP7 ADD DUP3 PUSH2 0x2255 JUMP JUMPDEST POP PUSH1 0x20 DUP4 ADD MLOAD DUP5 DUP3 SUB PUSH1 0x20 DUP7 ADD MSTORE PUSH2 0x22D9 DUP3 DUP3 PUSH2 0x2274 JUMP JUMPDEST SWAP2 POP POP DUP1 SWAP2 POP POP SWAP3 SWAP2 POP POP JUMP JUMPDEST PUSH0 PUSH2 0x22F1 DUP4 DUP4 PUSH2 0x22AC JUMP JUMPDEST SWAP1 POP SWAP3 SWAP2 POP POP JUMP JUMPDEST PUSH0 PUSH1 0x20 DUP3 ADD SWAP1 POP SWAP2 SWAP1 POP JUMP JUMPDEST PUSH0 PUSH2 0x230F DUP3 PUSH2 0x222C JUMP JUMPDEST PUSH2 0x2319 DUP2 DUP6 PUSH2 0x2236 JUMP JUMPDEST SWAP4 POP DUP4 PUSH1 0x20 DUP3 MUL DUP6 ADD PUSH2 0x232B DUP6 PUSH2 0x2246 JUMP JUMPDEST DUP1 PUSH0 JUMPDEST DUP6 DUP2 LT ISZERO PUSH2 0x2366 JUMPI DUP5 DUP5 SUB DUP10 MSTORE DUP2 MLOAD PUSH2 0x2347 DUP6 DUP3 PUSH2 0x22E6 JUMP JUMPDEST SWAP5 POP PUSH2 0x2352 DUP4 PUSH2 0x22F9 JUMP JUMPDEST SWAP3 POP PUSH1 0x20 DUP11 ADD SWAP10 POP POP PUSH1 0x1 DUP2 ADD SWAP1 POP PUSH2 0x232E JUMP JUMPDEST POP DUP3 SWAP8 POP DUP8 SWAP6 POP POP POP POP POP POP SWAP3 SWAP2 POP POP JUMP JUMPDEST PUSH0 PUSH1 0x20 DUP3 ADD SWAP1 POP DUP2 DUP2 SUB PUSH0 DUP4 ADD MSTORE PUSH2 0x2390 DUP2 DUP5 PUSH2 0x2305 JUMP JUMPDEST SWAP1 POP SWAP3 SWAP2 POP POP JUMP JUMPDEST PUSH0 DUP1 PUSH0 PUSH1 0x60 DUP5 DUP7 SUB SLT ISZERO PUSH2 0x23AF JUMPI PUSH2 0x23AE PUSH2 0x1F98 JUMP JUMPDEST JUMPDEST PUSH0 PUSH2 0x23BC DUP7 DUP3 DUP8 ADD PUSH2 0x21AF JUMP JUMPDEST SWAP4 POP POP PUSH1 0x20 PUSH2 0x23CD DUP7 DUP3 DUP8 ADD PUSH2 0x21AF JUMP JUMPDEST SWAP3 POP POP PUSH1 0x40 PUSH2 0x23DE DUP7 DUP3 DUP8 ADD PUSH2 0x2102 JUMP JUMPDEST SWAP2 POP POP SWAP3 POP SWAP3 POP SWAP3 JUMP JUMPDEST PUSH2 0x23F1 DUP2 PUSH2 0x20E3 JUMP JUMPDEST DUP3 MSTORE POP POP JUMP JUMPDEST PUSH0 PUSH1 0x20 DUP3 ADD SWAP1 POP PUSH2 0x240A PUSH0 DUP4 ADD DUP5 PUSH2 0x23E8 JUMP JUMPDEST SWAP3 SWAP2 POP POP JUMP JUMPDEST PUSH0 DUP1 REVERT JUMPDEST PUSH0 DUP1 REVERT JUMPDEST PUSH32 0x4E487B7100000000000000000000000000000000000000000000000000000000 PUSH0 MSTORE PUSH1 0x41 PUSH1 0x4 MSTORE PUSH1 0x24 PUSH0 REVERT JUMPDEST PUSH2 0x244E DUP3 PUSH2 0x207B JUMP JUMPDEST DUP2 ADD DUP2 DUP2 LT PUSH8 0xFFFFFFFFFFFFFFFF DUP3 GT OR ISZERO PUSH2 0x246D JUMPI PUSH2 0x246C PUSH2 0x2418 JUMP JUMPDEST JUMPDEST DUP1 PUSH1 0x40 MSTORE POP POP POP JUMP JUMPDEST PUSH0 PUSH2 0x247F PUSH2 0x1F8F JUMP JUMPDEST SWAP1 POP PUSH2 0x248B DUP3 DUP3 PUSH2 0x2445 JUMP JUMPDEST SWAP2 SWAP1 POP JUMP JUMPDEST PUSH0 PUSH8 0xFFFFFFFFFFFFFFFF DUP3 GT ISZERO PUSH2 0x24AA JUMPI PUSH2 0x24A9 PUSH2 0x2418 JUMP JUMPDEST JUMPDEST PUSH2 0x24B3 DUP3 PUSH2 0x207B JUMP JUMPDEST SWAP1 POP PUSH1 0x20 DUP2 ADD SWAP1 POP SWAP2 SWAP1 POP JUMP JUMPDEST DUP3 DUP2 DUP4 CALLDATACOPY PUSH0 DUP4 DUP4 ADD MSTORE POP POP POP JUMP JUMPDEST PUSH0 PUSH2 0x24E0 PUSH2 0x24DB DUP5 PUSH2 0x2490 JUMP JUMPDEST PUSH2 0x2476 JUMP JUMPDEST SWAP1 POP DUP3 DUP2 MSTORE PUSH1 0x20 DUP2 ADD DUP5 DUP5 DUP5 ADD GT ISZERO PUSH2 0x24FC JUMPI PUSH2 0x24FB PUSH2 0x2414 JUMP JUMPDEST JUMPDEST PUSH2 0x2507 DUP5 DUP3 DUP6 PUSH2 0x24C0 JUMP JUMPDEST POP SWAP4 SWAP3 POP POP POP JUMP JUMPDEST PUSH0 DUP3 PUSH1 0x1F DUP4 ADD SLT PUSH2 0x2523 JUMPI PUSH2 0x2522 PUSH2 0x2410 JUMP JUMPDEST JUMPDEST DUP2 CALLDATALOAD PUSH2 0x2533 DUP5 DUP3 PUSH1 0x20 DUP7 ADD PUSH2 0x24CE JUMP JUMPDEST SWAP2 POP POP SWAP3 SWAP2 POP POP JUMP JUMPDEST PUSH0 PUSH1 0x20 DUP3 DUP5 SUB SLT ISZERO PUSH2 0x2551 JUMPI PUSH2 0x2550 PUSH2 0x1F98 JUMP JUMPDEST JUMPDEST PUSH0 DUP3 ADD CALLDATALOAD PUSH8 0xFFFFFFFFFFFFFFFF DUP2 GT ISZERO PUSH2 0x256E JUMPI PUSH2 0x256D PUSH2 0x1F9C JUMP JUMPDEST JUMPDEST PUSH2 0x257A DUP5 DUP3 DUP6 ADD PUSH2 0x250F JUMP JUMPDEST SWAP2 POP POP SWAP3 SWAP2 POP POP JUMP JUMPDEST PUSH0 PUSH8 0xFFFFFFFFFFFFFFFF DUP3 GT ISZERO PUSH2 0x259D JUMPI PUSH2 0x259C PUSH2 0x2418 JUMP JUMPDEST JUMPDEST PUSH1 0x20 DUP3 MUL SWAP1 POP PUSH1 0x20 DUP2 ADD SWAP1 POP SWAP2 SWAP1 POP JUMP JUMPDEST PUSH0 DUP1 REVERT JUMPDEST PUSH0 PUSH2 0x25C4 PUSH2 0x25BF DUP5 PUSH2 0x2583 JUMP JUMPDEST PUSH2 0x2476 JUMP JUMPDEST SWAP1 POP DUP1 DUP4 DUP3 MSTORE PUSH1 0x20 DUP3 ADD SWAP1 POP PUSH1 0x20 DUP5 MUL DUP4 ADD DUP6 DUP2 GT ISZERO PUSH2 0x25E7 JUMPI PUSH2 0x25E6 PUSH2 0x25AE JUMP JUMPDEST JUMPDEST DUP4 JUMPDEST DUP2 DUP2 LT ISZERO PUSH2 0x2610 JUMPI DUP1 PUSH2 0x25FC DUP9 DUP3 PUSH2 0x21AF JUMP JUMPDEST DUP5 MSTORE PUSH1 0x20 DUP5 ADD SWAP4 POP POP PUSH1 0x20 DUP2 ADD SWAP1 POP PUSH2 0x25E9 JUMP JUMPDEST POP POP POP SWAP4 SWAP3 POP POP POP JUMP JUMPDEST PUSH0 DUP3 PUSH1 0x1F DUP4 ADD SLT PUSH2 0x262E JUMPI PUSH2 0x262D PUSH2 0x2410 JUMP JUMPDEST JUMPDEST DUP2 CALLDATALOAD PUSH2 0x263E DUP5 DUP3 PUSH1 0x20 DUP7 ADD PUSH2 0x25B2 JUMP JUMPDEST SWAP2 POP POP SWAP3 SWAP2 POP POP JUMP JUMPDEST PUSH0 PUSH8 0xFFFFFFFFFFFFFFFF DUP3 GT ISZERO PUSH2 0x2661 JUMPI PUSH2 0x2660 PUSH2 0x2418 JUMP JUMPDEST JUMPDEST PUSH1 0x20 DUP3 MUL SWAP1 POP PUSH1 0x20 DUP2 ADD SWAP1 POP SWAP2 SWAP1 POP JUMP JUMPDEST PUSH0 PUSH2 0x2684 PUSH2 0x267F DUP5 PUSH2 0x2647 JUMP JUMPDEST PUSH2 0x2476 JUMP JUMPDEST SWAP1 POP DUP1 DUP4 DUP3 MSTORE PUSH1 0x20 DUP3 ADD SWAP1 POP PUSH1 0x20 DUP5 MUL DUP4 ADD DUP6 DUP2 GT ISZERO PUSH2 0x26A7 JUMPI PUSH2 0x26A6 PUSH2 0x25AE JUMP JUMPDEST JUMPDEST DUP4 JUMPDEST DUP2 DUP2 LT ISZERO PUSH2 0x26D0 JUMPI DUP1 PUSH2 0x26BC DUP9 DUP3 PUSH2 0x2102 JUMP JUMPDEST DUP5 MSTORE PUSH1 0x20 DUP5 ADD SWAP4 POP POP PUSH1 0x20 DUP2 ADD SWAP1 POP PUSH2 0x26A9 JUMP JUMPDEST POP POP POP SWAP4 SWAP3 POP POP POP JUMP JUMPDEST PUSH0 DUP3 PUSH1 0x1F DUP4 ADD SLT PUSH2 0x26EE JUMPI PUSH2 0x26ED PUSH2 0x2410 JUMP JUMPDEST JUMPDEST DUP2 CALLDATALOAD PUSH2 0x26FE DUP5 DUP3 PUSH1 0x20 DUP7 ADD PUSH2 0x2672 JUMP JUMPDEST SWAP2 POP POP SWAP3 SWAP2 POP POP JUMP JUMPDEST PUSH0 DUP1 PUSH1 0x40 DUP4 DUP6 SUB SLT ISZERO PUSH2 0x271D JUMPI PUSH2 0x271C PUSH2 0x1F98 JUMP JUMPDEST JUMPDEST PUSH0 DUP4 ADD CALLDATALOAD PUSH8 0xFFFFFFFFFFFFFFFF DUP2 GT ISZERO PUSH2 0x273A JUMPI PUSH2 0x2739 PUSH2 0x1F9C JUMP JUMPDEST JUMPDEST PUSH2 0x2746 DUP6 DUP3 DUP7 ADD PUSH2 0x261A JUMP JUMPDEST SWAP3 POP POP PUSH1 0x20 DUP4 ADD CALLDATALOAD PUSH8 0xFFFFFFFFFFFFFFFF DUP2 GT ISZERO PUSH2 0x2767 JUMPI PUSH2 0x2766 PUSH2 0x1F9C JUMP JUMPDEST JUMPDEST PUSH2 0x2773 DUP6 DUP3 DUP7 ADD PUSH2 0x26DA JUMP JUMPDEST SWAP2 POP POP SWAP3 POP SWAP3 SWAP1 POP JUMP JUMPDEST PUSH0 DUP2 MLOAD SWAP1 POP SWAP2 SWAP1 POP JUMP JUMPDEST PUSH0 DUP3 DUP3 MSTORE PUSH1 0x20 DUP3 ADD SWAP1 POP SWAP3 SWAP2 POP POP JUMP JUMPDEST PUSH0 DUP2 SWAP1 POP PUSH1 0x20 DUP3 ADD SWAP1 POP SWAP2 SWAP1 POP JUMP JUMPDEST PUSH0 PUSH2 0x27B1 DUP4 DUP4 PUSH2 0x2255 JUMP JUMPDEST PUSH1 0x20 DUP4 ADD SWAP1 POP SWAP3 SWAP2 POP POP JUMP JUMPDEST PUSH0 PUSH1 0x20 DUP3 ADD SWAP1 POP SWAP2 SWAP1 POP JUMP JUMPDEST PUSH0 PUSH2 0x27D3 DUP3 PUSH2 0x277D JUMP JUMPDEST PUSH2 0x27DD DUP2 DUP6 PUSH2 0x2787 JUMP JUMPDEST SWAP4 POP PUSH2 0x27E8 DUP4 PUSH2 0x2797 JUMP JUMPDEST DUP1 PUSH0 JUMPDEST DUP4 DUP2 LT ISZERO PUSH2 0x2818 JUMPI DUP2 MLOAD PUSH2 0x27FF DUP9 DUP3 PUSH2 0x27A6 JUMP JUMPDEST SWAP8 POP PUSH2 0x280A DUP4 PUSH2 0x27BD JUMP JUMPDEST SWAP3 POP POP PUSH1 0x1 DUP2 ADD SWAP1 POP PUSH2 0x27EB JUMP JUMPDEST POP DUP6 SWAP4 POP POP POP POP SWAP3 SWAP2 POP POP JUMP JUMPDEST PUSH0 PUSH1 0x20 DUP3 ADD SWAP1 POP DUP2 DUP2 SUB PUSH0 DUP4 ADD MSTORE PUSH2 0x283D DUP2 DUP5 PUSH2 0x27C9 JUMP JUMPDEST SWAP1 POP SWAP3 SWAP2 POP POP JUMP JUMPDEST PUSH2 0x284E DUP2 PUSH2 0x2020 JUMP JUMPDEST DUP2 EQ PUSH2 0x2858 JUMPI PUSH0 DUP1 REVERT JUMPDEST POP JUMP JUMPDEST PUSH0 DUP2 CALLDATALOAD SWAP1 POP PUSH2 0x2869 DUP2 PUSH2 0x2845 JUMP JUMPDEST SWAP3 SWAP2 POP POP JUMP JUMPDEST PUSH0 DUP1 PUSH1 0x40 DUP4 DUP6 SUB SLT ISZERO PUSH2 0x2885 JUMPI PUSH2 0x2884 PUSH2 0x1F98 JUMP JUMPDEST JUMPDEST PUSH0 PUSH2 0x2892 DUP6 DUP3 DUP7 ADD PUSH2 0x21AF JUMP JUMPDEST SWAP3 POP POP PUSH1 0x20 PUSH2 0x28A3 DUP6 DUP3 DUP7 ADD PUSH2 0x285B JUMP JUMPDEST SWAP2 POP POP SWAP3 POP SWAP3 SWAP1 POP JUMP JUMPDEST PUSH0 PUSH8 0xFFFFFFFFFFFFFFFF DUP3 GT ISZERO PUSH2 0x28C7 JUMPI PUSH2 0x28C6 PUSH2 0x2418 JUMP JUMPDEST JUMPDEST PUSH2 0x28D0 DUP3 PUSH2 0x207B JUMP JUMPDEST SWAP1 POP PUSH1 0x20 DUP2 ADD SWAP1 POP SWAP2 SWAP1 POP JUMP JUMPDEST PUSH0 PUSH2 0x28EF PUSH2 0x28EA DUP5 PUSH2 0x28AD JUMP JUMPDEST PUSH2 0x2476 JUMP JUMPDEST SWAP1 POP DUP3 DUP2 MSTORE PUSH1 0x20 DUP2 ADD DUP5 DUP5 DUP5 ADD GT ISZERO PUSH2 0x290B JUMPI PUSH2 0x290A PUSH2 0x2414 JUMP JUMPDEST JUMPDEST PUSH2 0x2916 DUP5 DUP3 DUP6 PUSH2 0x24C0 JUMP JUMPDEST POP SWAP4 SWAP3 POP POP POP JUMP JUMPDEST PUSH0 DUP3 PUSH1 0x1F DUP4 ADD SLT PUSH2 0x2932 JUMPI PUSH2 0x2931 PUSH2 0x2410 JUMP JUMPDEST JUMPDEST DUP2 CALLDATALOAD PUSH2 0x2942 DUP5 DUP3 PUSH1 0x20 DUP7 ADD PUSH2 0x28DD JUMP JUMPDEST SWAP2 POP POP SWAP3 SWAP2 POP POP JUMP JUMPDEST PUSH0 DUP1 PUSH0 DUP1 PUSH1 0x80 DUP6 DUP8 SUB SLT ISZERO PUSH2 0x2963 JUMPI PUSH2 0x2962 PUSH2 0x1F98 JUMP JUMPDEST JUMPDEST PUSH0 PUSH2 0x2970 DUP8 DUP3 DUP9 ADD PUSH2 0x21AF JUMP JUMPDEST SWAP5 POP POP PUSH1 0x20 PUSH2 0x2981 DUP8 DUP3 DUP9 ADD PUSH2 0x21AF JUMP JUMPDEST SWAP4 POP POP PUSH1 0x40 PUSH2 0x2992 DUP8 DUP3 DUP9 ADD PUSH2 0x2102 JUMP JUMPDEST SWAP3 POP POP PUSH1 0x60 DUP6 ADD CALLDATALOAD PUSH8 0xFFFFFFFFFFFFFFFF DUP2 GT ISZERO PUSH2 0x29B3 JUMPI PUSH2 0x29B2 PUSH2 0x1F9C JUMP JUMPDEST JUMPDEST PUSH2 0x29BF DUP8 DUP3 DUP9 ADD PUSH2 0x291E JUMP JUMPDEST SWAP2 POP POP SWAP3 SWAP6 SWAP2 SWAP5 POP SWAP3 POP JUMP JUMPDEST PUSH0 DUP1 PUSH1 0x40 DUP4 DUP6 SUB SLT ISZERO PUSH2 0x29E1 JUMPI PUSH2 0x29E0 PUSH2 0x1F98 JUMP JUMPDEST JUMPDEST PUSH0 PUSH2 0x29EE DUP6 DUP3 DUP7 ADD PUSH2 0x21AF JUMP JUMPDEST SWAP3 POP POP PUSH1 0x20 PUSH2 0x29FF DUP6 DUP3 DUP7 ADD PUSH2 0x21AF JUMP JUMPDEST SWAP2 POP POP SWAP3 POP SWAP3 SWAP1 POP JUMP JUMPDEST PUSH32 0x4E487B7100000000000000000000000000000000000000000000000000000000 PUSH0 MSTORE PUSH1 0x22 PUSH1 0x4 MSTORE PUSH1 0x24 PUSH0 REVERT JUMPDEST PUSH0 PUSH1 0x2 DUP3 DIV SWAP1 POP PUSH1 0x1 DUP3 AND DUP1 PUSH2 0x2A4D JUMPI PUSH1 0x7F DUP3 AND SWAP2 POP JUMPDEST PUSH1 0x20 DUP3 LT DUP2 SUB PUSH2 0x2A60 JUMPI PUSH2 0x2A5F PUSH2 0x2A09 JUMP JUMPDEST JUMPDEST POP SWAP2 SWAP1 POP JUMP JUMPDEST PUSH32 0x4E487B7100000000000000000000000000000000000000000000000000000000 PUSH0 MSTORE PUSH1 0x32 PUSH1 0x4 MSTORE PUSH1 0x24 PUSH0 REVERT JUMPDEST PUSH0 PUSH1 0x60 DUP3 ADD SWAP1 POP PUSH2 0x2AA6 PUSH0 DUP4 ADD DUP7 PUSH2 0x2171 JUMP JUMPDEST PUSH2 0x2AB3 PUSH1 0x20 DUP4 ADD DUP6 PUSH2 0x23E8 JUMP JUMPDEST PUSH2 0x2AC0 PUSH1 0x40 DUP4 ADD DUP5 PUSH2 0x2171 JUMP JUMPDEST SWAP5 SWAP4 POP POP POP POP JUMP JUMPDEST PUSH32 0x4D617820737570706C7920726561636865640000000000000000000000000000 PUSH0 DUP3 ADD MSTORE POP JUMP JUMPDEST PUSH0 PUSH2 0x2AFC PUSH1 0x12 DUP4 PUSH2 0x205D JUMP JUMPDEST SWAP2 POP PUSH2 0x2B07 DUP3 PUSH2 0x2AC8 JUMP JUMPDEST PUSH1 0x20 DUP3 ADD SWAP1 POP SWAP2 SWAP1 POP JUMP JUMPDEST PUSH0 PUSH1 0x20 DUP3 ADD SWAP1 POP DUP2 DUP2 SUB PUSH0 DUP4 ADD MSTORE PUSH2 0x2B29 DUP2 PUSH2 0x2AF0 JUMP JUMPDEST SWAP1 POP SWAP2 SWAP1 POP JUMP JUMPDEST PUSH32 0x4D6178204D696E74207065722077616C6C657420726561636865640000000000 PUSH0 DUP3 ADD MSTORE POP JUMP JUMPDEST PUSH0 PUSH2 0x2B64 PUSH1 0x1B DUP4 PUSH2 0x205D JUMP JUMPDEST SWAP2 POP PUSH2 0x2B6F DUP3 PUSH2 0x2B30 JUMP JUMPDEST PUSH1 0x20 DUP3 ADD SWAP1 POP SWAP2 SWAP1 POP JUMP JUMPDEST PUSH0 PUSH1 0x20 DUP3 ADD SWAP1 POP DUP2 DUP2 SUB PUSH0 DUP4 ADD MSTORE PUSH2 0x2B91 DUP2 PUSH2 0x2B58 JUMP JUMPDEST SWAP1 POP SWAP2 SWAP1 POP JUMP JUMPDEST PUSH32 0x4E487B7100000000000000000000000000000000000000000000000000000000 PUSH0 MSTORE PUSH1 0x11 PUSH1 0x4 MSTORE PUSH1 0x24 PUSH0 REVERT JUMPDEST PUSH0 PUSH2 0x2BCF DUP3 PUSH2 0x20E3 JUMP JUMPDEST SWAP2 POP PUSH32 0xFFFFFFFFFFFFFFFFFFFFFFFFFFFFFFFFFFFFFFFFFFFFFFFFFFFFFFFFFFFFFFFF DUP3 SUB PUSH2 0x2C01 JUMPI PUSH2 0x2C00 PUSH2 0x2B98 JUMP JUMPDEST JUMPDEST PUSH1 0x1 DUP3 ADD SWAP1 POP SWAP2 SWAP1 POP JUMP JUMPDEST PUSH0 DUP2 SWAP1 POP DUP2 PUSH0 MSTORE PUSH1 0x20 PUSH0 KECCAK256 SWAP1 POP SWAP2 SWAP1 POP JUMP JUMPDEST PUSH0 PUSH1 0x20 PUSH1 0x1F DUP4 ADD DIV SWAP1 POP SWAP2 SWAP1 POP JUMP JUMPDEST PUSH0 DUP3 DUP3 SHL SWAP1 POP SWAP3 SWAP2 POP POP JUMP JUMPDEST PUSH0 PUSH1 0x8 DUP4 MUL PUSH2 0x2C68 PUSH32 0xFFFFFFFFFFFFFFFFFFFFFFFFFFFFFFFFFFFFFFFFFFFFFFFFFFFFFFFFFFFFFFFF DUP3 PUSH2 0x2C2D JUMP JUMPDEST PUSH2 0x2C72 DUP7 DUP4 PUSH2 0x2C2D JUMP JUMPDEST SWAP6 POP DUP1 NOT DUP5 AND SWAP4 POP DUP1 DUP7 AND DUP5 OR SWAP3 POP POP POP SWAP4 SWAP3 POP POP POP JUMP JUMPDEST PUSH0 DUP2 SWAP1 POP SWAP2 SWAP1 POP JUMP JUMPDEST PUSH0 PUSH2 0x2CAD PUSH2 0x2CA8 PUSH2 0x2CA3 DUP5 PUSH2 0x20E3 JUMP JUMPDEST PUSH2 0x2C8A JUMP JUMPDEST PUSH2 0x20E3 JUMP JUMPDEST SWAP1 POP SWAP2 SWAP1 POP JUMP JUMPDEST PUSH0 DUP2 SWAP1 POP SWAP2 SWAP1 POP JUMP JUMPDEST PUSH2 0x2CC6 DUP4 PUSH2 0x2C93 JUMP JUMPDEST PUSH2 0x2CDA PUSH2 0x2CD2 DUP3 PUSH2 0x2CB4 JUMP JUMPDEST DUP5 DUP5 SLOAD PUSH2 0x2C39 JUMP JUMPDEST DUP3 SSTORE POP POP POP POP JUMP JUMPDEST PUSH0 SWAP1 JUMP JUMPDEST PUSH2 0x2CEE PUSH2 0x2CE2 JUMP JUMPDEST PUSH2 0x2CF9 DUP2 DUP5 DUP5 PUSH2 0x2CBD JUMP JUMPDEST POP POP POP JUMP JUMPDEST JUMPDEST DUP2 DUP2 LT ISZERO PUSH2 0x2D1C JUMPI PUSH2 0x2D11 PUSH0 DUP3 PUSH2 0x2CE6 JUMP JUMPDEST PUSH1 0x1 DUP2 ADD SWAP1 POP PUSH2 0x2CFF JUMP JUMPDEST POP POP JUMP JUMPDEST PUSH1 0x1F DUP3 GT ISZERO PUSH2 0x2D61 JUMPI PUSH2 0x2D32 DUP2 PUSH2 0x2C0C JUMP JUMPDEST PUSH2 0x2D3B DUP5 PUSH2 0x2C1E JUMP JUMPDEST DUP2 ADD PUSH1 0x20 DUP6 LT ISZERO PUSH2 0x2D4A JUMPI DUP2 SWAP1 POP JUMPDEST PUSH2 0x2D5E PUSH2 0x2D56 DUP6 PUSH2 0x2C1E JUMP JUMPDEST DUP4 ADD DUP3 PUSH2 0x2CFE JUMP JUMPDEST POP POP JUMPDEST POP POP POP JUMP JUMPDEST PUSH0 DUP3 DUP3 SHR SWAP1 POP SWAP3 SWAP2 POP POP JUMP JUMPDEST PUSH0 PUSH2 0x2D81 PUSH0 NOT DUP5 PUSH1 0x8 MUL PUSH2 0x2D66 JUMP JUMPDEST NOT DUP1 DUP4 AND SWAP2 POP POP SWAP3 SWAP2 POP POP JUMP JUMPDEST PUSH0 PUSH2 0x2D99 DUP4 DUP4 PUSH2 0x2D72 JUMP JUMPDEST SWAP2 POP DUP3 PUSH1 0x2 MUL DUP3 OR SWAP1 POP SWAP3 SWAP2 POP POP JUMP JUMPDEST PUSH2 0x2DB2 DUP3 PUSH2 0x2053 JUMP JUMPDEST PUSH8 0xFFFFFFFFFFFFFFFF DUP2 GT ISZERO PUSH2 0x2DCB JUMPI PUSH2 0x2DCA PUSH2 0x2418 JUMP JUMPDEST JUMPDEST PUSH2 0x2DD5 DUP3 SLOAD PUSH2 0x2A36 JUMP JUMPDEST PUSH2 0x2DE0 DUP3 DUP3 DUP6 PUSH2 0x2D20 JUMP JUMPDEST PUSH0 PUSH1 0x20 SWAP1 POP PUSH1 0x1F DUP4 GT PUSH1 0x1 DUP2 EQ PUSH2 0x2E11 JUMPI PUSH0 DUP5 ISZERO PUSH2 0x2DFF JUMPI DUP3 DUP8 ADD MLOAD SWAP1 POP JUMPDEST PUSH2 0x2E09 DUP6 DUP3 PUSH2 0x2D8E JUMP JUMPDEST DUP7 SSTORE POP PUSH2 0x2E70 JUMP JUMPDEST PUSH1 0x1F NOT DUP5 AND PUSH2 0x2E1F DUP7 PUSH2 0x2C0C JUMP JUMPDEST PUSH0 JUMPDEST DUP3 DUP2 LT ISZERO PUSH2 0x2E46 JUMPI DUP5 DUP10 ADD MLOAD DUP3 SSTORE PUSH1 0x1 DUP3 ADD SWAP2 POP PUSH1 0x20 DUP6 ADD SWAP5 POP PUSH1 0x20 DUP2 ADD SWAP1 POP PUSH2 0x2E21 JUMP JUMPDEST DUP7 DUP4 LT ISZERO PUSH2 0x2E63 JUMPI DUP5 DUP10 ADD MLOAD PUSH2 0x2E5F PUSH1 0x1F DUP10 AND DUP3 PUSH2 0x2D72 JUMP JUMPDEST DUP4 SSTORE POP JUMPDEST PUSH1 0x1 PUSH1 0x2 DUP9 MUL ADD DUP9 SSTORE POP POP POP JUMPDEST POP POP POP POP POP POP JUMP JUMPDEST PUSH0 DUP2 SWAP1 POP SWAP3 SWAP2 POP POP JUMP JUMPDEST PUSH0 PUSH2 0x2E8C DUP3 PUSH2 0x2053 JUMP JUMPDEST PUSH2 0x2E96 DUP2 DUP6 PUSH2 0x2E78 JUMP JUMPDEST SWAP4 POP PUSH2 0x2EA6 DUP2 DUP6 PUSH1 0x20 DUP7 ADD PUSH2 0x206D JUMP JUMPDEST DUP1 DUP5 ADD SWAP2 POP POP SWAP3 SWAP2 POP POP JUMP JUMPDEST PUSH0 PUSH2 0x2EBD DUP3 DUP6 PUSH2 0x2E82 JUMP JUMPDEST SWAP2 POP PUSH2 0x2EC9 DUP3 DUP5 PUSH2 0x2E82 JUMP JUMPDEST SWAP2 POP DUP2 SWAP1 POP SWAP4 SWAP3 POP POP POP JUMP JUMPDEST PUSH32 0x536F756C626F756E643A205472616E73666572206661696C6564000000000000 PUSH0 DUP3 ADD MSTORE POP JUMP JUMPDEST PUSH0 PUSH2 0x2F09 PUSH1 0x1A DUP4 PUSH2 0x205D JUMP JUMPDEST SWAP2 POP PUSH2 0x2F14 DUP3 PUSH2 0x2ED5 JUMP JUMPDEST PUSH1 0x20 DUP3 ADD SWAP1 POP SWAP2 SWAP1 POP JUMP JUMPDEST PUSH0 PUSH1 0x20 DUP3 ADD SWAP1 POP DUP2 DUP2 SUB PUSH0 DUP4 ADD MSTORE PUSH2 0x2F36 DUP2 PUSH2 0x2EFD JUMP JUMPDEST SWAP1 POP SWAP2 SWAP1 POP JUMP JUMPDEST PUSH0 DUP2 MLOAD SWAP1 POP SWAP2 SWAP1 POP JUMP JUMPDEST PUSH0 DUP3 DUP3 MSTORE PUSH1 0x20 DUP3 ADD SWAP1 POP SWAP3 SWAP2 POP POP JUMP JUMPDEST PUSH0 PUSH2 0x2F61 DUP3 PUSH2 0x2F3D JUMP JUMPDEST PUSH2 0x2F6B DUP2 DUP6 PUSH2 0x2F47 JUMP JUMPDEST SWAP4 POP PUSH2 0x2F7B DUP2 DUP6 PUSH1 0x20 DUP7 ADD PUSH2 0x206D JUMP JUMPDEST PUSH2 0x2F84 DUP2 PUSH2 0x207B JUMP JUMPDEST DUP5 ADD SWAP2 POP POP SWAP3 SWAP2 POP POP JUMP JUMPDEST PUSH0 PUSH1 0x80 DUP3 ADD SWAP1 POP PUSH2 0x2FA2 PUSH0 DUP4 ADD DUP8 PUSH2 0x2171 JUMP JUMPDEST PUSH2 0x2FAF PUSH1 0x20 DUP4 ADD DUP7 PUSH2 0x2171 JUMP JUMPDEST PUSH2 0x2FBC PUSH1 0x40 DUP4 ADD DUP6 PUSH2 0x23E8 JUMP JUMPDEST DUP2 DUP2 SUB PUSH1 0x60 DUP4 ADD MSTORE PUSH2 0x2FCE DUP2 DUP5 PUSH2 0x2F57 JUMP JUMPDEST SWAP1 POP SWAP6 SWAP5 POP POP POP POP POP JUMP JUMPDEST PUSH0 DUP2 MLOAD SWAP1 POP PUSH2 0x2FE7 DUP2 PUSH2 0x1FCB JUMP JUMPDEST SWAP3 SWAP2 POP POP JUMP JUMPDEST PUSH0 PUSH1 0x20 DUP3 DUP5 SUB SLT ISZERO PUSH2 0x3002 JUMPI PUSH2 0x3001 PUSH2 0x1F98 JUMP JUMPDEST JUMPDEST PUSH0 PUSH2 0x300F DUP5 DUP3 DUP6 ADD PUSH2 0x2FD9 JUMP JUMPDEST SWAP2 POP POP SWAP3 SWAP2 POP POP JUMP JUMPDEST PUSH32 0x4E487B7100000000000000000000000000000000000000000000000000000000 PUSH0 MSTORE PUSH1 0x12 PUSH1 0x4 MSTORE PUSH1 0x24 PUSH0 REVERT JUMPDEST PUSH0 PUSH1 0x40 DUP3 ADD SWAP1 POP PUSH2 0x3058 PUSH0 DUP4 ADD DUP6 PUSH2 0x2171 JUMP JUMPDEST PUSH2 0x3065 PUSH1 0x20 DUP4 ADD DUP5 PUSH2 0x23E8 JUMP JUMPDEST SWAP4 SWAP3 POP POP POP JUMP INVALID LOG2 PUSH5 0x6970667358 0x22 SLT KECCAK256 PUSH29 0x4D13BB229D68595856ABE90B5A8A1BBF94C213A88BC54F9D86619697FB 0xF8 SSTORE PUSH5 0x736F6C6343 STOP ADDMOD BYTE STOP CALLER "
		},
		"gasEstimates": {
			"creation": {
				"codeDepositCost": "2490000",
				"executionCost": "infinite",
				"totalCost": "infinite"
			},
			"external": {
				"MAX_SUPPLY()": "2470",
				"PaxLimit()": "2511",
				"approve(address,uint256)": "infinite",
				"balanceOf(address)": "infinite",
				"batchMint(address[],uint256[])": "infinite",
				"getApproved(uint256)": "infinite",
				"getNFTid(address)": "infinite",
				"isApprovedForAll(address,address)": "infinite",
				"mint(address,uint256)": "infinite",
				"name()": "infinite",
				"owner()": "2626",
				"ownerOf(uint256)": "infinite",
				"renounceOwnership()": "infinite",
				"safeTransferFrom(address,address,uint256)": "infinite",
				"safeTransferFrom(address,address,uint256,bytes)": "infinite",
				"setApprovalForAll(address,bool)": "infinite",
				"setBaseURI(string)": "infinite",
				"supportsInterface(bytes4)": "787",
				"symbol()": "infinite",
				"tokenURI(uint256)": "infinite",
				"transferFrom(address,address,uint256)": "infinite",
				"transferOwnership(address)": "infinite"
			},
			"internal": {
				"_baseURI()": "infinite",
				"_update(address,uint256,address)": "infinite"
			}
		},
		"methodIdentifiers": {
			"MAX_SUPPLY()": "32cb6b0c",
			"PaxLimit()": "6aaadb1c",
			"approve(address,uint256)": "095ea7b3",
			"balanceOf(address)": "70a08231",
			"batchMint(address[],uint256[])": "68573107",
			"getApproved(uint256)": "081812fc",
			"getNFTid(address)": "1d1b8647",
			"isApprovedForAll(address,address)": "e985e9c5",
			"mint(address,uint256)": "40c10f19",
			"name()": "06fdde03",
			"owner()": "8da5cb5b",
			"ownerOf(uint256)": "6352211e",
			"renounceOwnership()": "715018a6",
			"safeTransferFrom(address,address,uint256)": "42842e0e",
			"safeTransferFrom(address,address,uint256,bytes)": "b88d4fde",
			"setApprovalForAll(address,bool)": "a22cb465",
			"setBaseURI(string)": "55f804b3",
			"supportsInterface(bytes4)": "01ffc9a7",
			"symbol()": "95d89b41",
			"tokenURI(uint256)": "c87b56dd",
			"transferFrom(address,address,uint256)": "23b872dd",
			"transferOwnership(address)": "f2fde38b"
		}
	},
	"abi": [
		{
			"inputs": [
				{
					"internalType": "address",
					"name": "initialOwner",
					"type": "address"
				},
				{
					"internalType": "uint256",
					"name": "maxSupply",
					"type": "uint256"
				},
				{
					"internalType": "string",
					"name": "name",
					"type": "string"
				},
				{
					"internalType": "string",
					"name": "symbol",
					"type": "string"
				},
				{
					"internalType": "bool",
					"name": "limit",
					"type": "bool"
				},
				{
					"internalType": "string",
					"name": "baseURI",
					"type": "string"
				}
			],
			"stateMutability": "nonpayable",
			"type": "constructor"
		},
		{
			"inputs": [
				{
					"internalType": "address",
					"name": "sender",
					"type": "address"
				},
				{
					"internalType": "uint256",
					"name": "tokenId",
					"type": "uint256"
				},
				{
					"internalType": "address",
					"name": "owner",
					"type": "address"
				}
			],
			"name": "ERC721IncorrectOwner",
			"type": "error"
		},
		{
			"inputs": [
				{
					"internalType": "address",
					"name": "operator",
					"type": "address"
				},
				{
					"internalType": "uint256",
					"name": "tokenId",
					"type": "uint256"
				}
			],
			"name": "ERC721InsufficientApproval",
			"type": "error"
		},
		{
			"inputs": [
				{
					"internalType": "address",
					"name": "approver",
					"type": "address"
				}
			],
			"name": "ERC721InvalidApprover",
			"type": "error"
		},
		{
			"inputs": [
				{
					"internalType": "address",
					"name": "operator",
					"type": "address"
				}
			],
			"name": "ERC721InvalidOperator",
			"type": "error"
		},
		{
			"inputs": [
				{
					"internalType": "address",
					"name": "owner",
					"type": "address"
				}
			],
			"name": "ERC721InvalidOwner",
			"type": "error"
		},
		{
			"inputs": [
				{
					"internalType": "address",
					"name": "receiver",
					"type": "address"
				}
			],
			"name": "ERC721InvalidReceiver",
			"type": "error"
		},
		{
			"inputs": [
				{
					"internalType": "address",
					"name": "sender",
					"type": "address"
				}
			],
			"name": "ERC721InvalidSender",
			"type": "error"
		},
		{
			"inputs": [
				{
					"internalType": "uint256",
					"name": "tokenId",
					"type": "uint256"
				}
			],
			"name": "ERC721NonexistentToken",
			"type": "error"
		},
		{
			"inputs": [
				{
					"internalType": "address",
					"name": "owner",
					"type": "address"
				}
			],
			"name": "OwnableInvalidOwner",
			"type": "error"
		},
		{
			"inputs": [
				{
					"internalType": "address",
					"name": "account",
					"type": "address"
				}
			],
			"name": "OwnableUnauthorizedAccount",
			"type": "error"
		},
		{
			"anonymous": false,
			"inputs": [
				{
					"indexed": true,
					"internalType": "address",
					"name": "owner",
					"type": "address"
				},
				{
					"indexed": true,
					"internalType": "address",
					"name": "approved",
					"type": "address"
				},
				{
					"indexed": true,
					"internalType": "uint256",
					"name": "tokenId",
					"type": "uint256"
				}
			],
			"name": "Approval",
			"type": "event"
		},
		{
			"anonymous": false,
			"inputs": [
				{
					"indexed": true,
					"internalType": "address",
					"name": "owner",
					"type": "address"
				},
				{
					"indexed": true,
					"internalType": "address",
					"name": "operator",
					"type": "address"
				},
				{
					"indexed": false,
					"internalType": "bool",
					"name": "approved",
					"type": "bool"
				}
			],
			"name": "ApprovalForAll",
			"type": "event"
		},
		{
			"anonymous": false,
			"inputs": [
				{
					"indexed": true,
					"internalType": "address",
					"name": "previousOwner",
					"type": "address"
				},
				{
					"indexed": true,
					"internalType": "address",
					"name": "newOwner",
					"type": "address"
				}
			],
			"name": "OwnershipTransferred",
			"type": "event"
		},
		{
			"anonymous": false,
			"inputs": [
				{
					"indexed": true,
					"internalType": "address",
					"name": "from",
					"type": "address"
				},
				{
					"indexed": true,
					"internalType": "address",
					"name": "to",
					"type": "address"
				},
				{
					"indexed": true,
					"internalType": "uint256",
					"name": "tokenId",
					"type": "uint256"
				}
			],
			"name": "Transfer",
			"type": "event"
		},
		{
			"inputs": [],
			"name": "MAX_SUPPLY",
			"outputs": [
				{
					"internalType": "uint256",
					"name": "",
					"type": "uint256"
				}
			],
			"stateMutability": "view",
			"type": "function"
		},
		{
			"inputs": [],
			"name": "PaxLimit",
			"outputs": [
				{
					"internalType": "bool",
					"name": "",
					"type": "bool"
				}
			],
			"stateMutability": "view",
			"type": "function"
		},
		{
			"inputs": [
				{
					"internalType": "address",
					"name": "to",
					"type": "address"
				},
				{
					"internalType": "uint256",
					"name": "tokenId",
					"type": "uint256"
				}
			],
			"name": "approve",
			"outputs": [],
			"stateMutability": "nonpayable",
			"type": "function"
		},
		{
			"inputs": [
				{
					"internalType": "address",
					"name": "owner",
					"type": "address"
				}
			],
			"name": "balanceOf",
			"outputs": [
				{
					"internalType": "uint256",
					"name": "",
					"type": "uint256"
				}
			],
			"stateMutability": "view",
			"type": "function"
		},
		{
			"inputs": [
				{
					"internalType": "address[]",
					"name": "to",
					"type": "address[]"
				},
				{
					"internalType": "uint256[]",
					"name": "id",
					"type": "uint256[]"
				}
			],
			"name": "batchMint",
			"outputs": [
				{
					"internalType": "uint256[]",
					"name": "",
					"type": "uint256[]"
				}
			],
			"stateMutability": "nonpayable",
			"type": "function"
		},
		{
			"inputs": [
				{
					"internalType": "uint256",
					"name": "tokenId",
					"type": "uint256"
				}
			],
			"name": "getApproved",
			"outputs": [
				{
					"internalType": "address",
					"name": "",
					"type": "address"
				}
			],
			"stateMutability": "view",
			"type": "function"
		},
		{
			"inputs": [
				{
					"internalType": "address",
					"name": "owner",
					"type": "address"
				}
			],
			"name": "getNFTid",
			"outputs": [
				{
					"components": [
						{
							"internalType": "uint256",
							"name": "tokenId",
							"type": "uint256"
						},
						{
							"internalType": "string",
							"name": "tokenURI",
							"type": "string"
						}
					],
					"internalType": "struct NFT.TokenInfo[]",
					"name": "",
					"type": "tuple[]"
				}
			],
			"stateMutability": "view",
			"type": "function"
		},
		{
			"inputs": [
				{
					"internalType": "address",
					"name": "owner",
					"type": "address"
				},
				{
					"internalType": "address",
					"name": "operator",
					"type": "address"
				}
			],
			"name": "isApprovedForAll",
			"outputs": [
				{
					"internalType": "bool",
					"name": "",
					"type": "bool"
				}
			],
			"stateMutability": "view",
			"type": "function"
		},
		{
			"inputs": [
				{
					"internalType": "address",
					"name": "to",
					"type": "address"
				},
				{
					"internalType": "uint256",
					"name": "id",
					"type": "uint256"
				}
			],
			"name": "mint",
			"outputs": [
				{
					"internalType": "uint256",
					"name": "",
					"type": "uint256"
				}
			],
			"stateMutability": "nonpayable",
			"type": "function"
		},
		{
			"inputs": [],
			"name": "name",
			"outputs": [
				{
					"internalType": "string",
					"name": "",
					"type": "string"
				}
			],
			"stateMutability": "view",
			"type": "function"
		},
		{
			"inputs": [],
			"name": "owner",
			"outputs": [
				{
					"internalType": "address",
					"name": "",
					"type": "address"
				}
			],
			"stateMutability": "view",
			"type": "function"
		},
		{
			"inputs": [
				{
					"internalType": "uint256",
					"name": "tokenId",
					"type": "uint256"
				}
			],
			"name": "ownerOf",
			"outputs": [
				{
					"internalType": "address",
					"name": "",
					"type": "address"
				}
			],
			"stateMutability": "view",
			"type": "function"
		},
		{
			"inputs": [],
			"name": "renounceOwnership",
			"outputs": [],
			"stateMutability": "nonpayable",
			"type": "function"
		},
		{
			"inputs": [
				{
					"internalType": "address",
					"name": "from",
					"type": "address"
				},
				{
					"internalType": "address",
					"name": "to",
					"type": "address"
				},
				{
					"internalType": "uint256",
					"name": "tokenId",
					"type": "uint256"
				}
			],
			"name": "safeTransferFrom",
			"outputs": [],
			"stateMutability": "nonpayable",
			"type": "function"
		},
		{
			"inputs": [
				{
					"internalType": "address",
					"name": "from",
					"type": "address"
				},
				{
					"internalType": "address",
					"name": "to",
					"type": "address"
				},
				{
					"internalType": "uint256",
					"name": "tokenId",
					"type": "uint256"
				},
				{
					"internalType": "bytes",
					"name": "data",
					"type": "bytes"
				}
			],
			"name": "safeTransferFrom",
			"outputs": [],
			"stateMutability": "nonpayable",
			"type": "function"
		},
		{
			"inputs": [
				{
					"internalType": "address",
					"name": "operator",
					"type": "address"
				},
				{
					"internalType": "bool",
					"name": "approved",
					"type": "bool"
				}
			],
			"name": "setApprovalForAll",
			"outputs": [],
			"stateMutability": "nonpayable",
			"type": "function"
		},
		{
			"inputs": [
				{
					"internalType": "string",
					"name": "baseURI",
					"type": "string"
				}
			],
			"name": "setBaseURI",
			"outputs": [],
			"stateMutability": "nonpayable",
			"type": "function"
		},
		{
			"inputs": [
				{
					"internalType": "bytes4",
					"name": "interfaceId",
					"type": "bytes4"
				}
			],
			"name": "supportsInterface",
			"outputs": [
				{
					"internalType": "bool",
					"name": "",
					"type": "bool"
				}
			],
			"stateMutability": "view",
			"type": "function"
		},
		{
			"inputs": [],
			"name": "symbol",
			"outputs": [
				{
					"internalType": "string",
					"name": "",
					"type": "string"
				}
			],
			"stateMutability": "view",
			"type": "function"
		},
		{
			"inputs": [
				{
					"internalType": "uint256",
					"name": "tokenId",
					"type": "uint256"
				}
			],
			"name": "tokenURI",
			"outputs": [
				{
					"internalType": "string",
					"name": "",
					"type": "string"
				}
			],
			"stateMutability": "view",
			"type": "function"
		},
		{
			"inputs": [
				{
					"internalType": "address",
					"name": "from",
					"type": "address"
				},
				{
					"internalType": "address",
					"name": "to",
					"type": "address"
				},
				{
					"internalType": "uint256",
					"name": "tokenId",
					"type": "uint256"
				}
			],
			"name": "transferFrom",
			"outputs": [],
			"stateMutability": "nonpayable",
			"type": "function"
		},
		{
			"inputs": [
				{
					"internalType": "address",
					"name": "newOwner",
					"type": "address"
				}
			],
			"name": "transferOwnership",
			"outputs": [],
			"stateMutability": "nonpayable",
			"type": "function"
		}
	]
}